:0FA19300434F4D2D4F4E00434F4D2D4F4E20004B
:109DCA0041049200011800011900011A28410B1FD1
:109DDA0000C104C106C10AC109C1004105D300413D
:109DEA00035F004103620041036500410B1C00C18F
:109DFA0002C105C108C10CC107410B1B00410B1E62
:069E0A00004203600000AD
:10384900E490000CF0FFFEC201C20B900363F0A3E9
:10385900F08F828E8374FFF00FBF00010EE4B5076D
:10386900F0EEB480EC7F0A7E0012A00D12A16190E7
:10387900000CEFF0600812A16190000CEFF012A0AB
:103889009A90000CE070057F01129FDB12A09AD27A
:103899000A127098E43390000CF0129FA812A09AB3
:1038A900127BB5E4FF129EF9C208900B1F7405F054
:1038B900D293C203E4900805F0A3F0A3F0A3F0A308
:1038C900F0A3F0300809900234E0F46033C20890A4
:1038D9000B1FE0FF645A601CEF64A56017EFB40585
:1038E90009740AF0D293C203800A900B1F7405F081
:1038F900C293C2037F057E0012A00D12A09A80C355
:1039090078077C017D017B017A0279357E007F068B
:103919001242E9127BB512A09A900107E0540F7583
:10392900F00AA4FFA3E0540F2F75F008A475F03C2A
:1039390084781AF6129D2AD2A9C208A208E433FF94
:10394900200D047E0180027E00EE5F602290023429
:10395900E0B40119D20B78077C017D017B017A0261
:1039690079357E007F061242E9D2018010C2083003
:103979000D06D208D201800512A09A80BEE4FF127A
:10398900735B7F01129FDB781A7628300D05126E62
:103999006F80031278D5D2A9300D05126E6F80039E
:1039A9001278D5129B8690000CEFF0F46005E0FFC9
:1039B90012307E12A09A900B1DE025E025E024BF6D
:1039C900F582E43405F583E0FEA3E064014E70C896
:1039D90030001B127D67127C47129B8690000CEF0A
:1039E900F0F46005E0FF12307E12A09A80E2900B9D
:1039F9001DE025E025E024BFF582E43405F583E0E8
:103A0900FEA3E08EF012442B3B5D00013B630015E1
:103A19003B8D00163BCF00173BE100183C6B0019AA
:103A29003CEE001A3D07001B3D20001C3B6901A527
:103A39003B6F01A63B7501A73B7B01A83B8101A90F
:103A49003B8701AA3B9301B93BA501BA3BB701BB2F
:103A59003BD501CD3BDB01CE3BE701E13BED01E28B
:103A69003BF301E33BF901E43C1D01E53C4D01E673
:103A79003C7101F53C8F01F63CA101F73CB201F81C
:103A89003CC101F93CDA01FA3CE901FB3CF30209CA
:103A99003CF8020A3CFD020B3D02020C3D0C021DE2
:103AA9003D11021E3D16021F3D1B02203D2502311C
:103AB9003D2A02323B9922753B9F22763BAB2289F4
:103AC9003BB1228A3BBD229D3BC3229E3BC9229F1B
:103AD9003BFF25D13C0525D23C0B25D33C1125D4F0
:103AE9003C1725D53C2325E53C2925E63C2F25E730
:103AF9003C3525E83C3B25E93C4125EA3C4725EB9B
:103B09003C5325F93C5925FA3C5F25FB3C6525FCCE
:103B19003C7727253C7D27263C8327273C89272876
:103B29003C9527393C9B273A3CA7274D3CAD274E6E
:103B39003CB727613CBC27623CC627753CCB27763E
:103B49003CD027773CD527783CDF27893CE4278A76
:103B590000003D2D123D32023D2D12714D023D2DC9
:103B6900127969023D2D1286A8023D2D1279FC02B7
:103B79003D2D128723023D2D127A8F023D2D12878A
:103B89009E023D2D127F9B023D2D128025023D2D67
:103B9900128CD5023D2D128D4C023D2D1280A702AB
:103BA9003D2D128DC3023D2D128E3A023D2D127C00
:103BB900D8023D2D128EB1023D2D128F28023D2DC6
:103BC900128F9F023D2D1285AE023D2D126C1F02F0
:103BD9003D2D126709023D2D1271FE023D2D1295F0
:103BE9008D023D2D125DFF023D2D12520F023D2D1A
:103BF900126B4F023D2D12770D023D2D126F2A02D5
:103C09003D2D126FE1023D2D126A7E023D2D129467
:103C190039023D2D125F31023D2D1294AB023D2D2B
:103C2900124F63023D2D1249D5023D2D127B22020E
:103C39003D2D12614A023D2D12624C023D2D126743
:103C4900EE023D2D12749E023D2D128331023D2D4F
:103C59001283B1023D2D128431023D2D12951C02B1
:103C69003D2D126040023D2D12753A023D2D1295EF
:103C7900F7023D2D129661023D2D1296CB023D2D84
:103C8900129735023D2D128129023D2D1288940289
:103C99003D2D12890D023D2D1281AB023D2D128958
:103CA90086023D2D1289FF807B12822D8076128A31
:103CB900788071128AF1806C1275D680671290161D
:103CC900806212908D805D129104805812917B80E0
:103CD900531282AF804E1291F28049129269804448
:103CE9001269AB803F1277A7803A128B6A8035122E
:103CF9008BE3803012979F802B128C5C8026127880
:103D09003E8021129809801C12987380171298DD41
:103D190080121272AF800D12862B80081292E080F9
:093D290003129353D2000239D9B0
:109FA800C293758780E4F5A875B81075890175881E
:109FB8001075C83475CBFF75CADC759850F58DF5EA
:109FC8008B758C28F58AC2A8C2AAC2A9C2ABD2AC2A
:039FD800D2AF22E3
:107C47009008057F03129CDA9008067F05129CDADC
:107C5700900B1EE0FF900040742EF07B077D0A1208
:107C67009C34900807E024F6FD7F08129CDE900BF9
:107C77001EE0FF900040742EF07B0A7D0A129C34B0
:107C8700900808E024F6FD7F0B129CDE900B1EE0A7
:107C9700FF9000407420F07B0D7D0A129C34900801
:107CA70009E024F6FD7F0E129CDE900B1EE0FF908C
:107CB7000040743AF07B107D0A129C3490080AE069
:107CC70024F6FDC3943C50057F11029CDEC2088058
:017CD700FEAE
:049CDA00E024F6FD8F
:069CDE0090000DEFF0FB09
:109CE400E4A3F0ED75F06484AEF0EE75F00A84FE42
:109CF400ED75F00A84AFF0EFF0EE4430FEEF44303F
:109D0400F0900B1EE0FF900040EEF07D0A129C34B0
:109D1400900B1EE0FF90000DE004FBA3E0900040D8
:069D2400F07D0A029C34F0
:107D6700900361E004F07006900360E004F0D390A4
:107D77000361E09420900360E0940340077403F0EC
:107D8700A3742AF0900B1CE0B40A0BE4900360F094
:107D9700A3F0900B1CF0D3900361E0942090036054
:107DA700E094037BFF40207AA1799312A14C9000C5
:107DB7003BEFF0900B1EE0FF90003874FFF0A374C8
:107DC700A1F0A37493801E7AA1799A12A14C900016
:107DD7003BEFF0900B1EE0FF90003874FFF0A374A8
:0E7DE700A1F0A3749AF07B1E7D0A129E192251
:101A580041474D2D4D545000C6F4B6AFD6D02CC7D3
:101A6800EBC9D4BAF22E2E2E0053414D53554E4792
:101A780020534453204348494E4100D4B1B9A4BF30
:101A8800A8BAC53A5F5F5F5F5F5F00C3DCC2EB3A2D
:101A98002D2D2D2D2D2D00D4B1B9A4BFA8BAC53A2E
:101AA8002D2D2D2D2D2D00D6F7B9A6C4DCB2CBB522
:101AB800A500B8FCBBBBC6B1CFE400D4CBD3AABF4A
:101AC800D8D6C600C9E8B1B8C9E8D6C300C9E8B1D4
:101AD800B8B2E9D1AF00CEACD0DEB2E2CAD400C40D
:101AE800A3BFE9C8EDBCFECFC2D4D800312ECAFDD1
:101AF800BEDDCEACBBA400322ECFB5CDB3B9D8B1C4
:101B0800D500D0B6CFC241C6B1CFE400D7B0D4D843
:101B180041C6B1CFE400D0B6CFC242C6B1CFE400CF
:101B2800D7B0D4D842C6B1CFE400D0B6CFC2B7CF71
:101B3800C6B1CFE400D7B0D4D8B7CFC6B1CFE40090
:101B4800B8FCBBBBC6B1CFE42DD0B6CFC241C6B13D
:101B5800CFE400C3FCC1EED2D1B7A2CBCD2CC7EBEA
:101B6800B8FCBBBBC6B1CFE42100C6B1CFE4D6D028
:101B7800C6B1CAFD3A5F5F5F5F0041C6B1CFE4B24C
:101B8800BBB4E6D4DA2100D6F7BBFAD3EBC6B1CFA3
:101B9800E4CDA8D0C5B9CAD5CF2100B8FCBBBBC617
:101BA800B1CFE42DD7B0D4D841C6B1CFE400C6B187
:101BB800CFE4D2D1B0B2D7B02100B8FCBBBBC6B11C
:101BC800CFE42DD0B6CFC242C6B1CFE40042C6B1F1
:101BD800CFE4B2BBB4E6D4DA2100B8FCBBBBC6B1D3
:101BE800CFE42DD7B0D4D842C6B1CFE400B8FCBBFF
:101BF800BBC6B1CFE42DB8FCBBBBB7CFC6B1CFE4F1
:101C080000C6B1CFE4B2BBB4E6D4DA2100B8FCBB5D
:101C1800BBC6B1CFE42DD7B0D4D8B7CFC6B1CFE4C7
:101C280000B7CFC6B1CFE4D2D1B0B2D7B02100B798
:101C3800CFC6B1CFE4B2BBB4E6D4DA2100D6F7BB45
:101C4800FAD3EBB7CFC6B1CFE4CDA8D0C5B9CAD5C2
:101C5800CF2100B7FECEF1C4A3CABDC9E8D6C300E0
:101C6800C9C8C3C5C4A3CABDC9E8D6C300CDA8B5F1
:101C7800C0C4A3CABDC9E8D6C300D4CBD3AABFD8B1
:101C8800D6C62DB7FECEF1C4A3CABDC9E8D6C300D7
:101C9800BFAACABCB7FECEF100CDA3D6B9B7FECE57
:101CA800F100D4CBD3AABFD8D6C62DB7FECEF1C487
:101CB800A3CABDC9E8D6C32DBFAACABCB7FECEF118
:101CC80000BFAACABCB7FECEF1C9E8D6C33A00B372
:101CD800C9B9A600C3FCC1EECEDED0A72100D4CB83
:101CE800D3AABFD8D6C62DB7FECEF1C4A3CABDC9E4
:101CF800E8D6C32DCDA3D6B9B7FECEF100CDA3D675
:101D0800B9B7FECEF1C9E8D6C33A00D4CBD3AABF3F
:101D1800D8D6C62DC9C8C3C5C4A3CABDC9E8D6C3C9
:101D280000B3A3BFAAC4A3CABD00B3A3B1D5C4A3BB
:101D3800CABD00C9C8C3C5B3A3BFAAC4A3CABDC985
:101D4800E8D6C33A00C9C8C3C5B3A3B1D5C4A3CAAA
:101D5800BDC9E8D6C33A00D4CBD3AABFD8D6C62DBE
:101D6800CBABCFF2D5A2BBFAC4A3CABDC9E8D6C3D0
:101D780000BDF8D5A2C4A3CABD00B3F6D5A2C4A3BA
:101D8800CABD00CBABCFF2C4A3CABD00BDF8D5A273
:101D9800C4A3CABDC9E8D6C33A00B3F6D5A2C4A342
:101DA800CABDC9E8D6C33A00CBABCFF2C4A3CABDFB
:101DB800C9E8D6C33A00CAB1BCE4C9E8D6C300B181
:101DC800BEBBFAC9E8D6C300C9E8B1B8C9E8D6C3EA
:101DD8002DCAB1BCE4C9E8D6C300B8F1CABD595987
:101DE80059594D4D444448484D4D535300C4EA2F6A
:101DF800D4C22FC8D53A2D2D2D2D2F2D2D2F2D2D79
:101E080000CAB1BCE4C9E8D6C33A00CAB12FB7D6F4
:101E18002FC3EB3A2D2D2F2D2D2F2D2D00C9E8B1D5
:101E2800B8C9E8D6C32DB1BEBBFAC9E8D6C300C746
:101E3800EBCAE4C8EBC9E8B1B849443A202D2D2DC6
:101E480000D5A2BBFAC0E0D0CDD1A1D4F13A2D0083
:101E5800313ABDF8D5A2BBFA3B323AB3F6D5A2BBAC
:101E6800FA3B333ACBABCFF2D5A2BBFA00D7D3C0FB
:101E7800E0D0CD3A2D20313AB1EAD7BCCDA8B5C0D3
:101E88003B323ABFEDCDA8B5C000C7EBCAE4C8EBFA
:101E9800B3B5D5BE49443A2D2D2D2D00CDF8C2E756
:101EA800CDA8D0C5D7B4CCACB2E9D1AF00C9E8B1A0
:101EB800B8D0C5CFA2B2E9D1AF00D4CBD3AAD7B49A
:101EC800CCACB2E9D1AF00C4A3BFE9D7B4CCACB2B3
:101ED800E9D1AF00C4A3BFE9D0C5CFA2B2E9D1AF61
:101EE80000C4A3BFE9B9CCBCFEB0E6B1BEB2E9D12B
:101EF800AF00C9E8B1B8B2E9D1AF2DCDF8C2E7CD8E
:101F0800A8D0C5D7B4CCACB2E9D1AF00CDA8D0C564
:101F1800D5FDB3A32100CDA8D0C5B9CAD5CF21001E
:101F2800C9E8B1B8B2E9D1AF2DC9E8B1B8D0C5CFC9
:101F3800A2B2E9D1AF00C9E8B1B849443A205F5F1D
:101F48005F5F5F5F5F5F5F00C9E8B1B849503A20E3
:101F58002D2D2D2E2D2D2D2E2D2D2D2E2D2D2D00D3
:101F6800C9E8B1B8CDF8B9D83A202D2D2D2E2D2D90
:101F78002D2E2D2D2D2E2D2D2D00C9E8B1B8D7D3FE
:101F8800CDF8D1DAC2EB3A202D2D2D2E2D2D2D2E68
:101F98002D2D2D2E2D2D2D00B3B5D5BE49443A201B
:101FA8005F5F5F5F00B3B5D5BEB7FECEF1C6F74938
:101FB800503A202D2D2D2E2D2D2D2E2D2D2D2E2D23
:101FC8002D2D00CAB1D6D3CDACB2BDB7FECEF1C669
:101FD800F749503A002D2D2D2E2D2D2D2E2D2D2D3E
:101FE8002E2D2D2D00C9E8B1B8B2E9D1AF2DC9E821
:101FF800B1B8D7B4CCACB2E9D1AF2DD4CBD3AAD732
:10200800B4CCAC00B3B5D5BEC4A3CABD3AD5FDB3F4
:10201800A3C4A3CABD00B3B5D5BEC4A3CABD3AB94B
:10202800D8B1D5C4A3CABD00B3B5D5BEC4A3CABD73
:102038003ABDF4BCB1C4A3CABD00B3B5D5BEC4A3F0
:10204800CABD3ABDB5BCB6C4A3CABD00C1D0B3B5FC
:10205800B9CAD5CFC4A3CABD3AB9D8B1D500C1D081
:10206800B3B5B9CAD5CFC4A3CABD3ABFAAC6F4008E
:10207800BDF8B3F6D5BEB4CED0F2C3E2BCECC4A36F
:10208800CABD3AB9D8B1D500BDF8B3F6D5BEB4CEFD
:10209800D0F2C3E2BCECC4A3CABD3ABFAAC6F400DE
:1020A800CAB1BCE4C3E2BCECC4A3CABD3AB9D8B156
:1020B800D500CAB1BCE4C3E2BCECC4A3CABD3ABFF4
:1020C800AAC6F400C8D5C6DAC3E2BCECC4A3CABD2C
:1020D8003AB9D8B1D500C8D5C6DAC3E2BCECC4A3B6
:1020E800CABD3ABFAAC6F400B3B5B7D1C3E2BCECC7
:1020F800C4A3CABD3AB9D8B1D500B3B5B7D1C3E204
:10210800BCECC4A3CABD3ABFAAC6F400D4CBD3AAB8
:10211800D7B4CCAC3AD4CBD3AABDE1CAF800D4CB5F
:10212800D3AAD7B4CCAC3AD4CBD3AABFAACABC00E2
:10213800B2E2CAD4C4A3CABDBFAAC6F400B2E2CAF6
:10214800D4C4A3CABDB9D8B1D500D4CBD0D0C4A308
:10215800CABD3ABDF8D5A2C4A3CABD00D4CBD0D05D
:10216800C4A3CABD3AB3F6D5A2C4A3CABD00D4CB92
:10217800D0D0C4A3CABD3ACBABCFF2C4A3CABD006A
:10218800C9E8B1B8B2E9D1AF2DC4A3BFE9D7B4CC7F
:10219800ACB2E9D1AF00C9C8C3C5C4A3BFE9D7B4BD
:1021A800CCACB2E9D1AF00BDF8D5BEB6CBB6C1D084
:1021B800B4C6F7D7B4CCACB2E9D1AF00B3F6D5BE4C
:1021C800B6CBB6C1D0B4C6F7D7B4CCACB2E9D1AFB0
:1021D80000BBD8CAD5C4A3BFE9B2E9D1AF00494F03
:1021E800BFD8D6C6B0E5D7B4CCACB2E9D1AF00C938
:1021F800E8B1B8B2E9D1AF2DC4A3BFE9D7B4CCAC2C
:10220800B2E9D1AF2DC9C8C3C5C4A3BFE900CDA8E1
:10221800D1B6D7B4CCAC3AD5FDB3A300CDA8D1B6CE
:10222800D7B4CCAC3AB9CAD5CF00C2EDB4EFD7B465
:10223800CCAC3AD5FDB3A300C2EDB4EFD7B4CCAC67
:102248003AB9CAD5CF00B4ABB8D0C6F7D7B4CCAC7E
:102258003AD5FDB3A300B4ABB8D0C6F7D7B4CCAC6D
:102268003AB9CAD5CF00C9E8B1B8B2E9D1AF2DC4DF
:10227800A3BFE9D7B4CCACB2E9D1AF2DBDF8D5BE78
:10228800B6CBB6C1D0B4C6F70053414DBFA8D7B43A
:10229800CCAC3AD5FDB3A30053414DBFA8D7B4CCBD
:1022A800AC3AB9CAD5CF00C8EDBCFEB0E6B1BED7CE
:1022B800B4CCAC3AC6A5C5E400C8EDBCFEB0E6B1E6
:1022C800BED7B4CCAC3AB2BBC6A5C5E400C3FCC10A
:1022D800EEB4CBCAB1CEDED0A700CDA8D1B6B9CA6C
:1022E800D5CF00C9E8B1B8B2E9D1AF2DC4A3BFE9D1
:1022F800D7B4CCACB2E9D1AF2DB3F6D5BEB6CBB618
:10230800C1D0B4C6F700C9E8B1B8B2E9D1AF2DC49D
:10231800A3BFE9D7B4CCACB2E9D1AF2DBBD8CAD5ED
:10232800C4A3BFE900BFA8C6B1D7B4CCAC3ACEB4F9
:10233800BFA8C6B100BFA8C6B1D7B4CCAC3ABFA835
:10234800C6B100C6B1CFE4D7B4CCAC3AD5FDB3A37F
:1023580000C6B1CFE4D7B4CCAC3AD2ECB3A300C931
:10236800E8B1B8B2E9D1AF2DC4A3BFE9D7B4CCACBA
:10237800B2E9D1AF2D494FB0E5D7B4CCAC00D5A266
:10238800BBFAD3EB494FB0E5CDA8D1B6D7B4CCACA6
:102398003A00D5FDB3A300B9CAD5CF00C9E8B1B892
:1023A800B2E9D1AF2DC4A3BFE9D0C5CFA2B2E9D15C
:1023B800AF00C9C8C3C5C4A3BFE9D0C5CFA2B2E99D
:1023C800D1AF00BDF8D5A2B6CBB6C1D0B4C6F7D050
:1023D800C5CFA2B2E9D1AF00B3F6D5A2B6CBB6C18C
:1023E800D0B4C6F7D0C5CFA2B2E9D1AF00BBD8CA26
:1023F800D5C4A3BFE9D0C5CFA2B2E9D1AF0041C6C9
:10240800B1CFE4D0C5CFA2B2E9D1AF0042C6B1CFB7
:10241800E4D0C5CFA2B2E9D1AF00B7CFC6B1CFE4FF
:10242800D0C5CFA200C9E8B1B8B2E9D1AF2DC4A3D5
:10243800BFE9D0C5CFA2B2E9D1AF2DC9C8C3C5C4C1
:10244800A3BFE900CDA8D1B6B6CBBFDABAC53A4327
:102458004F4D5F5F00D5A2BBFAD3EBC9C8C3C5CD4A
:10246800A8D1B6B9CAD5CF00C9E8B1B8B2E9D1AFD9
:102478002DC4A3BFE9D0C5CFA2B2E9D1AF2DBDF815
:10248800D5A2B6CBB6C1D0B4C6F7004944BAC5CEBA
:10249800AA3A205F5F5F5F5F5F5F5F0053414DB2A5
:1024A800E5B2DB313A0053414D2049443A5F5F5F62
:1024B8005F5F5F5F5F5F5F5F5F00C0E0D0CD3A4DF9
:1024C80054525F5053414D00C0E0D0CD3A4D545264
:1024D8005F4953414D00C0E0D0CD3A4F43545F505F
:1024E80053414D00C0E0D0CD3A4F43545F4953416A
:1024F8004D00BFA8C0E0D0CDB4EDCEF30053414DA0
:10250800B2E5B2DB323A0053414DB2E5B2DB333AC1
:102518000053414DB2E5B2DB343A00C9E8B1B8B274
:10252800E9D1AF2DC4A3BFE9D0C5CFA2B2E9D1AFDD
:102538002DB3F6D5A2B6CBB6C1D0B4C6F700B4CB8E
:10254800CAB1C3FCC1EECEDED0A72100D5A2BBFA2A
:10255800D3EBB6C1D0B4C6F7CDA8D1B6B9CAD5CFDA
:102568002100C9E8B1B8B2E9D1AF2DC4A3BFE9D001
:10257800C5CFA2B2E9D1AF2DBBD8CAD5C4A3BFE994
:10258800004944BAC5CEAA3A5F5F5F5F5F5F5F5F8D
:1025980000D5A2BBFAD3EBC4A3BFE9CDA8D1B6B985
:1025A800CAD5CF2100C9E8B1B8B2E9D1AF2DC4A3CB
:1025B800BFE9D0C5CFA2B2E9D1AF2D41BBD8CAD5AA
:1025C800C6B1CFE400C6B1CFE449443A205F5F5FAB
:1025D8005F5F5F5F5F00B3B5C6B1CAFDC1BF3A2098
:1025E8005F5F5F5F00B6A5B8C7D7B4CCAC3AB4F2AA
:1025F800BFAA00B6A5B8C7D7B4CCAC3AB9D8B1D53C
:1026080000CDD0C5CCD7B4CCAC3AB5BDCEBB00CD8F
:10261800D0C5CCD7B4CCAC3ACEB4B5BDCEBB00C8CF
:10262800DDC1BFD7B4CCAC3AD5FDB3A300C8DDC17A
:10263800BFD7B4CCAC3ABDABC2FA00C8DDC1BFD776
:10264800B4CCAC3AC2FA00C8DDC1BFD7B4CCAC3AFE
:10265800BFD500D5A2BBFAD3EBC6B1CFE4CDA8D184
:10266800B6B9CAD5CF2100C9E8B1B8B2E9D1AF2D02
:10267800C4A3BFE9D0C5CFA2B2E9D1AF2D42BBD820
:10268800CAD5C6B1CFE400D5A2BBFAD3EB41C6B1D7
:10269800CFE4CDA8D1B6B9CAD5CF2100C9E8B1B821
:1026A800B2E9D1AF2DC4A3BFE9D0C5CFA2B2E9D159
:1026B800AF2DB7CFC6B1CFE400C6B1CFE449443A95
:1026C8005F5F5F5F5F5F5F5F00B3B5C6B1CAFDC1A3
:1026D800BF3A5F5F5F5F00D5A2BBFAD3EBB7CFC647
:1026E800B1CFE4CDA8D1B6B9CAD5CF2100C9E8B1D8
:1026F800B8B2E9D1AF2DC4A3BFE9B9CCBCFEB0E6EE
:10270800B1BEB2E9D1AF00BDF8D5BEB6CBB6C1D027
:10271800B4C6F700B3F6D5BEB6CBB6C1D0B4C6F7CB
:1027280000BBD8CAD5C4A3BFE900C9C8C3C5C4A3E0
:10273800BFE900C9E8B1B8B2E9D1AF2DC4A3BFE978
:10274800B9CCBCFEB0E6B1BEB2E9D1AF2DBDF8D56B
:10275800BEB6C1D0B4C6F700C8EDBCFEB0E6B1BE87
:10276800BAC53A205F5F5F5F5F5F5F5F5F5F00BD15
:10277800F8D5BEB6CBB6C1D0B4C6F7CDA8D1B6B9D8
:10278800CAD5CF00C9E8B1B8B2E9D1AF2DC4A3BF4B
:10279800E9B9CCBCFEB0E6B1BEB2E9D1AF2DB3F613
:1027A800D5BEB6C1D0B4C6F700B3F6D5BEB6CBB663
:1027B800C1D0B4C6F7CDA8D1B6B9CAD5CF00C9E83B
:1027C800B1B8B2E9D1AF2DC4A3BFE9B9CCBCFEB052
:1027D800E6B1BEB2E9D1AF2DBBD8CAD5C4A3BFE913
:1027E80000C8EDBCFEB0E6B1BEBAC53A205F5F5F77
:1027F8005F5F5F5F5F5F5F5F5F5F5F5F5F5F5F5FE1
:102808005F5F5F5F5F00BBD8CAD5C4A3BFE9CDA82F
:10281800D1B6B9CAD5CF00C9E8B1B8B2E9D1AF2DA0
:10282800C4A3BFE9B9CCBCFEB0E6B1BEB2E9D1AF32
:102838002DC9C8C3C5C4A3BFE900C9C8C3C5C4A3BB
:10284800BFE9CDA8D1B6B9CAD5CF00C9C8C3C5C4D8
:10285800A3BFE9B2E2CAD400BDF8D5A2B6CBB6C1CF
:10286800D0B4C6F7B2E2CAD400B3F6D5A2B6CBB696
:10287800C1D0B4C6F7B2E2CAD400BBD8CAD5C4A383
:10288800BFE9B2E2CAD400BEAFCABEB5C6B2E2CA98
:10289800D400D3EFD2F4BCB0B1A8BEAFC6F7B2E251
:1028A800CAD400BFAAB9D8B2E2CAD400CEACD0DE2E
:1028B800B2E2CAD42DC9C8C3C5C4A3BFE9B2E2CA2B
:1028C800D400B7BDCFF2D6B8CABEC6F7B2E2CAD4F2
:1028D80000C9C8C3C5B2E2CAD400B4ABB8D0C6F701
:1028E800B2E2CAD400CDA3D6B9B2E2CAD400CEAC03
:1028F800D0DEB2E2CAD42DC9C8C3C5C4A3BFE9B2E9
:10290800E2CAD42DB7BDCFF2D6B8CABEC6F700B258
:10291800D9D7F7B3C9B9A62100B2D9D7F7CAA7B092
:10292800DC2100CEACD0DEB2E2CAD42DC9C8C3C502
:10293800C4A3BFE9B2E2CAD42DC9C8C3C500CEAC8E
:10294800D0DEB2E2CAD42DC9C8C3C5C4A3BFE9B298
:10295800E2CAD42DB4ABB8D0C6F700CEACD0DEB244
:10296800E2CAD42DC9C8C3C5C4A3BFE9B2E2CAD458
:102978002DCDA3D6B9B2E2CAD400CEACD0DEB2E235
:10298800CAD42DBDF8D5A2B6CBB6C1D0B4C6F7B25D
:10299800E2CAD400BDF8D5A2B6CBB6C1D0B4C6F74A
:1029A800CDA8D1B6B2E2CAD400BDF8D5A2B6CBB68E
:1029B800C1D0B4C6F7B8B4CEBB00CEACD0DEB2E25C
:1029C800CAD42DBDF8D5A2B6CBB6C1D0B4C6F72DA2
:1029D800CDA8D1B6B2E2CAD400CDA8D1B6D5FDB340
:1029E800A32100CEACD0DEB2E2CAD42DBDF8D5A268
:1029F800B6CBB6C1D0B4C6F72DB8B4CEBBB2E2CA16
:102A0800D400C3FCC1EEB7A2CBCDB3C9B9A621008F
:102A1800CEACD0DEB2E2CAD42DB3F6D5A2B6CBB6D0
:102A2800C1D0B4C6F7B2E2CAD400B3F6D5A2B6CBC9
:102A3800B6C1D0B4C6F7CDA8D1B6B2E2CAD400B3F5
:102A4800F6D5A2B6CBB6C1D0B4C6F7B8B4CEBB00E3
:102A5800CEACD0DEB2E2CAD42DB3F6D5A2B6CBB690
:102A6800C1D0B4C6F72DCDA8D1B6B2E2CAD400CE33
:102A7800ACD0DEB2E2CAD42DB3F6D5A2B6CBB6C17D
:102A8800D0B4C6F72DB8B4CEBBB2E2CAD400CEAC2F
:102A9800D0DEB2E2CAD42DBBD8CAD5C4A3BFE9B22E
:102AA800E2CAD400CDA8D1B6B2E2CAD400BBD8CA13
:102AB800D5C4A3BFE9B8B4CEBB00CEACD0DEB2E279
:102AC800CAD42DBBD8CAD5C4A3BFE92DCDA8D1B6C9
:102AD800B2E2CAD400CEACD0DEB2E2CAD42DBBD8A2
:102AE800CAD5C4A3BFE9B8B4CEBB00C3FCC1EEB716
:102AF800A2CBCDB3C9B9A600CEACD0DEB2E2CAD45F
:102B08002DBEAFCABEB5C6B2E2CAD400B5E3C1C1D4
:102B1800D3C5BBDDC6B1B5C600B9D8B1D5D3C5BB21
:102B2800DDC6B1B5C600B5E3C1C1B1A8BEAFB5C673
:102B380000B9D8B1D5B1A8BEAFB5C600B5E3C1C11B
:102B4800D3C5BBDDC6B1B5C63A00B9D8B1D5D3C572
:102B5800BBDDC6B1B5C63A00B5E3C1C1B1A8BEAFC9
:102B6800B5C63A00B9D8B1D5B1A8BEAFB5C63A0016
:102B7800CEACD0DEB2E2CAD42DD3EFD2F4BCB0B121
:102B8800A8BEAFC6F7B2E2CAD400D3EFD2F4B2E21D
:102B9800CAD400B1A8BEAFC6F7B2E2CAD400CEAC60
:102BA800D0DEB2E2CAD42DD3EFD2F4BCB0B1A8BE05
:102BB800AFC6F72DD3EFD2F4B2E2CAD400D3EFD226
:102BC800F4B2E2CAD43A00CEACD0DEB2E2CAD42D16
:102BD800D3EFD2F4BCB0B1A8BEAFC6F72DB1A8BE32
:102BE800AFC6F7B2E2CAD400B1A8BEAFC6F7B2E228
:102BF800CAD43A00CEACD0DEB2E2CAD42DBFAAB94C
:102C0800D8B2E2CAD400D6F7BBFABDF8D5BEB2E056
:102C1800C3C53AB9D8B1D500D6F7BBFABDF8D5BE09
:102C2800B2E0C3C53AB4F2BFAA00D6F7BBFAB3F60E
:102C3800D5BEB2E0C3C53AB9D8B1D500D6F7BBFA0C
:102C4800B3F6D5BEB2E0C3C53AB4F2BFAA00D6F710
:102C5800BBFAB6A5B8C73AB9D8B1D500D6F7BBFA0A
:102C6800B6A5B8C73AB4F2BFAA00B4D3BBFAB6A5A2
:102C7800B8C73AB9D8B1D500B4D3BBFAB6A5B8C766
:102C88003AB4F2BFAA00BBD8CAD5C4A3BFE9CEAC38
:102C9800D0DEC3C53AB9D8B1D500BBD8CAD5C4A30C
:102CA800BFE9CEACD0DEC3C53AB4F2BFAA00BDF8C6
:102CB800D5A2B6C1D0B4C6F7B3CCD0F2CFC2D4D85F
:102CC80000B3F6D5A2B6C1D0B4C6F7B3CCD0F2CF14
:102CD800C2D4D800CEACD0DEC3E6B0E5C8EDBCFEA9
:102CE800CFC2D4D800C9C8C3C5C4A3BFE9C8EDBC06
:102CF800FECFC2D4D800C4A3BFE9C8EDBCFECFC282
:102D0800D4D82DBDF8D5A2B6C1D0B4C6F7B3CCD0AF
:102D1800F200C4A3BFE9C8EDBCFECFC2D4D82DB31E
:102D2800F6D5A2B6C1D0B4C6F7B3CCD0F200C4A3CE
:102D3800BFE9C8EDBCFECFC2D4D82DCEACD0DEC31F
:102D4800E6B0E500C4A3BFE9C8EDBCFECFC2D4D845
:102D58002DC9C8C3C5C4A3BFE900CAFDBEDDB9DC1F
:102D6800C0ED00CAFDBEDDB1B8B7DD00CAFDBEDDED
:102D7800BBD6B8B400CAFDBEDDB5BCC8EB00CAFD01
:102D8800BEDDB5BCB3F600CAFDBEDDB9DCC0ED2DB5
:102D9800CAFDBEDDB1B8B7DD00CAFDBEDDB9DCC015
:102DA800ED2DCAFDBEDDBBD6B8B400CAFDBEDDB987
:102DB800DCC0ED2DCAFDBEDDB5BCC8EB00CAFDBE4A
:102DC800DDB9DCC0ED2DCAFDBEDDB5BCB3F600C76C
:102DD800EBCAE4C8EBC4FAD2AAB5BCB3F6BCC7C206
:102DE800BCB5C4C8D5C6DA3A002D2D2D2DC4EA2DA0
:102DF8002DD4C22D2DC8D500CFB5CDB3B9D8B1D5F6
:102E080000CFB5CDB3D6D8C6F400B9D8BBFA00CF39
:102E1800B5CDB3B9D8B1D52DCFB5CDB3D6D8C6F4C5
:102E280000CFB5CDB3B9D8B1D52DB9D8BBFA00C448
:102E3800FACAE4C8EBD6B5B4EDCEF32CC7EBD5FD92
:102E4800C8B7CAE4C8EB2100CDA8D1B6CAA7B0DC80
:102E58002CC7EBD6D8D0C2CAE4C8EB210020CAFDE3
:102E6800BEDDB9DCC0ED2DCAFDBEDDB5BCB3F620B4
:102E780000C9E8D6C3B3C9B9A621003C20B0EFD633
:102E8800FA203E00B0EFD6FA3ABDF8C8EBB0EFD65C
:102E9800FAB2CBB5A53B00B0E6B1BE3AB2E9D1AFC4
:102EA800CEACD0DEC3E6B0E5B0E6B1BEBAC53B00F5
:102EB800C7A9CDCB3ACDCBB3F6B5BDB5C7C2BDBD5D
:102EC800E7C3E63B00B8B4CEBB3ACEACD0DEC3E62F
:102ED800B0E5B8B4CEBB3B00CDCBB8F13AC7E5BF3F
:102EE800D5D2BBB8F6D7D6B7FB3B00C7E5BFD53AB6
:102EF800C7E5BFD5D2BBD5FBD0D0D7D6B7FB3B00F3
:102F0800D6F7B2CBB5A53ABBD8CDCBB5BDD6F7B2BF
:102F1800CBB5A53B00CAD7D2B33AB7ADB5BDCAD772
:102F2800D2B33B00C4A9D2B33AB7ADB5BDC4A9D298
:102F3800B33B00BBD8CDCB3AB7B5BBD8C9CFBCB62D
:102F4800B2CBB5A53B00BCFDCDB7BCFC3AC3BFD2E4
:102F5800BBC6C1B5C4C3BFD2BBD0D0B5C4D1A1D440
:102F6800F1BCFC3B004E554DBCFC3ACAFDD7D6D34C
:102F7800EBBCFDCDB7C7D0BBBBBCFC3B003C20B90C
:102F8800CCBCFEB0E6B1BEB2E9D1AF203E004147AD
:102F9800CEACD0DEC3E6B0E5B9CCBCFEB0E6B1BE7F
:102FA800BAC53A56302E392E3700D6D0B9FAC8FDF0
:102FB800D0C75344530053414D53554E47205344B3
:102FC80053204348494E4100D4B1B9A4BFA8BAC55B
:102FD8003A31323334353600C3DCC2EB3A2D2D2D6D
:102FE8002D2D2D0000000000040C1C3C7C3C1C0C0A
:102FF800040000000000081C3E7FFF000000FF7F67
:103008003E1C08000000000010189C1E1F1E9C1883
:1030180010000000FFFFFFFF010101020304050685
:103028000708010203040506010203010201020167
:1030380002030102FF01FF010101FF010101020377
:10304800040506010203040501020304050607013D
:103058000203040102030405060701020304010236
:103068000102010201020304010201020304010238
:063078000304FF01010248
:109D2A0020004CC200E4900B1EF0FF129B2C12A0E4
:109D3A009A7FF47E0112A00D12A09A7BFF7A1A79FB
:109D4A005812A14C90003BEFF0900B1EE0FF9000E0
:109D5A003874FFF0A3741AF0A37458F0E4FBFD12F0
:109D6A009E197BFF7A1A79607D297FF312A18922D5
:1078D500300003027968D200E4900B1EF0FF129B82
:1078E5002C7E017F047DFF7B017A07790012460219
:1078F5007BFF7A2F79B27D297F3212A1897BFF7AAE
:107905001A79717D0A7F5C12A18912A09A7FF47E93
:107915000112A00D12A09A7BFF7A1A7983E49000D8
:1079250012F07D2C7FF512A1B17BFF7A1A7993E4D1
:10793500900023F07D2C7FF612A1C0E4900700F0A3
:10794500A3F090070204F0A3F090071174F0F0A3E0
:107955007404F0E4A3F0900712E0FF1254B5E4FFBD
:04796500124CA622F8
:106E6F00780D7C007D017BFF7A30791C7E007F06D8
:106E7F001242E9300003026F29D200E4900B1EF09A
:106E8F00FF129B2C7E017F047DFF7B017A07790027
:106E9F001246027BFF7A2F79B27D297F3212A189A8
:106EAF007BFF7A1A79717D0A7F5C12A18912A09AF1
:106EBF007FF47E0112A00D12A09AE4900700F0A3B8
:106ECF00F090070204F0A3F090071174F0F0A37490
:106EDF0004F0E4A3F0900712E0FF1254B5E4FF12A0
:106EEF004CA67BFF7A1A799FE4900023F07D2C7FCC
:106EFF00F512A1C07BFF7A1A79939000237406F0E4
:106F0F007D2C7FF612A1C078047C077D017B017A6E
:0A6F1F0000790D7E007F061242E9A2
:016F29002245
:103D3200780F7C007D017BFF7A3079227E007F083C
:103D42001242E99000197401F0A37400F0A3740FF9
:103D5200F0E4FF74202FF582E4340BF583E0D39472
:103D62001050050FEFB410EBEFC394074003023E6F
:103D7200E39000227401F0A3126447E4900017F06C
:103D8200A3F0900017E0FFC39406502774202FF58C
:103D920082E4340BF583E0FF900018E0FE04F07437
:103DA200042EF582E43407F583EFF0900017E00467
:103DB200F080CF900B1EE0FF7E007C017D04124359
:103DC2004E740F2FF974083EA801FC7D017B017A25
:103DD2000779007E017F041242E97BFF7A1A79AFEC
:103DE2007D307FF012A189E4900018F0900018E075
:103DF200FF2404F582E43407F583E0C394644003AE
:103E0200024216EF94054003024216900018E0FFAA
:103E12002404F582E43407F583E0900017F0E014FF
:103E2200B408004003023ECA903E3875F003A4C5B0
:103E32008325F0C58373023E50023E5C023E6B0254
:103E42003E7A023E89023E98023EA7023EB6EF2427
:103E5200F1FF7BFF7A1A79BA8067900018E024F1AB
:103E6200FF7BFF7A1A79C38058900018E024F1FF93
:103E72007BFF7A1A79CC8049900018E024F1FF7B0D
:103E8200FF7A1A79D5803A900018E024F1FF7BFF7F
:103E92007A1A79DE802B900018E024F1FF7BFF7AFA
:103EA2001A79E7801C900018E024F1FF7BFF7A1A50
:103EB20079F4800D900018E024F1FF7BFF7A1A79E3
:103EC200FF7D2C12A1898010900018E02404F58255
:103ED200E43407F58374FFF0900018E004F0023D2B
:103EE200EE9000227402F0A314126447E4900017CB
:103EF200F0A3F0900017E0FFC39406502C74202F1B
:103F0200F582E4340BF583E0FFC394645013900010
:103F120018E0FE04F074042EF582E43407F583EF12
:103F2200F0900017E004F080CA900B1EE0FF7E00C4
:103F32007C017D0412434E740F2FF974083EA801D0
:103F4200FC7D017B017A0779007E017F041242E940
:103F52007BFF7A1A79AF7D307FF012A189E490005D
:103F620018F0900018E0FF2404F582E43407F5838A
:103F7200E0C394644003024059EF940540030240B9
:103F820059900018E0FF2404F582E43407F583E039
:103F9200900017F0E014B408004003024040903F44
:103FA200AE75F003A4C58325F0C58373023FC60234
:103FB2003FD2023FE1023FF0023FFF02400E0240C9
:103FC2001D02402CEF24F1FF7BFF7A1A79BA806739
:103FD200900018E024F1FF7BFF7A1A79C380589091
:103FE2000018E024F1FF7BFF7A1A79CC8049900017
:103FF20018E024F1FF7BFF7A1A79D5803A900018F5
:10400200E024F1FF7BFF7A1A79DE802B900018E022
:1040120024F1FF7BFF7A1A79E7801C900018E024D4
:10402200F1FF7BFF7A1A79F4800D900018E024F1F9
:10403200FF7BFF7A1A79FF7D2C12A18980109000F4
:1040420018E02404F582E43407F58374FFF090004D
:1040520018E004F0023F64900B26E0C3946440032E
:104062000242169000227402F0A3F0900019E0FBC5
:10407200A3E0FAA3E02406F9E43AFA900024EBF074
:10408200A3EAF0A3E9F0900017E024FA900027F0E9
:10409200A374F1F0A37403F0A374FFF07B017A0020
:1040A2007D017F011264749000177406F0E4A3F09E
:1040B200900017E0FFC39408502C74202FF582E47F
:1040C200340BF583E0FFC394645013900018E0FEB4
:1040D20004F074042EF582E43407F583EFF09000C7
:1040E20017E004F080CA900B1EE0FF7E007C017D89
:1040F2000412434E740F2FF974083EA801FC7D018F
:104102007B017A0779007E017F041242E97BFF7A04
:104112001A79AF7D307FF012A189E4900018F090F7
:104122000018E0FF2404F582E43407F583E0C39429
:10413200644003024216EF940540030242169000C7
:1041420018E0FF2404F582E43407F583E0900017B9
:10415200F0E014B4080040030241FD90416B75F099
:1041620003A4C58325F0C5837302418302418F02F4
:10417200419E0241AD0241BC0241CB0241DA024101
:10418200E9EF24F1FF7BFF7A1A79BA806790001871
:10419200E024F1FF7BFF7A1A79C38058900018E07F
:1041A20024F1FF7BFF7A1A79CC8049900018E02431
:1041B200F1FF7BFF7A1A79D5803A900018E024F15A
:1041C200FF7BFF7A1A79DE802B900018E024F1FF42
:1041D2007BFF7A1A79E7801C900018E024F1FF7BBC
:1041E200FF7A1A79F4800D900018E024F1FF7BFF2A
:1041F2007A1A79FF7D2C12A1898010900018E02490
:1042020004F582E43407F58374FFF0900018E004AB
:07421200F002412102655F8B
:10714D00780D7C007D017BFF7A30792A7E007F06E9
:10715D001242E99000137401F0A37400F0A3740DB2
:10716D00F09000227401F0A3F0900013E0F9A3E079
:10717D00FAA3E0900024C9F0A3EAF0A3E9F0A37408
:10718D0006F0A374F1F0A37403F0A374FFF07B1564
:10719D0012646F7BFF7A1A79BA7D307FF012A18964
:1071AD007BFF7A1B790A7D2C7FF112A1897BFF7AF7
:1071BD001B79147D2C7FF212A1897BFF7A1B791E1E
:1071CD007D2C7FF312A1897BFF7A1B79287D2C7F83
:1071DD00F412A1897BFF7A1B79327D2C7FF512A1E8
:1071ED00897BFF7A1B793D7D2C7FF612A189026583
:0171FD005F32
:1079690090001A7401F0A3F0A374F1F0A37405F068
:107979007BA57A01E4FDFF1293D87BFF7A1B794836
:107989007D307FF012A189900107E070227BFF7A98
:107999001B795B7D2C7FF112A1897BFF7A1B7972A0
:1079A9009000127401F07D2C7FF212A1B1801A901F
:1079B9000107E07BFFB401067A1B798280047A1BF8
:1079C900798F7D307FF112A189900B1EE0FF7E0037
:1079D9007C017D0412434E740F2FF974083EA801EF
:1079E900FC7D017B017A0779007E017F041242E95F
:0379F90002655FC5
:1086A80090001A7401F0A3F0A374F1F0A37405F01C
:1086B8007BA67A01E4FDFF1293D87BFF7A1B79A38E
:1086C8007D307FF012A189900107E0700A7BFF7A64
:1086D8001B79B67D2C8015900107E07BFFB401065D
:1086E8007A1B798280047A1B798F7D307FF112A101
:1086F80089900B1EE0FF7E007C017D0412434E74BE
:108708000F2FF974083EA801FC7D017B017A0779D7
:0B871800007E017F041242E902655F51
:1079FC0090001A7401F0A3F0A374F1F0A37405F0D5
:107A0C007BA77A01E4FDFF1293D87BFF7A1B79C226
:107A1C007D307FF012A189900107E070227BFF7A04
:107A2C001B795B7D2C7FF112A1897BFF7A1B79720C
:107A3C009000127401F07D2C7FF212A1B1801A908B
:107A4C000107E07BFFB401067A1B79D580047A1B11
:107A5C00798F7D307FF112A189900B1EE0FF7E00A3
:107A6C007C017D0412434E740F2FF974083EA8015B
:107A7C00FC7D017B017A0779007E017F041242E9CB
:037A8C0002655F31
:1087230090001A7401F0A3F0A374F1F0A37405F0A0
:108733007BA87A01E4FDFF1293D87BFF7A1B79E2D1
:108743007D307FF012A189900107E0700A7BFF7AE8
:108753001B79B67D2C8015900107E07BFFB40106E1
:108763007A1B79D580047A1B798F7D307FF112A132
:1087730089900B1EE0FF7E007C017D0412434E7442
:108783000F2FF974083EA801FC7D017B017A07795C
:0B879300007E017F041242E902655FD6
:107A8F0090001A7401F0A3F0A374F1F0A37405F041
:107A9F007BA97A01E4FDFF1293D87BFF7A1B79F55E
:107AAF007D307FF012A189900107E070227BFF7A71
:107ABF001B795B7D2C7FF112A1897BFF7A1B797279
:107ACF009000127401F07D2C7FF212A1B1801A90F8
:107ADF000107E07BFFB401067A1C790980047A1B49
:107AEF00798F7D307FF112A189900B1EE0FF7E0010
:107AFF007C017D0412434E740F2FF974083EA801C8
:107B0F00FC7D017B017A0779007E017F041242E937
:037B1F0002655F9D
:10879E0090001A7401F0A3F0A374F1F0A37405F025
:1087AE007BAA7A01E4FDFF1293D87BFF7A1C791520
:1087BE007D307FF012A189900107E0700A7BFF7A6D
:1087CE001C79297D2C8015900107E07BFFB40106F2
:1087DE007A1C793780047A1C79457D307FF112A19D
:1087EE0089900B1EE0FF7E007C017D0412434E74C7
:1087FE000F2FF974083EA801FC7D017B017A0779E1
:0B880E00007E017F041242E902655F5A
:107F9B00780D7C007D017BFF7A3079307E007F038A
:107FAB001242E99000107401F0A37400F0A3740D59
:107FBB00F09000227401F0A3F0900010E0F9A3E020
:107FCB00FAA3E0900024C9F0A3EAF0A3E9F0A374AC
:107FDB0003F0A374F1F0A37403F0A374FFF07B160A
:107FEB0012646F7BFF7A1A79C37D307FF012A189FF
:107FFB007BFF7A1C795B7D2C7FF112A1897BFF7A49
:10800B001C79687D2C7FF212A1897BFF7A1C797514
:0A801B007D2C7FF312A18902655F3E
:10802500780D7C007D017BFF7A3079337E007F02FD
:108035001242E990000F7401F0A37400F0A3740DCF
:10804500F09000227401F0A3F090000FE0F9A3E096
:10805500FAA3E0900024C9F0A3EAF0A3E9F0A37421
:1080650002F0A374F1F0A37403F0A374FFF07BB9DD
:108075007A01E4FDFF1264747BFF7A1C79827D30FE
:108085007FF012A1897BFF7A1C79987D2C7FF112F4
:10809500A1897BFF7A1C79A17D2C7FF212A189022F
:0280A500655F15
:108CD50090001A7401F0A3F0A374F1F0A37405F0E9
:108CE5007B757A22E4FDFF1293D87BFF7A1C79AA63
:108CF5007D307FF012A1897BFF7A1C79C97D307F99
:108D0500F112A189900107E07BFF70067A1C79D7E3
:108D150080047A1C79DC7D307FF212A189900B1ECC
:108D2500E0FF7E007C017D0412434E740F2FF97421
:108D3500083EA801FC7D017B017A0779007E017F51
:078D4500041242E902655F20
:108D4C0090001A7401F0A3F0A374F1F0A37405F071
:108D5C007B767A22E4FDFF1293D87BFF7A1C79E6AE
:108D6C007D307FF012A1897BFF7A1D79057D307FE4
:108D7C00F112A189900107E07BFF70067A1C79D76C
:108D8C0080047A1C79DC7D307FF212A189900B1E55
:108D9C00E0FF7E007C017D0412434E740F2FF974AA
:108DAC00083EA801FC7D017B017A0779007E017FDA
:078DBC00041242E902655FA9
:1080A700780D7C007D017BFF7A3079357E007F0279
:1080B7001242E990000F7401F0A37400F0A3740D4D
:1080C700F09000227401F0A3F090000FE0F9A3E014
:1080D700FAA3E0900024C9F0A3EAF0A3E9F0A3749F
:1080E70002F0A374F1F0A37403F0A374FFF07BBA5A
:1080F7007A01E4FDFF1264747BFF7A1D79137D30EA
:108107007FF012A1897BFF7A1D79297D307FF112DB
:10811700A1897BFF7A1D79327D307FF212A1890216
:02812700655F92
:108DC30090001A7401F0A3F0A374F1F0A37405F0FA
:108DD3007B897A22E4FDFF1293D87BFF7A1D7913F6
:108DE3007D307FF012A1897BFF7A1D793B7D307F37
:108DF300F112A189900107E07BFF70067A1C79D7F5
:108E030080047A1C79DC7D307FF212A189900B1EDD
:108E1300E0FF7E007C017D0412434E740F2FF97432
:108E2300083EA801FC7D017B017A0779007E017F62
:078E3300041242E902655F31
:108E3A0090001A7401F0A3F0A374F1F0A37405F082
:108E4A007B8A7A22E4FDFF1293D87BFF7A1D79137D
:108E5A007D307FF012A1897BFF7A1D794D7D307FAD
:108E6A00F112A189900107E07BFF70067A1C79D77D
:108E7A0080047A1C79DC7D307FF212A189900B1E66
:108E8A00E0FF7E007C017D0412434E740F2FF974BB
:108E9A00083EA801FC7D017B017A0779007E017FEB
:078EAA00041242E902655FBA
:107CD800780D7C007D017BFF7A3079377E007F0349
:107CE8001242E99000107401F0A37400F0A3740D1F
:107CF800F09000227401F0A3F0900010E0F9A3E0E6
:107D0800FAA3E0900024C9F0A3EAF0A3E9F0A37471
:107D180003F0A374F1F0A37403F0A374FFF07BBB2A
:107D28007A01E4FDFF1264747BFF7A1D795F7D3070
:107D38007FF012A1897BFF7A1D79797D2C7FF11262
:107D4800A1897BFF7A1D79827D2C7FF212A1897B24
:0F7D5800FF7A1D798B7D2C7FF312A18902655F65
:108EB10090001A7401F0A3F0A374F1F0A37405F00B
:108EC1007B9D7A22E4FDFF1293D87BFF7A1D795FA7
:108ED1007D307FF012A1897BFF7A1D79947D307FEF
:108EE100F112A189900107E07BFF70067A1C79D706
:108EF10080047A1C79DC7D307FF212A189900B1EEF
:108F0100E0FF7E007C017D0412434E740F2FF97443
:108F1100083EA801FC7D017B017A0779007E017F73
:078F2100041242E902655F42
:108F280090001A7401F0A3F0A374F1F0A37405F093
:108F38007B9E7A22E4FDFF1293D87BFF7A1D795F2E
:108F48007D307FF012A1897BFF7A1D79A27D307F69
:108F5800F112A189900107E07BFF70067A1C79D78E
:108F680080047A1C79DC7D307FF212A189900B1E77
:108F7800E0FF7E007C017D0412434E740F2FF974CC
:108F8800083EA801FC7D017B017A0779007E017FFC
:078F9800041242E902655FCB
:108F9F0090001A7401F0A3F0A374F1F0A37405F01C
:108FAF007B9F7A22E4FDFF1293D87BFF7A1D795FB6
:108FBF007D307FF012A1897BFF7A1D79B07D307FE4
:108FCF00F112A189900107E07BFF70067A1C79D717
:108FDF0080047A1C79DC7D307FF212A189900B1E00
:108FEF00E0FF7E007C017D0412434E740F2FF97455
:108FFF00083EA801FC7D017B017A0779007E017F85
:07900F00041242E902655F53
:1085AE00780D7C007D017BFF7A30793A7E007F0268
:1085BE001242E990000F7401F0A37400F0A3740D41
:1085CE00F09000227401F0A3F090000FE0F9A3E008
:1085DE00FAA3E0900024C9F0A3EAF0A3E9F0A37493
:1085EE0002F0A374F1F0A37403F0A374FFF07B17F1
:1085FE0012646F7BFF7A1A79CC7D307FF012A189DD
:10860E007BFF7A1D79BE7D2C7FF112A1897BFF7ACB
:0D861E001D79C77D2C7FF212A18902655FD6
:106C1F0078167C007D017BFF7A30793C7E007F0403
:106C2F001242E990001A7401F0A37400F0A37416D5
:106C3F00F09000227401F0A3F090001AE0F9A3E0A5
:106C4F00FAA3E0900024C9F0A3EAF0A3E9F0A3743B
:106C5F0004F0A374F0F0A37404F0E4A3F07BCD7AF6
:106C6F0001FDFF1264747BFF7A1D79D07D307FF0B8
:106C7F0012A1897BFF7A1D79E27D307FF112A18904
:106C8F007BFF7A1D79F5E4900023F07D307FF212BF
:106C9F00A1C07BFF7A1E79097D307FF312A1897B1A
:106CAF00FF7A1E79139000237408F07D307FF41261
:106CBF00A1C0900B1EE0FF7E007C017D0412434EAD
:106CCF00740F2FF974083EA801FC7D017B017A0730
:0C6CDF0079007E017F041242E902655F2B
:1067090078167C007D017BFF7A3079407E007F0519
:106719001242E990001B7401F0A37400F0A37416EF
:10672900F09000227401F0A3F090001BE0F9A3E0BF
:10673900FAA3E0900024C9F0A3EAF0A3E9F0A37456
:1067490005F0A374F0F0A37404F0E4A3F07BCE7A0F
:1067590001FDFF1264747BFF7A1E79257D307FF07D
:1067690012A1897BFF7A1E7937E4900023F07D30EE
:106779007FF112A1C07BFF7A1E794990002374032F
:10678900F07D307FF212A1C07BFF7A1E79587D30EF
:106799007FF312A1897BFF7A1E7975900023740417
:1067A900F07D307FF412A1C07BFF7A1E79929000B0
:1067B900237405F07D307FF512A1C0900B1EE0FF18
:1067C9007E007C017D0412434E740F2FF974083E3C
:1067D900A801FC7D017B017A0779007E017F041203
:0567E90042E902655FBA
:1071FE00780D7C007D017BFF7A3079457E007F061D
:10720E001242E99000137401F0A37400F0A3740D00
:10721E00F09000227401F0A3F0900013E0F9A3E0C7
:10722E00FAA3E0900024C9F0A3EAF0A3E9F0A37456
:10723E0006F0A374F1F0A37403F0A374FFF07B18AF
:10724E0012646F7BFF7A1A79D57D307FF012A18997
:10725E007BFF7A1E79A47D2C7FF112A1897BFF7AA8
:10726E001E79B57D2C7FF212A1897BFF7A1E79C221
:10727E007D2C7FF312A1897BFF7A1E79CF7D2C7F27
:10728E00F412A1897BFF7A1E79DC7D2C7FF512A189
:10729E00897BFF7A1E79E97D2C7FF612A189026522
:0172AE005F80
:10958D0090001A7401F0A3F0A374F1F0A37405F028
:10959D007BE17A01E4FDFF1293D87BFF7A1E79FA05
:1095AD007D307FF012A189900107E07BFF70067A74
:1095BD001F791480047A1F791E7D307FF112A189E5
:1095CD00900B1EE0FF7E007C017D0412434E740F54
:1095DD002FF974083EA801FC7D017B017A07790003
:0A95ED007E017F041242E902655F6F
:105DFF0090001A7402F0A314F0A374F1F0A37405C9
:105E0F00F07BE27A01E4FDFF1293D87BFF7A1F79D2
:105E1F00287D307FF012A1897BFF7A1F793EE490B5
:105E2F000012F07D307FF112A1B17BFF7A1F795004
:105E3F009000127409F07D307FF212A1B17BFF7ACE
:105E4F001F79689000127415F07D307FF312A1B1A5
:105E5F007BFF7A1F79829000127421F07D307FF4DE
:105E6F0012A1B17BFF7A1F79A0900012742DF07DE3
:105E7F00307FF512A1B17BFF7A1F79AD90001274BC
:105E8F0031F07D307FF612A1B1900B1EE0FF7E0046
:105E9F007C017D0412434E740F2FF974083EA80144
:105EAF00FC7D017B017A0779007E017F041242E9B4
:105EBF0090001A7402F0A3F0A374F1F0A37405F02C
:105ECF007BE27A017D017F011293D87BFF7A1F79E4
:105EDF00287D307FF012A1897BFF7A1F79CB7D302F
:105EEF007FF112A1897BFF7A1F79DD900012743D3B
:105EFF00F07D307FF212A1B1900B1EE0FF7E007C8F
:105F0F00017D0412434E740F2FF974083EA801FC53
:105F1F007D017B017A0779007E017F041242E9023D
:025F2F00655FAC
:10520F00900107E064F360030253BD90001A74022B
:10521F00F0A314F0A374F1F0A37405F07BE37A010B
:10522F00E4FDFF1293D87BFF7A1F79ED7D307FF07D
:10523F0012A189900107E070087BFF7A20790C801A
:10524F002B900107E0B4F1087BFF7A20791E801CB8
:10525F00900107E0B4F2087BFF7A207930800D903F
:10526F000107E0B4F30D7BFF7A2079427D307FF1A7
:10527F0012A189900108E07BFF20E0067A20795483
:10528F0080047A2079667D307FF212A1899001081F
:10529F00E07BFF20E2067A20797880047A207990EB
:1052AF007D307FF312A189900108E07BFF20E30698
:1052BF007A2079A880047A2079BA7D307FF412A100
:1052CF0089900108E07BFF20E4067A2079CC8004E6
:1052DF007A2079DE7D307FF512A189900B1EE0FFD9
:1052EF007E007C017D0412434E740F2FF974083E2B
:1052FF00A801FC7D017B017A0779007E017F0412F2
:10530F0042E990001A7402F0A3F0A374F1F0A374B1
:10531F0005F07BE37A017D017F011293D87BFF7A41
:10532F001F79ED7D307FF012A189900108E07BFF9E
:10533F0020E5067A2079F080047A2179027D307F8A
:10534F00F112A189900109E07BFF70067A2179148F
:10535F0080047A2179267D307FF212A18990010A8B
:10536F00E070087BFF7A217938800D90010AE0B454
:10537F00FF0D7BFF7A2179457D307FF312A1899054
:10538F00010BE024DF600F1460142402701D7BFFFB
:10539F007A217952800E7BFF7A21796480067BFF18
:1053AF007A2179767D307FF412A18902548B900097
:1053BF001A7401F0A3F0A374F1F0A37405F07BE36A
:1053CF007A01E4FDFF1293D87BFF7A1F79ED7D30D0
:1053DF007FF012A189900107E070087BFF7A207996
:1053EF000C802B900107E0B4F1087BFF7A20791E27
:1053FF00801C900107E0B4F2087BFF7A207930809F
:10540F000D900107E0B4F30D7BFF7A2079427D30D8
:10541F007FF112A189900109E07BFF70067A217953
:10542F001480047A2179267D307FF212A1899001B0
:10543F000AE070087BFF7A217938800D90010AE02D
:10544F00B4FF0D7BFF7A2179457D307FF312A1895F
:10545F0090010BE024DF600F1460142402701D7B99
:10546F00FF7A217952800E7BFF7A21796480067B47
:10547F00FF7A2179767D307FF412A189900B1EE09F
:10548F00FF7E007C017D0412434E740F2FF97408C8
:10549F003EA801FC7D017B017A0779007E017F0424
:0654AF001242E902655FF4
:106B4F00780D7C007D017BFF7A30794B7E007F05CD
:106B5F001242E99000127401F0A37400F0A3740DB7
:106B6F00F09000227401F0A3F0900012E0F9A3E07E
:106B7F00FAA3E0900024C9F0A3EAF0A3E9F0A3740C
:106B8F0005F0A374F1F0A37403F0A374FFF07BE49A
:106B9F007A01E4FDFF1264747BFF7A2179887D30DE
:106BAF007FF012A1897BFF7A21799E7D2C7FF112D4
:106BBF00A1897BFF7A2179AF7D2C7FF212A1897B8E
:106BCF00FF7A2179C47D2C7FF312A1897BFF7A2173
:106BDF0079D97D2C7FF412A1897BFF7A2179E67D0B
:106BEF002C7FF512A189900B1EE0FF7E007C017DAA
:106BFF000412434E740F2FF974083EA801FC7D0157
:106C0F007B017A0779007E017F041242E902655FFA
:10770D0090001A7401F0A3F0A374F1F0A37405F0C6
:10771D007BD11293D37BFF7A2179F77D307FF012E5
:10772D00A189900107E07BFF20E0067A227916807F
:10773D00047A2279247D307FF112A189900107E02E
:10774D007BFF20E1067A22793280047A2279407D0E
:10775D00307FF212A189900107E07BFF20E2067ACB
:10776D0022794E80047A22795E7D307FF312A189D1
:10777D00900B1EE0FF7E007C017D0412434E740FC2
:10778D002FF974083EA801FC7D017B017A07790071
:0A779D007E017F041242E902655FDD
:106F2A0090001A7401F0A3F0A374F1F0A37405F0B1
:106F3A007BD21293D37BFF7A22796E7D307FF01257
:106F4A00A189900107E0704BA3E07BFF20E0067A5D
:106F5A0022791680047A2279247D307FF112A18960
:106F6A00900108E07BFF20E1067A22799180047A79
:106F7A002279A07D307FF212A189900108E07BFF7F
:106F8A0020E2067A2279AF80047A2279C17D307FA5
:106F9A00F38017900107E07BFFB401067A2279D5C6
:106FAA0080047A2279E27D307FF112A189900B1E4A
:106FBA00E0FF7E007C017D0412434E740F2FF974AA
:106FCA00083EA801FC7D017B017A0779007E017FDA
:076FDA00041242E902655FA9
:106FE10090001A7401F0A3F0A374F1F0A37405F0FA
:106FF1007BD31293D37BFF7A2279EB7D307FF01222
:10700100A189900107E0704BA3E07BFF20E0067AA5
:1070110022791680047A2279247D307FF112A189A8
:10702100900108E07BFF20E1067A22799180047AC1
:107031002279A07D307FF212A189900108E07BFFC7
:1070410020E2067A2279AF80047A2279C17D307FED
:10705100F38017900107E07BFFB401067A2279D50E
:1070610080047A2279E27D307FF112A189900B1E92
:10707100E0FF7E007C017D0412434E740F2FF974F2
:10708100083EA801FC7D017B017A0779007E017F22
:07709100041242E902655FF1
:106A7E0090001A7401F0A3F0A374F1F0A37405F062
:106A8E007BD41293D37BFF7A23790E7D307FF01265
:106A9E00A189900107E07065A3E07BFF20E0067AF4
:106AAE0022791680047A2279247D307FF112A18911
:106ABE00900108E07BFF20E1067A23792D80047A8D
:106ACE0023793D7D307FF212A189900108E07BFF92
:106ADE0020E2067A22794E80047A22795E7D307F1A
:106AEE00F312A189900108E07BFF20E3067A237957
:106AFE004B80047A2379597D307FF48017900107FB
:106B0E00E07BFFB401067A2279D580047A2279E2FD
:106B1E007D307FF112A189900B1EE0FF7E007C017B
:106B2E007D0412434E740F2FF974083EA801FC7DAC
:106B3E00017B017A0779007E017F041242E902652A
:016B4E005FE7
:1094390090001A7401F0A3F0A374F1F0A37405F07D
:109449007BD51293D37BFF7A2379677D307FF01226
:10945900A1897BFF7A2379867D307FF112A18990DA
:109469000107E07BFF70067A23799A80047A2379D1
:109479009F7D307FF212A189900B1EE0FF7E007C58
:10948900017D0412434E740F2FF974083EA801FCA4
:109499007D017B017A0779007E017F041242E9028E
:0294A900655FFD
:105F3100780D7C007D017BFF7A3079507E007F07F0
:105F41001242E99000147401F0A37400F0A3740DDF
:105F5100F09000227402F0A314F0900014E0F9A371
:105F6100E0FAA3E0900024C9F0A3EAF0A3E9F0A3CA
:105F71007406F0A374F1F0A37403F0A374FFF07B33
:105F8100E57A01E4FDFF1264747BFF7A2379A47D35
:105F9100307FF012A1897BFF7A2379BA7D2C7FF1C2
:105FA10012A1897BFF7A2379CB7D2C7FF212A18903
:105FB1007BFF7A2379E07D2C7FF312A1897BFF7A25
:105FC1002379F57D2C7FF412A1897BFF7A24790650
:105FD1007D2C7FF512A1897BFF7A2479147D2C7F9A
:105FE100F612A1899000227402F0A3F0900014E04F
:105FF100FBA3E0FAA3E02406F9E43AFA900024EBCB
:10600100F0A3EAF0A3E9F0A37401F0A374F1F0A303
:106011007403F0A374FFF07BE57A017D017F011227
:1060210064747BFF7A2379A47D307FF012A1897B90
:0F603100FF7A2479227D2C7FF112A18902655F0D
:1094AB0090001A7401F0A3F0A374F1F0A37405F00B
:1094BB007BE51293D37BFF7A24792D7D307FF012DD
:1094CB00A189900107E07BFF70127A24794C900000
:1094DB001204F07D307FF112A1B1800B7A24795DFB
:1094EB007D307FF112A189900B1EE0FF7E007C0185
:1094FB007D0412434E740F2FF974083EA801FC7DB6
:10950B00017B017A0779007E017F041242E9026533
:01951B005FF0
:104F6300900107E060030251C890001A7403F0A394
:104F730074011293C87BFF7A2479707D307FF0121D
:104F8300A1897BFF7A24794C9000127401F07D3063
:104F93007FF112A1B17BFF7A2479939000127403FD
:104FA300F07D307FF212A1B17BFF7A2479A47D30AA
:104FB3007FF312A1897BFF7A2479AE900012740BE0
:104FC300F07D307FF412A1B190011EE024CE601277
:104FD30014601714601C240370207BFF7A2479C2A9
:104FE300801E7BFF7A2479D080167BFF7A2479DEBA
:104FF300800E7BFF7A2479EC80067BFF7A2479FA92
:105003007D307FF512A1897BFF7A2579057D307F7D
:10501300F612A189900B1EE0FF7E007C017D041235
:10502300434E740F2FF974083EA801FC7D017B01E8
:105033007A0779007E017F041242E990001A740313
:10504300F0A314F0A374F1F0A37405F07BE67A25C2
:105053007D017F011293D87BFF7A2479707D307FA5
:10506300F012A1897BFF7A2479AE9000127418F0B4
:105073007D307FF112A1B190012BE024CE60121498
:10508300601714601C240370207BFF7A2479C2808C
:105093001E7BFF7A2479D080167BFF7A2479DE8009
:1050A3000E7BFF7A2479EC80067BFF7A2479FA7DE4
:1050B300307FF212A1897BFF7A25790F7D307FF350
:1050C30012A1897BFF7A2479AE9000127425F07DBA
:1050D300307FF412A1B1900138E024CE6012146045
:1050E3001714601C240370207BFF7A2479C2801E6E
:1050F3007BFF7A2479D080167BFF7A2479DE800EB9
:105103007BFF7A2479EC80067BFF7A2479FA7D3061
:105113007FF512A1897BFF7A2579197D307FF612FD
:10512300A189900B1EE0FF7E007C017D0412434E9B
:10513300740F2FF974083EA801FC7D017B017A07E7
:1051430079007E017F041242E990001A7403F0A3F0
:10515300F0A374F1F0A37405F07BD27A257D027F6E
:10516300021293D87BFF7A2479707D307FF012A1ED
:10517300897BFF7A2479AE9000127432F07D307F00
:10518300F112A1B1900145E024CE6012146017140E
:10519300601C240370207BFF7A2479C2801E7BFF6E
:1051A3007A2479D080167BFF7A2479DE800E7BFF08
:1051B3007A2479EC80067BFF7A2479FA7D307FF2BA
:1051C30012A1898043900107E0640190001A7019CD
:1051D300041293C67BFF7A2579237D307FF012A1D9
:1051E300897BFF7A257946801874011293C67BFF69
:1051F3007A2479707D307FF012A1897BFF7A25793B
:0C520300547D307FF112A1891265382221
:1049D500900107E06003024C4590001A7403F0A3B0
:1049E5007401F0A374F1F0A37405F07BE71293D37F
:1049F5007BFF7A2579237D307FF012A1897BFF7AB1
:104A050024794C9000127401F07D307FF112A1B130
:104A15007BFF7A2479939000127403F07D307FF246
:104A250012A1B17BFF7A2479A47D307FF312A1898D
:104A35007BFF7A2479AE900012740BF07D307FF401
:104A450012A1B190011EE024CE601214601714600B
:104A55001C240370207BFF7A2479C2801E7BFF7A99
:104A65002479D080167BFF7A2479DE800E7BFF7A4D
:104A75002479EC80067BFF7A2479FA7D307FF51264
:104A8500A1897BFF7A2579057D307FF612A1899072
:104A95000B1EE0FF7E007C017D0412434E740F2F38
:104AA500F974083EA801FC7D017B017A0779007E37
:104AB500017F041242E990001A7403F0A314F0A3D5
:104AC50074F1F0A37405F07BE77A257D017F01126F
:104AD50093D87BFF7A2579237D307FF012A1897BDE
:104AE500FF7A2479AE9000127418F07D307FF112B0
:104AF500A1B190012BE024CE601214601714601C44
:104B0500240370207BFF7A2479C2801E7BFF7A24E0
:104B150079D080167BFF7A2479DE800E7BFF7A249C
:104B250079EC80067BFF7A2479FA7D307FF212A139
:104B3500897BFF7A25790F7D307FF312A1897BFF71
:104B45007A2479AE9000127425F07D307FF412A19D
:104B5500B1900138E024CE601214601714601C2453
:104B65000370207BFF7A2479C2801E7BFF7A24792B
:104B7500D080167BFF7A2479DE800E7BFF7A24793C
:104B8500EC80067BFF7A2479FA7D307FF512A189C6
:104B95007BFF7A2579197D307FF612A189900B1E4E
:104BA500E0FF7E007C017D0412434E740F2FF974E3
:104BB500083EA801FC7D017B017A0779007E017F13
:104BC500041242E990001A7403F0A3F0A374F1F003
:104BD500A37405F07BE77A257D027F021293D87BCB
:104BE500FF7A2579237D307FF012A1897BFF7A2416
:104BF50079AE9000127432F07D307FF112A1B19040
:104C05000145E024CE601214601714601C24037063
:104C1500207BFF7A2479C2801E7BFF7A2479D0809D
:104C2500167BFF7A2479DE800E7BFF7A2479EC806F
:104C3500067BFF7A2479FA7D307FF212A189805DA7
:104C4500900107E0640190001A702604F0A3F0A318
:104C550074F1F0A37405F07BE71293D37BFF7A25FB
:104C650079237D307FF012A1897BFF7A25794680F3
:104C7500257401F0A3F0A374F1F0A37405F07BE7AC
:104C85001293D37BFF7A2579237D307FF012A1899A
:104C95007BFF7A2579547D307FF112A18912653821
:014CA50022EC
:107B220090001A7401F0A3F0A374F1F0A37405F0AD
:107B32007BE81293D37BFF7A25796A7D307FF0123E
:107B4200A189900107E070277BFF7A24794C90008D
:107B52001204F07D307FF112A1B17BFF7A25798981
:107B62009000127403F07D307FF212A1B1801A905E
:107B72000107E07BFFB401067A25794680047A2565
:107B820079997D307FF112A189900B1EE0FF7E0072
:107B92007C017D0412434E740F2FF974083EA80134
:107BA200FC7D017B017A0779007E017F041242E9A4
:037BB20002655F0A
:10614A0090001A7401F0A3F0A374F1F0A37405F09F
:10615A007BE91293D37BFF7A2579AD7D307FF012EC
:10616A00A189900107E060030262087BFF7A257922
:10617A00CD90001204F07D307FF112A1B17BFF7A3D
:10618A002579DE9000127409F07D307FF212A1B1F8
:10619A00900114E07BFF20E0067A2579ED80047AED
:1061AA002579FB7D307FF312A189900114E07BFFF2
:1061BA0020E1067A26790980047A2679177D307FCC
:1061CA00F412A189900114E0541824F8601424F8F8
:1061DA00601824F8601C2418703E7BFF7A26792701
:1061EA0080167BFF7A267935800E7BFF7A267943E3
:1061FA0080067BFF7A26794F7D307FF680179001E3
:10620A0007E07BFFB401067A25794680047A26796D
:10621A005B7D307FF112A189900B1EE0FF7E007C2E
:10622A00017D0412434E740F2FF974083EA801FC35
:10623A007D017B017A0779007E017F041242E9021F
:02624A00655F8E
:10624C0090001A7401F0A3F0A374F1F0A37405F09C
:10625C007BEA1293D37BFF7A26796F7D307FF01225
:10626C00A189900107E0600302630A7BFF7A25791C
:10627C00CD90001204F07D307FF112A1B17BFF7A3A
:10628C002579DE9000127409F07D307FF212A1B1F5
:10629C00900114E07BFF20E0067A2579ED80047AEA
:1062AC002579FB7D307FF312A189900114E07BFFEF
:1062BC0020E1067A26790980047A2679177D307FC9
:1062CC00F412A189900114E0541824F8601424F8F5
:1062DC00601824F8601C2418703E7BFF7A267927FE
:1062EC0080167BFF7A267935800E7BFF7A267943E0
:1062FC0080067BFF7A26794F7D307FF680179001E0
:10630C0007E07BFFB401067A25794680047A26796A
:10631C008F7D307FF112A189900B1EE0FF7E007CF7
:10632C00017D0412434E740F2FF974083EA801FC32
:10633C007D017B017A0779007E017F041242E9021C
:02634C00655F8B
:1067EE0090001A7401F0A3F0A374F1F0A37405F0F5
:1067FE007BEB1293D37BFF7A2679A47D307FF01248
:10680E00A189900107E070797BFF7A2679C190000B
:10681E001204F07D307FF112A1B17BFF7A2679D17F
:10682E009000127409F07D307FF212A1B190011424
:10683E00E07BFF20E0067A2579ED80047A2579FB4E
:10684E007D307FF312A189900114E0540624FE607E
:10685E001424FE601824FE601C2406703E7BFF7A12
:10686E0026792780167BFF7A267935800E7BFF7A74
:10687E0026794380067BFF7A26794F7D307FF48020
:10688E0017900107E07BFFB401067A257946800454
:10689E007A2679DF7D307FF112A189900B1EE0FF01
:1068AE007E007C017D0412434E740F2FF974083E56
:1068BE00A801FC7D017B017A0779007E017F04121D
:0568CE0042E902655FD4
:10749E00780D7C007D017BFF7A3079577E007F046A
:1074AE001242E99000117401F0A37400F0A3740D60
:1074BE00F09000227401F0A3F0900011E0F9A3E027
:1074CE00FAA3E0900024C9F0A3EAF0A3E9F0A374B4
:1074DE0004F0A374F1F0A37403F0A374FFF07BE641
:1074EE007A01E4FDFF1264747BFF7A2679F57D3014
:1074FE007FF012A1897BFF7A27790F7D2C7FF11205
:10750E00A1897BFF7A27791C7D2C7FF212A1897BC2
:10751E00FF7A2779297D2C7FF312A1897BFF7A27A9
:0C752E0079327D2C7FF412A18902655F88
:1083310090001A7401F0A3F0A374F1F0A37405F096
:108341007BF91293D37BFF7A27793B7D307FF01243
:10835100A189900107E070147BFF7A277960900072
:108361001204F07D307FF112A1B1801A900107E073
:108371007BFFB401067A25794680047A2779777DD7
:10838100307FF112A189900B1EE0FF7E007C017D00
:108391000412434E740F2FF974083EA801FC7D01AD
:1083A1007B017A0779007E017F041242E902655F51
:1083B10090001A7401F0A3F0A374F1F0A37405F016
:1083C1007BFA1293D37BFF7A27798C7D307FF01271
:1083D100A189900107E070147BFF7A2779609000F2
:1083E1001204F07D307FF112A1B1801A900107E0F3
:1083F1007BFFB401067A25794680047A2779B17D1D
:10840100307FF112A189900B1EE0FF7E007C017D7F
:108411000412434E740F2FF974083EA801FC7D012C
:108421007B017A0779007E017F041242E902655FD0
:1084310090001A7401F0A3F0A374F1F0A37405F095
:108441007BFB1293D37BFF7A2779C67D307FF012B5
:10845100A189900107E070147BFF7A2779E99000E8
:108461001204F07D307FF112A1B1801A900107E072
:108471007BFFB401067A25794680047A28790E7D3E
:10848100307FF112A189900B1EE0FF7E007C017DFF
:108491000412434E740F2FF974083EA801FC7D01AC
:1084A1007B017A0779007E017F041242E902655F50
:10951C0090001A7401F0A3F0A374F1F0A37405F099
:10952C007BFC1293D37BFF7A28791F7D307FF0125E
:10953C00A189900107E07BFF70127A277960900077
:10954C001204F07D307FF112A1B1800B7A287942A0
:10955C007D307FF112A189900B1EE0FF7E007C0113
:10956C007D0412434E740F2FF974083EA801FC7D44
:10957C00017B017A0779007E017F041242E90265C2
:01958C005F7F
:10604000780D7C007D017BFF7A30795B7E007F07D5
:106050001242E99000147401F0A37400F0A3740DCF
:10606000F09000227402F0A314F0900014E0F9A361
:10607000E0FAA3E0900024C9F0A3EAF0A3E9F0A3BA
:106080007406F0A374F1F0A37403F0A374FFF07B23
:106090001912646F7BFF7A1A79DE7D307FF012A1CE
:1060A000897BFF7A2879537D2C7FF112A1897BFFB0
:1060B0007A2879607D2C7FF212A1897BFF7A28797A
:1060C000717D2C7FF312A1897BFF7A2879827D2C48
:1060D0007FF412A1897BFF7A28798F7D2C7FF512BE
:1060E000A1897BFF7A28799A7D2C7FF612A189906D
:1060F00000227402F0A3F0900014E0FBA3E0FAA3E6
:10610000E02406F9E43AFA900024EBF0A3EAF0A3C5
:10611000E9F0A37401F0A374F1F0A37403F0A37485
:10612000FFF07B197A007D017F011264747BFF7A96
:106130001A79DE7D307FF012A1897BFF7A2879AB56
:0A6140007D2C7FF112A18902655F3A
:10753A00780D7C007D017BFF7A3079627E007F04C2
:10754A001242E99000117401F0A37400F0A3740DC3
:10755A00F09000227401F0A3F0900011E0F9A3E08A
:10756A00FAA3E0900024C9F0A3EAF0A3E9F0A37417
:10757A0004F0A374F1F0A37403F0A374FFF07BF595
:10758A007A01E4FDFF1264747BFF7A2879B47D30B6
:10759A007FF012A1897BFF7A2879CA7D2C7FF112AC
:1075AA00A1897BFF7A2879D97D2C7FF212A1897B68
:1075BA00FF7A2879E27D2C7FF312A1897BFF7A2852
:0C75CA0079ED7D2C7FF412A18902655F31
:1095F70090001A7401F0A3F0A374F1F0A37405F0BE
:109607007B257A27E4FDFF1293D87BFF7A2879F62A
:109617007D307FF012A189900107E07BFF70067A09
:1096270029791780047A2979217D307FF112A18960
:10963700900B1EE0FF7E007C017D0412434E740FE9
:109647002FF974083EA801FC7D017B017A07790098
:0A9657007E017F041242E902655F04
:1096610090001A7401F0A3F0A374F1F0A37405F053
:109671007B267A27E4FDFF1293D87BFF7A29792B89
:109681007D307FF012A189900107E07BFF70067A9F
:1096910029791780047A2979217D307FF112A189F6
:1096A100900B1EE0FF7E007C017D0412434E740F7F
:1096B1002FF974083EA801FC7D017B017A0779002E
:0A96C1007E017F041242E902655F9A
:1096CB0090001A7401F0A3F0A374F1F0A37405F0E9
:1096DB007427FBFAE4FDFF1293D87BFF7A297946B6
:1096EB007D307FF012A189900107E07BFF70067A35
:1096FB0029791780047A2979217D307FF112A1898C
:10970B00900B1EE0FF7E007C017D0412434E740F14
:10971B002FF974083EA801FC7D017B017A077900C3
:0A972B007E017F041242E902655F2F
:1097350090001A7401F0A3F0A374F1F0A37405F07E
:109745007B287A27E4FDFF1293D87BFF7A2979637A
:109755007D307FF012A189900107E07BFF70067ACA
:1097650029791780047A2979217D307FF112A18921
:10977500900B1EE0FF7E007C017D0412434E740FAA
:109785002FF974083EA801FC7D017B017A07790059
:0A9795007E017F041242E902655FC5
:10812900780D7C007D017BFF7A3079667E007F02C5
:108139001242E990000F7401F0A37400F0A3740DCA
:10814900F09000227401F0A3F090000FE0F9A3E091
:10815900FAA3E0900024C9F0A3EAF0A3E9F0A3741C
:1081690002F0A374F1F0A37403F0A374FFF07BF69B
:108179007A01E4FDFF1264747BFF7A2979827D30EC
:108189007FF012A1897BFF7A29799C7D2C7FF112DE
:10819900A1897BFF7A2979B17D2C7FF212A189020D
:0281A900655F10
:1088940090001A7401F0A3F0A374F1F0A37405F02E
:1088A4007B397A27E4FDFF1293D87BFF7A2979C2BA
:1088B4007D307FF012A189900107E070087BFF7A78
:1088C4002979E18013900107E07BFFB401067A2542
:1088D400794680047A2579547D307FF112A18990FC
:1088E4000B1EE0FF7E007C017D0412434E740F2FAB
:1088F400F974083EA801FC7D017B017A0779007EAA
:09890400017F041242E902655FE3
:10890D0090001A7401F0A3F0A374F1F0A37405F0B4
:10891D007B3A7A27E4FDFF1293D87BFF7A2979EB16
:10892D007D307FF012A189900107E070087BFF7AFE
:10893D002A790A8013900107E07BFFB401067A259E
:10894D00794680047A2579547D307FF112A1899082
:10895D000B1EE0FF7E007C017D0412434E740F2F31
:10896D00F974083EA801FC7D017B017A0779007E30
:09897D00017F041242E902655F6A
:1081AB00780D7C007D017BFF7A3079687E007F0241
:1081BB001242E990000F7401F0A37400F0A3740D48
:1081CB00F09000227401F0A3F090000FE0F9A3E00F
:1081DB00FAA3E0900024C9F0A3EAF0A3E9F0A3749A
:1081EB0002F0A374F1F0A37403F0A374FFF07BF718
:1081FB007A01E4FDFF1264747BFF7A2A79187D30D3
:10820B007FF012A1897BFF7A2A79327D2C7FF112C4
:10821B00A1897BFF7A2A79477D2C7FF212A18902F3
:02822B00655F8D
:1089860090001A7401F0A3F0A374F1F0A37405F03B
:108996007B4D7A27E4FDFF1293D87BFF7A2A79581C
:1089A6007D307FF012A189900107E070087BFF7A85
:1089B6002979E18013900107E07BFFB401067A254F
:1089C600794680047A2579547D307FF112A1899009
:1089D6000B1EE0FF7E007C017D0412434E740F2FB8
:1089E600F974083EA801FC7D017B017A0779007EB7
:0989F600017F041242E902655FF1
:1089FF0090001A7401F0A3F0A374F1F0A37405F0C2
:108A0F007B4E7A27E4FDFF1293D87BFF7A2A797782
:108A1F007D307FF012A189900107E070087BFF7A0B
:108A2F002A790A8013900107E07BFFB401067A25AB
:108A3F00794680047A2579547D307FF112A189908F
:108A4F000B1EE0FF7E007C017D0412434E740F2F3E
:108A5F00F974083EA801FC7D017B017A0779007E3D
:098A6F00017F041242E902655F77
:10822D00780D7C007D017BFF7A30796A7E007F02BC
:10823D001242E990000F7401F0A37400F0A3740DC5
:10824D00F09000227401F0A3F090000FE0F9A3E08C
:10825D00FAA3E0900024C9F0A3EAF0A3E9F0A37417
:10826D0002F0A374F1F0A37403F0A374FFF07BF894
:10827D007A01E4FDFF1264747BFF7A2A79967D30D2
:10828D007FF012A1897BFF7A2A79AC7D2C7FF112C8
:10829D00A1897BFF7A2A79B57D2C7FF212A1890203
:0282AD00655F0B
:108A780090001A7401F0A3F0A374F1F0A37405F048
:108A88007B617A27E4FDFF1293D87BFF7A2A79C2AB
:108A98007D307FF012A189900107E070087BFF7A92
:108AA8002979E18013900107E07BFFB401067A255C
:108AB800794680047A2579997D307FF112A18990D1
:108AC8000B1EE0FF7E007C017D0412434E740F2FC5
:108AD800F974083EA801FC7D017B017A0779007EC4
:098AE800017F041242E902655FFE
:108AF10090001A7401F0A3F0A374F1F0A37405F0CF
:108B01007B627A27E4FDFF1293D87BFF7A2A79DD15
:108B11007D307FF012A189900107E070087BFF7A18
:108B21002A79F38013900107E07BFFB401067A25CF
:108B3100794680047A2579997D307FF112A1899057
:108B41000B1EE0FF7E007C017D0412434E740F2F4B
:108B5100F974083EA801FC7D017B017A0779007E4A
:098B6100017F041242E902655F84
:1075D600780D7C007D017BFF7A30796C7E007F041C
:1075E6001242E99000117401F0A37400F0A3740D27
:1075F600F09000227401F0A3F0900011E0F9A3E0EE
:10760600FAA3E0900024C9F0A3EAF0A3E9F0A3747A
:1076160004F0A374F1F0A37403F0A374FFF07BF9F4
:107626007A01E4FDFF1264747BFF7A2B79007D30CA
:107636007FF012A1897BFF7A2B79147D2C7FF112C2
:10764600A1897BFF7A2B79217D2C7FF212A1897B80
:10765600FF7A2B792E7D2C7FF312A1897BFF7A2B63
:0C76660079397D2C7FF412A18902655F48
:1090160090001A7401F0A3F0A374F1F0A37405F0A4
:109026007B757A27E4FDFF1293D87BFF7A2B7900B4
:109036007D307FF012A1897BFF7A2B79447D307FCA
:10904600F112A189900107E07BFF70067A2A79F375
:1090560080047A1C79DC7D307FF212A189900B1E88
:10906600E0FF7E007C017D0412434E740F2FF974DD
:10907600083EA801FC7D017B017A0779007E017F0D
:07908600041242E902655FDC
:10908D0090001A7401F0A3F0A374F1F0A37405F02D
:10909D007B767A27E4FDFF1293D87BFF7A2B79003C
:1090AD007D307FF012A1897BFF7A2B79527D307F45
:1090BD00F112A189900107E07BFF70067A2A79F3FE
:1090CD0080047A1C79DC7D307FF212A189900B1E11
:1090DD00E0FF7E007C017D0412434E740F2FF97466
:1090ED00083EA801FC7D017B017A0779007E017F96
:0790FD00041242E902655F65
:1091040090001A7401F0A3F0A374F1F0A37405F0B5
:109114007B777A27E4FDFF1293D87BFF7A2B7900C3
:109124007D297FF012A1897BFF7A2B79607D307FC6
:10913400F112A189900107E07BFF70067A2A79F386
:1091440080047A1C79DC7D307FF212A189900B1E99
:10915400E0FF7E007C017D0412434E740F2FF974EE
:10916400083EA801FC7D017B017A0779007E017F1E
:07917400041242E902655FED
:10917B0090001A7401F0A3F0A374F1F0A37405F03E
:10918B007B787A27E4FDFF1293D87BFF7A2B79004B
:10919B007D297FF012A1897BFF7A2B796C7D307F43
:1091AB00F112A189900107E07BFF70067A2A79F30F
:1091BB0080047A1C79DC7D307FF212A189900B1E22
:1091CB00E0FF7E007C017D0412434E740F2FF97477
:1091DB00083EA801FC7D017B017A0779007E017FA7
:0791EB00041242E902655F76
:1082AF00780D7C007D017BFF7A3079707E007F0234
:1082BF001242E990000F7401F0A37400F0A3740D43
:1082CF00F09000227401F0A3F090000FE0F9A3E00A
:1082DF00FAA3E0900024C9F0A3EAF0A3E9F0A37495
:1082EF0002F0A374F1F0A37403F0A374FFF07BFA10
:1082FF007A01E4FDFF1264747BFF7A2B79787D306D
:10830F007FF012A1897BFF7A2B79927D2C7FF1125E
:10831F00A1897BFF7A2B799B7D2C7FF212A1890299
:02832F00655F88
:1091F20090001A7401F0A3F0A374F1F0A37405F0C7
:109202007B897A27E4FDFF1293D87BFF7A2B79A61C
:109212007D307FF012A1897BFF7A2B79C57D307F6B
:10922200F112A189900107E07BFF70067A2A79F397
:1092320080047A1C79DC7D307FF212A189900B1EAA
:10924200E0FF7E007C017D0412434E740F2FF974FF
:10925200083EA801FC7D017B017A0779007E017F2F
:07926200041242E902655FFE
:1092690090001A7401F0A3F0A374F1F0A37405F04F
:109279007B8A7A27E4FDFF1293D87BFF7A2B79CF7B
:109289007D307FF012A1897BFF7A2B79F07D307FC9
:10929900F112A189900107E07BFF70067A2A79F320
:1092A90080047A1C79DC7D307FF212A189900B1E33
:1092B900E0FF7E007C017D0412434E740F2FF97488
:1092C900083EA801FC7D017B017A0779007E017FB8
:0792D900041242E902655F87
:1069AB0090001A7401F0A3F0A374F1F0A37405F036
:1069BB007BFB7A01E4FDFF1293D87BFF7A2B79FCEA
:1069CB007D307FF012A189900107E07BFF20E0066C
:1069DB007A2C790E80047A2C79207D307FF112A1EC
:1069EB0089900107E07BFF20E1067A2C7932800445
:1069FB007A2C79447D307FF212A189900107E07BDC
:106A0B00FF20E2067A2C795680047A2C79647D304B
:106A1B007FF312A189900107E07BFF20E3067A2C1C
:106A2B00797280047A2C79807D307FF412A1899061
:106A3B000107E07BFF20E5067A2C798E80047A2C07
:106A4B0079A27D307FF512A189900B1EE0FF7E00AD
:106A5B007C017D0412434E740F2FF974083EA8017C
:106A6B00FC7D017B017A0779007E017F041242E9EC
:036A7B0002655F52
:1077A700780D7C007D017BFF7A3079727E007F0443
:1077B7001242E99000117401F0A37400F0A3740D54
:1077C700F09000227401F0A3F0900011E0F9A3E01B
:1077D700FAA3E0900024C9F0A3EAF0A3E9F0A374A8
:1077E70004F0A374F1F0A37403F0A374FFF07B1A01
:1077F70012646F7BFF7A1A79E77D307FF012A189D7
:107807007BFF7A2C79B67D2C7FF112A1897BFF7AD9
:107817002C79C97D2C7FF212A1897BFF7A2C79DC28
:107827007D2C7FF312A1897BFF7A2C79ED7D2C7F4C
:07783700F412A18902655F54
:108B6A0090001A7401F0A3F0A374F1F0A37405F055
:108B7A007B097A02E4FDFF1293D87BFF7A2C79FEF7
:108B8A007D307FF012A189900107E070087BFF7A9F
:108B9A002A79F38013900107E07BFFB401067A2556
:108BAA00794680047A2579997D307FF112A18990DE
:108BBA000B1EE0FF7E007C017D0412434E740F2FD2
:108BCA00F974083EA801FC7D017B017A0779007ED1
:098BDA00017F041242E902655F0B
:108BE30090001A7401F0A3F0A374F1F0A37405F0DC
:108BF3007B0A7A02E4FDFF1293D87BFF7A2D791A60
:108C03007D307FF012A189900107E070087BFF7A25
:108C13002A79F38013900107E07BFFB401067A25DC
:108C2300794680047A2579997D307FF112A1899064
:108C33000B1EE0FF7E007C017D0412434E740F2F58
:108C4300F974083EA801FC7D017B017A0779007E57
:098C5300017F041242E902655F91
:10979F0090001A7401F0A3F0A374F1F0A37405F014
:1097AF007B0B7A02E4FDFF1293D87BFF7A2D79367B
:1097BF007D307FF012A189900107E07BFF70067A60
:1097CF002A79F380047A2579997D307FF112A18966
:1097DF00900B1EE0FF7E007C017D0412434E740F40
:1097EF002FF974083EA801FC7D017B017A077900EF
:0A97FF007E017F041242E902655F5B
:108C5C0090001A7401F0A3F0A374F1F0A37405F062
:108C6C007B0C7A02E4FDFF1293D87BFF7A2D794CB2
:108C7C007D307FF012A189900107E070087BFF7AAC
:108C8C002A79F38013900107E07BFFB401067A2563
:108C9C00794680047A2579997D307FF112A18990EB
:108CAC000B1EE0FF7E007C017D0412434E740F2FDF
:108CBC00F974083EA801FC7D017B017A0779007EDE
:098CCC00017F041242E902655F18
:10783E00780D7C007D017BFF7A3079767E007F04A7
:10784E001242E99000117401F0A37400F0A3740DBC
:10785E00F09000227401F0A3F0900011E0F9A3E083
:10786E00FAA3E0900024C9F0A3EAF0A3E9F0A37410
:10787E0004F0A374F1F0A37403F0A374FFF07B1B68
:10788E0012646F7BFF7A2D79627D307FF012A189B1
:10789E007BFF7A2D796B7D2C7FF112A1897BFF7A8C
:1078AE002D79747D2C7FF212A1897BFF7A2D797D43
:1078BE007D2C7FF312A1897BFF7A2D79867D2C7F1B
:0778CE00F412A18902655FBD
:1098090090001A7401F0A3F0A374F1F0A37405F0A9
:109819007B1D7A02E4FDFF1293D87BFF7A2D798FA5
:109829007D307FF012A189900107E07BFF70067AF5
:109839002A79F380047A2979217D307FF112A1896F
:10984900900B1EE0FF7E007C017D0412434E740FD5
:109859002FF974083EA801FC7D017B017A07790084
:0A9869007E017F041242E902655FF0
:1098730090001A7401F0A3F0A374F1F0A37405F03F
:109883007B1E7A02E4FDFF1293D87BFF7A2D79A128
:109893007D307FF012A189900107E07BFF70067A8B
:1098A3002A79F380047A2979217D307FF112A18905
:1098B300900B1EE0FF7E007C017D0412434E740F6B
:1098C3002FF974083EA801FC7D017B017A0779001A
:0A98D3007E017F041242E902655F86
:1098DD0090001A7401F0A3F0A374F1F0A37405F0D5
:1098ED007B1F7A02E4FDFF1293D87BFF7A2D79B3AB
:1098FD007D307FF012A189900107E07BFF70067A21
:10990D002A79F380047A2979217D307FF112A1899A
:10991D00900B1EE0FF7E007C017D0412434E740F00
:10992D002FF974083EA801FC7D017B017A077900AF
:0A993D007E017F041242E902655F1B
:1072AF00780D7C007D017BFF7A30797A7E007F023A
:1072BF001242E990000F7401F0A37400F0A3740D53
:1072CF00F09000227401F0A3F090000FE0F9A3E01A
:1072DF00FAA3E0900024C9F0A3EAF0A3E9F0A374A5
:1072EF0002F0A374F0F0A37404F0E4A3F07B207A0F
:1072FF0002FDFF1264747BFF7A2D79C57D307FF01C
:10730F0012A1897BFF7A2D79D77D307FF112A18968
:10731F007BFF7A2D79F1E4900023F07D307FF2121C
:10732F00A1C0900B1EE0FF7E007C017D0412434E36
:10733F00740F2FF974083EA801FC7D017B017A07B9
:0C734F0079007E017F041242E902655FB4
:10862B00780D7C007D017BFF7A30797C7E007F02A8
:10863B001242E990000F7401F0A37400F0A3740DC3
:10864B00F09000227401F0A3F090000FE0F9A3E08A
:10865B00FAA3E0900024C9F0A3EAF0A3E9F0A37415
:10866B0002F0A374F1F0A37403F0A374FFF07B1C6E
:10867B0012646F7BFF7A2E79007D307FF012A18917
:10868B007BFF7A2E79097D2C7FF112A1897BFF7AF2
:0D869B002E79127D2C7FF212A18902655FFD
:1092E00090001A7401F0A3F0A374F1F0A37405F0D8
:1092F0007B317A02E4FDFF1293D87BFF7A2E791737
:109300007D307FF012A189900107E0700F7BFF7A1A
:109310002A79F37D307FF112A18980FE7BFF7A29C3
:1093200079217D307FF112A189900B1EE0FF7E0034
:109330007C017D0412434E740F2FF974083EA8017E
:10934000FC7D017B017A0779007E017F041242E9EE
:0393500002655F54
:1093530090001A7401F0A3F0A374F1F0A37405F064
:109363007B327A02E4FDFF1293D87BFF7A2E7929B0
:109373007D307FF012A189900107E0700F7BFF7AA7
:109383002A79F37D307FF112A18980FE7BFF7A2950
:1093930079217D307FF112A189900B1EE0FF7E00C1
:1093A3007C017D0412434E740F2FF974083EA8010B
:1093B300FC7D017B017A0779007E017F041242E97B
:0393C30002655FE1
:05634E0090000FEFF0CC
:10635300E4FEEF24EB601604600302644690070337
:10636300E0D394015003026446E0148010900702C6
:10637300E0FFA3E0C39F4003026446E00490000FE4
:10638300F0900703E01475F00984FF90000FE01408
:10639300FD75F009846F6003026446900703E014FF
:1063A30075F00384FFED75F003846F702EE01475B0
:1063B300F00384AEF0AF067E007C017D0412434EF1
:1063C300740F2FF974083EA801FC7D017B017A0745
:1063D30079007E017F041242E98023E4FF12735B9C
:1063E3007F0212735B90000FE01475F00384AFF02B
:1063F300900B1EEFF0129B2C900700E0A3E090009F
:106403000FE01475F00384AFF0900B1EEFF07E00E5
:106413007C017D0412434E740F2FF974083EFA7BFE
:1064230001C002C00178007C077D01D001D0027E4B
:10643300017F041242E9900B1EE0FF129B2CE4FF44
:03644300124CA652
:016446002233
:10653800900B1EE0FF7E007C017D0412434E740F19
:106548002FF974083EA801FC7D017B017A077900C8
:076558007E017F041242E9FD
:10655F00900B1DE0FF25E025E024C1F582E4340512
:10656F00F583E060047E0180027E00EF25E025E0E8
:10657F0024C1F582E43405F583E0C3940A50047F07
:10658F000180027F00EF5E601F900B1DE025E0256C
:10659F00E024C1F582E43405F583E01475F003843B
:1065AF00900B1EE5F0F08005E4900B1EF0900B1E93
:1065BF00E0FF7E007C017D0412434E740F2FF974AF
:1065CF00083EFA7B01C002C00178007C077D01D034
:1065DF0001D0027E017F041242E9900B1EE0FF12F0
:1065EF009B2C900B1DE0FF25E025E024C2F582E4F3
:1065FF003405F583E0C394065012EF25E025E0241F
:10660F00C2F582E43405F583E0FF8002E4FF124C0B
:02661F00A622B1
:10005600900700E0FEA3E0FFEE701AEF14600C04B8
:100066007013E4900014F0A3F08032900014E4F0D2
:10007600A304F08028900700E0FEA3E0FF7C007D4B
:100086001412434E900710E02404F582E43407F579
:1000960083E02FFFEC3E900014F0A3EFF0900014E5
