:020000040800F2
:100000000004002003230008110200081302000866
:10001000170200081B0200081F0200080000000071
:1000200000000000000000000000000023020008A3
:100030002502000800000000270200082123000814
:100040002323000823230008232300082323000878
:100050002323000823230008232300082323000868
:100060002323000823230008232300082323000858
:100070002323000823230008232300082323000848
:100080002323000823230008232300082323000838
:100090002323000823230008232300082323000828
:1000A0002323000823230008232300082323000818
:1000B0002323000823230008232300082323000808
:1000C00023230008232300082323000823230008F8
:1000D00023230008C70A0008D10A000823230008C8
:1000E00023230008232300082323000823230008D8
:1000F00023230008232300082323000823230008C8
:1001000023230008232300082323000823230008B7
:1001100023230008232300082323000823230008A7
:100120002323000823230008232300082323000897
:10013000DFF80CD002F0FCF800480047B5010008D9
:10014000D01D0020704710B500F090FF4FF48030B4
:1001500000F0ACFF00F0E9FF2A490870084600787B
:10016000012826D1102001F03BFB022001F024FBE6
:10017000002001F01CF8002001F02BF84FF4806003
:1001800001F01EF84FF4E0114FF4803000F0F2FF60
:10019000012000F0FBFF00BF392000F0AAFF00287B
:1001A000FAD0022000F0F5FF00BF00F0FBFF0828A6
:1001B000FBD110BD10B500F016FDFFF7C4FFFFF72F
:1001C000C1FF0121080201F0ABF800F065F800F072
:1001D00003FC4321012000F0BDF90A200A49086010
:1001E00002E00A2000F02DF8074801680068401E70
:1001F000054A10600029F4D1044800F0E9F8002015
:1002000010BD704742000020600000200040000840
:10021000704700BFFEE700BFFEE700BFFEE700BF7C
:10022000FEE7704770477047014607E0062201E08D
:10023000531E9AB2002AFBDC4B1E99B20029F5DC52
:10024000704710B501460EE04FF47A7207E0642360
:1002500001E05C1EA3B2002BFBDC541EA2B2002AFC
:10026000F5DC4C1EA1B20029EEDC10BD10B5034632
:10027000002000BF01E01954401C9042FBD310BD88
:1002800010B50346002000BF02E00C5C1C54401C6B
:100290009042FAD310BD000000B58FB04FF6FF704A
:1002A000ADF8380003208DF83A0018208DF83B0097
:1002B0000EA9434800F09EFD4FF68070ADF838005F
:1002C0000EA9404800F096FD012001900320029005
:1002D0000220039001200490102005900020069039
:1002E00010200790002008904FF400300990002063
:1002F0000A900B9001A80C900D9005A801F0B5FD97
:100300000121102001F0B8FE0FB000BD01204FF018
:10031000E0410880002008804020704700207021C4
:10032000294A1170090608887047014600204FF0DD
:10033000E042108811B140F0040002E04FF6FB7279
:1003400010404FF0E04210807047014600204FF00F
:10035000E042108811B140F0080002E04FF6F77259
:1003600010404FF0E04210807047014600204FF0EF
:10037000E042108811B140F0020002E04FF6FD7239
:1003800010404FF0E04210807047002070210E4A6C
:1003900011700906B1F80100704710B590230A4C9E
:1003A00023700023094C23704FF0E0435988B3F8C1
:1003B0000320C1F30901C2F309029002084310BDF2
:1003C000001401400018014000000170000002709C
:1003D00070B504466568F84805600068804770BDE0
:1003E00008B54FF4A06000F029FC25208DF800002E
:1003F00002208DF8010000208DF8020001208DF808
:100400000300684600F01FFC26208DF80000022043
:100410008DF8010001208DF802008DF80300684678
:1004200000F011FC08BD1FB54FF4165000900020DD
:10043000ADF80400ADF80600ADF80800ADF80C000A
:100440000C20ADF80A006946DC4801F024F840F2BF
:100450002551DA4801F097F9012240F22551D74899
:1004600001F096F80121D54801F086F84021D348E3
:1004700001F056F91FBD08B50420ADF800001820A2
:100480008DF8030003208DF802006946CC4800F087
:10049000B1FC0820ADF8000004208DF80300694687
:1004A000C74800F0A7FC08BD10B50121052000F0E9
:1004B00044FF0121480400F04DFF10BD2DE9F0413B
:1004C00004460E4617464FF00008012000F005FBD9
:1004D000208A618A884201D14FF00108002000F093
:1004E000FCFA002514E0705D228A616888540120BE
:1004F00000F0F3FA208A401C80B22082A189884251
:1005000001DB00202082002000F0E7FA681C85B2A1
:10051000BD42E8DBB8F1010F05D1012240F227719D
:10052000206801F035F8BDE8F0812DE9F04104467E
:100530000E4617460CB9A34D05E0012C01D1A24D82
:1005400001E0BDE8F0813A4631462846FFF7B6FFA4
:1005500000BFF6E713B50446012201A92046FFF7C4
:10056000E4FF1CBD10B5044621460120FFF7F2FF51
:10057000002010BD10B500F036FB10BD2DE9F04194
:1005800006460F4615460420904908700120904900
:100590000870FFF7EFFF01F02EF9352001F09AFB0C
:1005A0007005400D13D18B49086009E0304601F019
:1005B00064F98649087087480068401C85490860CE
:1005C0008448006818B9814800780428EED0824831
:1005D000066000243BE0E01C285C80490860084677
:1005E000006800020860A01C285C096808447B4978
:1005F00008600846006800020860601C285C096802
:100600000844764908600846006800020860285DD2
:100610000968084471490860084601686E48006826
:1006200001F0BDF9694908706B48006800686B49C2
:100630000968884205D0002065490870401EBDE861
:10064000F08165480068001D63490860241DF019A9
:1006500061490968884203D95C4800780428BAD007
:100660000120ECE770B502460D46002310783028D3
:1006700043D15078782802D0507858283DD19078CE
:1006800008B9002070BD022130E0505C10B92B6029
:1006900001242DE0505C412802DB505C46280BDD34
:1006A000505C612802DB505C662805DD505C302818
:1006B00019DB505C392816DC505C302805DB505CB7
:1006C000392802DC505C30380AE0505C412805DBF8
:1006D000505C462802DC505C373801E0505C5738EB
:1006E00000EB031301E0002402E0491C0B29CCD3EA
:1006F00000BF0B2934D3002432E000212AE0505CF3
:1007000010B92B60012427E0505C6B2802D0505CAC
:100710004B2804D119B19B022B6001241CE0505CD2
:100720006D2802D0505C4D2804D119B11B052B60F7
:10073000012411E0505C302809DB505C392806DCCC
:10074000505C303803EB830600EB460301E00024E5
:1007500002E0491C0B29D2D300BF0B2900D300248F
:1007600020468FE770B504460D46012000F0B5F92C
:10077000A68A002000F0B1F9E08AB04201D1002041
:1007800070BDE18AA068405C2870012000F0A5F9E6
:10079000E08A401C80B2E082E189884201DB0020CF
:1007A000E082002000F099F90120E9E770B50446E5
:1007B0000E46ACB9034D19E074000020004400401F
:1007C000000801408C000020AC00002068000020E0
:1007D0006900002050000020540000206400002028
:1007E000012C01D1BE4D01E0002070BD31462846EC
:1007F000FFF7B8FFF9E7F0B587B00020029001904D
:10080000012701A93846FFF7D1FFC8B30A20B5492F
:100810000860B5480078012804D0022877D0042861
:1008200074D1B1E09DF80410B04802680068401C23
:10083000AE4B1860AE48815418460068852863D1D5
:10084000AB484078E8BBAA488078FF285CD1A8482C
:10085000C078B8B30025A64CE41C05E014F8012BC1
:1008600028466D1CA3490A54207808B1FF2DF5DDF8
:10087000002228466D1C9F490A540025641C06E08E
:1008800091E014F8012B28466D1C03A90A54207826
:1008900008B1102DF5DB002228466D1C03A90A546F
:1008A00002A903A8FFF7DEFE0298C11700EB9151E1
:1008B0008912914A11600298C11700EB9151891277
:1008C00001E021E017E0B0EB812104D01046006880
:1008D000401C114608600298B0F5F82F07DD18207B
:1008E000FFF740FE1820FFF73DFE07B0F0BD0620E1
:1008F000FFF738FE02E00620FFF734FE02207A49B7
:1009000008700020794908604CE000E049E09DF85B
:100910000410764802680068401C744B18607448E4
:10092000815418460068A0F58061053922D1704ACB
:10093000D21C4FF4806171480068FFF71FFE064625
:10094000002E06DA1820FFF70DFE1820FFF70AFE2A
:10095000CBE76A48006800F58060684908600620B7
:10096000FFF700FE66480068401C654908600020EB
:100970005E490860624800685F490968884202D1A0
:100980000420594908700DE00120574908700020E3
:10099000564908600620FFF7E5FD4320FFF7E2FD1A
:1009A00000E000BF02E04320FFF7DCFD00BF9CE752
:1009B00054484B49086054484860544888604FF494
:1009C00000608881C8810020088248828882C882AD
:1009D00088614F48C861704710B5FFF7E9FFFFF71E
:1009E00063FDFFF748FDFFF71EFDFFF7F9FC10BDA3
:1009F00010B5044640F22551206800F09AFEB0B1CF
:100A0000206800F02DFEC1B2A28A501CA082A0680E
:100A10008154A08AE18A884203D0E06908B1E06984
:100A20008047A08AE189884201DB0020A08240F251
:100A30002771206800F07DFE00B3608A218A884219
:100A40000CD1002240F22771206800F0A1FD0122A4
:100A500040F22661206800F09BFD33E0638A626803
:100A6000D15C206800F0F8FD608A401C80B2608292
:100A7000A189884226DB0020608223E040F22661C3
:100A8000206800F056FEE8B1608A218A88420AD1C7
:100A9000002240F22661206800F07AFDA06988B14A
:100AA000A06980470EE0638A6268D15C206800F02C
:100AB000D3FD608A401C80B26082A189884201DB3C
:100AC0000020608210BD10B51248FFF791FF10BDE5
:100AD00010B50348FFF78CFF10BD80F310887047F6
:100AE000AC000020600000204400002048000020EE
:100AF000CC100020CC1800205C0000205800002002
:100B00004C00002000440040CC000020CC08002015
:100B1000F70700088C00002000210020434A1268DB
:100B200042F48032414B1A6000BF404A126802F41E
:100B30000030491C10B9B1F5A06FF6D13B4A1268DC
:100B400012F4003F01D0012000E00020012843D131
:100B5000374A126842F01002354B1A601A46126882
:100B600022F003021A601A46126842F002021A606A
:100B70002E4A52682D4B5A601A4652685A601A46DD
:100B8000526842F480625A601A46526822F47C121B
:100B90005A601A46526842F4E8125A601A461268BD
:100BA00042F080721A6000BF204A126812F0007F83
:100BB000FAD01E4A526822F003021C4B5A601A46B1
:100BC000526842F002025A6000BF184A526802F0AE
:100BD0000C02082AF9D101E000BFFEE7704710B50A
:100BE000FFF79AFF10BD10B51048006840F00100F3
:100BF0000E490860084640680E4908400B494860A5
:100C0000084600680C490840084908600846006822
:100C100020F4802008600846406820F4FE00486008
:100C20004FF41F008860FFF7DAFF10BD001002408C
:100C3000002002400000FFF8FFFFF6FE36490143A6
:100C4000364A1160704770B5002100230F22C47826
:100C50004CB3324C246804F4E064C4F5E0644FEA19
:100C60001421C1F1040322FA01F2447804FA03F1D9
:100C7000847804EA020444EA01014FEA0111284C95
:100C80000678A155047804F01F054FF0010404FA1A
:100C900005F405784FEA65154FF0E02606EB85056B
:100CA000C5F8004109E0047804F01F050124AC40B8
:100CB0001C4D0678761145F8264070BD1A4A0A4048
:100CC00002431A4B1A60704741B1194A126842EA4E
:100CD00000024FF0E023C3F8102D07E0144A126819
:100CE00022EA00024FF0E023C3F8102D70470428D9
:100CF00008D14FF0E021096941F004014FF0E022F2
:100D0000116107E04FF0E021096921F004014FF083
:100D1000E0221161704700000000FA050CED00E0D0
:100D200000E400E080E100E080FFFF1F08ED00E04C
:100D300010ED00E010B50446C248844208D10121FC
:100D4000042000F014FB0021042000F010FB46E01A
:100D5000BD48844208D10121082000F008FB002191
:100D6000082000F004FB3AE0B848844208D1012191
:100D7000102000F0FCFA0021102000F0F8FA2EE01C
:100D8000B348844208D10121202000F0F0FA00216C
:100D9000202000F0ECFA22E0AE48844208D1012184
:100DA000402000F0E4FA0021402000F0E0FA16E0D4
:100DB000A948844208D10121802000F0D8FA0021FE
:100DC000802000F0D4FA0AE0A448844207D101212F
:100DD000801500F0CCFA0021A01500F0C8FA10BD73
:100DE00010B50121084600F0C2FA0021012000F0F0
:100DF000BEFA10BD2DE9F041024600250026002074
:100E000000230024002791F803C00CF00F0591F88F
:100E100003C01CF0100F03D091F802C04CEA050586
:100E2000B1F800C01CF0FF0F31D0146800202BE097
:100E30004FF0010C0CFA00F3B1F800C00CEA030605
:100E40009E4220D183004FF00F0C0CFA03F7BC43F5
:100E500005FA03FC4CEA040491F803C0BCF1280F26
:100E600006D14FF0010C0CFA00FCC2F814C00AE0E5
:100E700091F803C0BCF1480F05D14FF0010C0CFAFA
:100E800000FCC2F810C0401C0828D1D31460B1F88F
:100E900000C0BCF1FF0F34DD546800202EE000F1EB
:100EA000080C4FF0010808FA0CF3B1F800C00CEA86
:100EB00003069E4221D183004FF00F0C0CFA03F77A
:100EC000BC4305FA03FC4CEA040491F803C0BCF1EE
:100ED000280F05D100F1080C08FA0CF8C2F81480AC
:100EE00091F803C0BCF1480F07D100F1080C4FF096
:100EF000010808FA0CF8C2F81080401C0828CED36C
:100F00005460BDE8F0814FF6FF71018002218170CD
:100F10000421C17070470246002093680B4201D043
:100F2000012000E0002070470146886880B27047C9
:100F300002460020D3680B4201D0012000E00020CF
:100F400070470146C86880B27047016170474161CF
:100F500070470AB1016100E041617047C1607047AC
:100F60004FF480320A4382618161826182698269C1
:100F70007047024600203A4B18684FF680731840BD
:100F800040EA02100843364B186070473549C86183
:100F90007047F0B50A460023002400210025304E9A
:100FA0007168C0F3034583B200F44016B6F5401FE4
:100FB00008D121F070612A4E766826F07066284FBD
:100FC0007E6012E000F48016B6F5801F06D103267D
:100FD00006FA05F4A14341F0706106E0460D3601C2
:100FE00003FA06F6B14341F0706122B1460D3601B5
:100FF00003FA06F631431A4E7160F0BD30B5002297
:101000008B071C0F0F2303FA04F2154B08338C10C7
:1010100053F824309343124C08348D1044F8253093
:1010200023468C1053F824308C07240F00FA04F464
:1010300023430B4C08348D1044F8253030BD0A4949
:101040000860704700080140000C0140001001409A
:101050000014014000180140001C01400020014024
:101060000000014000002042DC002042DB48006814
:1010700040F00100D949086008464068D849084056
:10108000D649486008460068D6490840D3490860F8
:101090000846006820F4802008600846406820F474
:1010A000FE0048604FF41F0088607047CB49096814
:1010B00021F48031C94A11601146096821F4802168
:1010C0001160B0F5803F03D0B0F5802F0ED106E05F
:1010D000C249096841F48031C04A116007E0BF4944
:1010E000096841F4A021BD4A116000E000BF00BFC3
:1010F000704710B501460022002300204A11012A42
:1011000002D1B64C236806E0022A02D1B34C236A0E
:1011100001E0B24C636A01F01F02012494401C42BA
:1011200001D0012000E0002010BD70B50024002592
:10113000002600BF3120FFF7DCFF0646641CB4F533
:10114000A06F01D0002EF5D03120FFF7D2FF08B1FB
:10115000012500E00025284670BD014600209F4A79
:10116000106820F0F80040EAC100106070479E4906
:101170000860704702460020984B586820F47C10A5
:1011800042EA01031843954B586070479649086638
:10119000704701460020914A506820F00300084340
:1011A000506070478D48406800F00C007047014661
:1011B00000208A4A506820F0F000084350607047D1
:1011C00001460020854A506820F4E06008435060E2
:1011D000704701460020814A506820F4605040EA80
:1011E000C1005060704729B17C4A527A02437B4B60
:1011F0005A7206E0794A527AC343DBB21A40774BFF
:101200005A72704779490860704701460020734A56
:10121000506820F440400843506070470021744AF1
:1012200011706E4A82F82010012802D0042808D1DB
:1012300003E001216E4A117004E005216C4A11702F
:1012400000E000BF00BF70476A490860704763490B
:10125000096A0143614A1162704767490860704733
:1012600030B500210022002400235C4D6D6805F09C
:101270000C0121B1042905D0082923D105E05F4DD7
:10128000056022E05D4D05601FE0544D6D6805F47A
:101290007012524D6D6805F48034022505EB9242C0
:1012A0001CB9574D554305600BE04C4D6D6815F466
:1012B000003F03D0524D5543056002E04F4D55436A
:1012C000056002E04D4D056000BF00BF434D6D68F5
:1012D00005F0F00109094B4D6B5C0568DD40456088
:1012E0003E4D6D6805F4E061090A464D6B5C45684A
:1012F000DD408560394D6D6805F46051C90A414D86
:101300006B5C4568DD40C560344D6D6805F4404157
:10131000890B3D4D6B5CC568B5FBF3F5056130BDD0
:1013200029B12E4A526902432C4B5A6104E02B4AE0
:1013300052698243294B5A61704729B1274A926901
:101340000243264B9A6104E0244A92698243234B6C
:101350009A61704729B1214AD26902431F4BDA6171
:1013600004E01E4AD26982431C4BDA61704729B1FE
:101370001A4AD2680243194BDA6004E0174AD2686D
:101380008243164BDA60704729B1144A126902434E
:10139000124B1A6104E0114A126982430F4B1A6121
:1013A00070471A49086070470F49C86470470B4975
:1013B000C87170470948406A40F080700749486228
:1013C000704701460020054A92680A4201D0012078
:1013D00000E0002070470149887270470010024009
:1013E0000000FFF8FFFFF6FE00004242D800424234
:1013F00020100240800442423C04424200127A0023
:1014000000093D007800002088000020400442428E
:1014100010B50446E348844209D101218803FFF74F
:10142000A6FF00214FF48040FFF7A1FF32E0DE4825
:10143000844209D101214804FFF7A6FF00214FF49F
:101440000030FFF7A1FF25E0D848844209D10121EF
:101450008804FFF799FF00214FF48020FFF794FFE5
:1014600018E0D348844209D10121C804FFF78CFF5A
:1014700000214FF40020FFF787FF0BE0CD488442A6
:1014800008D101210805FFF77FFF00214FF48010EC
:10149000FFF77AFF10BD2DE9F04786B005460E46EE
:1014A0000024A24600BF00BF0027B08900B100BFE2
:1014B0002F462C8A4CF6FF700440F08804432C829F
:1014C000AC894EF6F3100440B08831890843718925
:1014D00008430443AC81AC8A4FF6FF400440B08916
:1014E0000443AC8201A8FFF7BBFEAE48874202D19D
:1014F000DDF810A001E0DDF80CA00AEBCA0000EB5B
:101500000A1031688900B0FBF1F86420B8FBF0F0F4
:1015100004012009642101FB1089322000EB09102D
:10152000B0FBF1F000F00F0004432C8106B0BDE8E1
:10153000F0874FF41651016000218180C180018144
:101540000C21418100218181704710B502460020A5
:10155000108A4FF2FF0318400B884C8823438C8875
:101560002343CC8823431843108210BD00210180FF
:1015700041808180C180704721B1828942F400524C
:10158000828104E082894DF6FF731A4082817047A0
:10159000F0B503460024002600250020A1F51067C1
:1015A0006A3F00D100BF1846C1F3421401F01F0684
:1015B000012707FA06F5012C01D10C3004E0022CBA
:1015C00001D1103000E014301AB107682F430760D2
:1015D00002E00768AF430760F0BD10B51AB1838A17
:1015E0000B43838204E0838ACC43A4B223408382EA
:1015F00010BD028A4FF6F0731A400282028A0A4333
:101600000282704782894FF2FF731A408281828979
:101610000A438281704721B1828942F002028281AD
:1016200004E082894FF6FD731A4082817047028A76
:101630004FF6DF731A400282028A0A430282704721
:1016400021B1028A42F48042028204E0028A4BF60F
:10165000FF731A4002827047C1F30802828070470C
:1016600001468888C0F308007047818941F0010174
:1016700081817047028BD2B20283028B42EA01223F
:1016800002837047028B02F47F420283028B0A437B
:101690000283704721B1828A42F02002828204E0F4
:1016A000828A4FF6DF731A408282704721B1828AA4
:1016B00042F01002828204E0828A4FF6EF731A40F1
:1016C0008282704721B1828A42F00802828204E05D
:1016D000828A4FF6F7731A4082827047828A4FF6E9
:1016E000FB731A408282828A0A438282704721B148
:1016F000828A42F00202828204E0828A4FF6FD73FF
:101700001A408282704702460020B1F5007F00D166
:1017100000BF13880B4201D0012000E00020704779
:1017200001F40072B2F5007F00D100BFCA4302800D
:10173000704770B502460024002300250020A1F563
:1017400010666A3E00D100BFC1F3421501F01F03CD
:10175000012606FA03F3012D02D19689334006E0F3
:10176000022D02D1168A334001E0968A33400C12D2
:10177000012606FA04F41688344013B10CB1012096
:1017800000E0002070BD10B500220023A1F5106418
:101790006A3C00D100BF0A1201249440A3B2DC438A
:1017A000048010BD00380140004400400048004063
:1017B000004C00400050004001460020FA4A1068EA
:1017C00000F03800084310607047F749096821F0BD
:1017D0000801F54A1160114609680143116070471C
:1017E000F149096821F01001EF4A116011460968BA
:1017F000014311607047ED48EB494860EC48486090
:101800007047E948006940F08000E7490861704787
:101810000420E549C96801F00101012901D1012035
:101820000EE0E149C96811F0040F01D0022007E081
:10183000DD49C96811F0100F01D0032000E0042039
:1018400070470020FF2000E0401E0028FCD17047B8
:1018500070B504460425FFF7DBFF054605E0FFF7FA
:10186000F0FFFFF7D5FF0546641E012D01D1002CC6
:10187000F5D104B90525284670BD70B50546042488
:1018800040F6FF70FFF7E4FF0446042C19D1C64868
:10189000006940F00200C4490861084645610069DA
:1018A00040F04000086140F6FF70FFF7D1FF0446AA
:1018B000052C06D0BC48006941F6FD710840BA49C4
:1018C0000861204670BD10B5042440F6FF70FFF794
:1018D000BFFF0446042C18D1B348006940F004004F
:1018E000B14908610846006940F04000086140F6CF
:1018F000FF70FFF7ADFF0446052C06D0AA4800692B
:1019000041F6FB710840A8490861204610BD10B59A
:10191000042440F6FF70FFF79BFF0446042C3CD1E3
:10192000A248A1498860A24888600846006940F042
:10193000200008610846006940F04000086140F658
:10194000FF70FFF785FF0446042C1DD196480069FF
:1019500041F6DF710840944908610846006940F08B
:1019600010000861A520934908804FF00F00FFF791
:101970006FFF0446052C10D08B48006941F6EF71CB
:1019800008408949086108E0052C06D086480069AE
:1019900041F6EF71084084490861204610BD2DE9E9
:1019A000F04105460E46042400270F20FFF750FFA4
:1019B0000446042C26D17C48006940F001007A4995
:1019C00008612E800F20FFF743FF0446042C10D13E
:1019D000AF1C300C38800F20FFF73AFF0446052C6F
:1019E00010D07148006941F6FE7108406E490861E7
:1019F00008E0052C06D06C48006941F6FE710840ED
:101A0000694908612046BDE8F08170B505460E467B
:101A100004240F20FFF71CFF0446042C13D1624856
:101A2000006940F00100604908612E800F20FFF737
:101A30000FFF0446052C06D05B48006941F6FE7195
:101A4000084059490861204670BD70B505460E46EC
:101A500004240F20FFF7FCFE0446042C17D1534842
:101A600051498860524888600846006940F010007B
:101A700008612E800F20FFF7EBFE0446052C06D0F0
:101A80004948006941F6EF7108404749086120461E
:101A900070BD2DE9F04704464FF6FF763746B04655
:101AA000B1460425E443E6B2C4F30727C4F307486C
:101AB0004FEA14690F20FFF7CBFE0546042D3ED1F7
:101AC0003A48394988603A4888600846006940F0D9
:101AD00010000861FF2E06D0374806804FF00F0037
:101AE000FFF7B6FE0546042D08D1FF2F06D0334878
:101AF00007804FF00F00FFF7ABFE0546042D09D11C
:101B0000B8F1FF0F06D02E48A0F80C880F20FFF781
:101B10009FFE0546042D09D1B9F1FF0F06D02848D4
:101B2000A0F80E980F20FFF793FE0546052D06D06E
:101B30001D48006941F6EF7108401B4908612846BD
:101B4000BDE8F08770B50546042440F6FF70FFF746
:101B50007FFE0446042C50D1144813498860144871
:101B600088600846006940F0200008610846006966
:101B700040F04000086140F6FF70FFF769FE044640
:101B8000042C31D10848006941F6DF71084006494C
:101B900008610846006940F01000086195B1002016
:101BA0000449088011E0000000200240230167453D
:101BB000AB89EFCD00F8FF1F08F8FF1F0AF8FF1FE1
:101BC00000F0FF1FA5204549088040F6FF70FFF791
:101BD0003FFE0446052C10D04148006941F6EF71E4
:101BE00008403F49086108E0052C06D03C480069E0
:101BF00041F6DF7108403A490861204670BD2DE981
:101C0000F04105460E46174604243648344988609C
:101C1000354888600F20FFF71BFE0446042C19D1BD
:101C20002F48006940F010002D49086147F0F80086
:101C3000304328432D4908804FF00F00FFF708FE7E
:101C40000446052C06D02648006941F6EF7108408D
:101C5000234908612046BDE8F0812148C069800819
:101C600070471F48006A704700201D49C96911F07C
:101C7000020F01D0012000E0002070470020184929
:101C8000096811F0200F01D0012000E0002070470A
:101C900029B1134A12690243114B1A6104E0104A38
:101CA000126982430E4B1A617047014600200129D8
:101CB00008D10B4AD26912F0010F01D0012008E0CF
:101CC000002006E0064AD2680A4201D0012000E066
:101CD000002070470249C8607047000000F8FF1FED
:101CE0000020024023016745AB89EFCD02F8FF1FBA
:101CF00030B943F2DB014FF0204242F8201005E0FA
:101D000043F2D2014FF0204242F820106FF07042AF
:101D1000411C4FF0204343F8212011461A4602EBA4
:101D20008002C2F80411704710280AD118214FF020
:101D300020421166402151664FF0FC319166D16618
:101D400010E01821FC4A11604FF040014FF0204292
:101D5000C2F884104FF0FC31F84A11604FF0204275
:101D6000C2F88C1070471820F54908604FF0000049
:101D70004FF02041C1F8A4004FF0FC30F149086059
:101D800001F10401086001F1040108607047D0E925
:101D900001121143C26811430269114342691143A0
:101DA00082691143C2691143026A1143426A1143B5
:101DB000826A1143C26A11434FF02043026843F81C
:101DC00022108168082908D11A46016852F82110AA
:101DD00041F04001026843F82210016B0968026B70
:101DE000526841EA0211026B926841EA0221026BD9
:101DF000D26841EA0241026B126941EA0251026B68
:101E0000526941EA0261026B926911430268521CF5
:101E10004FF0204343F82210816AB1F5804F1AD168
:101E2000416B0968426B526841EA0211426B926849
:101E300041EA0221426B126941EA0251426B526946
:101E400041EA0261426B92691143026803EB82022C
:101E5000C2F8041108E06FF070414FF020430268AF
:101E600003EB8202C2F80411704730B50021002252
:101E70000023446844F0080485682C43C5682C435B
:101E800005692C43456944EA4524856944EA45319E
:101E9000C4692468C5696D6844EA0524C569AD68EC
:101EA00044EA0544C569ED6844EA0562046A2468A9
:101EB000056A6D6844EA0524056AAD6844EA05448C
:101EC000056AED6844EA05630468102C05D14FF0FB
:101ED00020442166A266E36607E0974C21604FF03C
:101EE0002044C4F88820984C236030BD016841F03C
:101EF0001001426841EA4221826841EA4231904A37
:101F00001160C1680968C268526841EA0221C2686A
:101F1000926841EA0241C268D26841EA0261894A94
:101F20001160016909680269526841EA0221026987
:101F3000926841EA02410269D26841EA0261834A39
:101F40001160416909684269526841EA02214269A7
:101F5000926841EA02414269D26841EA02614FF067
:101F60002042C2F8B0107047002101600221416098
:101F700000218160C160016141618161C1614FF4F3
:101F8000805101624900416200218162C1620F21DA
:101F9000026B1160026B5160FF21026B91600F2197
:101FA000026BD160026B1161026B51610021026B07
:101FB00091610F21426B1160426B5160FF21426BB6
:101FC00091600F21426BD160426B1161426B516194
:101FD0000021426B91617047102101600021416036
:101FE0008160C160016141618161FC21C269116050
:101FF000C2695160C2699160C269D160026A1160B0
:10200000026A5160026A9160026AD16070470021E1
:10201000016041608160FC21C2681160C26851604A
:10202000C2689160C268D160026911600269516042
:10203000026991600269D160426911604269516030
:10204000426991604269D160704751B14FF02042BE
:1020500052F8202042F001024FF0204343F82020A4
:1020600009E04FF0204252F82020394B1A404FF03F
:10207000204343F82020704799B1102808D14FF031
:102080002042126E42F004024FF020431A661DE017
:10209000294A126842F004024FF02043C3F880201E
:1020A00014E0102809D14FF02042126E284BDB1E9D
:1020B0001A404FF020431A6608E01F4A1268254B69
:1020C00002EA03024FF02043C3F88020704740B17A
:1020D0001B49096841F004014FF02042C2F8A010EA
:1020E00008E0174909681B4A01EA02014FF0204243
:1020F000C2F8A010704799B1102808D14FF02042C3
:10210000126E42F040024FF020431A662DE00A4A58
:10211000126842F040024FF02043C3F8802024E0D0
:10212000102819D14FF02042126E0A4B3C3B1A4046
:102130004FF020431A6618E0800000A0880000A03D
:10214000A00000A0A80000A08C0000A0AC0000A08F
:10215000FEFF0F00FBFF0F00644A1268644B02EAA7
:1021600003024FF02043C3F880207047014600204F
:10217000102903D14FF02042506F01E05D4A1068F2
:10218000704710B5F2B1102807D14FF020435B6EB5
:102190000B434FF02044636632E0B0F5807F08D1F6
:1021A000554B1B6843EA01034FF02044C4F88430C8
:1021B00026E0524B1B6843EA01034FF02044C4F869
:1021C000A4301DE0102807D14FF020435B6E8B43F5
:1021D0004FF02044636613E0B0F5807F08D1464B92
:1021E0001B6823EA01034FF02044C4F8843007E061
:1021F000424B1B6823EA01034FF02044C4F8A4308B
:1022000010BD10B5024600200023102A03D14FF064
:102210002044636E07E0B2F5807F02D1364C23681C
:1022200001E0364C23680B4201D0012000E0002081
:1022300010BD102807D14FF02042526E8A434FF054
:1022400020435A6613E0B0F5807F08D12A4A12680D
:1022500022EA01024FF02043C3F8842007E0274A16
:10226000126822EA01024FF02043C3F8A42070470D
:1022700070B502460020002300240025102A03D157
:102280004FF02046736E07E0B2F5807F02D11A4E00
:10229000336801E0194E336803EA010403EAD1050B
:1022A00014B10DB1012000E0002070BD102808D14C
:1022B0004FF02042526E22EAD1024FF020435A667C
:1022C00013E0B0F5807F08D10B4A126822EAD102F0
:1022D0004FF02043C3F8842007E0084A126822EA3E
:1022E000D1024FF02043C3F8A4207047800000A023
:1022F000BFFF0F00940000A0840000A0A40000A075
:10230000704708488047084981F308880748004714
:10231000FEE7FEE7FEE7FEE7FEE7FEE7FEE7FEE795
:10232000FEE7FEE701230008D01D00203101000870
:10233000064C074D06E0E06840F0010394E8070012
:1023400098471034AC42F6D3FDF7F6FE742300082C
:102350009423000802E008C8121F08C1002AFAD11D
:1023600070477047002001E001C1121F002AFBD115
:102370007047000094230008000000208C0000003B
:1023800054230008202400088C000020441D000075
:10239000642300080011110000000000000000008C
:1023A000000000000000000000000000000000002D
:1023B0000000000000000000000000000F000F00FF
:1023C00000000000003C001E0100000000000000B2
:1023D00000000000000000000100000000000000FC
:1023E00000000000000000000000000000400008A5
:1023F00000000000000000000000000000000000DD
:1024000000000000000000000000000000000000CC
:102410000102030401020304060708090204060876
:0400000508000131BD
:00000001FF
