:020000040800F2
:1040000000040020F3F100080D4200080F420008F0
:1040100013420008174200081B420008000000007D
:104020000000000000000000000000001F42000827
:104030002142000800000000234200081B5A00082B
:1040400013F2000813F2000813F2000813F200083C
:1040500013F2000813F20008016900080B69000858
:104060003769000813F2000813F2000813F2000881
:1040700013F2000813F2000813F2000813F200080C
:1040800013F2000813F2000813F2000813F20008FC
:1040900013F2000813F2000813F200088369000805
:1040A00013F2000813F2000813F2000813F20008DC
:1040B0001D5A0008415D0008E35D000813F2000886
:1040C00013F2000813F2000813F2000813F20008BC
:1040D00013F20008654700086F47000813F2000854
:1040E000276A000813F2000813F2000813F2000810
:1040F00013F2000813F2000813F2000813F200088C
:1041000013F2000813F2000813F2000813F200087B
:1041100013F2000813F2000813F2000813F200086B
:1041200013F2000813F2000813F2000813F200085B
:10413000DFF80CD00BF074F800480047B7410008D6
:1041400000CB00207047704710B509F0D3F84FF44A
:10415000803009F0EFF809F02CF92B490870084677
:104160000078012826D1102009F01CFD022009F05A
:1041700005FD002009F05FF9002009F06EF94FF409
:10418000806009F061F94FF4E0114FF4803009F0DC
:1041900035F9012009F03EF900BF392009F0EDF8AA
:1041A0000028FAD0022009F038F900BF09F03EF9E2
:1041B0000828FBD110BD4FF48041480308F0C2FE2F
:1041C00008F055FEFFF7C0FFFFF7BDFFFFF7BAFF8E
:1041D0000121080209F0E8F903F086F801F044FE35
:1041E00001F052FF01F09DFF08F040FB03F002FBDD
:1041F00001F051FB01F09DFB01F0FBFB00F00BFA1D
:1042000000F0EEFC00BFFEE744000020704700BF56
:10421000FEE700BFFEE700BFFEE700BFFEE7704716
:1042200070477047014607E0062201E0531E9AB22C
:10423000002AFBDC4B1E99B20029F5DC704710B553
:1042400001460EE04FF47A7207E0642301E05C1E41
:10425000A3B2002BFBDC541EA2B2002AF5DC4C1EDC
:10426000A1B20029EEDC10BD10B50346002000BF4E
:1042700002E01954441CE0B29042FAD310BD10B5CC
:104280000346002000BF03E00C5C1C54441CE0B259
:104290009042F9D310BD000008B54FF4A06008F0BB
:1042A00011FE25208DF8000002208DF8010000206D
:1042B0008DF8020001208DF80300684608F007FE23
:1042C00026208DF8000002208DF8010001208DF8D5
:1042D00002008DF80300684608F0F9FD08BD1FB51F
:1042E0004FF4165000900020ADF80400ADF8060021
:1042F000ADF80800ADF80C000C20ADF80A006946D6
:10430000FF4809F00CFA40F22551FD4809F07FFB07
:10431000012240F22551FA4809F07EFA0121F848BD
:1043200009F06EFA4021F64809F03EFB1FBD08B5C2
:104330000420ADF8000018208DF8030003208DF84C
:1043400002006946EF4808F099FE0820ADF8000029
:1043500004208DF803006946EA4808F08FFE08BD86
:1043600010B50121052009F02CF90121480409F0BC
:1043700035F910BD1FB54FF4165000900020ADF870
:104380000400ADF80600ADF80800ADF80C000C20F4
:10439000ADF80A006946DC4809F0C1F940F2255140
:1043A000D94809F034FB012240F22551D64809F0E2
:1043B00033FA0121D44809F023FA4021D24809F008
:1043C000F3FA1FBD08B54FF40070ADF800001820D7
:1043D0008DF8030003208DF802006946C94808F0F3
:1043E0004DFE4FF48060ADF8000004208DF803000E
:1043F0006946C44808F042FE08BD10B501210520F9
:1044000009F0DFF80121880309F0DBF810BD2DE980
:10441000F04104460E4617464FF00008012000F018
:10442000ABF9208A618A884201D14FF0010800204F
:1044300000F0A2F9002514E0705D228A61688854BA
:10444000012000F099F9208A401C80B22082A189C5
:10445000884201DB00202082002000F08DF9681CDA
:1044600085B2BD42E8DBB8F1010F05D1012240F26F
:104470002771206809F0D0F9BDE8F0812DE9F041FD
:1044800004460E4617460CB9A04D05E0012C01D19B
:104490009F4D01E0BDE8F0813A4631462846FFF7DE
:1044A000B6FF00BFF6E770B504460D46012000F0E8
:1044B00063F9A68A002000F05FF9E08AB04201D1DA
:1044C000002070BDE18AA068405C2870012000F0E7
:1044D00053F9E08A401C80B2E082E189884201DB26
:1044E0000020E082002000F047F90120E9E770B5E4
:1044F00004460E460CB9854D05E0012C01D1844DD2
:1045000001E0002070BD31462846FFF7CCFFF9E7F7
:1045100038B500200090012469462046FFF7E7FFE8
:10452000F0B37C480078012804D0022813D0032877
:1045300046D121E09DF8000002280BD17549087092
:104540009DF80010744802780078401C724B187077
:104550007248815435E09DF80000032801D16D496F
:1045600008709DF800106C4802780078401C6A4B77
:1045700018706A48815424E00120664908709DF84B
:104580000010654802780078401C634B187063483F
:104590008154634A18460178604800F088FA00E0C8
:1045A00010E0604908700846007828B10846027893
:1045B0005B492046FFF762FF00205749087000E082
:1045C00000BF00BF38BD4E4851490860564848609A
:1045D000564888604FF400608881C88100200882B6
:1045E00048828882C88288615148C86170474648BD
:1045F000464908604F4848604F4888604FF4006063
:104600008881C8810020088248828882C8828861A7
:104610004748C861704710B5FFF7E9FFFFF7D3FFC0
:10462000FFF7EBFEFFF7CEFEFFF7A4FEFFF798FEC5
:10463000FFF77DFEFFF753FEFFF72EFE10BD13B50B
:104640000446012201A92046FFF718FF1CBD10B542
:10465000044640F22551206809F0AFF9B0B1206856
:1046600009F042F9C1B2A28A501CA082A06881540C
:10467000A08AE18A884203D0E06908B1E0698047F6
:10468000A08AE189884201DB0020A08240F22771E4
:10469000206809F092F900B3608A218A88420CD11F
:1046A000002240F22771206809F0B6F8012240F29A
:1046B0002661206809F0B0F853E0638A6268D15C33
:1046C000206809F00DF9608A401C80B26082A189DF
:1046D000884246DB0020608243E040F22661206889
:1046E00009F06BF950B3608A218A88422AD10022EE
:1046F00040F22661206809F08FF8A069F0B11EE051
:104700000044004000080140003801409C000020A7
:10471000BC0000204500002047000020DC200020D5
:10472000DC21002046000020DC100020DC180020E6
:1047300011450008DC000020DC08002011E0A06921
:1047400080470EE0638A6268D15C206809F0C8F88F
:10475000608A401C80B26082A189884201DB00200F
:10476000608210BD10B50648FFF771FF10BD10B58F
:104770000448FFF76CFF10BD80F3108870470000FD
:104780009C000020BC0000202DE9F04706460F46A3
:104790001546DDE908C40020002100224FF0020880
:1047A00004F800808146401C14F8098088EA02025F
:1047B00026548146401C14F8098088EA02022754D6
:1047C0008146401C14F8098088EA0202452E04D074
:1047D000462E03D05A2E5CD11FE000BF022D03D01D
:1047E000032D01D0102D0DD14FF0100A804600F19D
:1047F000010909F0FF0004F808A005F1400804F8D9
:10480000008000E02554804600F1010909F0FF0016
:1048100014F8088088EA02023BE0002136E013F831
:104820000180B8F1020F09D013F80180B8F1030F2D
:1048300004D013F80180B8F1100F16D14FF0100A10
:10484000814600F1010808F0FF0004F809A013F800
:10485000018008F1400808F0FF0A804600F10109D4
:1048600009F0FF0004F808A008E013F801A0804652
:1048700000F1010909F0FF0004F808A013F8018015
:1048800088EA020201F1010808F0FF016145C6DB78
:1048900000BF00BF4FF0030804F80080804600F11D
:1048A000010909F0FF0014F8088088EA0202804636
:1048B00000F1010909F0FF0004F80820BDE8F087C5
:1048C0002DE9F84306460F4690461C46089D4620B3
:1048D000207000202870502E43D010DC442E6CD065
:1048E00006DC412E74D0422E73D0432E72D159E093
:1048F000472E41D04D2E1ED04F2E6BD126E0612E7B
:1049000069D006DC522E0BD0542E40D0552E61D1EA
:1049100062E0622E76D0A12E75D0D12E5AD19FE0C2
:10492000A84B00932B4622464146384600F0E9F951
:10493000A5490870A7E0A34B00932B4622464146A9
:10494000384600F05BFAA04908709CE09D4B00934C
:104950002B4622464146384600F09EFA9A49087096
:1049600091E0984B00932B4622464146384600F092
:10497000B7FA9549087086E0924B00932B46224681
:104980004146384600F07BFB8F4908707BE08D4B39
:1049900000932B4622464146384600F061FC8A4986
:1049A000087070E0874B00932B46224641463846FC
:1049B00000F088FC8449087065E0824B00932B4628
:1049C00022464146384600F0C7FC7F4908705AE04D
:1049D0000DE019E04FE022E07A4B00932B4622468F
:1049E0004146384600F0DAFC774908704BE0754BD9
:1049F00000932B4622464146384600F047FD724957
:104A0000087040E016E020E06E4B00932B462246F3
:104A10004146384600F083FD6B49087033E0694B2E
:104A200000932B4622464146384600F0D9FD6649A0
:104A3000087028E0634B00932B46224641463846D7
:104A400000F01EFE604908701DE05E4B00932B468F
:104A500022464146384600F093FE5B49087012E05A
:104A6000584B00932B4622464146384600F058FEEC
:104A70005549087007E04520207003202870002069
:104A80005149087000BF00BF002050490880BDE8B0
:104A9000F88310B502460B460021002000BF03E05A
:104AA000545C60404C1CE1B29942F9D310BD2DE931
:104AB000FF4705460E4617460024A14600200390F6
:104AC000804602904249087000BF1BE0285D102814
:104AD0000DD1601CC4B2285D4038C1B23C48027898
:104AE0000078401C3A4B18703A48815408E02A5D1F
:104AF000374801780078401C354B187035484254CF
:104B0000601CC4B2701EA042E0DC295C3048027810
:104B10000078401C2E4B18702E488154407803902A
:104B20002C4890F80280C01C2B4908601846007879
:104B3000401F2A4908709DF80C00432811D04520D9
:104B400003900220029000221346CDE900279DF831
:104B5000082041469DF80C00FFF716FE04B0BDE8A2
:104B6000F0871B4801781B48FFF793FF8146B9F196
:104B7000000F0FD045200390002002900022134622
:104B8000CDE900279DF8082041469DF80C00FFF76D
:104B9000FBFDE3E702AB009303AB104802780E483D
:104BA00001684046FFF78CFE07480278054BCDE9C7
:104BB00000279DF8082041469DF80C00FFF7E4FD12
:104BC000CCE70000DC230020490000202800002062
:104BD00048000020DC2200204C0000205000002073
:104BE00010B500243020704908704870887031205A
:104BF000C8703220087100F056FE00206B49087022
:104C000011206B4908706B49087000206A490870D0
:104C10006A4908706A4908706A4908706A490870E8
:104C20006A4908706A4908706A4908706A490870D8
:104C30006A4908706A4908706A4908606A490860E8
:104C40006A4908606A4908606A49087002F020FEF3
:104C500004462CB95548007840F0020053490870CA
:104C600002F014FC01F09DFB022001F09BFC0220ED
:104C700001F03CFD002001F061FB002001F056FB3B
:104C800001F043FC4B20FFF7DAFA01F0E6FB0446A3
:104C90002CB94648007840F004004449087001F0FF
:104CA000E3FB04462CB94148007840F004003F493A
:104CB000087001F0DFFB04462CB93C48007840F056
:104CC00004003A49087002F0ABFB00204A49088012
:104CD000488088800846008828B90846408810B96E
:104CE0000846808828B13148007840F008002F49F4
:104CF00008702E48007840F080002C490870012090
:104D000010BD2DE9F04782460F4614461D46DDF8DA
:104D100020900026B04637B1452020700120287031
:104D20000020BDE8F087FFF75BFF2048007810F017
:104D3000010F04D0462020700020287031E01B486D
:104D4000007810F0020F04D0462020700120287057
:104D500027E01648007810F0040F04D04620207099
:104D6000032028701DE01148007810F0080F04D0CF
:104D7000462020700220287013E05A202070002066
:104D80002870002609E00848825D4046411C01F079
:104D9000FF0809F80020701CC6B20C2EF3D3404661
:104DA000BFE70020BDE700009000002000000020C9
:104DB0000100002002000020030000200400002069
:104DC0000500002006000020080000200900002047
:104DD0000B0000200E0000200F000020100000201B
:104DE0001100002014000020180000201C000020EA
:104DF00020000020240000203E0000202DE9FF5F5D
:104E00000446894615461E4600200390002780462A
:104E1000824683460290B9F1040F07D045202870DE
:104E200001203070002004B0BDE8F09F207800F031
:104E30000F0720784FEA101894F801A094F802B0F8
:104E4000E0780290032F0FDC77B1B8F1030F0BDC91
:104E5000B8F1000F08D0BAF1010F05DCBBF1010F6A
:104E600002DC0298012804DD462028700020307002
:104E7000D9E7029A5B46CDE90026524641463846BC
:104E800001F03EFF0390039810B94620287001E01E
:104E90005A2028700020C6E730B50546039C5A20EA
:104EA00010700020187029B1452010700120187072
:104EB000002030BD064800782070064800786070F9
:104EC00005480078A07005480078E0700420F0E7FD
:104ED0000100002003000020040000200500002045
:104EE0002DE9F05F8046894615461E460027BA46E2
:104EF000BB460024032099FBF0F100FB119030B178
:104F000045202870012030700020BDE8F09F002768
:104F1000A9E007EB470018F800A007EB4700401C8A
:104F200018F800B007EB4700801C18F80040BAF1F1
:104F30000D0F7FD2DFE80AF0071215202C383B3E18
:104F40004C585B677300012C05DA4620287003205B
:104F500030700020D9E7B44804706CE0B3480470A6
:104F600069E0012C05DA462028700320307000200B
:104F7000CBE7AF4804705EE03CB1012C05D0462081
:104F80002870032030700020BFE7AA48047052E068
:104F90003CB1012C05D04620287003203070002041
:104FA000B3E7A548047046E0A448047043E0A44871
:104FB000047040E04CB1012C07D0022C05D04620F3
:104FC00028700320307000209FE79E48047032E074
:104FD0003CB1012C05D04620287003203070002001
:104FE00093E79948047026E09848047023E014F091
:104FF000880F05D04620287003203070002084E7F9
:105000009348047017E0012C06DA4620287003202C
:105010003070002079E70DE08E4804700BE0012C21
:1050200005DA462028700320307000206DE78A489A
:10503000047000E015E000BF8848007800F07F00B1
:1050400086490870BBF1000F0AD02146504602F095
:1050500001FC28B94620287005203070002054E754
:1050600000BF781C87B2032099FBF0F0B8423FF7ED
:1050700050AF5A2028700020307000BF45E7F0B5CF
:1050800006460D46059C00215A201070002018701D
:105090002DB145201070012018700020F0BD4FF098
:1050A000000C08464F1CF9B204F800C05E4890F8A6
:1050B00000C008464F1CF9B204F800C04FF0010CC4
:1050C00008464F1CF9B204F800C0584890F800C0D8
:1050D00008464F1CF9B204F800C04FF0020C084615
:1050E0004F1CF9B204F800C0514890F800C00846BF
:1050F0004F1CF9B204F800C04FF0030C08464F1CD7
:10510000F9B204F800C04B4890F800C008464F1CA4
:10511000F9B204F800C04FF0040C08464F1CF9B275
:1051200004F800C0444890F800C008464F1CF9B28B
:1051300004F800C04FF0050C08464F1CF9B204F803
:1051400000C03E4890F800C008464F1CF9B204F871
:1051500000C04FF0060C08464F1CF9B204F800C01E
:10516000374890F800C008464F1CF9B204F800C058
:105170004FF0070C08464F1CF9B204F800C0314844
:1051800090F800C008464F1CF9B204F800C04FF078
:10519000080C08464F1CF9B204F800C02A4890F8E1
:1051A00000C008464F1CF9B204F800C04FF0090CCB
:1051B00008464F1CF9B204F800C0244890F800C01B
:1051C00008464F1CF9B204F800C04FF00A0C08461C
:1051D0004F1CF9B204F800C01D4890F800C0084602
:1051E0004F1CF9B204F800C04FF00B0C08464F1CDE
:1051F000F9B204F800C0174890F800C008464F1CE8
:10520000F9B204F800C04FF00C0C08464F1CF9B27C
:1052100004F800C0104890F800C008464F1CF9B2CE
:1052200004F800C0084639E72A0000202B000020BF
:105230002C0000202D0000202E0000202F00002038
:105240003000002031000020320000203300002018
:10525000340000203500002036000020000000202F
:1052600070B50546049C5A2010700020187029B1B2
:105270004520107001201870002070BD2C48007867
:10528000C0012C4E367840EA86102B4E367840EA24
:1052900006102A4E3678361140EA8600274E3678B8
:1052A00006F00306304320702548007860702548DA
:1052B0000078A07024480078E070244800782071BD
:1052C0000520DAE770B50546049C5A2010700020CE
:1052D000187029B14520107001201870002070BD91
:1052E0001B48008820701A4800880012184E7688E3
:1052F00040EA4600607016484088C011144EB688D7
:1053000040EA8600A07013480088E07011480088C9
:105310000012104E768840EA460020710D48408801
:10532000C0110C4EB68840EA860060710620D6E7B0
:1053300003000020040000200500002001000020E0
:105340000E0000200F0000200600002000000020BA
:10535000380000203E0000202DE9F04706460F46A9
:1053600014461D46DDF820904FF00008012F06D0AE
:1053700045202070012028700020BDE8F08730789B
:10538000294601F006FF8046B8F1000F02D1462001
:10539000207001E05A2020700020EEE72DE9F04750
:1053A00006460F4614461D46DDF820904FF00008D3
:1053B000012F06D045202070012028700020BDE874
:1053C000F0872F48007820B94620207000202870F0
:1053D000F5E796F80080B8F1430F33D0B8F1440FE9
:1053E00022D0B8F1460F10D0B8F1540F3BD10020B5
:1053F0002449087000F00BFB01F05EF8022001F078
:10540000D1F8022001F072F932E01E48007808B9A4
:1054100000F0F7FA46201B490870022001F0C2F89C
:10542000022001F063F923E01648007808B900F083
:10543000E8FA44201349087000201349087001F06D
:105440003BF815E00F48007808B900F0DAFA43207D
:105450000C49087001F030F8022001F0A3F8022096
:1054600001F044F904E04620207000202870A6E7EF
:1054700000BF5A2020700020287000BF9FE7000066
:1054800004000020090000200A0000202DE9F05F40
:1054900006460F4614461D46DDF828B04FF00008BA
:1054A000C146C246022F06D0452020700120287038
:1054B0000020BDE8F09F96F8008096F80190B8F1C2
:1054C000010F02DCB9F1000F04D14620207000204A
:1054D0002870EEE7B8F1000F03D0B8F1010F0ED13C
:1054E00006E02A464946002001F049FD824606E0D2
:1054F0002A464946012001F042FD824600BF00BF16
:10550000BAF1000F02D14620207006E05A20207028
:105510002F48007808B900F014FA0020C9E72DE9F7
:10552000F04105460E46069C002100205A271770C0
:1055300000271F7000BF0EE04FEAC10C254F3F68E7
:1055400027FA0CF7844600F1010808F0FF0004F880
:105550000C704F1CF9B20429EEDB00210EE04FEA7B
:10556000C10C1D4F3F6827FA0CF7844600F1010873
:1055700008F0FF0004F80C704F1CF9B20429EEDBB0
:1055800000210EE04FEAC10C144F3F6827FA0CF7D8
:10559000844600F1010808F0FF0004F80C704F1C6D
:1055A000F9B20429EEDB00210EE04FEAC10C0B4FEB
:1055B0003F6827FA0CF7844600F1010808F0FF0065
:1055C00004F80C704F1CF9B20429EEDBBDE8F08141
:1055D0000B00002014000020180000201C000020F8
:1055E0002DE9F04106460F4614461D46DDF81880A9
:1055F0005A20207000202870022F06D045202070ED
:10560000012028700020BDE8F0813078B8B97078AA
:10561000012802D002280CD105E0012000F063FE31
:105620005A2020700AE0012000F054FE5A20207019
:1056300004E0452020700120287000BF1EE0307873
:10564000012817D17078012802D002280CD105E07A
:10565000012000F027FE5A2020700AE0012000F00F
:1056600019FE5A20207004E0452020700120287087
:1056700000BF03E045202070012028700020C2E711
:105680002DE9F04106460F4614461D46DDF8188008
:105690005A20207000202870022F06D0452020704C
:1056A000012028700020BDE8F0813078B8B970780A
:1056B000012802D002280CD105E0002000F013FEE2
:1056C0005A2020700AE0002000F004FE5A202070CA
:1056D00004E0452020700120287000BF1EE03078D3
:1056E000012817D17078012802D002280CD105E0DA
:1056F000002000F0D7FD5A2020700AE0002000F0C2
:10570000C9FD5A20207004E0452020700120287037
:1057100000BF03E045202070012028700020C2E770
:1057200070B50546049C5A2010700020187001299D
:1057300005D04520107001201870002070BD00BFFA
:105740000C48006800F4E0600B4E40EA060000F1EF
:1057500004004FF0E026C6F80C0DBFF3408F00BFE9
:1057600000BFFEE770B50446656804480560006840
:10577000804770BD0CED00E00000FA0554000020E9
:105780002DE9F04706460F4614461D46DDF82080F9
:1057900096F800905A20207000202870012F06D023
:1057A00045202070012028700020BDE8F0870A22E3
:1057B0004146484607F090FAF7E70000FF490968BC
:1057C0004FF47A72B1FBF2F1642201FB02F0B0F106
:1057D000807F00D31CE020F07F41491E4FF0E02283
:1057E000516100BF5117002905DA0F210901F44A60
:1057F0000B23D15404E00F210901F24A5317D1546D
:1058000000BF00214FF0E02291610721116100BF2C
:10581000704700204FF0E021086170470EB54FF44B
:105820007A70ADF804000120ADF800000020ADF85A
:105830000600ADF8020069464FF0804008F0A4FF72
:10584000012241F6CF31900709F0B4FA012188070F
:1058500009F0CBFC01221146900709F01BFA0EBD9E
:1058600008B54FF4A06007F02DFB1C208DF8000058
:1058700001208DF8010002208DF8020001208DF832
:105880000300684607F023FB08BD10B50121084658
:1058900007F0A4FE10BD10B5FFF7F7FFFFF7E0FF1C
:1058A000FFF7BCFF10BD10B50121880709F0D7F93B
:1058B00010BD10B500214FF0804009F0D0F910BDA7
:1058C0000EB53220ADF804000120ADF80000002034
:1058D000ADF80600ADF802006946BB4808F054FF79
:1058E000012241F6CF31B84809F064FA0121B648E7
:1058F00009F07BFC01221146B34809F0CBF90EBD3B
:1059000008B54FF4A06007F0DDFA1D208DF8000007
:1059100001208DF801008DF802008DF80300684623
:1059200007F0D5FA08BD10B50121022007F056FE98
:1059300010BD10B5FFF7F7FFFFF7E2FFFFF7C0FF5D
:1059400010BD10B50121A04809F089F901209F4937
:10595000087001219EA007F051F8002007F049F8D7
:1059600010BD10B50021984809F079F90020974939
:105970000870002196A007F041F810BD0EB543F65F
:105980009820ADF804000020ADF80000ADF8060046
:10599000ADF802006946904808F0F6FE012241F693
:1059A000CF318D4809F006FA01218B4809F01DFC22
:1059B00001221146884809F06DF90EBD08B54FF473
:1059C000A06007F07FFA1E208DF8000001208DF8FE
:1059D000010000208DF8020001208DF803006846C8
:1059E00007F075FA08BD10B50121042007F0F6FD97
:1059F00010BD10B5FFF7F7FFFFF7E0FFFFF7BEFFA1
:105A000010BD10B50121744809F029F910BD10B579
:105A10000021714809F023F910BD704710B500242A
:105A20000121880709F0D0FB90B30121880709F014
:105A3000DCFB6A480088401C6849088001F059F87E
:105A400001F0EEFC6648007866490978084309D001
:105A50005E48007801281BD1FFF783FF00205B49D7
:105A600008706CE1604802F006FA044634B1012C7B
:105A70007ED0022C7DD0042C09D134E15B48007823
:105A8000022806DA59480078401C584908704EE14F
:105A900055E106F017FE002000F070FC002054498C
:105AA00008705448007810F0080F0CD001F0BDFACF
:105AB00051480078514908704E48007800F0F700CE
:105AC0004C49087062E04148007801285ED14A489C
:105AD000007800F00F00022805D04748007800F059
:105AE000F000202808D10020454908704549087079
:105AF00045490870454908704148007830B141482F
:105B0000007818B9002001F005FA28E03C48007838
:105B100030B93C48007818B1002001F0C7F91EE008
:105B20003748007870B13748007858B13848007865
:105B3000012803D1002001F0EDF910E0002001F070
:105B4000B5F90CE001F071FA2B4800782B49087088
:105B500000202F490870FFF704FF02F0DCFA2D48FF
:105B60000078012802D102202A4908702A4801E061
:105B70008DE09AE00078012802D1022026490870C1
:105B800002F008F803F0D6FE02F01CFF1C48007873
:105B900010B91C48007880B120480088401C1F497B
:105BA00008801F48007800EB80000988B1EB400FA7
:105BB0006CDD1C480078B8B337E067E064F2000899
:105BC00018ED00E000E400E0000400400B000020BD
:105BD00054494D3300000000000800402800002018
:105BE000050000200400002038000020580000209C
:105BF000060000200000002001000020020000201C
:105C00000E0000200F0000201000002011000020D6
:105C100024000020600000206100002026000020F9
:105C20002A000020320000200DE000207B4908708F
:105C30007B4908707B4908707B4908707B48007875
:105C40007B4908701FE07548007820B173480078E0
:105C5000401E724908707248007820B17048007880
:105C6000401E6F4908706F48007820B16D48007879
:105C7000401E6C4908706C48007820B16A48007872
:105C8000401E6949087000206A4908804FE00020E2
:105C9000694908706948007818B1012000F06EFB6E
:105CA00002E0002000F06AFB41E000206249087039
:105CB0006348007810F0080F09D05C4800785C4910
:105CC00008705F48007800F0F7005D4908705D4893
:105CD000007808B9FFF735FE0020564908800120FA
:105CE00006F08EFE23E000205349087001F097FA79
:105CF0005348007840F00800514908705148007836
:105D0000012801D1FFF72DFE00F0BAFB28B900F001
:105D1000FCFB05214CA006F071FE022000F042FCC5
:105D2000022000F0E3FC11204149087000BF00BFD1
:105D30004448007808B900F0FEFB06F07EFC10BD78
:105D400010B500240121424809F03EFAC0B30121F8
:105D50003F4809F04AFA01F063FB00F0ECFB3D48D4
:105D600002F053FC04463C48007800B110BD3B48AB
:105D7000007870B13948407A282802DB03F0DAFD58
:105D800007E03648407A20B13448407A401C334915
:105D90004872092C22D2DFE804F01D0608210521F3
:105DA000212107001AE019E000BF2148007805F022
:105DB00094FF2248007820B1012000F0DFFA03E0D0
:105DC0000DE0002000F0DAFA06F015FE002006F0E3
:105DD00017FE03E000202049087000BF00BF00BF8D
:105DE000C4E710B501211E4809F0EEF9A8B1012160
:105DF0001B4809F0FAF91B480078432809D04428C9
:105E000004D0462808D101F01BFA05E001F02BFA76
:105E100002E001F005FB00BF00BF10BD0E00002036
:105E2000100000200F0000201100002001000020C1
:105E3000020000202600002058000020060000205C
:105E4000000000200B000020436C6F736500000011
:105E50000004004038000020070000207E320020AF
:105E6000000800400900002008B501215D2007F06E
:105E7000A8FB03208DF8020004208DF80300022007
:105E8000ADF800006946F74807F0F8F80420ADF8CF
:105E900000006946F34807F0F1F84FF40060ADF8F0
:105EA00000006946EF4807F0E9F84020ADF800002F
:105EB0006946EC4807F0E2F88020ADF8000069463A
:105EC000E84807F0DBF84FF48070ADF80000694651
:105ED000E44807F0D3F84FF40070ADF800006946CD
:105EE000E04807F0CBF84FF48060ADF80000694659
:105EF000DC4807F0C3F84FF48050ADF800004820AC
:105F00008DF803006946D74807F0B8F810208DF8DF
:105F1000030003208DF802000820ADF80000694658
:105F2000D04807F0ABF81020ADF800006946CD4826
:105F300007F0A4F80120ADF800006946CA4807F050
:105F40009DF80220ADF800006946C74807F096F8B2
:105F50000420ADF800006946C34807F08FF8082018
:105F6000ADF800006946C04807F088F81020ADF889
:105F700000006946BC4807F081F82020ADF8000019
:105F80006946B94807F07AF84FF40060ADF80000B0
:105F90006946B64807F072F84FF48050ADF800003B
:105FA0006946B24807F06AF82020ADF8000069465B
:105FB000AC4807F063F80220ADF800006946AB4832
:105FC00007F05CF80120ADF800006946A74807F02B
:105FD00055F80120ADF800006946A54807F04EF8D5
:105FE0000220ADF800006946A14807F047F880207C
:105FF000ADF8000069469D4807F040F84020ADF834
:1060000000006946994807F039F81020ADF8000003
:106010006946964807F032F82020ADF8000069463E
:10602000924807F02BF84FF48050ADF80000694615
:106030008F4807F023F84FF40050ADF80000694690
:106040008B4807F01BF84FF48040ADF8000069461C
:10605000874807F013F84FF40040ADF80000694698
:10606000834807F00BF84FF48050ADF80000694604
:106070007E4807F003F84FF48070ADF800006946E1
:106080007A4806F0FBFF08BD08B54FF4A06006F0A3
:1060900019FF06208DF8000000208DF80100022075
:1060A0008DF8020001208DF80300684606F00FFF0E
:1060B00007208DF8000001208DF801008DF8020006
:1060C0008DF80300684606F002FF08208DF80000F6
:1060D00001208DF801008DF802008DF8030068465C
:1060E00006F0F5FE17208DF8000001208DF8010064
:1060F00003208DF8020001208DF80300684606F0A9
:10610000E6FE28208DF8000001208DF80100032014
:106110008DF8020001208DF80300684606F0D7FED6
:1061200008BD1CB5012007F018FD022007F015FD81
:10613000042007F012FD402007F00FFD802007F03B
:106140000CFD4FF4807007F008FD4FF4007007F06D
:1061500004FD4FF4806007F000FD4FF4006007F08D
:10616000FCFC4FF4805007F0F8FC0021022007F0FF
:1061700089F80121022007F085F80221084607F07E
:1061800081F80621022007F07DF80721022007F0A0
:1061900079F80821022007F075F80921022007F09C
:1061A00071F80A21022007F06DF80B21022007F098
:1061B00069F80C21022007F065F80120009000200A
:1061C0008DF8040010208DF8050001208DF80600E0
:1061D000684607F044FC0620009000208DF804007B
:1061E0000C208DF8050001208DF80600684607F0A8
:1061F00036FC4FF4FE50009000208DF80400102073
:106200008DF8050001208DF80600684607F027FC90
:106210001CBD10B5044622464FF48071134806F0A9
:10622000DCFF10BD10B50446224610210D4806F0D3
:10623000D4FF10BD10B5044622460821094806F0D7
:10624000CCFF10BD10B5044622462021074806F0B9
:10625000C4FF10BD10B5044622461021034806F0C5
:10626000BCFF10BD001001400018014000080140B3
:10627000000C014010B5044622464021F84806F0C3
:10628000ACFF10BD10B5044622468021F44806F04C
:10629000A4FF10BD10B5044622460221F14806F0C5
:1062A0009CFF10BD10B5044622460121ED4806F0C2
:1062B00094FF10BD10B5044622460121E84806F0BF
:1062C0008CFF10BD10B5044622460221E44806F0BA
:1062D00084FF10BD10B5044622464FF40041E1484A
:1062E00006F07BFF10BD10B5044622464FF48041F6
:1062F000DC4806F072FF10BD10B5044622464FF48C
:106300000051D84806F069FF10BD10B5044622467A
:106310004FF48051D34806F060FF10BD10B504461D
:1063200022462021D04806F058FF10BD10B5044683
:1063300022461021CC4806F050FF10BD10B504468F
:1063400022460821C84806F048FF10BD10B5044693
:1063500022460421C44806F040FF10BD10B5044693
:1063600022460221C04806F038FF10BD10B5044691
:1063700022460121BC4806F030FF10BD704710B521
:10638000044622464FF48051B54806F026FF10BD62
:1063900010B5044622464FF40061B14806F01DFFD7
:1063A00010BD10B50120FFF745FF0120FFF73AFFB0
:1063B0000020FFF7EDFF0020FFF7E1FF0020FFF7CF
:1063C000DDFF0120FFF7D2FF0120FFF7C7FF01200B
:1063D000FFF7BCFF0120FFF7B1FF0120FFF7A6FF89
:1063E0000120FFF79BFF0020FFF78FFF0020FFF742
:1063F00083FF0020FFF777FF0020FFF76BFF0020EF
:10640000FFF760FF0020FFF755FF0020FFF74AFF6E
:106410000020FFF73FFF0020FFF734FF0020FFF7C9
:1064200029FF0020FFF716FF0020FFF70BFF0120D8
:10643000FFF700FF0120FFF7F5FE0120FFF7E9FE5F
:1064400010BD10B50221894806F0A9FE10BD10B597
:106450000421864806F0A3FE10BD10B54FF400617C
:10646000824806F09CFE10BD10B540217F4806F022
:1064700096FE10BD10B580217C4806F090FE10BD40
:1064800010B54FF48071794806F089FE10BD10B543
:106490004FF40071754806F082FE10BD10B54FF440
:1064A0008061724806F07BFE10BD10B54FF480513C
:1064B0006E4806F074FE10BD10B5FFF7E1FF01282D
:1064C00002D06B48007878B100216AA006F096FAF5
:1064D0000020FFF74BFF0120FFF738FF0020644941
:1064E000087004206549087010BD10B56048007838
:1064F000012809D1002162A006F080FA0120FFF7EF
:1065000035FF0020FFF722FF10BD10B500215EA06F
:1065100006F074FAFFF7B4FF18B158480078042861
:1065200008D1012158A006F069FA012050490870ED
:106530005249087010BD10B54D48007828B34C483A
:10654000017854A006F05AFA5548008800F4C0704B
:106550005349498801F00301084309D0002151A0A3
:1065600006F04CFAFFF7A8FF0120414908700CE043
:106570003F480078012808D100214CA006F03EFADF
:10658000FFF7B3FF02203A490870FFF780FF40B9D8
:106590000020374908704848007800F0FB00464961
:1065A000087010BD10B5044664B90020FFF7ADFEB9
:1065B0000020FFF7A1FE0020FFF795FE0020FFF767
:1065C00089FE92E0012C0CD10120FFF79EFE0020F5
:1065D000FFF792FE0020FFF786FE0020FFF77AFE0D
:1065E00083E0022C0CD10020FFF78FFE0120FFF783
:1065F00083FE0020FFF777FE0020FFF76BFE74E0BC
:10660000042C0CD10020FFF780FE0020FFF774FE61
:106610000120FFF768FE0020FFF75CFE65E0082C14
:106620000CD10020FFF771FE0020FFF765FE00206F
:10663000FFF759FE0120FFF74DFE56E014F0010F61
:1066400003D00120FFF761FE02E00020FFF75DFEAE
:1066500014F0020F32D00120FFF74EFE31E00000AF
:1066600000080140000C01400018014000100140EA
:106670000C0000204F70656E000000000D0000202F
:10668000436C6F7365000000436C6F736543666D08
:1066900000000000436C6F7365466C61670000008A
:1066A000380000205365744F70656E005365744365
:1066B0006C6F736500000000000000200020FFF7F1
:1066C0001BFE14F0040F03D00120FFF70CFE02E0C4
:1066D0000020FFF708FE14F0080F03D00120FFF799
:1066E000F9FD02E00020FFF7F5FD10BD10B50446EE
:1066F00064B90020FFF7E6FD0020FFF7DBFD002076
:10670000FFF7D0FD0020FFF7C5FD63E0012C0CD1A1
:106710000120FFF7D7FD0020FFF7CCFD0020FFF799
:10672000C1FD0020FFF7B6FD54E0022C0CD1002083
:10673000FFF7C8FD0120FFF7BDFD0020FFF7B2FD08
:106740000020FFF7A7FD45E0042C0CD10020FFF747
:10675000B9FD0020FFF7AEFD0120FFF7A3FD0020EB
:10676000FFF798FD36E0082C0CD10020FFF7AAFDBA
:106770000020FFF79FFD0020FFF794FD0120FFF7A9
:1067800089FD27E014F0010F03D00120FFF79AFDE7
:1067900002E00020FFF796FD14F0020F03D0012065
:1067A000FFF788FD02E00020FFF784FD14F0040FDE
:1067B00003D00120FFF776FD02E00020FFF772FD15
:1067C00014F0080F03D00120FFF764FD02E0002061
:1067D000FFF760FD10BD10B50120FFF796FD00200A
:1067E000FFF78AFD10BD10B50020FFF78EFD0120D8
:1067F000FFF782FD10BD10B50120FFF763FD0020FB
:10680000FFF758FD10BD10B50020FFF75BFD01201C
:10681000FFF750FD10BD10B5044664B90020FFF726
:1068200031FD0020FFF726FD0020FFF713FD0020BB
:10683000FFF708FD63E0012C0CD10120FFF722FDDA
:106840000020FFF717FD0020FFF704FD0020FFF7F1
:10685000F9FC54E0022C0CD10020FFF713FD0120BD
:10686000FFF708FD0020FFF7F5FC0020FFF7EAFC2A
:1068700045E0042C0CD10020FFF704FD0020FFF7B9
:10688000F9FC0120FFF7E6FC0020FFF7DBFC36E017
:10689000082C0CD10020FFF7F5FC0020FFF7EAFCE4
:1068A0000020FFF7D7FC0120FFF7CCFC27E014F015
:1068B000010F03D00120FFF7E5FC02E00020FFF705
:1068C000E1FC14F0020F03D00120FFF7D3FC02E03B
:1068D0000020FFF7CFFC14F0040F03D00120FFF7D6
:1068E000B9FC02E00020FFF7B5FC14F0080F03D05C
:1068F0000120FFF7A7FC02E00020FFF7A3FC10BD7A
:1069000010B5012007F029F910BD10B5022007F0DD
:1069100024F9F348007810B90120F14908700120EA
:1069200000F0F8FA0020EF490880EF48007808B935
:10693000FFF707F810BD10B5042007F00EF9E8487E
:10694000007810B90220E6490870012000F0AEFA84
:106950000020E4490880E448007808B9FEF7F1FF18
:1069600010BD10B5E148007810F0200F08D00120CC
:10697000FFF7FCFC0120FFF7F1FC0120FFF7E6FC2C
:1069800010BD10B5402007F0CAF8012820D14020E2
:1069900007F0E3F8FFF768FD30B9D448007840F01D
:1069A0002000D249087013E0D048007810F0200F82
:1069B0000ED0FFF7D6FFFFF7A8FD0121AFF2403060
:1069C00006F01CF8C948007800F0DF00C7490870DD
:1069D000802007F0A4F8012812D1802007F0BDF82C
:1069E000FFF748FD30B9C148007840F02000BF49AA
:1069F000087005E0BD48007800F0DF00BB49087072
:106A00004FF4807007F08BF8012802D1000207F0E4
:106A1000A4F84FF4007007F082F8012802D1400278
:106A200007F09BF810BD0EB5002002904FF40060F7
:106A300007F075F801280BD1C00207F08EF8FFF7B8
:106A40000CFD28B1A948007800F0FB00A7490870A8
:106A50004FF4806007F063F801280BD1800207F043
:106A60007CF8FFF71BFD28B1A048007800F0FB0080
:106A70009E4908704FF4805007F051F8012837D133
:106A8000000307F06AF8FFF710FD012813D19748BB
:106A9000007840F040009549087002AB0222CDE931
:106AA000002300231A461946184600F029F9002051
:106AB000FFF7AFFB1CE04FF4FA70FDF7C0FB8B480B
:106AC000007800F0BF0089490870FFF7D9FC78B959
:106AD0000221AFF2544005F091FF0120FFF799FB2E
:106AE0008348007800F001008149087000F09DFAA9
:106AF0000EBD3EB5002002907E48007800F00F04E5
:106B00007C48007805097C480078A0B17A48007874
:106B100000EB800079490988B1EB400F0BDD0020C4
:106B20007649088002AB0022CDE9002313462946AE
:106B3000204600F0E5F83EBD10B54FF6FF70FDF7BA
:106B400071FB4FF6FF70FDF76DFB4FF6FF70FDF721
:106B500069FB4FF6FF70FDF765FB4FF6FF70FDF721
:106B600061FB4FF6FF70FDF75DFB4FF6FF70FDF721
:106B700059FB4FF6FF70FDF755FB4FF6FF70FDF721
:106B800051FB4FF6FF70FDF74DFB4FF6FF70FDF721
:106B900049FB4FF6FF70FDF745FB4FF6FF70FDF721
:106BA00041FB4FF6FF70FDF73DFB4FF6FF70FDF721
:106BB00039FB4FF6FF70FDF735FB4FF6FF70FDF721
:106BC00031FB4FF6FF70FDF72DFB4FF6FF70FDF721
:106BD00029FB4FF6FF70FDF725FB4FF6FF70FDF721
:106BE00021FB4FF6FF70FDF71DFB4FF6FF70FDF721
:106BF00019FB4FF6FF70FDF715FB4FF6FF70FDF721
:106C000011FB0220FFF707FE4FF6FF70FDF70AFBAE
:106C10004FF6FF70FDF706FB4FF6FF70FDF702FB26
:106C20004FF6FF70FDF7FEFA4FF6FF70FDF7FAFA28
:106C30000120FFF7F0FD4FF6FF70FDF7F3FA4FF676
:106C4000FF70FDF7EFFA4FF6FF70FDF7EBFA4FF626
:106C5000FF70FDF7E7FA4FF6FF70FDF7E3FA042047
:106C6000FFF7D9FD4FF6FF70FDF7DCFA4FF6FF7026
:106C7000FDF7D8FA4FF6FF70FDF7D4FA4FF6FF7024
:106C8000FDF7D0FA4FF6FF70FDF7CCFA0820FFF7BA
:106C9000C2FD10BD10B50024FFF7DFFB0446FFF76F
:106CA000E3FB0446FFF7E6FB0446FFF7E9FB044677
:106CB000FFF7EDFB0446FFF7F1FB0446012C0ED174
:106CC000FFF7D2FB0446FFF7D5FB0446FFF7D8FBDE
:106CD0000446FFF7DCFB0446FFF7E0FB044610BD6B
:106CE00024000020260000200B00002000000020CF
:106CF0000500002034000020330000202800002080
:106D00002DE9F04705460E4617469846DDE90894FA
:106D1000B9F1000F06D1F948007800F00200F749F8
:106D2000087005E0F548007840EA0900F34908706A
:106D3000F2480078F0B10020F14908700220FFF716
:106D400031FC0120FFF7D2FC0020EE490870EE492B
:106D50000870EE490870FEF704FE0020EC49087048
:106D6000FEF755FE0020EB490870EB490870FFF76D
:106D7000A3FB97E0E24880F800800078E0B10120B2
:106D8000E6490870E64908700020E2490870FFF7FC
:106D900093FB0220FFF706FC0220FFF7A7FC002070
:106DA000D8490870D8490870D8490870FEF7D9FD4D
:106DB0000020D749087075E0D8480078012803D131
:106DC0000220D649087002E00020D4490870FEF77E
:106DD0001EFE0020CF490870CF490870D1480078C6
:106DE00020B1012020700020BDE8F087C548007860
:106DF00018B1012020700020F6E7C3480078002871
:106E000003DCC2480078002803DD02202070002047
:106E1000EAE7C3480770007820B101280CD1FFF7DA
:106E20004BFB0CE0FFF771FB0120BF490870062106
:106E3000BEA005F0E3FD02E000202070D4E700BF13
:106E4000F02000EA06102843BA4908700846007886
:106E5000B9490870012D04D0022D07D0032D09D1A6
:106E600003E00220FFF79EFB07E000BF0120FFF7D1
:106E700099FB02E000202070B6E700BF012E04D08D
:106E8000022E07D0032E09D103E00220FFF72EFCCB
:106E900007E000BF0120FFF729FC02E0002020707E
:106EA000A2E700BF0020207001209DE710B5044636
:106EB00096480078204495490870A04800782044FE
:106EC0009E4908709E48006820449D4908609D487E
:106ED000007860B98B48007800F00F00012805D0D9
:106EE0008848007800F0F000102800D110BDFFF7AE
:106EF000E3FA0220FFF756FBFFF77DFC8D48007890
:106F000000F0F000401C8C49087000207D4908709A
:106F100000BFEBE710B504467B48007820447A496F
:106F200008708948007820448749087087480068BD
:106F30002044864908608348007860B97148007829
:106F400000F00F00012805D06E48007800F0F00036
:106F5000102800D110BDFFF7AFFAFFF73CFC02206C
:106F6000FFF7C4FB7348007800F00F0040F01000FA
:106F70007149087000206349087000BFEAE770B5E6
:106F800006460D4614466748007818B10120207067
:106F9000002070BD5B48007818B1012020700020EF
:106FA000F7E75648007810B95548007818B1022024
:106FB00020700020EDE716B1012E2ED116E05E48BC
:106FC000007800F00F00012803D10220207000207B
:106FD000DFE74D48007828440A2803DD03202070AD
:106FE0000020D6E72846FFF795FF17E052480078C3
:106FF00000F0F000102803D1022020700020C8E724
:107000004248007828440A2803DD0320207000202D
:10701000BFE72846FFF74AFF00E000BF00BF00209F
:107020004B49088020700120B3E710B53348007841
:10703000D8B10220FFF7B6FA0120FFF757FB002076
:10704000304908703049087030490870FEF789FCF3
:1070500000202F490870FEF7DAFC00202D49087047
:107060002D490870FFF728FA92E025480078B8B15A
:1070700001202A490870FFF71FFA0220FFF792FA51
:107080000220FFF733FB00201E4908701E490870DC
:107090001E490870FEF765FC00201D49087077E066
:1070A0001E480078012803D102201C49087002E024
:1070B00000201A490870FEF7AAFC00201549087044
:1070C000154908701648007820B1012809D1FFF74A
:1070D000F3F906E0FFF719FA072114A005F08EFC7A
:1070E00000BF00BF1348007800F00F00012831D026
:1070F000022834D0032836D130E0000005000020FB
:1071000004000020060000200E0000200F000020D8
:107110000B000020080000200900002007000020CC
:1071200003000020000000200C000020436C6F735F
:107130006500000001000020020000201100002076
:10714000180000202D000020100000201400002056
:10715000260000200220FFF725FA04E000BF0120EE
:10716000FFF720FA00BF00BF55480078000901284A
:1071700004D0022807D0032809D103E00220FFF73A
:10718000B5FA04E000BF0120FFF7B0FA00BF00BF6E
:1071900010BD70B505460C464A4800784A49097842
:1071A000084302D00020207070BD4848007848494C
:1071B0000978084303D0012020700020F4E7412D16
:1071C00004D0432D1BD04F2D24D105E00020414990
:1071D0000870FFF72AFF1DE001203E490870FFF705
:1071E0006BF9C820FDF72BF8FFF74AF9012805D104
:1071F0003948007840F00400374908700AE001205F
:1072000034490870FFF781F90821AFF2E00005F07A
:10721000F5FB00BF00BF002020700120C4E72F480D
:1072200000882F4908802D48408848802B48808856
:1072300088802948007840F0080027490870704786
:1072400010B5FFF71DF9012806D10020FFF78EF8D1
:107250000120FFF77BF805E00120FFF787F8002009
:10726000FFF774F810BD10B51E480078FFF79AF9C3
:107270001C480078FFF73AFA6420FCF7D3FF19485E
:10728000007809281AD2DFE800F005090D19111954
:10729000191915000120134908700FE00220114947
:1072A00008700BE004200F49087007E008200D4922
:1072B000087003E000200B49087000BF00BF10BD3C
:1072C0000100002005000020040000200E00002026
:1072D0000F000020080000200000002038000020DF
:1072E0003E0000200A00002000B58FB04FF6FF706E
:1072F000ADF8380003208DF83A0018208DF83B00D7
:107300000EA9434805F0BAFE4FF68070ADF838007C
:107310000EA9404805F0B2FE012001900320029022
:107320000220039001200490102005900020069078
:1073300010200790002008904FF4003009900020A2
:107340000A900B9001A80C900D9005A806F06FFF15
:107350000121102007F072F80FB000BD01204FF09E
:10736000E041088000200880402070470020702104
:10737000294A1170090608887047014600204FF01D
:10738000E042108811B140F0040002E04FF6FB72B9
:1073900010404FF0E04210807047014600204FF04F
:1073A000E042108811B140F0080002E04FF6F77299
:1073B00010404FF0E04210807047014600204FF02F
:1073C000E042108811B140F0020002E04FF6FD7279
:1073D00010404FF0E04210807047002070210E4AAC
:1073E00011700906B1F80100704710B590230A4CDE
:1073F00023700023094C23704FF0E0435988B3F801
:107400000320C1F30901C2F309029002084310BD31
:1074100000140140001801400000017000000270DB
:1074200070B50025002405F0C9FA054605F03AFAC2
:10743000044617480078432813D140F2FF1080EA31
:107440005400C0F308001349088040F2FF1080EA9E
:107450009420C0F308004880E84300F03F00888093
:1074600012E040F2FF1080EA5400C0F308000A491D
:10747000088040F2FF1080EA9420C0F308004880A2
:10748000E84300F03F008880012070BD7047000095
:10749000090000203E0000203800002010B5E84818
:1074A000006840F40060E749C1F8100C4FF0040098
:1074B000FCF7B8FEE348D0F8100C40F48060E149D6
:1074C000C1F8100C0420FCF7ADFEDE48D0F8140C17
:1074D00040F40060DC4908604FF00400FCF7A2FEB5
:1074E000D848D0F8140C40F48060D649C1F8140C88
:1074F0000420FCF797FE10BD10B5D348006840F497
:107500000060D049C1F8140C4FF00400FCF78AFE6B
:10751000CC48D0F8100C40F48060CA49C1F8100C77
:107520000420FCF77FFEC748D0F8100C40F4006040
:10753000C34908604FF00400FCF774FEC148D0F85E
:10754000140C40F48060BF49C1F8140C0420FCF70F
:1075500069FE10BD2DE9F0410546002600270024F4
:107560002C4600BF2EE004F080073FB1B44800680D
:1075700040F40060B349C1F8100C06E0B24800685E
:1075800040F40060AF49C1F8140C0420FCF74AFE37
:10759000AB48006840F48060AA49C1F8100C4FF075
:1075A0000800FCF73FFEA748D0F8140C40F48060B8
:1075B000A449C1F8140C6004040C0420FCF732FE4A
:1075C000701CC6B2082ECEDBA048006820F44050E4
:1075D0009C49C1F8040C0846D0F8100C40F48060B7
:1075E000C1F8100C4FF00400FCF71CFE984800682E
:1075F00084B24FF00400FCF715FE9248D0F8140C4A
:1076000040F48060904908604FF00400FCF70AFEE7
:107610008C48D0F8040C40F440508C4908604FF07E
:107620000400FCF7FFFD14F4006F02D00020BDE859
:10763000F0810120FBE72DE9F041054600270024F9
:1076400000268248006820F440507E49C1F8040CAE
:107650004FF00400FCF7E6FD00BF21E06006040ED9
:107660007748006840F480607649C1F8100C4FF00C
:107670000400FCF7D7FD7648006886B2C6F3C02642
:1076800004EB0600C4B26F48D0F8140C40F48060DC
:107690006D4908604FF00400FCF7C4FD781CC7B2C8
:1076A000082FDBDB6948006840F440506549C1F8A9
:1076B000040C4FF00100FCF7B5FD3DB160480068D7
:1076C00040F400605F49C1F8100C06E05E480068B5
:1076D00040F400605B49C1F8140C0420FCF7A2FDE3
:1076E0005748006840F480605649C1F8100C0846BD
:1076F000D0F8140C40F48060C1F8140C4FF0040072
:10770000FCF790FD2046BDE8F0812DE9F0470546E5
:107710000E4614461F464FF00009C8460DB9A0207A
:1077200000E0A22000F0FF09FFF7B8FE4846FFF78F
:1077300011FF10B90020BDE8F0873046FFF70AFFBF
:1077400008B90020F7E70DB9A12000E0A32000F060
:10775000FF09FFF7A3FE4846FFF7FCFE08B900202B
:10776000E9E74FF0000808E00020FFF764FF207011
:1077700008F1010000F0FF08641C781E4045F3DCAE
:107780000120FFF758FF2070FFF7B6FE0120D2E777
:107790002DE9F04705460E4614461F464FF00009F6
:1077A000C8460DB9A02000E0A22000F0FF09FFF7B5
:1077B00075FE4846FFF7CEFE10B90020BDE8F08701
:1077C0003046FFF7C7FE08B90020F7E74FF0000882
:1077D0000AE02078FFF7BEFE08B90020EEE7641C3F
:1077E00008F1010000F0FF08B845F2DBFFF784FE66
:1077F0000120E3E708B50121082005F0E2FE4FF47F
:107800004060ADF8000003208DF8020014208DF8D0
:10781000030069460D48001F05F030FC0848006869
:1078200040F480600749C1F8100C0846D0F8100CED
:1078300040F40060C1F8100CFFF75EFE08BD0000C8
:10784000100C014000000140140C0140040C0140E8
:10785000080C01400246012070472DE9F843054617
:107860000C460027A84600200090002601236A4607
:1078700041463846FFF749FF0646012E03D19DF8E1
:107880000000207001E0002020703046BDE8F88341
:107890000120704700B5002300210846FFF7DAFFFA
:1078A000034600210120FFF7D5FF034600210220F7
:1078B000FFF7D0FF034600210320FFF7CBFF03466D
:1078C00000210420FFF7C6FF034600210520FFF733
:1078D000C1FF034600210620FFF7BCFF034600213D
:1078E0000720FFF7B7FF034600210846FFF7B2FF66
:1078F000034600210820FFF7ADFF034600210920C1
:10790000FFF7A8FF034600210A20FFF7A3FF034665
:1079100000210B20FFF79EFF034600210C20FFF7FC
:1079200099FF0346184600BD70B5034600240124A4
:1079300067E0FF480078401CFD4D2870284600781D
:10794000092801D100202870F948007800EB800058
:10795000F84D05EB40008078F0BBF5480078F44D19
:107960002D7805EB8505F34E06F815000020F04D47
:107970002D7805EB850506EB450568700120EC4D7B
:107980002D7805EB850506EB4505A8700020E84D30
:107990002D7805EB850506EB45052871E448007850
:1079A00000EB8000354605EB40004371E04800786D
:1079B00000EB800005EB40008371DD48007800EBB0
:1079C000800005EB4000C2710020D94D2D7805EBF9
:1079D000850506EB450500E011E02872D44D2D78B1
:1079E00005EB850506EB45056872D148007800EB8C
:1079F0008000354605EB4000C170012070BD601C61
:107A0000C4B2092C95DD0020F8E770B504460B469A
:107A1000002100BFB9E0112C02D0122C77D13AE03E
:107A200001EB8100C34D05EB40008078012831D186
:107A300001EB810005EB4000C07803282AD101EB5F
:107A4000810005EB40004079984223D101EB810091
:107A500005EB4000807990421CD1002001EB8105AC
:107A6000B44E06EB4505A87001EB810506EB450514
:107A7000E87001EB810506EB4505687001EB8105B7
:107A800006EB4505E87101EB810506EB45056872DB
:107A9000012070BD76E001EB8100A64D05EB4000B2
:107AA0008078012832D101EB810005EB4000C078DD
:107AB00007282BD101EB810005EB4000407998426B
:107AC00024D101EB810005EB4000807990421DD16B
:107AD000002001EB8105974E06EB4505A87001EBF0
:107AE000810506EB4505E87001EB810506EB4505D0
:107AF000687001EB810506EB4505E87101EB810536
:107B000006EB450568720120C3E700E03AE001EBAF
:107B10008100884D05EB40008078012831D101EBD0
:107B2000810005EB4000C078A0422AD101EB810022
:107B300005EB40004079984223D101EB810005EB31
:107B40004000807990421CD1002001EB8105794EE4
:107B500006EB4505A87001EB810506EB4505E870CD
:107B600001EB810506EB4505687001EB810506EB2D
:107B70004505E87101EB810506EB450568720120BA
:107B800087E700BF00BF481C41B20929FFF643AF99
:107B900000207EE7002100BF1CE0002001EB8102F5
:107BA000644B03EB4202907001EB810203EB420253
:107BB000D07001EB810203EB4202507001EB8102B5
:107BC00003EB4202D07101EB810203EB42025072DF
:107BD000481C41B20929E0DB00207047F0B504469B
:107BE0000D46002100BF41E001EB8100514E06EB44
:107BF00040008078A8B301EB810006EB4000C0781C
:107C0000904231D101EB810006EB4000447001EB62
:107C1000810006EB400085719A420CD101EB810096
:107C200006EB40000079401C01EB8106414F07EB59
:107C30004606307106E0012001EB81063D4F07EB5F
:107C40004606307101EB81003A4E06EB4000C370EE
:107C500001EB810006EB40000079012802DD0220E3
:107C6000F0BD01E00120FBE7481CC1B20929BBDBE4
:107C70000020F5E710B502460B46002100BF18E0D2
:107C800001EB81002B4C04EB4000807878B101EBD4
:107C9000810004EB4000C078984208D101EB8100DC
:107CA00004EB40004079904201D1012010BD481CF6
:107CB000C1B20929E4DB0020F8E730B503460C46E1
:107CC000002100BF19E001EB81001A4D05EB4000D7
:107CD000807880B101EB810005EB4000C078A042C4
:107CE00009D101EB810005EB40004079984202D1B7
:107CF0001170012030BD481CC1B20929E3DB00200E
:107D0000F8E710B503460A46002100BF27E001EB63
:107D10008100084C04EB40008078F0B101EB810059
:107D200004EB40004079984217D101EB810003E059
:107D30005E0000202432002004EB4000C0790128BE
:107D40000BD102B910BD01EB8100FF4C04EB4000E8
:107D5000C078904201D10120F4E7481CC1B2092942
:107D6000D5DB0020EEE730B50246002000BF24E05E
:107D700000EB8003F44C04EB43039B78DBB100EB96
:107D8000800304EB4303DB788B4214D100EB8003C8
:107D900004EB43035B7993420DD100EB800304EBCA
:107DA0004303DB79012B06D1002300EB8004E64D71
:107DB00005EB4404E371431CD8B20928D8DB30BD7D
:107DC00030B503460C46002100BF25E001EB8100E1
:107DD000DD4D05EB40008078E0B101EB810005EB63
:107DE0004000C078A04215D101EB810005EB4000B6
:107DF000407998420ED101EB810005EB4000C0793B
:107E000040B901EB810005EB40004078904201D180
:107E1000012030BD481CC1B20929D7DB0020F8E79A
:107E200070B504460D46002100BF20E001EB810043
:107E3000C54E06EB40008078B8B101EB810006EB3F
:107E40004000C078A84210D101EB810006EB400051
:107E50004079A04209D101EB810006EB4000407A55
:107E6000904202D11970012070BD481CC1B209298D
:107E7000DCDB0020F8E70146B44800880A8890421D
:107E800028D1B24840884A88904223D1AF488088A0
:107E90008A8890421ED1AD48C088401CAB4AD08031
:107EA000088848B9488838B9888828B91046C088F1
:107EB00002281ADD00207047A448C088A44A12781E
:107EC00002EB8202520002EB8202B0EB420F0CDDA9
:107ED0000420F0E708889D4A1080488850808888F0
:107EE00090800120D0800220E5E70120E3E72DE922
:107EF000F04301460022002300240025002600272D
:107F00009446088840F2831800EA0800B1F802801D
:107F100040F2831908EA090840EA0802EABB088827
:107F200000F02800B1F8028008F0280840EA0804B0
:107F3000088800F05400B1F8028008F0540840EAC4
:107F4000080303B144B9088820B9488810B9012052
:107F5000BDE8F0830020FBE708888010B1F80080BE
:107F600040EA281000EAE80000F001004FEA281873
:107F7000B1F8009048EAA91808EA691808F0010861
:107F800040EA0800B1F802804FEAA808B1F8029070
:107F900048EA291808EAE90800E00FE008F00108BB
:107FA00040EA08004FEA291848EAA91808EA6918BF
:107FB00008F0010850EA080000D1C9E765480078D8
:107FC00000EB0010DFF8908108EB4000408BB1F827
:107FD000008008F07F0890EA080031D15D48007801
:107FE00000EB0010DFF8708108EB4000808BB1F8E7
:107FF000028008F4FE7890EA080021D1088800F495
:10800000C075488800F003065248007800EB001065
:10801000DFF8448108EB4000408B00F4C0774D4806
:10802000007800EB001008EB4000808B00F0030CA0
:1080300035B12FB126B1BCF1000F01D0002087E788
:10804000012085E72DE9F0430146002200230024AA
:108050000025002600279446088840F2831800EA8D
:108060000800B1F8028040F2831908EA090840EAE2
:108070000802EABB088800F02800B1F8028008F086
:10808000280840EA0804088800F05400B1F802808B
:1080900008F0540840EA080303B144B9088820B93D
:1080A000488810B90120BDE8F0830020FBE708886C
:1080B0008010B1F8008040EA281000EAE80000F0E3
:1080C00001004FEA2818B1F8009048EAA91808EA18
:1080D000691808F0010840EA0800B1F802804FEA88
:1080E000A808B1F8029048EA291808EAE90800E06F
:1080F0000FE008F0010840EA08004FEA291848EAB2
:10810000A91808EA691808F0010850EA080000D127
:10811000C9E70120C7E7002010490870104908800E
:1081200048808880704701460D4800880A881043BF
:108130000B4A1080104640884A881043084A5080F5
:10814000104680888A880DE02432002068000020D4
:10815000360000205A000020DC24002067000020A8
:10816000700000201043FC4A9080FC480078401CBE
:10817000FA4A107010460078032810D1F64800889B
:108180000880F54840884880F3488088888000202F
:108190001070F14A108050809080012070470020BC
:1081A000FCE770B5044600252046FFF74BFF88BB6F
:1081B000EB48007800EB0010EA4901EB4000408BEF
:1081C00008B9012000E00020E549097801EB011120
:1081D000E44A02EB4101898B09B9012100E0002149
:1081E0000840DF49097801EB0111DE4A02EB410149
:1081F000C98B09B9012100E00021084208D0002004
:10820000D749097801EB0111D64A02EB41010884F4
:10821000012070BDFFE7D248007800EB0010D14983
:1082200001EB4000408B2188884272D1CC48007815
:1082300000EB0010CB4901EB4000808B6188884245
:1082400067D1C748007800EB0010C64901EB400039
:10825000C08BA18888425CD1208861880843A188AE
:1082600008432BD0BE48007800EB0010BD4901EB5D
:108270004000008CB0F5C87F01DB0420C9E7B84896
:10828000007800EB0010B74901EB4000008C401C67
:10829000B349097801EB0111B24A02EB41010884AC
:1082A000AF48007800EB0010114601EB4000008C55
:1082B000012801D10820ACE70120AAE7A8480078EE
:1082C00000EB0010A74901EB4000008CFF281EDAEC
:1082D000A348007800EB001001EB4000008C401C2C
:1082E0009F49097801EB01119E4A02EB4101088484
:1082F0009B48007800EB0010114601EB4000008C19
:10830000032801D1082084E7012082E701E0002052
:108310007FE79348007800EB0010924901EB4000A2
:10832000008C01280DDB04F065FB8D480078401CB3
:108330008B49087008460078642842D100200870F4
:108340003FE08748007818B963208749087004E047
:1083500083480078401E844908708348007800EB09
:108360000010804901EB4000408B2188884228D1D1
:108370007D48007800EB00107A4901EB4000808BCB
:10838000618888421DD17848007800EB001075495B
:1083900001EB4000C08BA188884212D1724800785E
:1083A00000EB00106F4901EB4000008C401C6E494F
:1083B000097801EB01116B4A02EB410108840120AD
:1083C00027E7002513E134F815106548007800EB25
:1083D0000010644A02EB40001A3020F8151025B155
:1083E000012D5DD0022D5AD1C0E0208800F001009F
:1083F0005B49097801EB01115A4A02F81100208803
:10840000C0F340005649097801EB011102EB41012C
:1084100048702088C0F380005149097801EB0111B0
:1084200002EB410188702088C0F3C0004C490978F4
:1084300001EB011102EB4101C8702088C0F300106C
:108440004749097801EB011102EB410108712088CD
:10845000C0F340104249097801EB011102EB4101E0
:1084600048712088C0F380103D49097801EB011163
:1084700002EB410188712088C0F3C01038490978A7
:1084800001EB011102EB4101C8712088C0F300200B
:108490003349097801EB011102EB41010872A3E0B5
:1084A000608800F001002E49097801EB01112D4A86
:1084B00002EB410148726088C0F340002849097806
:1084C00001EB011102EB410188726088C0F380006A
:1084D0002349097801EB011102EB4101C872608860
:1084E000C0F3C0001E49097801EB011102EB410104
:1084F00008736088C0F300101949097801EB011175
:1085000002EB410148736088C0F3401014490978B8
:1085100001EB011102EB410188736088C0F3801008
:108520000F49097801EB011102EB4101C873608822
:10853000C0F3C0100A49097801EB011102EB4101B7
:1085400008746088C0F300200549097801EB011127
:1085500002EB4101487447E07000002067000020F2
:108560005A000020DC2400205C000020A08800F0DD
:108570000100FF49097801EB0111FE4A02EB4101BC
:108580000875A088C0F34000F949097801EB011192
:1085900002EB41014875A088C0F38000F4490978D6
:1085A00001EB011102EB41018875A088C0F3C00006
:1085B000EF49097801EB011102EB4101C875A08870
:1085C000C0F30010EA49097801EB011102EB410107
:1085D0000876A088C0F34010E549097801EB011145
:1085E00002EB4101487600BF00BF681CC5B2032DF5
:1085F000FFF6E9AE0120DE49097801EB0111DD4A01
:1086000002EB4101088400BF03E670B50446002573
:108610002046FFF788FD08B9012070BD2046FFF70E
:1086200011FD88BBD248007800EB0010D14901EB66
:108630004000408B08B9012000E00020CC490978B7
:1086400001EB0111CB4A02EB4101898B09B90121F0
:1086500000E000210840C649097801EB0111C54A34
:1086600002EB4101C98B09B9012100E00021084258
:1086700008D00020BE49097801EB0111BD4A02EB88
:10868000410108840120C8E7FFE7B948007800EB02
:108690000010B84901EB4000408B2188884265D129
:1086A000B348007800EB0010B24901EB4000808B2A
:1086B000618888425AD1AE48007800EB0010AD497D
:1086C00001EB4000C08BA18888424FD1208861888F
:1086D0000843A18808431FD0A548007800EB00108C
:1086E000A44901EB4000008CB0F5C87F01DB0420F9
:1086F00093E79F48007800EB00109E4901EB400093
:10870000008C401C9A49097801EB0111994A02EB4F
:1087100041010884012080E79548007800EB0010B3
:10872000944901EB4000008CFF281DDA9048007846
:1087300000EB001001EB4000008C401C8C490978D4
:1087400001EB01118B4A02EB410108848848007853
:1087500000EB0010114601EB4000008C032801D112
:1087600008205AE7012058E7002056E704F042F9B4
:108770007F480078401C7E490870084600786428CD
:1087800001D10020087000250EE134F8151078485A
:10879000007800EB0010774A02EB40001A3020F816
:1087A000151025B1012D5DD0022D5AD1B6E02088DB
:1087B00000F001006E49097801EB01116D4A02F8E1
:1087C00011002088C0F340006949097801EB0111CC
:1087D00002EB410148702088C0F3800064490978A9
:1087E00001EB011102EB410188702088C0F3C00049
:1087F0005F49097801EB011102EB4101C870208843
:10880000C0F300105A49097801EB011102EB410154
:1088100008712088C0F340105549097801EB011117
:1088200002EB410148712088C0F38010504909785B
:1088300001EB011102EB410188712088C0F3C010E7
:108840004B49097801EB011102EB4101C871208805
:10885000C0F300204649097801EB011102EB410108
:1088600008729EE0608800F001004149097801EB40
:108870000111404A02EB410148726088C0F3400098
:108880003B49097801EB011102EB410188726088D4
:10889000C0F380003649097801EB011102EB410178
:1088A000C8726088C0F3C0003149097801EB01113A
:1088B00002EB410108736088C0F300102C4909786D
:1088C00001EB011102EB410148736088C0F34010D5
:1088D0002749097801EB011102EB41018873608897
:1088E000C0F380102249097801EB011102EB41012C
:1088F000C8736088C0F3C0101D49097801EB0111ED
:1089000002EB410108746088C0F30020184909781F
:1089100001EB011102EB4101487442E0A08800F034
:1089200001001349097801EB0111124A02EB4101E0
:108930000875A088C0F340000D49097801EB0111CA
:1089400002EB41014875A088C0F38000084909780E
:1089500001EB011102EB41018875A088C0F3C00052
:108960000349097801EB011102EB4101C87503E0ED
:108970005A000020DC240020A088C0F30010F94930
:10898000097801EB011102EB41010876A088C0F3E0
:108990004010F449097801EB011102EB41014876DE
:1089A00000BF00BF681CC5B2032DFFF6EEAE01206C
:1089B000EC49097801EB0111EB4A02EB4101088413
:1089C00008202AE60021E748007800EB0010E64A7C
:1089D00002EB4000008C01280ADBE2480078401CD2
:1089E000E04A107010460078642801D10020107011
:1089F0000021C3E00022DB48007800EB0010DA4BD6
:108A000003EB40001A3020F8112021B1012943D096
:108A1000022940D182E00020D24A127802EB0212F1
:108A2000D14B03F81200CF4A127802EB021203EB8B
:108A300042025070CB4A127802EB021203EB420260
:108A40009070C84A127802EB021203EB4202D07017
:108A5000C44A127802EB021203EB42021071C14ABF
:108A6000127802EB021203EB42025071BD4A1278F7
:108A700002EB021203EB42029071BA4A127802EB47
:108A8000021203EB4202D071B64A127802EB0212D4
:108A900003EB420210726EE00020B24A127802EB41
:108AA0000212B14B03EB42025072AE4A127802EB53
:108AB000021203EB42029072AA4A127802EB0212EF
:108AC00003EB4202D072A74A127802EB021203EBC8
:108AD00042021073A34A127802EB021203EB420225
:108AE0005073A04A127802EB021203EB4202907319
:108AF0009C4A127802EB021203EB4202D073994AAD
:108B0000127802EB021203EB42021074954A1278BB
:108B100002EB021203EB420250742CE00020914A57
:108B2000127802EB0212904B03EB420210758D4A51
:108B3000127802EB021203EB42025075894A127856
:108B400002EB021203EB42029075864A127802EBA6
:108B5000021203EB4202D075824A127802EB021233
:108B600003EB420210767F4A127802EB021203EB0B
:108B70004202507600BF00BF481CC1B20329FFF675
:108B800039AF0320774A127802EB0212764B03EBDF
:108B900042021084002070477248007800EB0010F9
:108BA000714901EB4000008C012804DB6D4800781E
:108BB0006E4908700BE06B48007818B963206C4967
:108BC000087004E067480078401E694908706748EB
:108BD000007818B963206649087004E0634800789B
:108BE000401E634908706248007818B963206149E3
:108BF000087004E05E480078401E5E4908707047C7
:108C0000014601EB0110584A12F8100001EB011265
:108C1000554B03EB42025278104301EB011203EB78
:108C200042029278104301EB011203EB4202D27828
:108C3000104301EB011203EB42021279104301EBE6
:108C4000011203EB42025279104301EB011203EBD4
:108C500042029279104301EB011203EB4202D279F6
:108C6000104301EB011203EB4202127A104301EBB5
:108C7000011203EB4202527A104301EB011203EBA3
:108C80004202927A104301EB011203EB4202D27AC4
:108C9000104301EB011203EB4202127B104301EB84
:108CA000011203EB4202527B104301EB011203EB72
:108CB0004202927B104301EB011203EB4202D27B92
:108CC000104301EB011203EB4202127C104301EB53
:108CD000011203EB4202527C104301D10120704784
:108CE0000020FCE7F0B50020002100230022002432
:108CF0001F4D2D7805EB05151B4E06EB45056D8BBD
:108D0000C5F308011B4D2D7805EB051506EB450550
:108D10006D8BC5F30803164D2D7805EB051506EB95
:108D20004505AD8BC5F30802124D2D7805EB0515F1
:108D300006EB4505AD8BC5F308040C4D2D7805EB0E
:108D4000051516F81550094E367806EB0616064F2F
:108D500007EB460676783540012D19D161B940F010
:108D600001005AE05A000020DC2400205B000020B3
:108D70005C0000205D000020012903D113B940F000
:108D800001004AE0022948D1E3BB40F0010044E081
:108D9000FB4D2D7805EB0515FA4E06EB45056D7874
:108DA0006DB1F74D2D7805EB051506EB4505AD7852
:108DB0002DB109B1012902D140F001002DE0F04DA3
:108DC0002D7805EB0515EF4E06EB4505AD78EC4E1D
:108DD000367806EB0616EB4F07EB46063679354339
:108DE000E74E367806EB061607EB4606F678354072
:108DF000E34E367806EB061607EB4606767916B98B
:108E0000012601E009E00026354009B9012600E00D
:108E10000026354201D040F00100D94D2D7805EBF8
:108E20000515D84E06EB45056D7CD54E367806EB1C
:108E30000616D44F07EB4606367C3540012D10D17F
:108E400012B940F0020052E0B2F5807F03D114B9AC
:108E500040F002004BE0802A49D1ECBB40F0020018
:108E600045E0C74D2D7805EB0515C64E06EB4505CB
:108E7000ED7B75B1C24D2D7805EB051506EB45056B
:108E80002D7C35B112B1B2F5807F02D140F00200E5
:108E90002DE0BB4D2D7805EB0515BA4E06EB4505CB
:108EA000ED7BB74E367806EB0616B64F07EB460657
:108EB000767B3543B24E367806EB061607EB460650
:108EC000B67B3540AE4E367806EB061607EB460607
:108ED000367B16B9012601E009E0002635400AB9C3
:108EE000012600E00026354201D040F00200F0BD2E
:108EF000F0B500200021002300220024A24D2D788F
:108F000005EB05159F4E06EB45056D8BC5F3080176
:108F10009E4D2D7805EB051506EB45056D8BC5F3CC
:108F20000803994D2D7805EB051506EB4505AD8B2E
:108F3000C5F30802954D2D7805EB051506EB4505A3
:108F4000AD8BC5F308048E4D2D7805EB051516F88D
:108F500015508B4E367806EB06168A4F07EB460601
:108F600076783540012D4AD1874D2D7805EB0515D2
:108F70003E4616F81550844E367806EB061607EB7B
:108F8000460676780EB9012600E00026354202D06A
:108F900040F001007CE07C4D2D7805EB0515794E05
:108FA00016F815500DB9012500E00025764E3678EB
:108FB00006EB0616734F07EB46067678354202D06D
:108FC00040F0010064E0704D2D7805EB05156D4E05
:108FD00016F815500DB9012500E000256A4E3678C7
:108FE00006EB0616674F07EB460676780EB90126A4
:108FF00000E0002635424BD040F0010048E0604DD3
:109000002D7805EB05155F4E06EB45056D785C4E3A
:10901000367806EB06165B4F07EB4606B67835400A
:1090200009B1012901D1012600E00026354202D014
:1090300040F001002CE0524D2D7805EB0515514E06
:1090400006EB4505AD784E4E367806EB06164D4FCD
:1090500007EB460636793543494E367806EB061659
:1090600007EB4606F6783540454E367806EB061691
:1090700007EB460676790EB9012600E0002635405A
:1090800009B9012600E00026354201D040F0010078
:109090003B4D2D7805EB05153A4E06EB45056D7CED
:1090A000374E367806EB0616364F07EB4606367C0B
:1090B0003540012D4DD1344D2D7805EB05153E463B
:1090C00006EB45056D7C304E367806EB061607EB51
:1090D0004606367C0EB9012600E00026354202D055
:1090E00040F0020087E0284D2D7805EB0515254E50
:1090F00006EB45056D7C0DB9012500E00025224EEB
:10910000367806EB06161F4F07EB4606367C3542CF
:1091100002D040F002006EE01B4D2D7805EB0515E6
:10912000184E06EB45056D7C0DB9012500E00025C4
:10913000154E367806EB0616124F07EB4606367CC0
:109140000EB9012600E00026354254D040F002005E
:1091500051E00B4D2D7805EB05150A4E06EB450544
:10916000ED7B074E367806EB0616064F07EB4606F4
:10917000367C35400AB1012A0AD1012609E00000F7
:109180005B000020DC2400205C0000205D0000204B
:109190000026354202D040F002002CE0FF4D2D7831
:1091A00005EB0515FE4E06EB4505ED7BFB4E3678CF
:1091B00006EB0616FA4F07EB4606767B3543F74E6D
:1091C000367806EB061607EB4606B67B3540F34EBF
:1091D000367806EB061607EB4606367B0EB90126F7
:1091E00000E0002635400AB9012600E0002635429D
:1091F00001D040F00200F0BD2DE9F04106460C46DA
:1092000015460027012E02D0022E71D178E004EB22
:109210000410E34901EB4000807804EB0411E04ABC
:1092200002EB4101C978084232D0012704EB041057
:10923000114601EB4000007908B9012000E0002050
:1092400004EB0411D64A02EB41014979084208D0E7
:1092500004EB0410114601EB4000807938B302277B
:1092600048E004EB0410CE4901EB4000007904EB28
:109270000411CB4A02EB4101497908423AD004EB90
:109280000410114601EB4000807980B1022731E0E3
:1092900004EB0410C24901EB4000C07804EB041158
:1092A000BF4A02EB41010979084201D0012721E0C0
:1092B00004EB0410BA4901EB4000007904EB0411FF
:1092C000B74A02EB41014979084201D0012711E078
:1092D00004EB0410B24901EB4000407904EB0411A7
:1092E000AF4A02EB41018979084202D0012701E02F
:1092F00041E200271DB13946AAA003F07FFB3AE204
:1093000004EB0410A64901EB4000C07B04EB041100
:10931000A34A02EB4101897B084276D0012704EB86
:109320000410114601EB4000407B08B9012000E029
:10933000002004EB04119A4A02EB4101097B084228
:109340002FD004EB0410114601EB4000C07A08B1A5
:1093500002270AE204EB0410914901EB4000807AF5
:1093600004EB04118E4A02EB4101497A084004EBF8
:10937000041102EB4101C97904EB0412884B03EBA1
:1093800042025279114304EB041203EB4202927938
:10939000114201D1012100E00021084200D0022742
:1093A000E3E104EB04107E4901EB4000407B04EB59
:1093B00004117B4A02EB4101097B09B9012100E05C
:1093C000002108424ED004EB0410754901EB400027
:1093D000C07A04EB0411724A02EB4101897A084019
:1093E00004EB041102EB4101C97904EB04126C4B4C
:1093F00003EB42025279114304EB041203EB4202E5
:109400009279114202D1012101E0DDE00021084200
:1094100001D00227A9E104EB0410614901EB4000EF
:10942000807A04EB04115E4A02EB4101497A08405C
:1094300004EB041102EB4101C97904EB0412584B0F
:1094400003EB42025279114304EB041203EB420294
:109450009279114201D1012100E00021084200D09F
:10946000022782E104EB04104D4901EB4000407BF0
:1094700008B9012000E0002004EB0411484A02EB87
:109480004101097B09B9012100E0002108424DD0CA
:1094900004EB0410424901EB4000C07A04EB0411D4
:1094A0003F4A02EB4101897A084004EB041102EBC8
:1094B0004101C97904EB0412394B03EB42025279A2
:1094C000114304EB041203EB42029279114201D1E1
:1094D000012100E00021084201D0022745E104EB10
:1094E00004102F4901EB4000807A04EB04112C4A50
:1094F00002EB4101497A084004EB041102EB4101FF
:10950000C97904EB0412264B03EB42025279114352
:1095100004EB041203EB42029279114201D10121C2
:1095200000E00021084200D002271EE104EB0410F5
:109530001B4901EB4000407B04EB0411184A02EB8D
:109540004101097B08420DD004EB0410114601EBE8
:109550004000C07A04EB041102EB4101897A084211
:1095600001D0022701E104EB04100D4901EB40009A
:10957000807A04EB04110A4A02EB4101497A08405F
:1095800004EB041102EB4101C97904EB0412044B12
:1095900003EB42025279114308E000005B00002017
:1095A000DC24002049445F414200000004EB041227
:1095B00003EB42029279114201D1012100E0002126
:1095C000084200D00227D0E004EB0410F84901EB78
:1095D0004000807B04EB0411F54A02EB4101497B1A
:1095E000084253D0012704EB0410114601EB400060
:1095F000007B18BB04EB041001EB4000C07A04EBC5
:10960000041102EB4101897A084004EB041102EBDA
:109610004101C97904EB0412E54B03EB4202527994
:10962000114304EB041203EB42029279114201D17F
:10963000012100E00021084201D0022795E004EB5F
:109640000410DB4901EB4000807A04EB0411D84A96
:1096500002EB4101497A084004EB041102EB41019D
:10966000C97904EB0412D24B03EB42025279114345
:1096700004EB041203EB42029279114201D1012161
:1096800000E00021084270D002276EE004EB0410D5
:10969000C74901EB4000407B04EB0411C44A02EBD4
:1096A0004101097B084201D001275EE004EB041070
:1096B000BF4901EB4000007B04EB0411BC4A02EB04
:1096C0004101C97A084201D001274EE004EB0410A1
:1096D000B74901EB4000C07A04EB0411B44A02EB35
:1096E0004101897A084004EB041102EB4101C97978
:1096F00004EB0412AE4B03EB42025279114304EB2C
:10970000041203EB42029279114201D1012100E0DF
:109710000021084201D0012727E004EB0410A449EE
:1097200001EB4000807A04EB0411A14A02EB4101F5
:10973000497A084004EB041102EB4101C97904EBBA
:1097400004129B4B03EB42025279114304EB0412C7
:1097500003EB42029279114201D1012100E0002184
:10976000084201D0012700E000271DB1394691A031
:1097700003F044F900BF00BF3846BDE8F0812DE991
:10978000F84F002400270025A046002600228B4821
:1097900001780120FFF730FD8246002288480178D9
:1097A0000120FFF729FD834600228448017802202A
:1097B000FFF722FD00900022814801780220FFF788
:1097C0001BFD81467E48007800EB0010784901EBD4
:1097D0004000408B00F003077A48007800EB00104F
:1097E00001EB4000408B00F003057548007800EB6A
:1097F000001001EB4000808B00F4C07871480078C5
:1098000000EB001001EB4000808B00F4C0766B4849
:10981000007800EB001011F8100001281ED16848F4
:10982000007800EB001001EB4000407864490978B3
:1098300001EB01115E4A02EB41018978084360495E
:10984000097801EB011112F8111009B9012100E0AA
:109850000021084202D00DB944F0110457480078A5
:1098600000EB0010524901EB4000407C012828D158
:109870005348007800EB001001EB4000007C012809
:1098800000D100E000204E49097801EB0111484A5F
:1098900002EB4101C97B012900D100E0002108430E
:1098A0004749097801EB0111414A02EB4101497C2A
:1098B00009B9012100E00021084202D00EB944F0AC
:1098C00012042046BDE8F88F70B505460024002636
:1098D00000BF27E004EB84003B4901EB40008078A7
:1098E000F0B104EB840001EB40004079A84217D1AD
:1098F000012D09D104EB840001EB4000C07805285C
:109900000EDC701CC6B20BE0022D09D104EB840002
:109910002D4901EB4000C078052801DB701CC6B260
:10992000601CC4B2092CD5DB314628A003F066F8D0
:10993000304670BD0020274908700871C870487112
:109940008871C87108724872887270471B48007825
:1099500000EB0010164901EB4000C07908B9012066
:1099600000E000201549097801EB0111104A02EBD3
:109970004101097A09B9012100E0002108400F499D
:10998000097801EB01110A4A02EB4101497A09B950
:10999000012100E0002108400849097801EB01118C
:1099A000034A02EB4101897AB1B9012115E00000B7
:1099B000DC24002049445F42410000005B0000209D
:1099C0005C0000205D000020243200205649445FE6
:1099D0004E756D007E3200200021084201D001202A
:1099E00070470020FCE7F0B505462846F64E36786D
:1099F00006EB0616F54F07EB4606F679F24F3F7871
:109A000007EB0717DFF8C4C30CEB47073F7A06EAFA
:109A10000703EF4E367806EB0616674607EB460659
:109A2000F679EB4F3F7807EB07170CEB47073F7AC8
:109A300006EA0704E44E367806EB0616674607EB9F
:109A40004606767AE04F3F7807EB07170CEB47079F
:109A5000BF7A06EA0701DE4E367806EB0616674641
:109A600007EB4606767ADA4F3F7807EB07170CEBE1
:109A70004707BF7A06EA070263B15CB911B90AB9B0
:109A8000012026E011B90AB1022022E009B302B395
:109A900002201EE063B95CB111B90AB9022018E0D6
:109AA00011B10AB9012014E099B192B1012010E07E
:109AB00043B13CB111B10AB901200AE049B942B140
:109AC000022006E011B10AB9022002E009B902B190
:109AD0000120F0BDF0B50020BB4D2D7805EB05153C
