:0FC7CF00434F4D2D4F4E00434F4D2D4F4E2000E9
:10C4060041049200011800011900011A28410B1F6E
:10C4160000C104C106C10AC109C1004105D30041DA
:10C42600035F004103620041036500410B1C00C12C
:10C4360002C105C108C10CC107410B1B00410B1EFF
:06C446000042036000004B
:104D0100E490000CF0FFFEC201C20B900363F0A31C
:104D1100F08F828E8374FFF00FBF00010EE4B507A0
:104D2100F0EEB480EC7F0A7E0012C64912C79D9056
:104D3100000CEFF0600812C79D90000CEFF012C656
:104D4100D690000CE070057F0112C61712C6D6D2AC
:104D51000A1298FEE43390000CF012C5E412C6D694
:104D610012AB34E4FF12C535C208900B1F7405F075
:104D7100D293C203E4900805F0A3F0A3F0A3F0A33B
:104D8100F0A3F0300809900234E0F46033C20890D7
:104D91000B1FE0FF645A601CEF64A56017EFB405B8
:104DA10009740AF0D293C203800A900B1F7405F0B4
:104DB100C293C2037F057E0012C64912C6D680C3C4
:104DC10078077C017D017B017A0279357E007F06BF
:104DD100125D3C12AB3412C6D6900107E0540F7538
:104DE100F00AA4FFA3E0540F2F75F008A475F03C5E
:104DF10084781AF612C366D2A9C208E4FF12A3EBA3
:104E01007F0112C617D2A912978D12C1C290000C50
:104E1100EFF0F46005E0FF12455212C6D6900B1D6B
:104E2100E025E025E024BFF582E43405F583E0FECA
:104E3100A3E064014E70D030001B12ACE612ABC689
:104E410012C1C290000CEFF0F46005E0FF12455270
:104E510012C6D680E2900B1DE025E025E024BFF5C7
:104E610082E43405F583E0FEA3E08EF0125EA450E7
:104E71000C00015012001550A5001650CF0017511B
:104E81002D0018521100195220001A5234001B52E1
:104E910059001C501801A5504501A6506301A750A7
:104EA1008701A8508D01A9509301AA509901AB50D7
:104EB1009F01AC50AB01B950B701BA50D501CD50EB
:104EC100EF01CE50F501CF513301E1515A01E251C9
:104ED1006C01E3518D01E451AB01E551BD01E65196
:104EE100CF01E7520C01E8521601F5521B01F652AF
:104EF100250209522A020A522F020B5239021D526F
:104F01003E021E5244021F524A02205250022152B6
:104F11005E02315263023252680233526D023450E2
:104F21001E20E5502320E6502720E7502D20E85091
:104F31003520E9503F20EA504B20F9505120FA50DA
:104F41005720FB505D20FC5069210D506F210E5000
:104F510075210F507B21105081211150B1227550C4
:104F6100BD228950DB240550E1240650E724075077
:104F7100FB242D5101242E5107242F510D24305192
:104F8100152431511B24325121243351272434510A
:104F9100392595513E259651442597514A259851D9
:104FA100502599516025A9516625AA517225BD51F7
:104FB1007725BE517D25BF518325C0519325D15100
:104FC1009925D2519F25D351A525D451B125E5511C
:104FD100B725E651C325F951C925FA51D5260D51F9
:104FE100DA260E51E0260F51E6261051EC2611511A
:104FF100F2261251F8261351FE2614520726155097
:10500100C3B2B550C9B2B60000527012577D0252F8
:1050110070128A16025270129848025270E4FFFE12
:105021008016C20D80087F017E00800CD20D129186
:10503100F40252707F027E001292D702527012B9AE
:10504100A302527012A66C02527012A2A3025270F5
:105051001299B302527012A347025270129A670258
:10506100527012A0AA025270129B1B025270129B24
:10507100CF025270129C83025270129D37025270FD
:10508100127E5F025270129DEB0252701272540234
:10509100527012BAF602527012BB6002527012BB09
:1050A100CA02527012B5E802527012954F02527044
:1050B10012000002527012B7D502527012B2E3020E
:1050C100527012BC3402527012BC9E02527012B065
:1050D1003602527012AC5702527012BF1A0252704D
:1050E100128456025270E4FF12527502527012601D
:1050F100C00252701287DE0252701278CB025270D7
:10510100128F38025270127488025270E4FF1270CA
:105111000F025270126DC1025270129F51025270F1
:1051210012AD7402527012AE02025270128B2D0235
:10513100527012A153025270E4FFFE80167F017E6D
:105141000080107F027E00800A7F037E0080047F42
:10515100047E001288FA02527012B3650252701274
:10516100A52E02527012A8DB02527012A708025239
:1051710070E4FFFE80107F017E00800A7F027E00C6
:1051810080047F037E00128D5402527012A7A40284
:10519100527012BA1402527012B1D302527012B28A
:1051A1005B02527012BA8502527012B3E70252705A
:1051B10012B14A02527012BD0802527012B4690251
:1051C100527012A1FC02527012BD7202527012850D
:1051D1008E025270E4FFFE80287F017E0080227FD4
:1051E100027E00801C7F037E0080167F047E00808B
:1051F100107F057E00800A7F067E0080047F077E87
:105201000012818F8069127ACA806412A5CD805FF5
:1052110012B665805A1296118055129E9F805012C7
:10522100B0C0804B12B84A804612B8BD804112B955
:1052310030803C12A9728037E4FFFE80167F017E28
:105241000080107F027E00800A7F037E0080047F41
:10525100047E00128C44801712AA09801212BDDC50
:10526100800D12BE46800812BEB08003129FFED28E
:0452710000024E38B1
:10C5E400C293758780E4F5A875B8107589017588BC
:10C5F4001075C83475CBFF75CADC759850F58DF588
:10C604008B758C28F58AC2A8C2AAC2A9C2ABD2ACC7
:03C61400D2AF2280
:10ABC6009008057F0312C3169008067F0512C31668
:10ABD600900B1EE0FF900045742EF07B077D0A1255
:10ABE600C270900807E024F6FD7F0812C31A900B86
:10ABF6001EE0FF900045742EF07B0A7D0A12C2709B
:10AC0600900808E024F6FD7F0B12C31A900B1EE095
:10AC1600FF9000457420F07B0D7D0A12C2709008EB
:10AC260009E024F6FD7F0E12C31A900B1EE0FF907A
:10AC36000045743AF07B107D0A12C27090080AE053
:10AC460024F6FDC3943C50057F1102C31AC2088046
:01AC5600FEFF
:04C31600E024F6FD2C
:06C31A0090000DEFF0FBA6
:10C32000E4A3F0ED75F06484AEF0EE75F00A84FEDF
:10C33000ED75F00A84AFF0EFF0EE4430FEEF4430DC
:10C34000F0900B1EE0FF900045EEF07D0A12C270E7
:10C35000900B1EE0FF90000DE004FBA3E090004571
:06C36000F07D0A02C2702C
:10ACE600900361E004F07006900360E004F0D390F6
:10ACF6000361E09420900360E0940340077403F03E
:10AD0600A3742AF0900B1CE0B40A0BE4900360F0E5
:10AD1600A3F0900B1CF0D3900361E09420900360A5
:10AD2600E094037BFF40207AC779CF12C788900052
:10AD360040EFF0900B1EE0FF90003D74FFF0A3740F
:10AD4600C7F0A374CF801E7AC779D612C788900041
:10AD560040EFF0900B1EE0FF90003D74FFF0A374EF
:0EAD6600C7F0A374D6F07B1E7D0A12C45522DE
:1000560054564D2D4D545000C6F4B6AFD6D02CC7CD
:10006600EBC9D4BAF22E2E2E2E2E2E0053414D530E
:10007600554E4720534453204348494E4100D4B17E
:10008600B9A4BFA8BAC53A5F5F5F5F5F5F00C3DC14
:10009600C2EB3A2D2D2D2D2D2D00D4B1B9A4BFA81C
:1000A600BAC53A2D2D2D2D2D2D00D6F7B9A6C4DCB7
:1000B600B2CBB5A500D4CBD3AAB7FECEF100D4CB34
:1000C600D3AABFD8D6C600C9E8B1B8B2E9D1AF0045
:1000D600CEACD0DEB2E2CAD400C9E8B1B8C9E8D61F
:1000E600C300CFB5CDB3B9D8B1D500C4A3BFE9C855
:1000F600EDBCFECFC2D4D800CAFDBEDDCEACBBA4DB
:1001060000B8FCBBBBC6B1CFE400B8FCBBBBD3B2E6
:10011600B1D2C7AECFE400C5CCB5E3D3B2B1D200FD
:10012600B2B9B3E4D6BDB1D200CFFACADBCAFDBEBE
:10013600DDB2E9D1AF00C8D5BDE100BDBBD2D7B5B0
:10014600A5BEDDD6D8B4F200B2D9D7F7B5A5BEDDC7
:10015600D6D8B4F200D4CBD3AAB7FECEF12DB8FCD4
:10016600BBBBC6B1CFE400D0B6CFC241C6B1CFE467
:1001760000D7B0D4D841C6B1CFE400D0B6CFC24282
:10018600C6B1CFE400D7B0D4D842C6B1CFE400B8E8
:10019600FCBBBBB7CFC6B1CFE400D7B0D4D8B7CF7E
:1001A600C6B1CFE400D4CBD3AAB7FECEF12DD0B6DC
:1001B600CFC241C6B1CFE400D4CBD3AAB7FECEF1AD
:1001C6002DD0B6CFC242C6B1CFE400D4CBD3AAB7A6
:1001D600FECEF12DD0B6CFC2B7CFC6B1CFE400C6A2
:1001E600B1CFE449443A5F5F5F5F5F5F5F5F00C71F
:1001F600EBB8FCBBBBC6B1CFE42100B2D9D7F7CA76
:10020600A7B0DC2100D4CBD3AAB7FECEF12DD7B050
:10021600D4D841C6B1CFE40041C6B1CFE4B2B9C625
:10022600B1CAFDC1BF3A2D2D2D2D00D4CBD3AAB70F
:10023600FECEF12DD7B0D4D842C6B1CFE40042C627
:10024600B1CFE4B2B9C6B1CAFDC1BF3A2D2D2D2D2D
:1002560000D4CBD3AAB7FECEF12DD7B0D4D8B7CF22
:10026600C6B1CFE400B7CFC6B1CFE449443A5F5F29
:100276005F5F5F5F5F5F00D4CBD3AAB7FECEF12D81
:10028600B8FCBBBBD3B2B1D2C7AECFE400D0B6CFB9
:10029600C2B2B9B1D2C7AECFE43100D7B0D4D8B26A
:1002A600B9B1D2C7AECFE43100D0B6CFC2B2B9B180
:1002B600D2C7AECFE43200D7B0D4D8B2B9B1D2C724
:1002C600AECFE43200D4CBD3AAB7FECEF12DD0B652
:1002D600CFC2B2B9B1D2C7AECFE43100C3FCC1EED2
:1002E600D2D1B7A2CBCD2100C7E5B1D2BDF8D0D0CF
:1002F600D6D02100C7AECFE4CEB4B5BDCEBB21006B
:10030600C7AECFE4C2FA2100B8FCBBBBC7AECFE490
:10031600B4EDCEF32CB2BBC4DCC7E5B1D22100C725
:10032600AECFE4B7ADB0E5CEB4B5BDCEBBA3ACB2EF
:10033600BBC4DCC7E5B1D22100D4CBD3AAB7FECE6D
:10034600F12DD7B0D4D8B2B9B1D2C7AECFE431000F
:10035600C7AECFE431B5B1C7B0B4E6B1D2C1BF3A8A
:100366002D2D2D2D2D2D2D2D2D2D00322E20B2B9DA
:10037600B1D2C7AECFE431B2B9B1D2CAFD3A2D2D52
:100386002D2D00D4CBD3AAB7FECEF12DD0B6CFC239
:10039600B2B9B1D2C7AECFE43200D4CBD3AAB7FE3E
:1003A600CEF12DD7B0D4D8B2B9B1D2C7AECFE432E0
:1003B60000C7AECFE432B5B1C7B0B4E6B1D2C1BF63
:1003C6003A2D2D2D2D2D2D2D2D2D2D00322E20B2F9
:1003D600B9B1D2C7AECFE432B2B9B1D2CAFD3A2D65
:1003E6002D2D2D00D4CBD3AAB7FECEF12DC5CCB57D
:1003F600E3D3B2B1D200C5CCB5E3CBF9D3D0D3B2F7
:10040600B1D200C5CCB5E3D1ADBBB7D5D2C1E3CF30
:10041600E4D3B2B1D200C5CCB5E3B2B9B1D2C7AE5E
:10042600CFE431D3B2B1D200C5CCB5E3B2B9B1D2C3
:10043600C7AECFE432D3B2B1D200B2E9D1AFC5CCA8
:10044600B5E3BDE1B9FB00D4CBD3AAB7FECEF12DFF
:10045600C5CCB5E3CBF9D3D0D3B2B1D200C5CCB5B8
:10046600E3BDF8D0D0D6D02100C7AECFE430C2FA73
:100476002100C7AECFE431C2FA2100C7AECFE4B740
:10048600ADB0E5CEB4B5BDCEBB2CB2BBC4DCC7E5C2
:10049600B1D22100D4CBD3AAB7FECEF12DC5CCB5AF
:1004A600E3D1ADBBB7D5D2C1E3CFE4D3B2B1D2006D
:1004B600D4CBD3AAB7FECEF12DC5CCB5E3B2B9B134
:1004C600D2C7AECFE431D3B2B1D200D4CBD3AAB720
:1004D600FECEF12DC5CCB5E3B2B9B1D2C7AECFE4ED
:1004E60032D3B2B1D200D4CBD3AAB7FECEF12DB25D
:1004F600E9D1AFD3B2B1D2C5CCB5E3BDE1B9FB000A
:1005060035BDC7D1ADBBB7D5D2C1E3C6F7C5CCB5EE
:10051600E3CAFDC1BF3A5F5F5F5F5F0035BDC7D10C
:10052600ADBBB7D5D2C1E3C6F7CAA3D3E0B1D2CA31
:10053600FD3A5F5F5F5F5F0031D4AAD1ADBBB7D52F
:10054600D2C1E3C6F7C5CCB5E3CAFDC1BF3A5F5F0A
:100556005F5F5F0031D4AAD1ADBBB7D5D2C1E3C6C8
:10056600F7CAA3D3E0B1D2CAFD3A5F5F5F5F5F000F
:10057600B2B9B1D2C7AECFE431C5CCB5E3CAFDC17D
:10058600BF3A5F5F5F5F5F00B2B9B1D2C7AECFE47B
:1005960031CAA3D3E0B1D2CAFD3A5F5F5F5F5F00A5
:1005A600B2B9B1D2C7AECFE432C5CCB5E3CAFDC14C
:1005B600BF3A5F5F5F5F5F00B2B9B1D2C7AECFE44B
:1005C60032CAA3D3E0B1D2CAFD3A5F5F5F5F5F0074
:1005D600C7AECFE4302049443A5F5F5F5F5F5F5F3D
:1005E6005F00C7AECFE430CFD6D3D0B1D2CAFD3A82
:1005F6005F5F5F5F5F5F00D5FDD4DAC5CCB5E3D63C
:10060600D02100CEB4BDF8D0D0C5CCB5E3B2D9D791
:10061600F72100435255CDA8D0C5B9CAD5CF210080
:10062600D4CBD3AAB7FECEF12DB2B9B3E4D6BDB1C1
:10063600D20035D4AAD6BDB1D2D5D2C1E3CFE4B566
:10064600B1C7B0B4E6B1D2C1BF3A2D2D2D2D2D2D97
:100656002D2D2D2D00322E2035D4AAD6BDB1D2D5C2
:10066600D2C1E3CFE4B2B9B1D2D5C5CAFD3A2D2D78
:100676002D2D00C9E8B1B8B2E9D1AF2DBCC4B4E69E
:10068600C6F7D0C5CFA2B2E9D1AF00CFD6BDF0B97B
:10069600BAC2F2B5C4B5A5B3CCC6B1CAFDC1BF3A9C
:1006A6002D2D2D2D2D2D2D2D2D2D00CFD6BDF0B977
:1006B600BAC2F2B5C4B5A5B3CCC6B1BDF0B6EE3A72
:1006C6002D2D2D2D2D2D2D2D2D2D00B4A2D6B5BFC2
:1006D600A8B9BAC2F2B5C4B5A5B3CCC6B1CAFDC1F4
:1006E600BF3A2D2D2D2D2D2D2D2D2D2D00B4A2D61D
:1006F600B5BFA8B9BAC2F2B5C4B5A5B3CCC6B1BD2B
:10070600F0B6EE3A2D2D2D2D2D2D2D2D2D2D00B49F
:10071600A2D6B5BFA8CFFBB7D1BDF0B6EE3A2D2D08
:100726002D2D2D2D2D2D2D2D0054564DC0DBBCC647
:10073600BDD3CAD5D3B2B1D2D7DCCAFD3A2D2D2D41
:100746002D2D2D2D2D2D2D0054564DC0DBBCC6BD97
:10075600D3CAD5D6BDB1D2D7DCCAFD3A2D2D2D2DA3
:100766002D2D2D2D2D2D00D3B2B1D2C7AECFE4C085
:10077600EFD3B2B1D2C3E6D6B5B5C4D7DCCAFD3A1B
:100786002D2D2D2D2D2D2D2D2D2D00D5D2C1E3BF97
:10079600DAD5D2B3F6D3B2B1D2B5C4D7DCCAFD3AF4
:1007A6002D2D2D2D2D2D2D2D2D2D00BDF8C8EBC752
:1007B600AECFE435D4AAD6BDB1D2C3E6D6B5D7DC22
:1007C600CAFD3A2D2D2D2D2D2D2D2D2D2D00BDF8AB
:1007D600C8EBC7AECFE43130D4AAD6BDB1D2C3E69A
:1007E600D6B5D7DCCAFD3A2D2D2D2D2D2D2D2D2D2F
:1007F6002D00BDF8C8EBC7AECFE43230D4AAD6BDC3
:10080600B1D2C3E6D6B5D7DCCAFD3A2D2D2D2D2D96
:100816002D2D2D2D2D00BDF8C8EBC7AECFE43530FC
:10082600D4AAD6BDB1D2C3E6D6B5D7DCCAFD3A2D19
:100836002D2D2D2D2D2D2D2D2D00BDF8C8EBC7AE40
:10084600CFE4313030D4AAD6BDB1D2C3E6D6B5D7BF
:10085600DCCAFD3A2D2D2D2D2D2D2D2D2D2D00C033
:10086600DBBCC6B3E4D6B5B4CECAFD3A2D2D2D2DCC
:100876002D2D2D2D2D2D00C0DBBCC6B3E4D6B5BD68
:10088600F0B6EE3A2D2D2D2D2D2D2D2D2D2D00C012
:10089600DBBCC6D6BDB1D2D5D2C1E3D7DCBDF0B67E
:1008A600EE3A2D2D2D2D2D2D2D2D2D2D00D4CBD3E6
:1008B600AAB7FECEF12DC8D5BDE100B2D9D7F7B3A0
:1008C600C9B9A62100D4CBD3AAB7FECEF12DBDBBA4
:1008D600D2D7B5A5BEDDD6D8B4F200D6D8B4F2B319
:1008E600C9B9A62100D6D8B4F2CAA7B0DC2100D473
:1008F600CBD3AAB7FECEF12DB2D9D7F7B5A5BEDDBB
:10090600D6D8B4F200C4A3CABDC9E8D6C300D4CBB6
:10091600D3AAC9E8D6C300C9E8B1B8C9E8D6C32D79
:10092600C4A3CABDC9E8D6C300B9A6C4DC3A2D2003
:10093600313AD5FDB3A32C323AD6BBCADBC6B12CAD
:10094600333AD6BBB3E4D6B500D6A7B8B6B7BDCA58
:10095600BD3A2D00313AB6BCCAD52C323AD6BBD3F5
:10096600B2B1D22C333AD6BBD6BDB1D22C343AD69C
:10097600BBB4A2D6B5BFA800353AB2BBCAD5D3B26E
:10098600B1D22C363AB2BBCAD5D6BDB1D22C373A83
:10099600B2BBCAD5B4A2D6B5BFA800D5D2C1E33A78
:1009A6002D00313AC8ABB2BF2C323AD6BDB1D2D542
:1009B600D2C1E32C333AD3B2B1D2D5D2C1E32C346F
:1009C6003ACEDED5D2C1E300D4CBD3AABFD8D6C6A1
:1009D6002DD4CBD3AAC9E8D6C300B7FECEF1C4A3A3
:1009E600CABDC9E8D6C300D4CBD3AABFD8D6C62DB4
:1009F600B7FECEF1C4A3CABDC9E8D6C300CDA3D6FF
:100A0600B900BFAACABC00D4CBD3AABFD8D6C62DBC
:100A1600CDA3D6B9B7FECEF100B3C9B9A62100C39E
:100A2600FCC1EECEDED0A72100D4CBD3AABFD8D648
:100A3600C62DBFAACABCB7FECEF100D4CBD3AAD767
:100A4600B4CCACB2E9D1AF00BDBBD2D7CAFDBEDDD6
:100A5600B2E9D1AF00C4A3BFE9D0C5CFA2B2E9D1F4
:100A6600AF00C9E8B1B8B2E9D1AF2DD4CBD3AAD77C
:100A7600B4CCACB2E9D1AF00CDF8C2E7CDA8D0C5B1
:100A8600D7B4CCAC00C9E8B1B8D0C5CFA200C9E88C
:100A9600B1B8D7B4CCAC00C9E8B1B8B2E9D1AF2D82
:100AA600CDF8C2E7CDA8D0C5D7B4CCAC00CDA8D080
:100AB600C5D5FDB3A32100CDA8D0C5B9CAD5CF21D0
:100AC60000C9E8B1B8B2E9D1AF2DC9E8B1B8D0C50F
:100AD600CFA200C9E8B1B849443A205F5F5F5F5FC3
:100AE6005F5F5F5F00C9E8B1B849503A202D2D2DF0
:100AF6002E2D2D2D2E2D2D2D2E2D2D2D00C9E8B16F
:100B0600B8CDF8B9D83A202D2D2D2E2D2D2D2E2DE0
:100B16002D2D2E2D2D2D00C9E8B1B8D7D3CDF8D166
:100B2600DAC2EB3A202D2D2D2E2D2D2D2E2D2D2DED
:100B36002E2D2D2D00B3B5D5BE49443A205F5F5FFB
:100B46005F00B3B5D5BEB7FECEF1C6F749503A2021
:100B56002D2D2D2E2D2D2D2E2D2D2D2E2D2D2D00E9
:100B6600CAB1D6D3CDACB2BDB7FECEF1C6F74950A9
:100B76003A2D2D2D2E2D2D2D2E2D2D2D2E2D2D2D8F
:100B86000054564DC8EDBCFEB0E6B1BEBAC53A5FDC
:100B96005F5F5F5F5F5F5F00C9E8B1B8B2E9D1AF81
:100BA6002DC9E8B1B8D7B4CCAC00CEDEB2D9D7F7F0
:100BB600B9A6C4DC00B7A2CADBBACDB3E4D6B50089
:100BC600D6BBB7A2CADB00D6BBB3E4D6B500D5D236
:100BD600C1E3C4A3CABD3AD3B2B1D2D5D2C1E300F0
:100BE600D5D2C1E3C4A3CABD3AD6BDB1D2D5D2C10E
:100BF600E300D5D2C1E3C4A3CABD3ACBABB1D2D5CB
:100C0600D2C1E300D5D2C1E3C4A3CABD3ACEDED574
:100C1600D2C1E300D6A7B8B6B7BDCABD3ACAD5D3C6
:100C2600B2B1D200D6A7B8B6B7BDCABD3ACAD5D6F4
:100C3600BDB1D200D6A7B8B6B7BDCABD3ACBABB127
:100C4600D200D6A7B8B6B7BDCABD3AB4A2D6B5BF0C
:100C5600A8B9BAC6B100D6A7B8B6B7BDCABD3AB22A
:100C6600BBCAD5D3B2B1D200D6A7B8B6B7BDCABD36
:100C76003AB2BBCAD5D6BDB1D200D6A7B8B6B7BDB3
:100C8600CABD3AB2BBBFC9B4A2D6B5BFA8B9BAC627
:100C9600B100D4CBD3AAD7B4CCAC3A5F5F5F5F00C8
:100CA600D3B2B1D2C4A3BFE9D7B4CCACC2EB3A5FDE
:100CB6005F5F5F00D6BDB1D2C4A3BFE9D7B4CCACE9
:100CC600C2EB3A5F5F5F5F00D6BDB1D2D5D2C1E35A
:100CD600C4A3BFE9D7B4CCACC2EB3A5F5F5F5F0099
:100CE600544955C4A3BFE9D7B4CCACC2EB3A5F5F55
:100CF6005F5F00B6C1D0B4C6F7D7B4CCACC2EB3A8E
:100D06005F5F5F5F00B4F2D3A1BBFAD7B4CCAC3A55
:100D16004F4B00B4F2D3A1BBFAD7B4CCAC3A4241A4
:100D26004400B2B9B1D2C7AECFE4312049443A5FEC
:100D36005F5F5F5F5F5F5F00B2B9B1D2C7AECFE4FE
:100D4600322049443A5F5F5F5F5F5F5F5F00D3B207
:100D5600B1D2BBD8CAD5C7AECFE42049443A5F5F0B
:100D66005F5F5F5F5F5F00B2B9B1D2C7AECFE431FC
:100D7600D3B2B1D2CAFDC1BF3A2D2D2D2D2D00B251
:100D8600B9B1D2C7AECFE432D3B2B1D2CAFDC1BF78
:100D96003A2D2D2D2D2D0031D4AAD1ADBBB7D5D2EC
:100DA600C1E3C6F7D3B2B1D2CAFDC1BF3A2D2D2DCC
:100DB6002D2D00D3B2B1D2BBD8CAD5CFE4D3B2B1B0
:100DC600D2CAFDC1BF3A5F5F5F5F5F00D6BDB1D2D9
:100DD600C7AECFE449443A5F5F5F5F5F5F5F5F5FC7
:100DE6005F00D6BDB1D2C7AECFE4D6BDB1D2CAFD83
:100DF600C1BF3A2D2D2D2D2D2D2D0035D4AAD6BDB2
:100E0600B1D2D5D2C1E3CFE4C0E0D0CD49443A5FF8
:100E16005F0035D4AAD6BDB1D2D5D2C1E3CFE4C2E4
:100E2600DFBCAD49443A5F5F5F5F5F5F5F5F5F5FF7
:100E36000031BAC5D6BDB1D2C7AECFE4B1D2D6D68F
:100E46003A31D4AA0031BAC5D6BDB1D2C7AECFE4C5
:100E5600B1D2D6D63A32D4AA0031BAC5D6BDB1D2AD
:100E6600C7AECFE4B1D2D6D63A35D4AA0031BAC588
:100E7600D6BDB1D2C7AECFE4B1D2D6D63A3130D490
:100E8600AA0031BAC5D6BDB1D2C7AECFE4B1D2D66B
:100E9600D63A3230D4AA0031BAC5D6BDB1D2C7AE21
:100EA600CFE4B1D2D6D63A3530D4AA0031BAC5D6B7
:100EB600BDB1D2C7AECFE4B1D2D6D63A313030D4F6
:100EC600AA0035D4AAD6BDB1D2D5D2C1E3CFE4B4F7
:100ED600E6B1D2C1BF3A2D2D2D2D00D6BDB1D2BB64
:100EE600D8CAD5CFE4B4E6B1D2C1BF3A2D2D2D2D47
:100EF6000041C6B1CFE449443A5F5F5F5F5F5F5F21
:100F06005F0042C6B1CFE449443A5F5F5F5F5F5F0F
:100F16005F5F0041C6B1CFE4CAFDC1BF3A2D2D2D9A
:100F26002D2D2D0042C6B1CFE4CAFDC1BF3A2D2DED
:100F36002D2D2D2D00B7CFC6B1CAFDC1BF3A2D2D1F
:100F46002D2D2D2D00B9A9B5E7D7B4CCAC3AB5E710
:100F5600B3D8B9A9B5E700B9A9B5E7D7B4CCAC3AC7
:100F6600CAD0B5E7B9A9B5E700C9E8B1B8B2E9D1C1
:100F7600AF2DBDBBD2D7CAFDBEDDB2E9D1AF00BD34
:100F8600BBD2D7C0E0D0CD3AB7A2CADBBDBBD2D761
:100F960000BDBBD2D7CAB1BCE43A202D2D2D2D2FD2
:100FA6002D2D2F2D2D2C2D2D3A2D2D3A2D2D00B3F7
:100FB600B5C6B1C0E0D0CD3ABCC6B4CEC6B100B35A
:100FC600B5C6B1C0E0D0CD3AB6A8C6DAC6B100B350
:100FD600B5C6B1C0E0D0CD3AC7AEB0FCC6B100B31D
:100FE600B5C6B1C0E0D0CD3AB5A5B3CCC6B100B355
:100FF600B5C6B1BCDBB8F13A202D2D00B3B5C6B1EC
:10100600CAFDC1BF3A202D2D00D6A7B8B6B7BDCAB6
:10101600BD3AD3B2B1D200D6A7B8B6B7BDCABD3AAB
:10102600D6BDB1D200D6A7B8B6B7BDCABD3ABBECDD
:10103600BACF00D6A7B8B6B7BDCABD3AB4A2D6B520
:10104600BFA800CDB6C8EB31D4AAD3B2B1D2CAFD7F
:10105600C1BF3A2D2D00CDB6C8EB35BDC7D3B2B151
:10106600D2CAFDC1BF3A2D2D00CDB6C8EBD6BDB153
:10107600D2BDF0B6EE3A2D2D2D00D0E8D5D2C1E383
:10108600B5C4BDF0B6EE3A2D2D00CAB5BCCAB7A29E
:10109600CADBCAFDC1BF3A2D2D2D2D00CAB5BCCA6B
:1010A600D5D2C1E3BDF0B6EE3A2D2D00CAB5BCCA05
:1010B600D3B2B1D2D5D2C1E3CAFDC1BF3A2D2D00FC
:1010C600CAB5BCCAD6BDB1D2D5D2C1E3CAFDC1BF6D
:1010D6003A2D2D00B4A2D6B5BFA8D3E0B6EE28C7E8
:1010E600B0293A2D2D2D2D2D2D2D2D2D2D00B4A2CF
:1010F600D6B5BFA8D3E0B6EE28BAF3293A2D2D2DE2
:101106002D2D2D2D2D2D2D00C9E8B1B8B2E9D1AF69
:101116002DB3E4D6B5BDBBD2D700BDBBD2D7C0E098
:10112600D0CD3AB3E4D6B5BDBBD2D700C6B1BFA8C1
:1011360049443A205F5F5F5F5F5F5F5F5F5F00B359
:10114600E4D6B5C7B0D3E0B6EE3A2D2D2D2D2D2D14
:1011560020D4AA00B3E4D6B5BDF0B6EE3A2D2D2DB7
:101166002D2D2D20D4AA00B3E4D6B5BAF3D3E0B61C
:10117600EE3A2D2D2D2D2D2D20D4AA00CDB6C8EB5F
:10118600BDF0B6EED7DCBCC63A202D2D2D2D2D2D6B
:1011960020B7D600C9E8B1B8B2E9D1AF2DC4A3BF14
:1011A600E9D0C5CFA200D3B2B1D2C4A3BFE900D65D
:1011B600BDB1D2C4A3BFE900D6BDB1D2D5D2C1E379
:1011C600C4A3BFE900B7A2CADBC4A3BFE900B6C186
:1011D600D0B4C6F700B4F2D3A1BBFAD7B4CCAC00F6
:1011E600D4CBD3AAD7B4CCACCFD4CABEC6F700559D
:1011F6005053C4A3BFE900C9E8B1B8B2E9D1AF2DD5
:10120600D3B2B1D2C4A3BFE900CDA8D0C5B6CBBF77
:10121600DABAC53A5F00C8EDBCFEB0E6B1BEBAC5E3
:101226003A5F5F5F5F5F5F5F5F00C4A3BFE9D7B4EC
:10123600CCACC2EB3A5F5F5F5F0031D4AAD1ADBBE5
:10124600B7D5D2C1E3C6F7D7B4CCAC3AD5FDB3A374
:101256000031D4AAD1ADBBB7D5D2C1E3C6F7D7B456
:10126600CCAC3AC2FA0031D4AAD1ADBBB7D5D2C103
:10127600E3C6F7D7B4CCAC3ABDABBFD50031D4AAE0
:10128600D1ADBBB7D5D2C1E3C6F7D7B4CCAC3ABF64
:10129600D50031D4AAD1ADBBB7D5D2C1E3C6F7D7F5
:1012A600B4CCAC3ACEB4B0B2D7B000B2B9B1D2C7B2
:1012B600AECFE431D7B4CCAC3AD5FDB3A300B2B9C6
:1012C600B1D2C7AECFE431D7B4CCAC3ABDABBFD503
:1012D60000B2B9B1D2C7AECFE431D7B4CCAC3ABFC5
:1012E600D500B2B9B1D2C7AECFE431D7B4CCAC3A9F
:1012F600CEB4B0B2D7B000B2B9B1D2C7AECFE43235
:10130600D7B4CCAC3AD5FDB3A300B2B9B1D2C7AE0F
:10131600CFE432D7B4CCAC3ABDABBFD500B2B9B18D
:10132600D2C7AECFE432D7B4CCAC3ABFD500B2B94F
:10133600B1D2C7AECFE432D7B4CCAC3ACEB4B0B2A9
:10134600D7B00031D4AAD1ADBBB7D5D2C1E3C6F769
:10135600CAFDC1BF3A5F5F5F5F5F5F00B2B9B1D2DE
:10136600C7AECFE431CAFDC1BF3A5F5F5F5F5F5F63
:1013760000B2B9B1D2C7AECFE432CAFDC1BF3A5F3F
:101386005F5F5F5F5F0031D4AAD1ADBBB7D5D2C175
:10139600E3C6F749443A5F5F5F5F5F5F5F5F00C91F
:1013A600E8B1B8B2E9D1AF2DD6BDB1D2C4A3BFE979
:1013B60000CAB6B1F0C6F7B0E6B1BEBAC53A5F2EFE
:1013C6005F5F00D6BDB1D2C4A3BFE949443A5F5FAF
:1013D6005F5F5F5F5F5F00D6BDB1D2BBD8CAD5CFB6
:1013E600E43AC2FA00D6BDB1D2BBD8CAD5CFE43AE8
:1013F600D5FDB3A300D6BDB1D2BBD8CAD5CFE43A8A
:10140600BDABC2FA00D6BDB1D2BBD8CAD5CFE43A7D
:10141600B1BBC8A1B3F600D6BDB1D2C4A3BFE9CD56
:10142600A8D0C5B9CAD5CF00C9E8B1B8B2E9D1AF1D
:101436002DD6BDB1D2D5D2C1E3C4A3BFE900B0E673
:10144600B1BEBAC53A5F5F5F5F5F5F5F0031BAC525
:10145600D6BDB1D2D5D2C1E3CFE4D7B4CCAC3ABF76
:10146600D50031BAC5D6BDB1D2D5D2C1E3CFE4D706
:10147600B4CCAC3ABDABBFD50031BAC5D6BDB1D23E
:10148600D5D2C1E3CFE4D7B4CCAC3AC2FA0031BA74
:10149600C5D6BDB1D2D5D2C1E3CFE4C0E0D0CD49E7
:1014A600443A5F5F0031BAC5D6BDB1D2D5D2C1E3E9
:1014B600CFE4C2DFBCAD49443A5F5F5F5F5F5F5F09
:1014C6005F5F5F0031BAC5D6BDB1D2D5D2C1E3CF19
:1014D600E4B1D2D6D63A31D4AA0031BAC5D6BDB116
:1014E600D2D5D2C1E3CFE4B1D2D6D63A32D4AA000D
:1014F60031BAC5D6BDB1D2D5D2C1E3CFE4B1D2D6C9
:10150600D63A35D4AA0031BAC5D6BDB1D2D5D2C1E4
:10151600E3CFE4B1D2D6D63A3130D4AA0031BAC537
:10152600D6BDB1D2D5D2C1E3CFE4B1D2D6D63A3206
:1015360030D4AA0031BAC5D6BDB1D2D5D2C1E3CF17
:10154600E4B1D2D6D63A3530D4AA0031BAC5D6BD22
:10155600B1D2D5D2C1E3CFE4B1D2D6D63A3130300A
:10156600D4AA0031BAC5D6BDB1D2D5D2C1E3CFE433
:10157600B4E6B1D2CAFDC1BF3A5F5F5F5F00D6BDB8
:10158600B1D2D5D2C1E3B7CFB1D2CFE4D7B4CCACC8
:101596003AD5FDB3A300D6BDB1D2D5D2C1E3B7CFFC
:1015A600B1D2CFE4D7B4CCAC3ABDABC2FA00D6BD0B
:1015B600B1D2D5D2C1E3B7CFB1D2CFE4D7B4CCAC98
:1015C6003AC2FA00D6BDB1D2D5D2C1E3B7CFB1D2B5
:1015D600CFE4B4E6B1D2CAFDC1BF3A5F5F5F5F0038
:1015E600D6BDB1D2D5D2C1E3C4A3BFE9CDA8D0C57B
:1015F600B9CAD5CF00C9E8B1B8B2E9D1AF2DB7A203
:10160600CADBC4A3BFE90041C6B1CFE4B3B5C6B1D6
:10161600CAFDC1BF3A2D2D2D2D0041C6B1CFE4B66E
:10162600A5B8C73AB9D8B1D50041C6B1CFE4B6A579
:10163600B8C73AB4F2BFAA0041C6B1CFE4C8DDC10B
:10164600BF3AD5FDB3A30041C6B1CFE4C8DDC1BFE3
:101656003ABDABBFD50041C6B1CFE4C8DDC1BF3A84
:10166600BFD50042C6B1CFE4B3B5C6B1CAFDC1BF4E
:101676003A2D2D2D2D0042C6B1CFE4B6A5B8C73AF6
:10168600B9D8B1D50042C6B1CFE4B6A5B8C73AB409
:10169600F2BFAA0042C6B1CFE4C8DDC1BF3AD5FD4C
:1016A600B3A30042C6B1CFE4C8DDC1BF3ABDABBFEC
:1016B600D50042C6B1CFE4C8DDC1BF3ABFD500B739
:1016C600CFC6B1CFE4B3B5C6B1CAFDC1BF3A2D2D61
:1016D6002D2D00B7CFC6B1CFE4B6A5B8C73AB9D855
:1016E600B1D500B7CFC6B1CFE4B6A5B8C73AB4F204
:1016F600BFAA00B7CFC6B1CFE4C8DDC1BF3AD5FD9A
:10170600B3A300B7CFC6B1CFE4C8DDC1BF3ABDAB06
:10171600C2FA00B7CFC6B1CFE4C8DDC1BF3AC2FA3C
:1017260000C9E8B1B8B2E9D1AF2DB6C1D0B4C6F799
:1017360000CDA8D0C5B6CBBFDABAC53A2D00B6C122
:10174600D0B4C6F749443A5F5F5F5F5F5F5F5F0093
:10175600C8EDBCFEB0E6B1BEBAC53A5F5F5F5F5F7B
:101766005F5F5F5F5F0053414D20B2E5B2DB312022
:1017760049443A5F5F5F5F5F5F5F5F5F5F5F5F0028
:10178600BFA8C0E0D0CD3A4D54525F5053414D00F2
:10179600BFA8C0E0D0CD3A4D54525F4953414D00E9
:1017A600BFA8C0E0D0CD3A4F43545F5053414D00DF
:1017B600BFA8C0E0D0CD3A4F43545F4953414D00D6
:1017C600BFA8C0E0D0CDB4EDCEF300CEB4B2E5C82C
:1017D600EB53414DBFA80053414D20B2E5B2DB3279
:1017E6002049443A5F5F5F5F5F5F5F5F5F5F5F5F98
:1017F6000053414D20B2E5B2DB332049443A5F5FE6
:101806005F5F5F5F5F5F5F5F5F5F0053414D20B269
:10181600E5B2DB342049443A5F5F5F5F5F5F5F5F3D
:101826005F5F5F5F00C9E8B1B8B2E9D1AF2DC6B15D
:10183600BEDDB4F2D3A1BBFA00CDA8D0C5B6CBBFEE
:10184600DABAC53A5F5F00B4F2D3A1BBFA3AC8B1BF
:10185600D6BD00B4F2D3A1BBFA3ABFA8D6BD00B438
:10186600F2D3A1BBFA3AB9CAD5CF00B4F2D3A1BB21
:10187600FA3AD5FDB3A300B4F2D3A1BBFAB9CAD5DF
:10188600CF00C9E8B1B8B2E9D1AF2DD4CBD3AAD72E
:10189600B4CCACCFD4CABEC4A3BFE900CFD4CABEB1
:1018A600C6F73AD5FDB3A300CFD4CABEC6F73AB938
:1018B600CAD5CF00D4CBD3AAD7B4CCACCFD4CABE6A
:1018C600C6F7B9CAD5CF00C9E8B1B8B2E9D1AF2DCC
:1018D600555053C4A3BFE900C9E8B1B8B9A9B5E7E3
:1018E600D7B4CCAC3ACAD0B5E7B9A9B5E700C9E8D0
:1018F600B1B8B9A9B5E7D7B4CCAC3AB5E7B3D8B95E
:10190600A9B5E700555053B9CAD5CF00C6B1BEDD5B
:10191600B4F2D3A1BBFA00492F4FB2E2CAD400CE2B
:10192600ACD0DEB2E2CAD42DD6BDB1D2C4A3BFE9D3
:1019360000BDD3CAD5D6BDB1D2B2E2CAD400B2BBBD
:10194600BDD3CAD5D6BDB1D2B2E2CAD400D4DDB4B5
:10195600E6B7B5BBB9B2E2CAD400D4DDB4E6CAD59F
:10196600BDF8C7AECFE4B2E2CAD400D6BDB1D2C488
:10197600A3BFE9B8B4CEBB00CEACD0DEB2E2CAD4C7
:101986002DBDD3CAD5D6BDB1D200CEACD0DEB2E223
:10199600CAD42DB2BBBDD3CAD5D6BDB1D200CEAC4A
:1019A600D0DEB2E2CAD42DD4DDB4E6B7B5BBB900F9
:1019B600CEACD0DEB2E2CAD42DD4DDB4E6CAD5BDF3
:1019C600F8C7AECFE400CEACD0DEB2E2CAD42DD694
:1019D600BDB1D2C4A3BFE9B8B4CEBB00B6CBBFDAA3
:1019E600BAC53A20434F4D205F00CEACD0DEB2E2FE
:1019F600CAD42DD6BDB1D2D5D2C1E3C4A3BFE900A6
:101A0600D6BDB1D2D5D2C1E3CFE4B3F6B3AEB2E21E
:101A1600CAD400D6BDB1D2D5D2C1E3C4A3BFE9B8FA
:101A2600B4CEBB00CEACD0DEB2E2CAD42DD6BDB1A8
:101A3600D2D5D2C1E3CFE4B3F6B3AEB2E2CAD40094
:101A460031BAC5D6BDB1D2D5D2C1E3CFE4B3F6B370
:101A5600AED5C5CAFD3A2D2D00CEACD0DEB2E2CA57
:101A6600D42DD6BDB1D2D5D2C1E3C4A3BFE9B8B493
:101A7600CEBB00CEACD0DEB2E2CAD42DD3B2B1D248
:101A8600C4A3BFE900B4F2BFAACDB6B1D2BFDA0093
:101A9600B9D8B1D5CDB6B1D2BFDA00D4ADB1D2B7CF
:101AA600B5BBB900D3B2B1D2C4A3BFE9B8B4CEBBFB
:101AB60000CEACD0DEB2E2CAD42DCDB6B1D2D0EDD6
:101AC600BFC900CEACD0DEB2E2CAD42DCDB6B1D2FB
:101AD600BDFBD6B900CEACD0DEB2E2CAD42DD4ADB1
:101AE600B1D2B7B5BBB900CEACD0DEB2E2CAD42D06
:101AF600D3B2B1D2C4A3BFE9B8B4CEBB00CEACD08A
:101B0600DEB2E2CAD42DB7A2CADBC4A3BFE900C7BE
:101B1600E5C0EDCDA8B5C00041C6B1CFE4B7A2C6B9
:101B2600B1D6C1B7CFC6B1CFE40042C6B1CFE4B794
:101B3600A2C6B1D6C1B7CFC6B1CFE400B7A2CADB41
:101B4600C4A3BFE9B8B4CEBB00CEACD0DEB2E2CA05
:101B5600D42DC7E5C0EDCDA8B5C000C3FCC1EEB716
:101B6600A2CBCDB3C9B9A62100CEACD0DEB2E2CAB3
:101B7600D42D41C6B1CFE4B7A2C6B1D6C1B7CFC640
:101B8600B1CFE40041C6B1CFE4BFD500B7CFC6B1EF
:101B9600CFE4C2FA00C3FCC1EEB7A2CBCDCAA7B050
:101BA600DC00CEACD0DEB2E2CAD42D42C6B1CFE460
:101BB600B7A2C6B1D6C1B7CFC6B1CFE40042C6B14F
:101BC600CFE4BFD500CEACD0DEB2E2CAD42DB7A2E8
:101BD600CADBC4A3BFE9B8B4CEBB00CEACD0DEB27C
:101BE600E2CAD42DB6C1D0B4C6F700B6C1C8A1C4E6
:101BF600A3BFE9D7B4CCAC00B6C1D0B4C6F7B8B46D
:101C0600CEBB00CEACD0DEB2E2CAD42DB6C1C8A1DE
:101C1600C4A3BFE9D7B4CCAC00C4A3BFE9D7B4CC46
:101C2600AC3A5F5F5F5F00CEACD0DEB2E2CAD42DC5
:101C3600B6C1D0B4C6F7B8B4CEBB00B8B4CEBBB349
:101C4600C9B9A62100B8B4CEBBCAA7B0DC2100CE64
:101C5600ACD0DEB2E2CAD42DC6B1BEDDB4F2D3A199
:101C6600BBFA00B4F2D3A1BBFAD7B4CCACB2E9D17B
:101C7600AF00B4F2D3A1B2E2CAD4D2B300CEACD094
:101C8600DEB2E2CAD42DB4F2D3A1BBFAD7B4CCAC3F
:101C960000B6CBBFDABAC53A205F5F00B4F2D3A173
:101CA600BBFAB9A4D7F7C1BCBAC300B4F2D3A1BB7F
:101CB600FAD2ECB3A300B4F2D3A1BBFAD6BDD5C514
:101CC600B3E4D7E300B4F2D3A1BBFAC8B1D6BD00E2
:101CD600CEACD0DEB2E2CAD42DB4F2D3A1B2E2CAFF
:101CE600D4D2B300B2D9D7F7B3C9B9A600CEACD017
:101CF600DEB2E2CAD42D492F4FB2E2CAD400B6CC26
:101D0600CAB1B5E3C1C1B3F6C6B1BFDAB5C600B64E
:101D1600CCCAB1B1A8BEAFC6F7B1A8BEAF00B4A2D7
:101D2600D6B5BFA8D7F953687574746572B2E2CA9E
:101D3600D400B5AFBFA800C9C1CBB8B5E3C1C1B91E
:101D4600A4D7F7D6B8CABEB5C600B9D8B1D5B9A416
:101D5600D7F7D6B8CABEB5C600CDB6B1D2BFDAB2CD
:101D6600E2CAD400BCECB2E2494FCAE4C8EBD0C523
:101D7600BAC500CEACD0DEB2E2CAD42D544955C4A1
:101D8600A3BFE9B8B4CEBB00CEACD0DEB2E2CAD4B3
:101D96002DB6CCCAB1B5E3C1C1B3F6C6B1BFDAB58B
:101DA600C600CEACD0DEB2E2CAD42DB6CCCAB1B132
:101DB600A8BEAFC6F7B1A8BEAF00CEACD0DEB2E2C9
:101DC600CAD42D2DB4A2D6B5BFA8D7F95368757459
:101DD600746572B2E2CAD400CEACD0DEB2E2CAD426
:101DE6002D2DB5AFBFA800CEACD0DEB2E2CAD42D41
:101DF6002DC9C1CBB8B5E3C1C1B9A4D7F7D6B8CA06
:101E0600BEB5C600CEACD0DEB2E2CAD42DB9D8B1CA
:101E1600D5B9A4D7F7D6B8CABEB5C600CEACD0DE03
:101E2600B2E2CAD42DCDB6B1D2BFDAB2E2CAD4007C
:101E3600CEACD0DEB2E2CAD42D2D494FCAE4C8EBEF
:101E4600D0C5BAC500494FB0E5D2ECB3A300CEACBD
:101E5600D0DEB2E2CAD42D494FCAE4C8EBD0C5BA27
:101E6600C500D6F7CEACD0DEC3C5B9D8B1D500D63D
:101E7600F7CEACD0DEC3C5B4F2BFAA00D3B2B1D29E
:101E8600BBD8CAD5C7AECFE4B7ADB0E5B4F2BFAAEA
:101E960000D3B2B1D2BBD8CAD5C7AECFE4B7ADB0C6
:101EA600E5B9D8B1D500D3B2B1D2BBD8CAD5C7AE81
:101EB600CFE4B5BDCEBB00D3B2B1D2BBD8CAD5C76D
:101EC600AECFE4CEB4B5BDCEBB00B7A2CADBC4A3C9
:101ED600BFE9B5BDCEBB00B7A2CADBC4A3BFE9CE7E
:101EE600B4B5BDCEBB00D6BDB1D2D5D2C1E3C4A375
:101EF600BFE9B5BDCEBB00D6BDB1D2D5D2C1E3C414
:101F0600A3BFE9CEB4B5BDCEBB00D6BDB1D2C4A386
:101F1600BFE9B5BDCEBB00D6BDB1D2C4A3BFE9CE25
:101F2600B4B5BDCEBB00D3B2B1D2C4A3BFE9B5BD73
:101F3600CEBB00D3B2B1D2C4A3BFE9CEB4B5BDCE39
:101F4600BB00CEDEB3CBBFCDBDD3BDFC00D3D0B37B
:101F5600CBBFCDBDD3BDFC00C7B0CEACD0DEC3C5B4
:101F6600B9D8B1D500C7B0CEACD0DEC3C5B4F2BFC8
:101F7600AA00535654BFA8B5BDCEBB00535654BF96
:101F8600A8CEB4B5BDCEBB00CEACD0DEB2E2CAD4CC
:101F96002DD4CBD3AAD7B4CCACCFD4CABEC6F70007
:101FA600C7EBD1A1D4F1D6B8B6A8B5C4CFD4CABEB2
:101FB600D0C5CFA23A2D2D00CAB1BCE4C9E8D6C31C
:101FC60000B1BEBBFAC9E8D6C300C9E8B1B8C9E8D2
:101FD600D6C32DCAB1BCE4C9E8D6C300CAB1BCE4B5
:101FE600C9E8D6C33A00C4EA2FD4C22FC8D53A2DC1
:101FF6002D2D2D2F2D2D2F2D2D00CAB12FB7D62FDC
:10200600C3EB3A2D2D2F2D2D2F2D2D00C9E8B1B85C
:10201600C9E8D6C32DB1BEBBFAC9E8D6C300C9E824
:10202600B1B849443A2D2D2D00B3B5D5BE49443A31
:102036002D2D2D2D00CFB5CDB3D6D8C6F400B9D8E9
:10204600BBFA00CDCBB3F6D3A6D3C300CFB5CDB381
:10205600B9D8B1D52DCFB5CDB3D6D8C6F400B7A271
:10206600CBCDB3C9B9A600CFB5CDB3B9D8B1D52DAF
:10207600B9D8BBFA00CFB5CDB3B9D8B1D52DCDCB34
:10208600B3F6D3A6D3C300B6C1D0B4C6F7B3CCD08B
:10209600F2CFC2D4D800D4CBD3AAD7B4CCACCFD449
:1020A600CABEC6F7C8EDBCFECFC2D4D800CEACD0EF
:1020B600DEC3E6B0E5C8EDBCFECFC2D4D800C4A3EB
:1020C600BFE9C8EDBCFECFC2D4D82DD3B2B1D2C4BD
:1020D600A3BFE900C4A3BFE9C8EDBCFECFC2D4D8F4
:1020E6002DB6C1D0B4C6F7B3CCD0F2CFC2D4D80087
:1020F600C4A3BFE9C8EDBCFECFC2D4D82DD4CBD380
:10210600AAD7B4CCACCFD4CABEC6F7CFD4CABEC445
:10211600DAC8DD00C4A3BFE9C8EDBCFECFC2D4D87F
:102126002DD4CBD3AAD7B4CCACCFD4CABEC6F7C8AD
:10213600CECEF1C1D0B1ED00C4A3BFE9C8EDBCFE5F
:10214600CFC2D4D82DCEACD0DEC3E6B0E500CAFDF2
:10215600BEDDB1B8B7DD00CAFDBEDDBBD6B8B40082
:10216600CAFDBEDDB5BCC8EB00CAFDBEDDB5BCB35D
:10217600F600CAFDBEDDCEACBBA42DCAFDBEDDB1E8
:10218600B8B7DD00CAFDBEDDCEACBBA42DCAFDBE10
:10219600DDBBD6B8B400CAFDBEDDCEACBBA42DCA2D
:1021A600FDBEDDB5BCC8EB00CAFDBEDDCEACBBA432
:1021B6002DCAFDBEDDB5BCB3F600C7EBCAE4C8EB5D
:1021C600C4FAD2AAB5BCB3F6BCC7C2BCB5C4C8D59E
:1021D600C6DA3A002D2D2D2DC4EA2D2DD4C22D2D73
:1021E600C8D500D4CBD3AAB7FECEF12DB8FCBBBB65
:1021F600C6B1CFE42DD7B0D4D841C6B1CFE400D014
:10220600C2C6B1CFE449443A5F5F5F5F5F5F5F5F1D
:1022160000C7EBCAE4C8EBD5FDC8B7B5C4C6B1CA9A
:10222600FD21C6B1CFE400CEAABFD5CAB1B2B9303E
:102236002E00D4CBD3AAB7FECEF12DB8FCBBBBC6BD
:10224600B1CFE42DD7B0D4D842C6B1CFE400D4CBB9
:10225600D3AAB7FECEF12DB2B9B3E4D3B2B1D22D23
:10226600B2B9B1D2C7AECFE431B2B9B1D2CAFD006C
:10227600CAE4C8EBD6B5B3ACB9FDB2B9B1D2D7EEA4
:10228600B4F3D6B52100D3A6B2B9B1D2D6C1B2B98C
:10229600B1D2C7AECFE4322100B6C1C8A1C7AECF16
:1022A600E44944B4EDCEF32100B2B9B1D2B4A6C02C
:1022B600EDB4EDCEF32100D4CBD3AAB7FECEF12DEB
:1022C600B2B9B3E4D3B2B1D22DB2B9B1D2C7AECF9F
:1022D600E432B2B9B1D2CAFD00D3A6B2B9B1D2D6F0
:1022E600C1B2B9B1D2C7AECFE4312100D4CBD3AAA3
:1022F600B7FECEF12DB2B9B3E4D6BDB1D22D31BA07
:10230600C5D6BDB1D2D5D2C1E3CFE4B2B9B1D20000
:10231600B2B9B1D2B3C9B9A62100B2B9B1D2CAA76E
:10232600B0DC2100CAE4C8EBB4EDCEF3A3ACC7EB36
:10233600D6D8D0C2CAE4C8EB2100CEACD0DEB2E219
:10234600CAD42DD6BDB1D2D5D2C1E30031BAC5D5D6
:10235600D2C1E3CFE4CAE4C8EBD6B5B3ACB9FDD776
:10236600EEB4F3D6B52100CAE4C8EBD3D0CEF32C35
:10237600C7EBD6D8D0C2CAE4C8EB2100CDA8D1B6E7
:10238600CAA7B0DC2CC7EBD6D8D0C2CAE4C8EB21AA
:102396000020CAFDBEDDB9DCC0ED2DCAFDBEDDB52F
:1023A600BCB3F62000C4FACAE4C8EBD6B5B4EDCE89
:1023B600F32CC7EBD5FDC8B7CAE4C8EB21003C2017
:1023C600B0EFD6FA203E0046313AB0EFD6FABCFC62
:1023D6003B0046323AB2E9D1AFCEACD0DEC3E6B06E
:1023E600E5B0E6B1BEBAC53B0046333AC7A9CDCB88
:1023F600BCFC3B0046343AB8B4CEBBBCFC3B004602
:10240600353ACDCBB8F13B0046363AC7E5BFD53BAA
:102416000046373AD6F7B2CBB5A53B0046383ACA9E
:10242600D7D2B33B0046393AC4A9D2B33B00BBD896
:10243600CDCBBCFC3AB7B5BBD8C9CFBCB6B2CBB5D1
:10244600A53B00BCFDCDB7BCFC3AC3BFD2BBC6C1E1
:10245600B5C4C3BFD2BBD0D0B5C4D1A1D4F1BCFCE6
:102466003B004E554DBCFC3ACAFDD7D6D3EBBCFD5E
:10247600CDB7C7D0BBBBBCFC3B003C204D5450B9CC
:10248600CCBCFEB0E6B1BEB2E9D1AF203E00545698
:102496004DCEACD0DEC3E6B0E5B9CCBCFEB0E6B1FD
:1024A600BEBAC53A56302E392E3800D6D0B9FAC83B
:1024B600FDD0C75344530053414D53554E47205307
:1024C6004453204348494E4100D4B1B9A4BFA8BAE9
:1024D600C53A31323334353600C3DCC2EB3A2D2DE2
:1024E6002D2D2D2D0000000000040C1C3C7C3C1CF6
:1024F6000C040000000000081C3E7FFF000000FFE7
:102506007F3E1C08000000000010189C1E1F1E9C29
:102516001810000000FFFFFFFF0101010203040580
:10252600060708010203040506070801020304055D
:102536000601010203040101010101020304050170
:102546000101020101FFFF01FF0101020102030176
:102556000203010203040506070801020304050637
:102566000708010203040501020101010203040137
:102576000203040102010201020304050607080919
:10258600010102FF0101010101020301020304012D
:05259600020304FF0137
:10C3660020004CC200E4900B1EF0FF12C16812C6FA
:10C37600D67FF47E0112C64912C6D67BFF7A0079B3
:10C386005612C788900040EFF0900B1EE0FF900019
:10C396003D74FFF0A37400F0A37456F0E4FBFD12A5
:10C3A600C4557BFF7A00795E7D297FF312C7C522CB
:10AAA00030000302AB33D200E4900B1EF0FF12C162
:10AAB000687E017F047DFF7B017A07790012607B4D
:10AAC0007BFF7A2479B17D297F3212C7C57BFF7A5B
:10AAD0000079727D0A7F5C12C7C512C6D67FF47EEC
:10AAE0000112C64912C6D67BFF7A007984E4900031
:10AAF00024F07D2C7FF512C7ED7BFF7A007994E47A
:10AB0000900028F07D2C7FF612C7FCE4900700F03F
:10AB1000A3F090070204F0A3F090071174F0F0A3E3
:10AB20007404F0E4A3F0900712E0FF126B2BE4FF33
:04AB300012686E2217
:10978D00780D7C007D017BFF7A25791B7E007F069D
:10979D00125D3C300003029847D200E4900B1EF09E
:1097AD00FF12C1687E017F047DFF7B017A0779007E
:1097BD0012607B7BFF7A2479B17D297F3212C7C578
:1097CD007BFF7A0079727D0A7F5C12C7C512C6D6FF
:1097DD007FF47E0112C64912C6D6E4900700F0A3AD
:1097ED00F090070204F0A3F090071174F0F0A37449
:1097FD0004F0E4A3F0900712E0FF126B2BE4FF12CC
:10980D00686E7BFF7A0079A0E4900028F07D2C7FB4
:10981D00F512C7FC7BFF7A0079949000287406F04E
:10982D007D2C7FF612C7FC78047C077D017B017AC5
:0A983D0000790D7E007F06125D3CED
:0198470022FE
:10577D00780F7C007D017BFF7A2579217E007F08E3
:10578D00125D3CE4900017F090001A04F0A3740031
:10579D00F0A3740FF0E4FF74202FF582E4340BF5C1
:1057AD0083E0D3941050050FEFB410EB900017EF7A
:1057BD00F0C3940740030259369000277401F0A3FB
:1057CD00128E47E4900018F0A3F0900018E0FFC38C
:1057DD009406502774202FF582E4340BF583E0FFF7
:1057ED00900019E0FE04F074042EF582E43407F500
:1057FD0083EFF0900018E004F080CF900B1EE0FFD7
:10580D007E007C017D04125DA1740F2FF974083E9A
:10581D00A801FC7D017B017A0779007E017F0412CE
:10582D005D3C7BFF7A0079B07D307FF012C7C5E417
:10583D00900019F0900019E0FF2404F582E434077C
:10584D00F583E0C394644003025C69EF9405400363
:10585D00025C69900019E0FF2404F582E43407F539
:10586D0083E0900018F0E014B40800400302591DC5
:10587D0090588B75F003A4C58325F0C5837302582A
:10588D00A30258AF0258BE0258CD0258DC0258EBA5
:10589D000258FA025909EF24F1FF7BFF7A0079BB18
:1058AD008067900019E024F1FF7BFF7A0079C480B6
:1058BD0058900019E024F1FF7BFF7A0079CD8049E3
:1058CD00900019E024F1FF7BFF7A0079D6803A90A1
:1058DD000019E024F1FF7BFF7A0079DF802B900027
:1058ED0019E024F1FF7BFF7A0079E8801C90001904
:1058FD00E024F1FF7BFF7A0079F1800D900019E033
:10590D0024F1FF7BFF7A0079FE7D2C12C7C5801034
:10591D00900019E02404F582E43407F58374FFF058
:10592D00900019E004F00258419000277402F0A392
:10593D0014128E47E4900018F0A3F0900018E0FFC9
:10594D00C39406502C74202FF582E4340BF583E0BC
:10595D00FFC394645013900019E0FE04F074042EFC
:10596D00F582E43407F583EFF0900018E004F08041
:10597D00CA900B1EE0FF7E007C017D04125DA174B8
:10598D000F2FF974083EA801FC7D017B017A077980
:10599D00007E017F04125D3C7BFF7A0079B07D3083
:1059AD007FF012C7C5E4900019F0900019E0FF24B4
:1059BD0004F582E43407F583E0C394644003025A8E
:1059CD00ACEF94054003025AAC900019E0FF24049B
:1059DD00F582E43407F583E0900018F0E014B40884
:1059ED00004003025A93905A0175F003A4C5832514
:1059FD00F0C58373025A19025A25025A34025A43CA
:105A0D00025A52025A61025A70025A7FEF24F1FF74
:105A1D007BFF7A0079BB8067900019E024F1FF7B52
:105A2D00FF7A0079C48058900019E024F1FF7BFFC4
:105A3D007A0079CD8049900019E024F1FF7BFF7A3F
:105A4D000079D6803A900019E024F1FF7BFF7A00AF
:105A5D0079DF802B900019E024F1FF7BFF7A00792C
:105A6D00E8801C900019E024F1FF7BFF7A0079F1AA
:105A7D00800D900019E024F1FF7BFF7A0079FE7D07
:105A8D002C12C7C58010900019E02404F582E4346F
:105A9D0007F58374FFF0900019E004F00259B790F8
:105AAD000B26E0C394644003025C699000277402E6
:105ABD00F0A3F090001AE0FBA3E0FAA3E02406F9AE
:105ACD00E43AFA900029EBF0A3EAF0A3E9F0900094
:105ADD0017E024FA90002CF0A374F1F0A37403F0F6
:105AED00A374FFF07B017A007D017F01128E74900B
:105AFD0000187406F0E4A3F0900018E0FFC39408BA
:105B0D00502C74202FF582E4340BF583E0FFC39401
:105B1D00645013900019E0FE04F074042EF582E435
:105B2D003407F583EFF0900018E004F080CA900B75
:105B3D001EE0FF7E007C017D04125DA1740F2FF924
:105B4D0074083EA801FC7D017B017A0779007E0176
:105B5D007F04125D3C7BFF7A0079B07D307FF012BF
:105B6D00C7C5E4900019F0900019E0FF2404F582F8
:105B7D00E43407F583E0C394644003025C69EF9459
:105B8D00054003025C69900019E0FF2404F582E4EE
:105B9D003407F583E0900018F0E014B408004003DA
:105BAD00025C50905BBE75F003A4C58325F0C583E0
:105BBD0073025BD6025BE2025BF1025C00025C0FDA
:105BCD00025C1E025C2D025C3CEF24F1FF7BFF7A30
:105BDD000079BB8067900019E024F1FF7BFF7A000C
:105BED0079C48058900019E024F1FF7BFF7A007989
:105BFD00CD8049900019E024F1FF7BFF7A0079D622
:105C0D00803A900019E024F1FF7BFF7A0079DF8064
:105C1D002B900019E024F1FF7BFF7A0079E8801CBE
:105C2D00900019E024F1FF7BFF7A0079F1800D904F
:105C3D000019E024F1FF7BFF7A0079FE7D2C12C75D
:105C4D00C58010900019E02404F582E43407F58333
:0F5C5D0074FFF0900019E004F0025B7402904AAB
:108A1600780D7C007D017BFF7A2579297E007F0811
:108A2600125D3C9000157401F0A37400F0A3740D60
:108A3600F09000277402F0A314F0900015E0F9A35B
:108A4600E0FAA3E0900029C9F0A3EAF0A3E9F0A3B5
:108A56007406F0A374F1F0A37403F0A374FFF07B23
:108A660015128E6F7BFF7A0079BB7D307FF012C7BF
:108A7600C57BFF7A0179077D2C7FF112C7C57BFF85
:108A86007A0179107D2C7FF212C7C57BFF7A0179B6
:108A96001D7D2C7FF312C7C57BFF7A0179267D2CBD
:108AA6007FF412C7C57BFF7A01792F7D2C7FF512E3
:108AB600C7C57BFF7A01793C7D2C7FF612C7C5902E
:108AC60000277402F0A3F0900015E0FBA3E0FAA3E0
:108AD600E02406F9E43AFA900029EBF0A3EAF0A3C1
:108AE600E9F0A37402F0A374F1F0A37403F0A37485
:108AF600FFF07B157A007D017F01128E747BFF7A71
:108B06000079BB7D307FF012C7C57BFF7A017941C2
:108B16007D2C7FF112C7C57BFF7A01794E7D2C7FB4
:078B2600F212C7C502904ADC
:10984800780D7C007D017BFF7A2579317E007F06CB
:10985800125D3C9000137401F0A37400F0A3740D22
:10986800F09000277401F0A3F0900013E0F9A3E052
:10987800FAA3E0900029C9F0A3EAF0A3E9F0A374E1
:1098880006F0A374F1F0A37403F0A374FFF07BA5B2
:109898007A01E4FDFF128E747BFF7A01795B7D30DB
:1098A8007FF012C7C57BFF7A01796D7D2C7FF1129D
:1098B800C7C57BFF7A0179777D2C7FF212C7C57BFC
:1098C800FF7A0179817D2C7FF312C7C57BFF7A016E
:1098D800798B7D2C7FF412C7C57BFF7A0179957D42
:1098E8002C7FF512C7C57BFF7A0179A07D2C7FF606
:0698F80012C7C502904AF0
:1092D70090000DEEF0A3EFF04E701390001E04F017
:1092E700A3F0A374F1F0A37405F07BE5802E900042
:1092F7000DE07004A3E0640190001E701004F0A359
:10930700F0A374F1F0A37405F07BE7800F7401F00C
:10931700A3F0A374F1F0A37405F07BE912B76F9083
:10932700000DE07002A3E070087BFF7A0179AB8043
:109337001890000DE07004A3E064017BFF70067ACB
:109347000179BE80047A0179D17D307FF012C7C5DB
:10935700900107E07BFF701C7A0179E590002404F7
:10936700F07D2C7FF112C7ED7BFF7A0179F57D2C1B
:109377007FF280087A0279017D2C7FF112C7C590B0
:109387000B1EE0FF7E007C017D04125DA1740F2F90
:10939700F974083EA801FC7D017B017A0779007EFC
:0993A700017F04125D3C02904AB2
:1091F400781A7C007D017BFF7A2579377E007F0118
:10920400125D3C90001B7401F0A37400F0A3741A67
:10921400F09000277401200D2BF0A3F090001BE0C8
:10922400F9A3E0FAA3E0900029C9F0A3EAF0A3E9C6
:10923400F0A37401F0A374F0F0A37404F0E4A3F0B9
:109244007BE68029F0A3F090001BE0F9A3E0FAA3E9
:10925400E0900029C9F0A3EAF0A3E9F0A37401F0B7
:10926400A374F0F0A37404F0E4A3F07BE87A20FD87
:10927400FF128E747BFF200D137A02790B7D307FF1
:10928400F012C7C57BFF7A02791E80117A02793108
:109294007D307FF012C7C57BFF7A027944E49000E9
:1092A40028F07D2C7FF112C7FC900B1EE0FF7E009E
:1092B4007C017D04125DA1740F2FF974083EA8018E
:1092C400FC7D017B017A0779007E017F04125D3CFD
:0392D40002904ABB
:10B9A30090001E7401F0A3F0A374F1F0A37405F0EA
:10B9B3007BEA12B76F7BFF7A0279577D307FF012F3
:10B9C300C7C5900107E07BFF70127A02796B900084
:10B9D3002404F07D2C7FF112C7ED800B7A027901EC
:10B9E3007D2C7FF112C7C5900B1EE0FF7E007C010A
:10B9F3007D04125DA1740F2FF974083EA801FC7D2C
:10BA0300017B017A0779007E017F04125D3C02907D
:01BA13004AE8
:10A66C00780D7C007D017BFF7A2579387E007F0494
:10A67C00125D3C9000117401F0A37400F0A3740DF2
:10A68C00F09000277401F0A3F0900011E0F9A3E022
:10A69C00FAA3E0900029C9F0A3EAF0A3E9F0A374AF
:10A6AC0004F0A374F1F0A37403F0A374FFF07BA681
:10A6BC007A01E4FDFF128E747BFF7A02797D7D3086
:10A6CC007FF012C7C57BFF7A0279937D2C7FF11244
:10A6DC00C7C57BFF7A0279A17D2C7FF212C7C57B9F
:10A6EC00FF7A0279AF7D2C7FF312C7C57BFF7A020C
:0CA6FC0079BD7D2C7FF412C7C502904A86
:10A2A30090001E7401F0A3F0A374F1F0A37405F001
:10A2B3007BF912B76F7BFF7A0279CB7D307FF01287
:10A2C300C7C5900107E0240F601B146020146025AC
:10A2D30014602A14602F24F6603314703D7BFF7AD8
:10A2E3000279E2802E7BFF7A0279EE80267BFF7A69
:10A2F3000279FA801E7BFF7A03790680167BFF7A48
:10A3030003790E800E7BFF7A03792580067BFF7A23
:10A313000279017D2C7FF112C7C5900B1EE0FF7EF1
:10A32300007C017D04125DA1740F2FF974083EA80F
:10A3330001FC7D017B017A0779007E017F04125DB8
:04A343003C02904AFE
:1099B300781A7C007D017BFF7A25793C7E007F024B
:1099C300125D3C90001C7401F0A37400F0A3741AA0
:1099D300F0900107E0705490002704F0A3F090008A
:1099E3001CE0F9A3E0FAA3E0900029C9F0A3EAF090
:1099F300A3E9F0A37401F0A374F0F0A37404F0E4FA
:109A0300A3F07BFA7A20FDFF128E747BFF7A037931
:109A13003F7D307FF012C7C57BFF7A0379569000F4
:109A2300247401F07D2C7FF112C7ED7BFF7A03795B
:109A330071E4900028F07D307FF212C7FC900B1E7A
:109A4300E0FF7E007C017D04125DA1740F2FF97489
:109A5300083EA801FC7D017B017A0779007E017F26
:049A630004025D3C60
:10A3470090001E7401F0A3F0A374F1F0A37405F05C
:10A357007BFB12B76F7BFF7A0379897D307FF01221
:10A36700C7C5900107E0240F601B14602014602507
:10A3770014602A14602F24F6603314703D7BFF7A33
:10A387000279E2802E7BFF7A0279EE80267BFF7AC4
:10A397000279FA801E7BFF7A03790680167BFF7AA3
:10A3A70003790E800E7BFF7A03792580067BFF7A7F
:10A3B7000279017D2C7FF112C7C5900B1EE0FF7E4D
:10A3C700007C017D04125DA1740F2FF974083EA86B
:10A3D70001FC7D017B017A0779007E017F04125D14
:04A3E7003C02904A5A
:109A6700781A7C007D017BFF7A25793E7E007F0294
:109A7700125D3C90001C7401F0A37400F0A3741AEB
:109A8700F0900107E0705490002704F0A3F09000D5
:109A97001CE0F9A3E0FAA3E0900029C9F0A3EAF0DB
:109AA700A3E9F0A37401F0A374F0F0A37404F0E445
:109AB700A3F07BFC7A20FDFF128E747BFF7A03797B
:109AC700A07D307FF012C7C57BFF7A0379B790007E
:109AD700247401F07D2C7FF112C7ED7BFF7A0379A7
:109AE700D2E4900028F07D307FF212C7FC900B1E65
:109AF700E0FF7E007C017D04125DA1740F2FF974D5
:109B0700083EA801FC7D017B017A0779007E017F71
:049B170004025D3CAB
:10A0AA00780D7C007D017BFF7A2579407E007F0553
:10A0BA00125D3C9000127401F0A37400F0A3740DB9
:10A0CA00F09000277401F0A3F0900012E0F9A3E0E9
:10A0DA00FAA3E0900029C9F0A3EAF0A3E9F0A37477
:10A0EA0005F0A374F1F0A37403F0A374FFF07BA747
:10A0FA007A01E4FDFF128E747BFF7A0379EA7D30E0
:10A10A007FF012C7C57BFF7A0379FC7D2C7FF112A1
:10A11A00C7C57BFF7A0479097D2C7FF212C7C57BFC
:10A12A00FF7A04791C7D2C7FF312C7C57BFF7A0462
:10A13A00792E7D2C7FF412C7C57BFF7A0479407D86
:09A14A002C7FF512C7C502904AF2
:109B1B0090001E7401F0A3F0A374F1F0A37405F090
:109B2B007B0D7A21E4FDFF12B7747BFF7A04794D2C
:109B3B007D307FF012C7C5900107E0240F601E1423
:109B4B00602314602814602D14603214603724F7DE
:109B5B00603B1470457BFF7A0279E280367BFF7A9B
:109B6B00047963802E7BFF7A0279FA80267BFF7A59
:109B7B0004796F801E7BFF7A04797880167BFF7ADD
:109B8B0003790E800E7BFF7A04798180067BFF7A46
:109B9B000279017D2C7FF112C7C5900B1EE0FF7E71
:109BAB00007C017D04125DA1740F2FF974083EA88F
:109BBB0001FC7D017B017A0779007E017F04125D38
:049BCB003C02904A7E
:109BCF0090001E7401F0A3F0A374F1F0A37405F0DC
:109BDF007B0E7A21E4FDFF12B7747BFF7A04799A2A
:109BEF007D307FF012C7C5900107E0240F601E146F
:109BFF00602314602814602D14603214603724F72A
:109C0F00603B1470457BFF7A0279E280367BFF7AE6
:109C1F00047963802E7BFF7A0279FA80267BFF7AA4
:109C2F0004796F801E7BFF7A04797880167BFF7A28
:109C3F0003790E800E7BFF7A04798180067BFF7A91
:109C4F000279017D2C7FF112C7C5900B1EE0FF7EBC
:109C5F00007C017D04125DA1740F2FF974083EA8DA
:109C6F0001FC7D017B017A0779007E017F04125D83
:049C7F003C02904AC9
:109C830090001E7401F0A3F0A374F1F0A37405F027
:109C93007B0F7A21E4FDFF12B7747BFF7A0479B658
:109CA3007D307FF012C7C5900107E0240F601E14BA
:109CB300602314602814602D14603214603724F775
:109CC300603B1470457BFF7A0279E280367BFF7A32
:109CD300047963802E7BFF7A0279FA80267BFF7AF0
:109CE30004796F801E7BFF7A04797880167BFF7A74
:109CF30003790E800E7BFF7A04798180067BFF7ADD
:109D03000279017D2C7FF112C7C5900B1EE0FF7E07
:109D1300007C017D04125DA1740F2FF974083EA825
:109D230001FC7D017B017A0779007E017F04125DCE
:049D33003C02904A14
:109D370090001E7401F0A3F0A374F1F0A37405F072
:109D47007B107A21E4FDFF12B7747BFF7A0479D187
:109D57007D307FF012C7C5900107E0240F601E1405
:109D6700602314602814602D14603214603724F7C0
:109D7700603B1470457BFF7A0279E280367BFF7A7D
:109D8700047963802E7BFF7A0279FA80267BFF7A3B
:109D970004796F801E7BFF7A04797880167BFF7ABF
:109DA70003790E800E7BFF7A04798180067BFF7A28
:109DB7000279017D2C7FF112C7C5900B1EE0FF7E53
:109DC700007C017D04125DA1740F2FF974083EA871
:109DD70001FC7D017B017A0779007E017F04125D1A
:049DE7003C02904A60
:107E5F00900107E06003027F9F90001E7402F0A361
:107E6F0014F0A374F1F0A37405F07B117A21E4FDF3
:107E7F00FF12B7747BFF7A0479EC7D307FF012C765
:107E8F00C57BFF7A0579069000247401F07D2C7F65
:107E9F00F112C7ED7BFF7A0579229000247406F06A
:107EAF007D2C7FF212C7ED7BFF7A05793E9000247F
:107EBF00740BF07D2C7FF312C7ED7BFF7A05795A97
:107ECF009000247410F07D2C7FF412C7ED7BFF7AA5
:107EDF000579769000247415F07D2C7FF512C7ED8F
:107EEF007BFF7A05798E900024741AF07D2C7FF633
:107EFF0012C7ED900B1EE0FF7E007C017D04125D2A
:107F0F00A1740F2FF974083EA801FC7D017B017A43
:107F1F000779007E017F04125D3C90001E7402F011
:107F2F00A3F0A374F1F0A37405F07B117A217D0106
:107F3F007F0112B7747BFF7A0479EC7D307FF012EA
:107F4F00C7C57BFF7A0579A6900024741FF07D2C9E
:107F5F007FF112C7ED7BFF7A0579BE900024742460
:107F6F00F07D2C7FF212C7ED7BFF7A0579D690005A
:107F7F00247429F07D2C7FF312C7ED7BFF7A0579EE
:107F8F00E89000247431F07D2C7FF412C7ED8054FB
:107F9F0090001E7401F0A3F0A374F1F0A37405F028
:107FAF007B117A21E4FDFF12B7747BFF7A0479EC21
:107FBF007D307FF012C7C5900107E0240E601024BA
:107FCF00F36014240E701D7BFF7A0579FD800E7B04
:107FDF00FF7A06790980067BFF7A0679197D2C7F57
:087FEF00F112C7C51290232214
:109DEB00780D7C007D017BFF7A2579457E007F0213
:109DFB00125D3C90000F7401F0A37400F0A3740D7E
:109E0B00F0900107E0705490002704F0A3F090004D
:109E1B000FE0F9A3E0FAA3E0900029C9F0A3EAF060
:109E2B00A3E9F0A37401F0A374F0F0A37404F0E4BD
:109E3B00A3F07BA87A01FDFF128E747BFF7A067963
:109E4B00267D307FF012C7C57BFF7A0679389000EC
:109E5B00247401F07D2C7FF112C7ED7BFF7A06791C
:109E6B005BE4900028F07D307FF212C7FC900B1E54
:109E7B00E0FF7E007C017D04125DA1740F2FF9744D
:109E8B00083EA801FC7D017B017A0779007E017FEA
:049E9B0004025D3C24
:1072540090001E7403F0A37401F0A374F1F0A374FE
:1072640005F07BA97A01E4FDFF12B7747BFF7A066F
:1072740079797D307FF012C7C57BFF7A067991E476
:10728400900024F07D307FF112C7ED7BFF7A067900
:10729400B1900024740AF07D307FF212C7ED7BFFB9
:1072A4007A0679D19000247414F07D307FF312C7EC
:1072B400ED7BFF7A0679F3900024741EF07D307F15
:1072C400F412C7ED7BFF7A0779159000247428F037
:1072D4007D307FF512C7ED7BFF7A07792F9000246C
:1072E4007432F07D307FF612C7ED900B1EE0FF7E06
:1072F400007C017D04125DA1740F2FF974083EA86F
:1073040001FC7D017B017A0779007E017F04125D17
:107314003C90001E7403F0A314F0A374F1F0A37462
:1073240005F07BA97A017D017F0112B7747BFF7A96
:107334000679797D307FF012C7C57BFF7A07794ED5
:10734400900024743CF07D307FF112C7ED7BFF7A0E
:1073540007796D9000247446F07D307FF212C7EDFA
:107364007BFF7A0779919000247450F07D307FF38D
:1073740012C7ED7BFF7A0779B1900024745AF07D2F
:10738400307FF412C7ED7BFF7A0779D49000247420
:1073940064F07D307FF512C7ED7BFF7A0779F890B2
:1073A4000024746EF07D307FF612C7ED900B1EE062
:1073B400FF7E007C017D04125DA1740F2FF9740817
:1073C4003EA801FC7D017B017A0779007E017F04E0
:1073D400125D3C90001E7403F0A3F0A374F1F0A3BB
:1073E4007405F07BA97A017D027F0212B7747BFFDA
:1073F4007A0679797D307FF012C7C57BFF7A0879E8
:107404001C9000247478F07D307FF112C7ED7BFF6F
:107414007A0879409000247482F07D307FF212C79C
:10742400ED7BFF7A087965900024748CF07D307FC1
:10743400F312C7ED7BFF7A08797D9000247496F0EF
:107444007D307FF412C7ED7BFF7A08799590002494
:1074540074A0F07D307FF512C7ED900B1EE0FF7E27
:10746400007C017D04125DA1740F2FF974083EA8FD
:1074740001FC7D017B017A0779007E017F04125DA6
:047484003C02904AEC
:10BAF60090001E7401F0A3F0A374F1F0A37405F096
:10BB06007BAA7A01E4FDFF12B7747BFF7A0879B34A
:10BB16007D307FF012C7C5900107E07BFF70067A83
:10BB26000879C180047A0279017D2C7FF112C7C59C
:10BB3600900B1EE0FF7E007C017D04125DA1740F58
:10BB46002FF974083EA801FC7D017B017A07790074
:0ABB56007E017F04125D3C02904A5C
:10BB600090001E7401F0A3F0A374F1F0A37405F02B
:10BB70007BAB7A01E4FDFF12B7747BFF7A0879CBC7
:10BB80007D307FF012C7C5900107E07BFF70067A19
:10BB90000879E180047A0879EB7D2C7FF112C7C522
:10BBA000900B1EE0FF7E007C017D04125DA1740FEE
:10BBB0002FF974083EA801FC7D017B017A0779000A
:0ABBC0007E017F04125D3C02904AF2
:10BBCA0090001E7401F0A3F0A374F1F0A37405F0C1
:10BBDA007BAC7A01E4FDFF12B7747BFF7A0879F532
:10BBEA007D307FF012C7C5900107E07BFF70067AAF
:10BBFA000879E180047A0879EB7D2C7FF112C7C5B8
:10BC0A00900B1EE0FF7E007C017D04125DA1740F83
:10BC1A002FF974083EA801FC7D017B017A0779009F
:0ABC2A007E017F04125D3C02904A87
:10B5E800780D7C007D017BFF7A2579477E007F02FC
:10B5F800125D3C90000F7401F0A37400F0A3740D69
:10B60800F09000277401F0A3F090000FE0F9A3E098
:10B61800FAA3E0900029C9F0A3EAF0A3E9F0A37423
:10B6280002F0A374F1F0A37403F0A374FFF07B1687
:10B63800128E6F7BFF7A0079C47D307FF012C7C508
:10B648007BFF7A09790B7D2C7FF112C7C57BFF7AC6
:0DB658000979147D2C7FF212C7C502904ABB
:10954F00781A7C007D017BFF7A2579497E007F06A2
:10955F00125D3C9000207401F0A37400F0A3741A04
:10956F00F09000277401F0A3F0900020E0F9A3E041
:10957F00FAA3E0900029C9F0A3EAF0A3E9F0A374DD
:10958F0006F0A374F0F0A37404F0E4A3F07BB97AAF
:10959F0001FDFF128E747BFF7A09791D7D307FF0FC
:1095AF0012C7C57BFF7A09792FE4900028F07D3030
:1095BF007FF112C7FC7BFF7A09794F900028740165
:1095CF00F07D307FF212C7FC7BFF7A09795A7D302C
:1095DF007FF312C7C57BFF7A09797E7D307FF41246
:1095EF00C7C57BFF7A0979A19000287402F07D30FE
:1095FF007FF512C7FC7BFF7A0979A87D307FF602D1
:02960F00C7C5CD
:10B7D500780D7C007D017BFF7A25794F7E007F0106
:10B7E500125D3C90000E7401F0A37400F0A3740D7B
:10B7F500F09000277401F0A3F090000EE0F9A3E0AB
:10B80500FAA3E0900029C9F0A3EAF0A3E9F0A37434
:10B8150001F0A374F1F0A37403F0A374FFF07BBAF5
:10B825007A01E4FDFF128E747BFF7A0979CE7D30B3
:10B835007FF012C7C57BFF7A0979E07D2C7FF11275
:05B84500C7C502904A96
:10B2E300780D7C007D017BFF7A2579507E007F02FB
:10B2F300125D3C90000F7401F0A37400F0A3740D71
:10B30300F09000277401F0A3F090000FE0F9A3E0A0
:10B31300FAA3E0900029C9F0A3EAF0A3E9F0A3742B
:10B3230002F0A374F1F0A37403F0A374FFF07B891C
:10B333007A22E4FDFF128E747BFF7A0979ED7D306A
:10B343007FF012C7C57BFF7A0A79037D2C7FF11248
:10B35300C7C57BFF7A0A79087D2C7FF212C7C50225
:02B36300904A0E
:10BC340090001E7401F0A3F0A374F1F0A37405F056
:10BC44007BB57AB2E4FDFF12B7747BFF7A0A790DF3
:10BC54007D307FF012C7C5900107E07BFF70067A44
:10BC64000A791F80047A0A79257D307FF112C7C5CD
:10BC7400900B1EE0FF7E007C017D04125DA1740F19
:10BC84002FF974083EA801FC7D017B017A07790035
:0ABC94007E017F04125D3C02904A1D
:10BC9E0090001E7401F0A3F0A374F1F0A37405F0EC
:10BCAE007BB67AB2E4FDFF12B7747BFF7A0A792F66
:10BCBE007D307FF012C7C5900107E07BFF70067ADA
:10BCCE000A791F80047A0A79257D307FF112C7C563
:10BCDE00900B1EE0FF7E007C017D04125DA1740FAF
:10BCEE002FF974083EA801FC7D017B017A077900CB
:0ABCFE007E017F04125D3C02904AB3
:10B03600780D7C007D017BFF7A2579527E007F03A7
:10B04600125D3C9000107401F0A37400F0A3740D1F
:10B05600F09000277401F0A3F0900010E0F9A3E04F
:10B06600FAA3E0900029C9F0A3EAF0A3E9F0A374DB
:10B0760003F0A374F1F0A37403F0A374FFF07B173D
:10B08600128E6F7BFF7A0079CD7D307FF012C7C5B7
:10B096007BFF7A0A79417D2C7FF112C7C57BFF7A47
:10B0A6000A794E7D2C7FF212C7C57BFF7A0A795B3F
:0AB0B6007D2C7FF312C7C502904AFB
:10AC5700780D7C007D017BFF7A2579557E007F0387
:10AC6700125D3C9000107401F0A37400F0A3740D02
:10AC7700F09000277401F0A3F0900010E0F9A3E032
:10AC8700FAA3E0900029C9F0A3EAF0A3E9F0A374BE
:10AC970003F0A374F1F0A37403F0A374FFF07BCD6A
:10ACA7007A01E4FDFF128E747BFF7A0A79687D30A2
:10ACB7007FF012C7C57BFF7A0A797E7D2C7FF11260
:10ACC700C7C57BFF7A0A798B7D2C7FF212C7C57BBC
:0FACD700FF7A0A79947D2C7FF312C7C502904A49
:10BF1A0090001E7401F0A3F0A374F1F0A37405F06D
:10BF2A00FB7A24E4FDFF12B7747BFF7A0A799D7DC0
:10BF3A00307FF012C7C5900107E07BFF70067A0ACE
:10BF4A0079B380047A0A79BD7D2C7FF112C7C59036
:10BF5A000B1EE0FF7E007C017D04125DA1740F2F91
:10BF6A00F974083EA801FC7D017B017A0779007EFD
:09BF7A00017F04125D3C02904AB3
:1084560090001E7402F0A314F0A374F1F0A3740547
:10846600F07B067A24E4FDFF12B7747BFF7A0A7963
:10847600C77D307FF012C7C57BFF7A0A79D9E490B1
:108486000024F07D307FF112C7ED7BFF7A0A79EB8D
:108496009000247409F07D307FF212C7ED7BFF7ADD
:1084A6000B79039000247415F07D307FF312C7ED2D
:1084B6007BFF7A0B791D9000247421F07D307FF4C8
:1084C60012C7ED7BFF7A0B793B900024742DF07D6B
:1084D600307FF512C7ED7BFF7A0B79489000247444
:1084E60031F07D307FF612C7ED900B1EE0FF7E0067
:1084F6007C017D04125DA1740F2FF974083EA8015A
:10850600FC7D017B017A0779007E017F04125D3CC8
:1085160090001E7402F0A3F0A374F1F0A37405F0AA
:108526007B067A247D017F0112B7747BFF7A0A7974
:10853600C77D307FF012C7C57BFF7A0B7966900046
:1085460024743DF07D307FF112C7ED7BFF7A0B7905
:10855600879000247449F07D307FF212C7ED900BAE
:108566001EE0FF7E007C017D04125DA1740F2FF9D1
:1085760074083EA801FC7D017B017A0779007E0123
:088586007F04125D3C02904AE3
:10527500900010EFF0600302554A90001E7406F08E
:10528500A37401F0A374F1F0A37405F07B077A24ED
:10529500E4FDFF12B7747BFF7A0B799E7D307FF0BA
:1052A50012C7C5900107E0240F601A14601F14602F
:1052B5000C240370257BFF7A0B79B080167BFF7A6F
:1052C5000B79BB800E7BFF7A0B79C680067BFF7A54
:1052D5000B79CD7D307FF112C7C5900108E0240E12
:1052E500601314601824F4601C240E70257BFF7A6B
:1052F5000B79D480167BFF7A0B79E6800E7BFF7ADB
:105305000B79F880067BFF7A0C790A7D307FF212E3
:10531500C7C5900109E0240FB407005060905330D1
:1053250075F003A4C58325F0C58373025345025365
:105335004D02535502535D02536502536D02537579
:105345007BFF7A0C791A802E7BFF7A0C792A8026CE
:105355007BFF7A0C793A801E7BFF7A0C79488016A0
:105365007BFF7A0C795C800E7BFF7A0C796E800668
:105375007BFF7A0C79807D307FF312C7C57BFF7A7E
:105385000C79989000247403F07D307FF412C7EDFA
:105395007BFF7A0C79A69000247407F07D307FF5A9
:1053A50012C7ED7BFF7A0C79BA900024740BF07D5F
:1053B500307FF612C7ED900B1EE0FF7E007C017D6D
:1053C50004125DA1740F2FF974083EA801FC7D013C
:1053D5007B017A0779007E017F04125D3C90001EF7
:1053E5007406F0A37402F0A374F1F0A37405F07BC6
:1053F500077A247D017F0112B7747BFF7A0B799EB2
:105405007D307FF012C7C57BFF7A0C79CE900024E2
:105415007411F07D307FF112C7ED7BFF7A0C79E6D0
:105425009000247415F07D307FF212C7ED7BFF7A72
:105435000C79F99000247419F07D307FF312C7EDD3
:10544500900124E07BFF70067A0D790B80047A0DBC
:1054550079197D307FF412C7C57BFF7A0D792890C5
:105465000024742BF07D307FF512C7ED7BFF7A0D9C
:10547500793E9000247433F07D307FF612C7ED90AD
:105485000B1EE0FF7E007C017D04125DA1740F2FD1
:10549500F974083EA801FC7D017B017A0779007E3D
:1054A500017F04125D3C90001E7406F0A37403F0A6
:1054B500A374F1F0A37405F07B077A247D027F02C3
:1054C50012B7747BFF7A0B799E7D307FF012C7C5CA
:1054D5007BFF7A0D7954900024743BF07D307FF189
:1054E50012C7ED7BFF7A0D796D900024744BF07D2A
:1054F500307FF212C7ED7BFF7A0D79859000247419
:1055050050F07D307FF312C7ED7BFF7A0D799D90CA
:1055150000247455F07D307FF412C7ED7BFF7A0DC2
:1055250079B9900024745FF07D307FF512C7ED7B6B
:10553500FF7A0D79D29000247469F07D307FF612E0
:10554500C7ED025779900010E06401600302577CB3
:1055550090001E7406F0A37404F0A374F1F0A37414
:1055650005F07B077A24E4FDFF12B7747BFF7A0B05
:10557500799E7D307FF012C7C57BFF7A0D79E89063
:1055850000247473F07D307FF112C7ED7BFF7A0E36
:105595007901900024747AF07D307FF212C7ED7B9B
:1055A500FF7A0E7918900024747CF07D307FF31219
:1055B500C7ED900199E024CFB4070050609055D015
:1055C50075F003A4C58325F0C583730255E502551F
:1055D500ED0255F50255FD02560502560D0256150A
:1055E5007BFF7A0E7937802E7BFF7A0E794B8026EA
:1055F5007BFF7A0E795F801E7BFF7A0E79738016AA
:105605007BFF7A0E7988800E7BFF7A0E799D800666
:105615007BFF7A0E79B27D307FF412C7C57BFF7AA6
:105625000E79C89000247493F07D307FF512C7ED94
:105635007BFF7A0E79E1900024749CF07D307FF633
:1056450012C7ED900B1EE0FF7E007C017D04125D0C
:10565500A1740F2FF974083EA801FC7D017B017A26
:105665000779007E017F04125D3C90001E7406F0F0
:10567500A314F0A374F1F0A37405F07B077A247DDD
:10568500017F0112B7747BFF7A0B799E7D307FF025
:1056950012C7C57BFF7A0E79F790002474A0F07DC0
:1056A500307FF112C7ED7BFF7A0F790890002474E3
:1056B500A8F07D307FF212C7ED7BFF7A02796B90FF
:1056C500002474B0F07D307FF312C7ED7BFF7A0FB5
:1056D500791990002474B8F07D307FF412C7ED7B02
:1056E500FF7A0F792A90002474BEF07D307FF51281
:1056F500C7ED7BFF7A0F793B90002474C4F07D30B1
:105705007FF612C7ED900B1EE0FF7E007C017D0445
:10571500125DA1740F2FF974083EA801FC7D017B71
:10572500017A0779007E017F04125D3C90001E74AA
:1057350006F0A3F0A374F1F0A37405F07B077A24B7
:105745007D027F0212B7747BFF7A0B799E7D307FD5
:10575500F012C7C59001D1E0240E600B0470157BD3
:10576500FF7A0F794B80067BFF7A0F795D7D307F5D
:08577500F112C7C512902322B6
:1060C000900107E060030263BF90001E7403F0A319
:1060D0007401F0A374F1F0A37405F07BCE7A01E4AF
:1060E000FDFF12B7747BFF7A0F796F7D307FF0125E
:1060F000C7C57BFF7A0F79857D307FF112C7C57BDD
:10610000FF7A0F79979000247401F07D307FF212AE
:10611000C7ED900116E0125E7E617C626144816190
:106120005482617483614685615C866174876164B1
:1061300088614889616C90614A91614C9261749563
:106140000000618980068004800280007BFF7A0F56
:1061500079B5802E7BFF7A0F79C580267BFF7A0F79
:1061600079C5801E7BFF7A0F79C580167BFF7A0F79
:1061700079C5800E7BFF7A0F79D580067BFF7A0F79
:1061800079E57D307FF312C7C57BFF7A0F79F590F3
:1061900000247410F07D307FF412C7ED7BFF7A107D
:1061A00079029000247412F07D307FF512C7ED90D3
:1061B000011BE014601314601824FE601C2404709A
:1061C000257BFF7A10790F80167BFF7A10791D806E
:1061D0000E7BFF7A10792B80067BFF7A1079397D50
:1061E000307FF612C7C5900B1EE0FF7E007C017D5C
:1061F00004125DA1740F2FF974083EA801FC7D0103
:106200007B017A0779007E017F04125D3C90001EBD
:106210007403F0A314F0A374F1F0A37405F07BCE23
:106220007A017D017F0112B7747BFF7A0F796F7D50
:10623000307FF012C7C57BFF7A1079499000247433
:1062400015F07D307FF112C7ED7BFF7A10795C90FD
:1062500000247417F07D307FF212C7ED7BFF7A10B7
:10626000796F9000247419F07D307FF312C7ED7BB5
:10627000FF7A107980900024741CF07D307FF41236
:10628000C7ED7BFF7A107990900024741EF07D306A
:106290007FF512C7ED7BFF7A1079A290002474225B
:1062A000F07D307FF612C7ED900B1EE0FF7E007C84
:1062B000017D04125DA1740F2FF974083EA801FC42
:1062C0007D017B017A0779007E017F04125D3C909D
:1062D000011BE0640490001E70707403F0A3F0A32F
:1062E00074F1F0A37405F07BCE7A017D027F021277
:1062F000B7747BFF7A0F796F7D307FF012C7C57B53
:10630000FF7A1079B29000247424F07D307FF1126E
:10631000C7ED7BFF7A1079C69000247426F07D309B
:106320007FF212C7ED7BFF7A1079DA90002474288F
:10633000F07D307FF312C7ED7BFF7A1079F4900087
:10634000247432F07D307FF480487403F0A3F0A30E
:1063500074F1F0A37405F07BCE7A017D027F021206
:10636000B7747BFF7A0F796F7D307FF012C7C57BE2
:10637000FF7A1079B29000247424F07D307FF112FE
:10638000C7ED7BFF7A1079C69000247426F07D302B
:106390007FF212C7ED900B1EE0FF7E007C017D04B2
:1063A000125DA1740F2FF974083EA801FC7D017BDA
:1063B000017A0779007E017F04125D3C0264DC9063
:1063C000001E7402F0A314F0A374F1F0A37405F09E
:1063D0007BCE7A01E4FDFF12B7747BFF7A11790E50
:1063E0007D307FF012C7C57BFF7A1179207D307F29
:1063F000F112C7C57BFF7A0F79979000247401F0E2
:106400007D307FF212C7ED7BFF7A11793290002444
:10641000740FF07D307FF312C7ED7BFF7A11794561
:106420009000247419F07D307FF412C7ED7BFF7A61
:1064300011795A900024741FF07D307FF512C7ED5A
:106440007BFF7A11796D9000247425F07D307FF602
:1064500012C7ED900B1EE0FF7E007C017D04125DF3
:10646000A1740F2FF974083EA801FC7D017B017A0D
:106470000779007E017F04125D3C90001E7402F0DB
:10648000A3F0A374F1F0A37405F07BCE7A017D0133
:106490007F0112B7747BFF7A11790E7D307FF01285
:1064A000C7C57BFF7A117982900024742BF07D3070
:1064B0007FF112C7ED900B1EE0FF7E007C017D0492
:1064C000125DA1740F2FF974083EA801FC7D017BB9
:1064D000017A0779007E017F04125D3C12904A2206
:1087DE00780D7C007D017BFF7A2579587E007F081D
:1087EE00125D3C9000157401F0A37400F0A3740D9B
:1087FE00F09000277402F0A314F0900015E0F9A396
:10880E00E0FAA3E0900029C9F0A3EAF0A3E9F0A3EF
:10881E007406F0A374F1F0A37403F0A374FFF07B5D
:10882E00CF7A01E4FDFF128E747BFF7A11799A7D67
:10883E00307FF012C7C57BFF7A1179AC7D2C7FF1AA
:10884E0012C7C57BFF7A1179B57D2C7FF212C7C591
:10885E007BFF7A1179BE7D2C7FF312C7C57BFF7A21
:10886E001179CB7D2C7FF412C7C57BFF7A1179D499
:10887E007D2C7FF512C7C57BFF7A1179DB7D2C7FAE
:10888E00F612C7C59000277402F0A3F0900015E011
:10889E00FBA3E0FAA3E02406F9E43AFA900029EBF0
:1088AE00F0A3EAF0A3E9F0A37402F0A374F1F0A32D
:1088BE007403F0A374FFF07BCF7A017D017F011268
:1088CE008E747BFF7A11799A7D307FF012C7C57B4B
:1088DE00FF7A1179E67D2C7FF112C7C57BFF7A11E5
:0C88EE0079F57D2C7FF212C7C502904A7C
:1078CB0090001E7402F0A314F0A374F1F0A37405DE
:1078DB00F07B2D7A24E4FDFF12B7747BFF7A1179CC
:1078EB00FD7D307FF012C7C57BFF7A12790F9000B8
:1078FB00247401F07D307FF112C7ED7BFF7A127992
:10790B001C9000247402F07D307FF212C7ED7BFFD8
:10791B007A127930900024740AF07D307FF312C70D
:10792B00ED900115E0240F601614601B14602024E9
:10793B00F46024240F702D7BFF7A127940801E7B1C
:10794B00FF7A12795780167BFF7A12796C800E7B47
:10795B00FF7A12798380067BFF7A1279987D307FCC
:10796B00F412C7C5900116E0240F6013146018249D
:10797B00F3601C240F70257BFF7A1279B180167B84
:10798B00FF7A1279C4800E7BFF7A1279D780067B3F
:10799B00FF7A1279E87D307FF512C7C5900117E0A9
:1079AB00240F601314601824F3601C240F70257BC4
:1079BB00FF7A1279FD80167BFF7A137910800E7B8C
:1079CB00FF7A13792380067BFF7A1379347D307F1E
:1079DB00F612C7C5900B1EE0FF7E007C017D0412E2
:1079EB005DA1740F2FF974083EA801FC7D017B018A
:1079FB007A0779007E017F04125D3C90001E7402B1
:107A0B00F0A3F0A374F1F0A37405F07B2D7A247D21
:107A1B00017F0112B7747BFF7A1179FD7D307FF006
:107A2B0012C7C57BFF7A1379499000247411F07D3E
:107A3B00307FF112C7ED7BFF7A13796290002474CB
:107A4B0017F07D307FF212C7ED7BFF7A13797790B9
:107A5B000024741DF07D307FF312C7ED7BFF7A138A
:107A6B00798C9000247423F07D307FF412C7ED7B6A
:107A7B00FF7A0D7928900024742BF07D307FF5125E
:107A8B00C7ED7BFF7A0D793E9000247433F07D3087
:107A9B007FF612C7ED900B1EE0FF7E007C017D048C
:107AAB00125DA1740F2FF974083EA801FC7D017BB8
:0F7ABB00017A0779007E017F04125D3C02904A38
:108F380090001E7401F0A3F0A374F1F0A37405F07F
:108F48007B2E7A24E4FDFF12B7747BFF7A1379A590
:108F58007D307FF012C7C5900107E06003028FECF7
:108F68007BFF7A12790F90002404F07D307FF11294
:108F7800C7ED7BFF7A1379B79000247402F07D3037
:108F88007FF212C7ED7BFF7A1379C990002474052C
:108F9800F07D307FF312C7ED900114E0B4FF087B39
:108FA800FF7A1379DD8021900114E070087BFF7A45
:108FB8001379EB8013900114E07BFFB4F2067A1367
:108FC80079FB80047A14790B7D307FF412C7C57B56
:108FD800FF7A0C79BA900024740EF07D307FF51278
:108FE800C7ED800D7BFF7A14791D7D307FF112C7A4
:108FF800C5900B1EE0FF7E007C017D04125DA1740C
:109008000F2FF974083EA801FC7D017B017A0779CE
:0B901800007E017F04125D3C02904AC4
:10748800900107E0600302765090001E7402F0A39A
:1074980014F0A374F1F0A37405F07B2F7A24E4FDB3
:1074A800FF12B7747BFF7A14792E7D307FF012C7F4
:1074B800C57BFF7A12790F9000247401F07D307F2C
:1074C800F112C7ED7BFF7A1479449000247402F01E
:1074D8007D307FF212C7ED7BFF7A0C79CE900024C5
:1074E8007409F07D307FF312C7ED900114E0146049
:1074F8000F2402601314701D7BFF7A147953800ED9
:107508007BFF7A14796880067BFF7A14797F7D3057
:107518007FF412C7C57BFF7A147994900024740E07
:10752800F07D307FF512C7ED7BFF7A1479AB9000C0
:10753800247410F07D307FF612C7ED900B1EE0FF2B
:107548007E007C017D04125DA1740F2FF974083E42
:10755800A801FC7D017B017A0779007E017F041276
:107568005D3C90001E7402F0A3F0A374F1F0A374C4
:1075780005F07B2F7A247D017F0112B7747BFF7A97
:1075880014792E7D307FF012C7C5900121E024CFF9
:10759800B4070050609075AB75F003A4C58325F05F
:1075A800C583730275C00275C80275D00275D8020A
:1075B80075E00275E80275F07BFF7A1479CA802EAF
:1075C8007BFF7A1479E080267BFF7A1479F6801E97
:1075D8007BFF7A15790C80167BFF7A157923800E4C
:1075E8007BFF7A15793A80067BFF7A1579517D30D1
:1075F8007FF112C7C57BFF7A157969900024741B47
:10760800F07D307FF212C7ED900138E014600F244E
:1076180002601314701D7BFF7A157984800E7BFF3E
:107628007A15799C80067BFF7A1579B47D307FF3D3
:1076380012C7C57BFF7A1579CA9000247432F07D91
:10764800307FF412C7ED803490001E7401F0A3F06F
:10765800A374F1F0A37405F07B2F7A24E4FDFF12E4
:10766800B7747BFF7A14792E7D307FF012C7C57B03
:10767800FF7A1579E67D307FF112C7C5900B1EE0C1
:10768800FF7E007C017D04125DA1740F2FF9740840
:107698003EA801FC7D017B017A0779007E017F0409
:0676A800125D3C02904A55
:10700F00EF600302725390001E7403F0A37401F03B
:10701F00A374F1F0A37405F07B307A24E4FDFF1222
:10702F00B7747BFF7A1579FB7D307FF012C7C57B74
:10703F00FF7A12790F9000247401F07D307FF112E6
:10704F00C7ED7BFF7A12791C900024740AF07D3013
:10705F007FF212C7ED7BFF7A0E79F790002474123E
:10706F00F07D307FF312C7ED7BFF7A16790D90001C
:10707F0024741AF07D307FF412C7ED900125E07B68
:10708F00FF20E0067A16792080047A16792F7D305A
:10709F007FF512C7C5900125E0541824F86010241D
:1070AF00F860142410701D7BFF7A16793E800E7BDA
:1070BF00FF7A16794D80067BFF7A16795C7D307FDB
:1070CF00F612C7C5900B1EE0FF7E007C017D0412F7
:1070DF005DA1740F2FF974083EA801FC7D017B019F
:1070EF007A0779007E017F04125D3C90001E7403C5
:1070FF00F0A314F0A374F1F0A37405F07B307A249D
:10710F007D017F0112B7747BFF7A1579FB7D307F8C
:10711F00F012C7C57BFF7A0F7908900024741FF017
:10712F007D307FF112C7ED7BFF7A167969900024CD
:10713F007427F07D307FF212C7ED900132E07BFFB4
:10714F0020E0067A16797C80047A16798B7D307F61
:10715F00F312C7C5900132E0541824F8601024F8D8
:10716F0060142410701D7BFF7A16799A800E7BFFB6
:10717F007A1679A980067BFF7A1679B87D307FF46D
:10718F0012C7C57BFF7A02796B900024742CF07DB7
