:0FCD6600434F4D2D4F4E00434F4D2D4F4E20004C
:10C99D0041049200011800011900011A28410B1FD2
:10C9AD0000C104C106C10AC109C1004105D300413E
:10C9BD00035F004103620041036500410B1C00C190
:10C9CD0002C105C108C10CC107410B1B00410B1E63
:06C9DD00004203600000AF
:10543B00E490000CF0FFFEC201C20B900363F0A3DB
:10544B00F08F828E8374FFF00FBF00010EE4B5075F
:10545B00F0EEB480EC7F0A7E0012CBE012CD3490DC
:10546B00000CEFF0600812CD3490000CEFF012CC72
:10547B006D90000CE070057F0112CBAE12CC6DD29B
:10548B000A12A244E43390000CF012CB7B12CC6DC9
:10549B0012B250E4FF12CACCC208900B1F7405F075
:1054AB00D293C203E4900805F0A3F0A3F0A3F0A3FA
:1054BB00F0A3F0300809900234E0F46033C2089096
:1054CB000B1FE0FF645A601CEF64A56017EFB40577
:1054DB0009740AF0D293C203800A900B1F7405F073
:1054EB00C293C2037F057E0012CBE012CC6D80C34A
:1054FB0078077C017D017B017A0279357E007F067E
:10550B0012645412B25012CC6D900107E0540F7517
:10551B00F00AA4FFA3E0540F2F75F008A475F03C1C
:10552B0084781AF612C8FDD2A9C208A208E433FF88
:10553B00200F047E0180027E00EE5F602290023419
:10554B00E0B40119D20B78077C017D017B017A0253
:10555B0079357E007F06126454D2018010C2083068
:10556B000F06D208D201800512CC6D80BEE4FF126B
:10557B00ABA07F0112CBAE781A7628300F0512A0A4
:10558B00D3800312B1BCD2A9300F0512A0D3800374
:10559B0012B1BC12C70390000CEFF0F46005E0FFF2
:1055AB00124C7012CC6D900B1DE025E025E024BF52
:1055BB00F582E43405F583E0FEA3E064014E70C888
:1055CB0030001B12B49112B2E212C70390000CEF21
:1055DB00F0F46005E0FF124C7012CC6D80E2900B82
:1055EB001DE025E025E024BFF582E43405F583E0DA
:1055FB00FEA3E08EF01265BC57AF000157B5001546
:10560B0058300016585A001758BE001859A80019E0
:10561B0059DF001A59EE001B5A13001C57BB01A58A
:10562B0057E801A6580601A7581801A8582401A944
:10563B00582A01AA583601B9584201BA586001CD0F
:10564B00587A01CE588001CF588601D058C401E159
:10565B0058EB01E258FD01E3592401E4593F01E500
:10566B00595101E6596301E759A201E859AD01F51A
:10567B0059B201F659B701F759BC01F859CB01F9E9
:10568B0059DA01FA59E4020959E9020A59F3021DE0
:10569B0059F8021E59FE021F5A0402205A0A02210F
:1056AB005A1802315A1D02325A2202335A27023437
:1056BB0057C120E557C620E657CA20E757D020E848
:1056CB0057D820E957E220EA57EE20F957F420FA91
:1056DB0057FA20FB580020FC580C210D5812210EB4
:1056EB00581E2121583C227558482289586624059A
:1056FB00586C240658722407588C24415892244223
:10570B0058982443589E244458A6244558AC244604
:10571B0058B2244758B8244858CA259558CF2596CF
:10572B0058D5259758DB259858E1259958F125A987
:10573B0058F725AA590325BD590825BE590E25BF73
:10574B00591425C0591A25C1592A25D1592F25D2AB
:10575B00593525D3594525E5594B25E6595725F993
:10576B00595D25FA5969260D596E260E5974260F67
:10577B00597A26105980261159862612598C2613D0
:10578B0059922614599C261559C1276159C627626F
:10579B0059D0277559D52776584EB2B55854B2B64D
:1057AB0000005A2A125A2F025A2A12A510025A2AFC
:1057BB0012A18E025A2AE4FFFE8016C20D80087FCA
:1057CB00017E00800CD20D12982F025A2A7F027E86
:1057DB0000129912025A2A12C030025A2A12AEC073
:1057EB00025A2A12A910025A2A12ACE3025A2A129E
:1057FB00A9B4025A2A12AD82025A2A12B86A025A64
:10580B002A12A66E025A2A128412025A2A12BE6059
:10581B00025A2A12A2F9025A2A12C0A1025A2A12B9
:10582B00C10B025A2A12BC73025A2A129D1A025A2F
:10583B002A120000025A2A12BED5025A2A12B8ECBA
:10584B00025A2A12C175025A2A12C1DF025A2A12AF
:10585B00AA58025A2A12B373025A2A12C45B025A6A
:10586B002A128B79025A2AE4FF125F16025A2A1265
:10587B006B66025A2A1288F2025A2A128F00025AB7
:10588B002A128067025A2A129B89025A2A127C24F6
:10589B00025A2AE4FF126EE1025A2A1279D6025AF0
:1058AB002A12A5C1025A2A12B51F025A2A12B5ADE5
:1058BB00025A2A129254025A2A12A717025A2AE49F
:1058CB00FFFE80167F017E0080107F027E00800A23
:1058DB007F037E0080047F047E0012901C025A2AF4
:1058EB0012B96E025A2A12A3AC025A2A12AFF7024D
:1058FB005A2A12A7C0025A2AE4FFFE80167F017EA5
:10590B000080107F027E00800A7F037E0080047F70
:10591B00047E00129138025A2A12B402025A2AE467
:10592B00FFFE800A7F017E0080047F027E0012A0B2
:10593B0017025A2A12B9F0025A2A12B7E1025A2A4E
:10594B0012C249025A2A12BA72025A2A12A86902C0
:10595B005A2A12C2B3025A2A128CB0025A2AE4FFF4
:10596B00FE80287F017E0080227F027E00801C7FCC
:10597B00037E0080167F047E0080107F057E0080F2
:10598B000A7F067E0080047F077E00128768025A1A
:10599B002A127745025A2A12AE21025A2A12B08EC7
:1059AB00807D129DDC8078129E9B807312A45E809A
:1059BB006E12BAF480691299EB8064129ABD805F03
:1059CB00120000805A120000805512000080501205
:1059DB000000804B12BCF0804612BF4A804112BFC0
:1059EB00BD803C12AAFC8037E4FFFE80167F017E4F
:1059FB000080107F027E00800A7F037E0080047F80
:105A0B00047E0012936B801712B125801212C31DF6
:105A1B00800D12C387800812C3F1800312947BD2CE
:045A2B00000255CB55
:10CB7B00C293758780E4F5A875B81075890175881F
:10CB8B001075C83475CBFF75CADC759850F58DF5EB
:10CB9B008B758C28F58AC2A8C2AAC2A9C2ABD2AC2B
:03CBAB00D2AF22E4
:10B2E2009008057F0312C8AD9008067F0512C8AD0D
:10B2F200900B1EE0FF900045742EF07B077D0A1232
:10B30200C807900807E024F6FD7F0812C8B1900B29
:10B312001EE0FF900045742EF07B0A7D0A12C807DA
:10B32200900808E024F6FD7F0B12C8B1900B1EE0D6
:10B33200FF9000457420F07B0D7D0A12C80790082B
:10B3420009E024F6FD7F0E12C8B1900B1EE0FF90BB
:10B352000045743AF07B107D0A12C80790080AE093
:10B3620024F6FDC3943C50057F1102C8B1C2088087
:01B37200FEDC
:04C8AD00E024F6FD90
:06C8B10090000DEFF0FB0A
:10C8B700E4A3F0ED75F06484AEF0EE75F00A84FE43
:10C8C700ED75F00A84AFF0EFF0EE4430FEEF443040
:10C8D700F0900B1EE0FF900045EEF07D0A12C807AE
:10C8E700900B1EE0FF90000DE004FBA3E0900045D5
:06C8F700F07D0A02C807F3
:10B49100900361E004F07006900360E004F0D39043
:10B4A1000361E09420900360E0940340077403F08B
:10B4B100A3742AF0900B1CE0B40A0BE4900360F033
:10B4C100A3F0900B1CF0D3900361E09420900360F3
:10B4D100E094037BFF40207ACD796612CD1F900066
:10B4E10040EFF0900B1EE0FF90003D74FFF0A3745D
:10B4F100CDF0A37466801E7ACD796D12CD1F9000B8
:10B5010040EFF0900B1EE0FF90003D74FFF0A3743C
:0EB51100CDF0A3746DF07B1E7D0A12C9EC22F2
:10276D0054564D2D4D545000C6F4B6AFD6D02CC78F
:10277D00EBC9D4BAF22E2E2E2E2E2E0053414D53D0
:10278D00554E4720534453204348494E4100D4B140
:10279D00B9A4BFA8BAC53A5F5F5F5F5F5F00C3DCD6
:1027AD00C2EB3A2D2D2D2D2D2D00D4B1B9A4BFA8DE
:1027BD00BAC53A2D2D2D2D2D2D00D6F7B9A6C4DC79
:1027CD00B2CBB5A500D4CBD3AAB7FECEF100D4CBF6
:1027DD00D3AABFD8D6C600C9E8B1B8B2E9D1AF0007
:1027ED00CEACD0DEB2E2CAD400C9E8B1B8C9E8D6E1
:1027FD00C300CFB5CDB3B9D8B1D500312EC4A3BF69
:10280D00E9C8EDBCFECFC2D4D800322ECAFDBEDD64
:10281D00CEACBBA400B8FCBBBBC6B1CFE400B8FCCA
:10282D00BBBBD3B2B1D2C7AECFE400C7E5D5D2C1E1
:10283D00E3CFE4D3B2B1D200B2B9B3E4D6BDB1D2D5
:10284D0000B5A5BEDDD6D8B4F200C8D5BDE100D423
:10285D00CBD3AAB7FECEF12DB8FCBBBBC6B1CFE42E
:10286D0000D0B6CFC241C6B1CFE400D7B0D4D84165
:10287D00C6B1CFE400D0B6CFC242C6B1CFE400D7C7
:10288D00B0D4D842C6B1CFE400B8FCBBBBB7CFC6FD
:10289D00B1CFE400D7B0D4D8B7CFC6B1CFE400D410
:1028AD00CBD3AAB7FECEF12DD0B6CFC241C6B1CF94
:1028BD00E400D4CBD3AAB7FECEF12DD0B6CFC24211
:1028CD00C6B1CFE400D4CBD3AAB7FECEF12DD0B68E
:1028DD00CFC2B7CFC6B1CFE400C6B1CFE449443AB9
:1028ED005F5F5F5F5F5F5F5F00C7EBB8FCBBBBC641
:1028FD00B1CFE42100B2D9D7F7CAA7B0DC2100D4FB
:10290D00CBD3AAB7FECEF12DD7B0D4D841C6B1CF17
:10291D00E40041C6B1CFE4B2B9C6B1CAFDC1BF3AF8
:10292D002D2D2D2D00D4CBD3AAB7FECEF12DD7B0A2
:10293D00D4D842C6B1CFE40042C6B1CFE4B2B9C6D5
:10294D00B1CAFDC1BF3A2D2D2D2D00D4CBD3AAB7C1
:10295D00FECEF12DD7B0D4D8B7CFC6B1CFE400B7E6
:10296D00CFC6B1CFE449443A5F5F5F5F5F5F5F5FA2
:10297D0000D4CBD3AAB7FECEF12DB8FCBBBBD3B2DE
:10298D00B1D2C7AECFE400D0B6CFC2B2B9B1D2C7C3
:10299D00AECFE43100D7B0D4D8B2B9B1D2C7AECF33
:1029AD00E43100D0B6CFC2B2B9B1D2C7AECFE432A6
:1029BD0000D7B0D4D8B2B9B1D2C7AECFE43200D4BB
:1029CD00CBD3AAB7FECEF12DD0B6CFC2B2B9B1D20C
:1029DD00C7AECFE43100C3FCC1EED2D1B7A2CBCD8F
:1029ED002100C7E5B1D2BDF8D0D0D6D02100C7AEF9
:1029FD00CFE4CEB4B5BDCEBB2100C7AECFE430C25F
:102A0D00FA2100B8FCBBBBC7AECFE4B4EDCEF32CBE
:102A1D00B2BBC4DCC7E5B1D22100C7AECFE4B7ADC0
:102A2D00B0E5CEB4B5BDCEBBA3ACB2BBC4DCC7E57F
:102A3D00B1D22100D4CBD3AAB7FECEF12DD7B0D4CD
:102A4D00D8B2B9B1D2C7AECFE43100B2B9B1D2C7A5
:102A5D00AECFE431B2B9B1D2CAFD3A2D2D2D2D0034
:102A6D00D4CBD3AAB7FECEF12DD0B6CFC2B2B9B169
:102A7D00D2C7AECFE43200C7AECFE431C2FA2100E7
:102A8D00D4CBD3AAB7FECEF12DD7B0D4D8B2B9B12D
:102A9D00D2C7AECFE43200B2B9B1D2C7AECFE432B5
:102AAD00B2B9B1D2CAFD3A2D2D2D2D00D4CBD3AA5A
:102ABD00B7FECEF12DC7E5D5D2C1E3CFE4D3B2B188
:102ACD00D200D3B2B1D2C7E5BFD500B2E9D1AFC7FD
:102ADD00E5BFD5BDE1B9FB00D4CBD3AAB7FECEF18E
:102AED002DD5D2C1E3CFE4D3B2B1D2C7E5BFD50066
:102AFD00D4CBD3AAB7FECEF12DB2E9D1AFD3B2B1BB
:102B0D00D2C7E5BFD5BDE1B9FB00D5D2C1E3B6B79C
:102B1D0030C7E5B1D2CAFDC1BF3A5F5F5F5F5F00ED
:102B2D00D5D2C1E3B6B730CAA3D3E0B1D2CAFD3A0C
:102B3D005F5F5F5F5F00D5D2C1E3B6B731C7E5B167
:102B4D00D2CAFDC1BF3A5F5F5F5F5F00D5D2C1E3FF
:102B5D00B6B731CAA3D3E0B1D2CAFD3A5F5F5F5FAA
:102B6D005F00D5D2C1E3B6B732C7E5B1D2CAFDC158
:102B7D00BF3A5F5F5F5F5F00D5D2C1E3B6B732CAC0
:102B8D00A3D3E0B1D2CAFD3A5F5F5F5F5F00D5D2DC
:102B9D00C1E3B6B733C7E5B1D2CAFDC1BF3A5F5F76
:102BAD005F5F5F00D5D2C1E3B6B733CAA3D3E0B13F
:102BBD00D2CAFD3A5F5F5F5F5F00C7AECFE43020E2
:102BCD0049443A5F5F5F5F5F5F5F5F00C7AECFE411
:102BDD0030CFD6D3D0B1D2CAFD3A5F5F5F5F5F5FB2
:102BED0000C7AECFE4312049443A5F5F5F5F5F5F5E
:102BFD005F5F00C7AECFE431CFD6D3D0B1D2CAFD1F
:102C0D003A5F5F5F5F5F5F00D5FDD4DAC7E5B1D294
:102C1D00D6D02100CEB4BDF8D0D0C7E5B1D2B2D94F
:102C2D00D7F72100435255CDA8D0C5B9CAD5CF216C
:102C3D0000D4CBD3AAB7FECEF12DB2B9B3E4D6BD35
:102C4D00B1D20031BAC5D6BDB1D2D5D2C1E3CFE430
:102C5D00B2B9B1D200D4CBD3AAB7FECEF12D31BAD1
:102C6D00C5D6BDB1D2D5D2C1E3CFE4B2B9B1D20090
:102C7D0031BAC5D6BDB1D2D5D2C1E3CFE4B2B9B167
:102C8D00D2B1D2D6D63A2D2D2D0031BAC5D6BDB181
:102C9D00D2D5D2C1E3CFE4B2B9B1D2D5C5CAFD3ACE
:102CAD002D2D2D2D00D4CBD3AAB7FECEF12DB5A54C
:102CBD00BEDDD6D8B4F200D6D8B4F2B3C9B9A621C8
:102CCD0000D6D8B4F2CAA7B0DC2100D4CBD3AAB7B2
:102CDD00FECEF12DC8D5BDE100B2D9D7F7B3C9B934
:102CED00A62100C4A3CABDC9E8D6C300D4CBD3AABC
:102CFD00C9E8D6C300C9E8B1B8C9E8D6C32DC4A385
:102D0D00CABDC9E8D6C300B9A6C4DC3A2D20313AF4
:102D1D00D5FDB3A32C323AD6BBCADBC6B12C333AA0
:102D2D00D6BBB3E4D6B500D6A7B8B6B7BDCABD3AC3
:102D3D002D00313AB6BCCAD52C323AD6BBD3B2B17E
:102D4D00D22C333AD6BBD6BDB1D22C343AD6BBB485
:102D5D00A2D6B5BFA800353AB2BBCAD5D3B2B1D24F
:102D6D002C363AB2BBCAD5D6BDB1D22C373AB2BB8E
:102D7D00CAD5B4A2D6B5BFA800D5D2C1E33A2D00AD
:102D8D00313AC8ABB2BF2C323AD6BDB1D2D5D2C1D1
:102D9D00E32C333AD3B2B1D2D5D2C1E32C343ACEEF
:102DAD00DED5D2C1E300D4CBD3AABFD8D6C62DD49D
:102DBD00CBD3AAC9E8D6C300B7FECEF1C4A3CABD12
:102DCD00C9E8D6C300D4CBD3AABFD8D6C62DB7FE7B
:102DDD00CEF1C4A3CABDC9E8D6C300CDA3D6B900F0
:102DED00BFAACABC00D4CBD3AABFD8D6C62DCDA3FB
:102DFD00D6B9B7FECEF100B3C9B9A62100C3FCC147
:102E0D00EECEDED0A72100D4CBD3AABFD8D6C62D07
:102E1D00BFAACABCB7FECEF100D4CBD3AAD7B4CCCF
:102E2D00ACB2E9D1AF00D2ECB3A3CAFDBEDDB2E9BD
:102E3D00D1AF00CFFACADBD0C5CFA2B2E9D1AF0076
:102E4D00C4A3BFE9D0C5CFA2B2E9D1AF00B2CECAFB
:102E5D00FDB0E6B1BEB2E9D1AF00C9E8B1B8B2E993
:102E6D00D1AF2DD4CBD3AAD7B4CCACB2E9D1AF006E
:102E7D00CDF8C2E7CDA8D0C5D7B4CCAC00C9E8B168
:102E8D00B8D0C5CFA200C9E8B1B8D7B4CCAC00C991
:102E9D00E8B1B8B2E9D1AF2DCDF8C2E7CDA8D0C514
:102EAD00D7B4CCAC00CDA8D0C5D5FDB3A32100CDF2
:102EBD00A8D0C5B9CAD5CF2100C9E8B1B8B2E9D1FA
:102ECD00AF2DC9E8B1B8D0C5CFA200C9E8B1B84996
:102EDD00443A205F5F5F5F5F5F5F5F00C9E8B1B835
:102EED0049503A202D2D2D2E2D2D2D2E2D2D2D2EC3
:102EFD002D2D2D00C9E8B1B8CDF8B9D83A202D2D1A
:102F0D002D2E2D2D2D2E2D2D2D2E2D2D2D00C9E8B7
:102F1D00B1B8D7D3CDF8D1DAC2EB3A202D2D2D2E65
:102F2D002D2D2D2E2D2D2D2E2D2D2D00B3B5D5BEA8
:102F3D0049443A205F5F5F5F00B3B5D5BEB7FECEA3
:102F4D00F1C6F749503A202D2D2D2E2D2D2D2E2D3C
:102F5D002D2D2E2D2D2D00CAB1D6D3CDACB2BDB792
:102F6D00FECEF1C6F749503A2D2D2D2E2D2D2D2E9D
:102F7D002D2D2D2E2D2D2D0054564DC8EDBCFEB0F2
:102F8D00E6B1BEBAC53A5F5F5F5F5F5F5F5F00C965
:102F9D00E8B1B8B2E9D1AF2DC9E8B1B8D7B4CCAC6E
:102FAD0000CEDEB2D9D7F7B9A6C4DC00B7A2CADB12
:102FBD00BACDB3E4D6B500D6BBB7A2CADB00D6BB3B
:102FCD00B3E4D6B500D5D2C1E3C4A3CABD3AD3B2DA
:102FDD00B1D2D5D2C1E300D5D2C1E3C4A3CABD3AA3
:102FED00D6BDB1D2D5D2C1E300D5D2C1E3C4A3CAF7
:102FFD00BD3ACBABB1D2D5D2C1E300D5D2C1E3C47A
:10300D00A3CABD3ACEDED5D2C1E300D6A7B8B6B7B6
:10301D00BDCABD3ACAD5D3B2B1D200D6A7B8B6B7DC
:10302D00BDCABD3ACAD5D6BDB1D200D6A7B8B6B7BE
:10303D00BDCABD3ACBABB1D200D6A7B8B6B7BDCAE3
:10304D00BD3AB4A2D6B5BFA8B9BAC6B100D6A7B815
:10305D00B6B7BDCABD3AB2BBCAD5D3B2B1D200D68E
:10306D00A7B8B6B7BDCABD3AB2BBCAD5D6BDB1D2E7
:10307D0000D6A7B8B6B7BDCABD3AB2BBBFC9B4A2D8
:10308D00D6B5BFA8B9BAC6B100D4CBD3AAD7B4CCE4
:10309D00AC3A5F5F5F5F00D3B2B1D2C4A3BFE9D7D3
:1030AD00B4CCACC2EB3A5F5F5F5F00D6BDB1D2C4AA
:1030BD00A3BFE9D7B4CCACC2EB3A5F5F5F5F5F5F94
:1030CD0000D6BDB1D2D5D2C1E3C4A3BFE9D7B4CC2C
:1030DD00ACC2EB3A5F5F5F5F5F5F00544955C4A3BD
:1030ED00BFE9D7B4CCACC2EB3A5F5F5F5F00B6C14E
:1030FD00D0B4C6F7D7B4CCACC2EB3A5F5F5F5F001C
:10310D00B4F2D3A1BBFAD7B4CCAC3A4F4B00B4F266
:10311D00D3A1BBFAD7B4CCAC3A42414400B2B9B159
:10312D00D2C7AECFE4312049443A5F5F5F5F5F5F46
:10313D005F5F00B2B9B1D2C7AECFE4322049443A95
:10314D005F5F5F5F5F5F5F5F00D5D2C1E3C7AECFEB
:10315D00E4312049443A5F5F5F5F5F5F5F5F00B2BC
:10316D00B9B1D2C7AECFE431D3B2B1D2CAFDC1BF6E
:10317D003A2D2D2D2D2D00B2B9B1D2C7AECFE432DF
:10318D00D3B2B1D2CAFDC1BF3A2D2D2D2D2D00D5F3
:10319D00D2C1E3C7AECFE431D3B2B1D2CAFDC1BF04
:1031AD003A2D2D2D2D2D00D3B2B1D2BBD8CAD5CFEE
:1031BD00E4D3B2B1D2CAFDC1BF3A2D2D2D2D2D00B4
:1031CD00D6BDB1D2C7AECFE449443A5F5F5F5F5F12
:1031DD005F5F5F5F5F00D6BDB1D2C7AECFE4D6BD36
:1031ED00B1D2CAFDC1BF3A2D2D2D2D2D2D2D003162
:1031FD00BAC5D6BDB1D2D5D2C1E3CFE4C0E0D0CDF2
:10320D0049443A5F5F0031BAC5D6BDB1D2D5D2C1FE
:10321D00E3CFE4C2DFBCAD49443A5F5F5F5F5F5F00
:10322D005F5F5F5F0031BAC5D6BDB1D2C7AECFE427
:10323D00B1D2D6D63A31D4AA0031BAC5D6BDB1D2A3
:10324D00C7AECFE4B1D2D6D63A32D4AA0031BAC580
:10325D00D6BDB1D2C7AECFE4B1D2D6D63A35D4AA07
:10326D000031BAC5D6BDB1D2C7AECFE4B1D2D6D634
:10327D003A3130D4AA0031BAC5D6BDB1D2C7AECF1E
:10328D00E4B1D2D6D63A3230D4AA0031BAC5D6BDC1
:10329D00B1D2C7AECFE4B1D2D6D63A3530D4AA002A
:1032AD0031BAC5D6BDB1D2C7AECFE4B1D2D6D63ABA
:1032BD00313030D4AA0031BAC5D6BDB1D2D5D2C1C4
:1032CD00E3CFE4B4E6B1D2C1BF3A2D2D2D2D00D6FA
:1032DD00BDB1D2BBD8CAD5CFE4B4E6B1D2C1BF3AE5
:1032ED002D2D2D2D0041C6B1CFE449443A5F5F5FCE
:1032FD005F5F5F5F5F0042C6B1CFE449443A5F5FF5
:10330D005F5F5F5F5F5F00B7CFC6B1CAFDC1BF3AF8
:10331D002D2D2D2D2D2D00C9E8B1B8B2E9D1AF2D30
:10332D00D7EEBAF3D2BBB1CABDBBD2D700BDBBD2AB
:10333D00D7C0E0D0CD3AB7A2CADBBDBBD2D700BD56
:10334D00BBD2D7CAB1BCE43A202D2D2D2D2F2D2D5A
:10335D002F2D2D2C2D2D3A2D2D3A2D2D00B3B5C6FB
:10336D00B1C0E0D0CD3ABCC6B4CEC6B100B3B5C67F
:10337D00B1C0E0D0CD3AB6A8C6DAC6B100B3B5C675
:10338D00B1C0E0D0CD3AC7AEB0FCC6B100B3B5C642
:10339D00B1BCDBB8F13A202D2D00B3B5C6B1CAFDD5
:1033AD00C1BF3A202D2D00D6A7B8B6B7BDCABD3ABC
:1033BD00D3B2B1D200D6A7B8B6B7BDCABD3AD6BD45
:1033CD00B1D200D6A7B8B6B7BDCABD3ABBECBACF1D
:1033DD0000D6A7B8B6B7BDCABD3AD2F8D0D0BFA8EF
:1033ED0000D6A7B8B6B7BDCABD3AB4A2D6B5BFA868
:1033FD0000CDB6C8EBD3B2B1D2CAFDC1BF3A2D2DA7
:10340D0000CDB6C8EBBDF0B6EED7DCBCC63A2D2D5F
:10341D002D00D0E8D5D2C1E3B5C4BDF0B6EE3A2D3E
:10342D002D00D2F8D0D0BFA8D3E0B6EE28C7B02972
:10343D003A2D2D2D2D00D2F8D0D0BFA8D3E0B6EE69
:10344D0028BAF3293A2D2D2D2D00CAB5BCCAB7A225
:10345D00CADBCAFDC1BF3A2D2D2D2D00CAB5BCCA80
:10346D00D5D2C1E3BDF0B6EE3A2D2D00CAB5BCCA1A
:10347D00D3B2B1D2D5D2C1E3CAFDC1BF3A2D2D0011
:10348D00B4A2D6B5BFA8D3E0B6EE28C7B0293A2D61
:10349D002D2D2D00B4A2D6B5BFA8D3E0B6EE28BA17
:1034AD00F3293A2D2D2D2D00C9E8B1B8B2E9D1AFD0
:1034BD002DB3E4D6B5BDBBD2D700BDBBD2D7C0E0CE
:1034CD00D0CD3AB3E4D6B5BDBBD2D700C6B1BFA8F7
:1034DD0049443A205F5F5F5F5F5F5F5F5F5F00B38F
:1034ED00E4D6B5C7B0D3E0B6EE3A2D2D2D2D2D2D4A
:1034FD0020D4AA00B3E4D6B5BDF0B6EE3A2D2D2DED
:10350D002D2D2D20D4AA00B3E4D6B5BAF3D3E0B651
:10351D00EE3A2D2D2D2D2D2D20D4AA00CDB6C8EB94
:10352D00BDF0B6EED7DCBCC63A202D2D2D2D2D2DA0
:10353D0020B7D600C9E8B1B8B2E9D1AF2DCFFACADC
:10354D00DBD0C5CFA2B2E9D1AF00B7A2CADBBDBBFC
:10355D00D2D7D7DCCAFD3A2D2D2D2D2D2D2D00B313
:10356D00E4D6B5BDBBD2D7D7DCCAFD3A2D2D2D2D56
:10357D002D2D2D00C0DBBCC6B3F6C6B1D7DCCAFD00
:10358D003A2D2D2D2D2D2D2D00C0DBBCC6B7CFC650
:10359D00B1D7DCCAFD3A2D2D2D2D2D2D2D00C0DBE3
:1035AD00BCC6BDD3CAD5D6BDB1D23A2D2D2D2D2D2C
:1035BD002D2D2D2D2D00C0DBBCC6BDD3CAD5D3B24C
:1035CD00B1D23A2D2D2D2D2D2D2D2D2D2D00C0DBD4
:1035DD00BCC6D3B2B1D2D5D2C1E3D7DCCAFD3A2D28
:1035ED002D2D2D2D2D2D2D2D2D00C0DBBCC6D6BD89
:1035FD00B1D2D5D2C1E3BDF0B6EE3A2D2D2D2D2D84
:10360D002D2D2D2D2D00C9E8B1B8B2E9D1AF2DC4A6
:10361D00A3BFE9D0C5CFA200D3B2B1D2C4A3BFE935
:10362D0000D6BDB1D2C4A3BFE900D6BDB1D2D5D2AB
:10363D00C1E3C4A3BFE900B7A2CADBC4A3BFE900BD
:10364D00B6C1D0B4C6F700B4F2D3A1BBFAD7B4CC8F
:10365D00AC00D4CBD3AAD7B4CCACCFD4CABEC6F7AA
:10366D0000555053C4A3BFE900C9E8B1B8B2E9D1C0
:10367D00AF2DD3B2B1D2C4A3BFE900CDA8D0C5B68A
:10368D00CBBFDABAC53A5F00D3B2B1D2C4A3BFE99A
:10369D0049443A5F5F5F5F5F5F5F5F00C8EDBCFEEF
:1036AD00B0E6B1BEBAC53A5F5F5F5F5F5F5F5F0057
:1036BD00D7B4CCACD0C5CFA2D7D6BDDA313A5F5F87
:1036CD005F5F5F5F5F5F00D7B4CCACD0C5CFA2D7D3
:1036DD00D6BDDA323A5F5F5F5F5F5F5F5F00D7B481
:1036ED00CCACD0C5CFA2D7D6BDDA333A5F5F5F5F22
:1036FD005F5F5F5F00D7B4CCACD0C5CFA2D7D6BDCE
:10370D00DA343A5F5F5F5F5F5F5F5F00D7B4CCAC69
:10371D00D0C5CFA2D7D6BDDA353A5F5F5F5F5F5FA9
:10372D005F5F00D7B4CCACD0C5CFA2D7D6BDDA364B
:10373D003A5F5F5F5F5F5F5F5F00D7B4CCACD0C5B2
:10374D00CFA2D7D6BDDA373A5F5F5F5F5F5F5F5F4E
:10375D0000D7B4CCACD0C5CFA2D7D6BDDA383A5F3E
:10376D005F5F5F5F5F5F5F00D7B4CCACD0C5CFA2AA
:10377D00D7D6BDDA393A5F5F5F5F5F5F5F5F00D7B6
:10378D00B4CCACD0C5CFA2D7D6BDDA31303A5F5F5D
:10379D005F5F5F5F5F5F00C9E8B1B8B2E9D1AF2D80
:1037AD00D6BDB1D2C4A3BFE900CAB6B1F0C6F7B059
:1037BD00E6B1BEBAC53A5F2E5F5F00D6BDB1D2C4C9
:1037CD00A3BFE949443A5F5F5F5F5F5F5F5F5F5F24
:1037DD0000D6BDB1D2BBD8CAD5CFE43AC2FA00D615
:1037ED00BDB1D2BBD8CAD5CFE43ACEB4C2FA00D659
:1037FD00BDB1D2C4A3BFE9CDA8D0C5B9CAD5CF003C
:10380D00C9E8B1B8B2E9D1AF2DD6BDB1D2D5D2C1CB
:10381D00E3C4A3BFE900B0E6B1BEBAC53A5F2E5FFF
:10382D005F00D6BDB1D2D5D2C1E3C4A3BFE9D7B431
:10383D00CCACC2EB3A5F5F5F5F0031BAC5D6BDB1AC
:10384D00D2D5D2C1E3CFE4D7B4CCAC3ABFD5003199
:10385D00BAC5D6BDB1D2D5D2C1E3CFE4D7B4CCACC5
:10386D003ABDABBFD50031BAC5D6BDB1D2D5D2C1E7
:10387D00E3CFE4D7B4CCAC3AC2FA0031BAC5D6BD69
:10388D00B1D2D5D2C1E3CFE4B1D2D6D63A31D4AA92
:10389D000031BAC5D6BDB1D2D5D2C1E3CFE4B1D2D4
:1038AD00D6D63A32D4AA0031BAC5D6BDB1D2D5D208
:1038BD00C1E3CFE4B1D2D6D63A35D4AA0031BAC5D8
:1038CD00D6BDB1D2D5D2C1E3CFE4B1D2D6D63A313D
:1038DD0030D4AA0031BAC5D6BDB1D2D5D2C1E3CF4D
:1038ED00E4B1D2D6D63A3230D4AA0031BAC5D6BD5B
:1038FD00B1D2D5D2C1E3CFE4B1D2D6D63A3530D498
:10390D00AA0031BAC5D6BDB1D2D5D2C1E3CFE4B18B
:10391D00D2D6D63A313030D4AA0031BAC5D6BDB1DF
:10392D00D2D5D2C1E3CFE4B4E6B1D2CAFDC1BF3A1C
:10393D005F5F5F5F00D6BDB1D2D5D2C1E3B7CFB166
:10394D00D2CFE4D7B4CCAC3AD5FDB3A300D6BDB13C
:10395D00D2D5D2C1E3B7CFB1D2CFE4D7B4CCAC3A44
:10396D00BDABC2FA00D6BDB1D2D5D2C1E3B7CFB18E
:10397D00D2CFE4D7B4CCAC3AC2FA00D6BDB1D2D5D1
:10398D00D2C1E3B7CFB1D2CFE4B4E6B1D2CAFDC153
:10399D00BF3A5F5F5F5F00D6BDB1D2D5D2C1E3C480
:1039AD00A3BFE9CDA8D0C5B9CAD5CF00C9E8B1B874
:1039BD00B2E9D1AF2DB7A2CADBC4A3BFE900B7A24C
:1039CD00CADBC4A3BFE949443A5F5F5F5F5F5F5FD6
:1039DD005F0041C6B1CFE4B3B5C6B1CAFDC1BF3AB0
:1039ED002D2D2D2D0041C6B1CFE4B6A5B8C73AB9DE
:1039FD00D8B1D50041C6B1CFE4B6A5B8C73AB4F237
:103A0D00BFAA0041C6B1CFE4BBFAB9B9CBF83ACBE6
:103A1D00F8D6B90041C6B1CFE4BBFAB9B9CBF83A83
:103A2D00B4F2BFAA0041C6B1CFE4B5D7B2BFBFAAA9
:103A3D00B9D83AB9D8B1D50041C6B1CFE4B5D7B2EE
:103A4D00BFBFAAB9D83AB4F2BFAA0041C6B1CFE4FC
:103A5D00C8DDC1BF3AD5FDB3A30041C6B1CFE4C89F
:103A6D00DDC1BF3ABDABBFD50041C6B1CFE4C8DDA6
:103A7D00C1BF3ABFD50042C6B1CFE4B3B5C6B1CAD6
:103A8D00FDC1BF3A2D2D2D2D0042C6B1CFE4B6A5F7
:103A9D00B8C73AB9D8B1D50042C6B1CFE4B6A5B8CA
:103AAD00C73AB4F2BFAA0042C6B1CFE4BBFAB9B966
:103ABD00CBF83ACBF8D6B90042C6B1CFE4BBFAB9D0
:103ACD00B9CBF83AB4F2BFAA0042C6B1CFE4B5D72C
:103ADD00B2BFBFAAB9D83AB9D8B1D50042C6B1CF95
:103AED00E4B5D7B2BFBFAAB9D83AB4F2BFAA004263
:103AFD00C6B1CFE4C8DDC1BF3AD5FDB3A30042C600
:103B0D00B1CFE4C8DDC1BF3ABDABBFD50042C6B130
:103B1D00CFE4C8DDC1BF3ABFD500B7CFC6B1CFE442
:103B2D00B3B5C6B1CAFDC1BF3A2D2D2D2D00B7CFEE
:103B3D00C6B1CFE4B6A5B8C73AB9D8B1D500B7CF9D
:103B4D00C6B1CFE4B6A5B8C73AB4F2BFAA00B7CF95
:103B5D00C6B1CFE4BBFAB9B9CBF83ACBF8D6B900B8
:103B6D00B7CFC6B1CFE4BBFAB9B9CBF83AB4F2BF0F
:103B7D00AA00B7CFC6B1CFE4C8DDC1BF3AD5FDB3FA
:103B8D00A300B7CFC6B1CFE4C8DDC1BF3ABDABC24C
:103B9D00FA00B7CFC6B1CFE4C8DDC1BF3AC2FA0053
:103BAD00C9E8B1B8B2E9D1AF2DB6C1D0B4C6F700EE
:103BBD00CDA8D0C5B6CBBFDABAC53A2D00B6C1D0A7
:103BCD00B4C6F749443A5F5F5F5F5F5F5F5F00C8F0
:103BDD00EDBCFEB0E6B1BEBAC53A5F5F5F5F5F5F39
:103BED005F5F5F5F0053414D20B2E5B2DB3120498D
:103BFD00443A5F5F5F5F5F5F5F5F5F5F5F5F00BF07
:103C0D00A8C0E0D0CD3A4D54525F5053414D00BF46
:103C1D00A8C0E0D0CD3A4D54525F4953414D00BF3D
:103C2D00A8C0E0D0CD3A4F43545F5053414D00BF33
:103C3D00A8C0E0D0CD3A4F43545F4953414D00BF2A
:103C4D00A8C0E0D0CDB4EDCEF300CEB4B2E5C8EB54
:103C5D0053414DBFA80053414D20B2E5B2DB322098
:103C6D0049443A5F5F5F5F5F5F5F5F5F5F5F5F000C
:103C7D0053414D20B2E5B2DB332049443A5F5F5FDB
:103C8D005F5F5F5F5F5F5F5F5F0053414D20B2E538
:103C9D00B2DB342049443A5F5F5F5F5F5F5F5F5F18
:103CAD005F5F5F00C9E8B1B8B2E9D1AF2DC6B1BE53
:103CBD00DDB4F2D3A1BBFA00CDA8D0C5B6CBBFDA27
:103CCD00BAC53A5F5F00B4F2D3A1BBFA3AC8B1D618
:103CDD00BD00B4F2D3A1BBFA3ABFA8D6BD00B4F271
:103CED00D3A1BBFA3AB9CAD5CF00B4F2D3A1BBFA6E
:103CFD003AD5FDB3A300B4F2D3A1BBFAB9CAD5CF5F
:103D0D0000C9E8B1B8B2E9D1AF2DD4CBD3AAD7B49D
:103D1D00CCACCFD4CABEC4A3BFE900CFD4CABEC6F3
:103D2D00F73AD5FDB3A300CFD4CABEC6F73AB9CA88
:103D3D00D5CF00D4CBD3AAD7B4CCACCFD4CABEC6C2
:103D4D00F7B9CAD5CF00C9E8B1B8B2E9D1AF2D5591
:103D5D005053C4A3BFE900C9E8B1B8B9A9B5E7D7B5
:103D6D00B4CCACA3BACAD0B5E7B9A9B5E700C9E8D8
:103D7D00B1B8B9A9B5E7D7B4CCACA3BAB5E7B3D848
:103D8D00B9A9B5E700555053B9CAD5CF00C6B1BED4
:103D9D00DDB4F2D3A1BBFA00492F4FB2E2CAD40071
:103DAD00CEACD0DEB2E2CAD42DD6BDB1D2C4A3BF43
:103DBD00E900BDD3CAD5D6BDB1D2B2E2CAD400B2E4
:103DCD00BBBDD3CAD5D6BDB1D2B2E2CAD400D4DD03
:103DDD00B4E6B7B5BBB9B2E2CAD400D4DDB4E6CA15
:103DED00D5BDF8C7AECFE4B2E2CAD400D6BDB1D2CC
:103DFD00C4A3BFE9B8B4CEBB00CEACD0DEB2E2CA2C
:103E0D00D42DBDD3CAD5D6BDB1D200CEACD0DEB285
:103E1D00E2CAD42DB2BBBDD3CAD5D6BDB1D200CE68
:103E2D00ACD0DEB2E2CAD42DD4DDB4E6B7B5BBB9A1
:103E3D0000CEACD0DEB2E2CAD42DD4DDB4E6CAD504
:103E4D00BDF8C7AECFE400CEACD0DEB2E2CAD42D01
:103E5D00D6BDB1D2C4A3BFE9B8B4CEBB00B6CBBFFB
:103E6D00DABAC53A20434F4D205F00CEACD0DEB25A
:103E7D00E2CAD42DD6BDB1D2D5D2C1E3C4A3BFE918
:103E8D0000D6BDB1D2D5D2C1E3CFE4B3F6B3AEB255
:103E9D00E2CAD400D6BDB1D2D5D2C1E3C4A3BFE925
:103EAD00B8B4CEBB00CEACD0DEB2E2CAD42DD6BDF6
:103EBD00B1D2D5D2C1E3CFE4B3F6B3AEB2E2CAD438
:103ECD000031BAC5D6BDB1D2D5D2C1E3CFE4B3F678
:103EDD00B3AED5C5CAFD3A2D2D0032BAC5D6BDB18A
:103EED00D2D5D2C1E3CFE4B3F6B3AED5C5CAFD3A50
:103EFD002D2D00CEACD0DEB2E2CAD42DD6BDB1D2BE
:103F0D00D5D2C1E3C4A3BFE9B8B4CEBB00CEACD00B
:103F1D00DEB2E2CAD42DD3B2B1D2C4A3BFE900B48C
:103F2D00F2BFAACDB6B1D2BFDA00B9D8B1D5CDB6F0
:103F3D00B1D2BFDA00D4ADB1D2B7B5BBB900BBD8E1
:103F4D00CAD5B5BDD5D2C1E3B6B700D3B2B1D2C4CF
:103F5D00A3BFE9B8B4CEBB00CEACD0DEB2E2CAD4BA
:103F6D002DCDB6B1D2D0EDBFC900CEACD0DEB2E210
:103F7D00CAD42DCDB6B1D2BDFBD6B900CEACD0DEF4
:103F8D00B2E2CAD42DD4ADB1D2B7B5BBB900CEAC67
:103F9D00D0DEB2E2CAD42DBBD8CAD5B5BDD5D2C1FB
:103FAD00E3B6B700CEACD0DEB2E2CAD42DD3B2B1F7
:103FBD00D2C4A3BFE9B8B4CEBB00CEACD0DEB2E262
:103FCD00CAD42DB7A2CADBC4A3BFE900C7E5C0EDB3
:103FDD00CDA8B5C00041C6B1CFE4B7A2C6B1D6C118
:103FED00B7CFC6B1CFE40042C6B1CFE4B7A2C6B1D8
:103FFD00D6C1B7CFC6B1CFE400CEACD0DEB2E2CAE7
:10400D00D42DC7E5C0EDCDA8B5C000CEACD0DEB285
:10401D00E2CAD42D41C6B1CFE4B7A2C6B1D6C1B75D
:10402D00CFC6B1CFE400CEACD0DEB2E2CAD42D42C1
:10403D00C6B1CFE4B7A2C6B1D6C1B7CFC6B1CFE432
:10404D0000C3FCC1EEB7A2CBCDB3C9B9A600CEACAF
:10405D00D0DEB2E2CAD42DB6C1D0B4C6F700B6C117
:10406D00C8A1C4A3BFE9D7B4CCAC00B6C1D0B4C607
:10407D00F7B8B4CEBB00CEACD0DEB2E2CAD42DB60A
:10408D00C1C8A1C4A3BFE9D7B4CCAC00C4A3BFE9D8
:10409D00D7B4CCAC3A5F5F5F5F00CEACD0DEB2E29E
:1040AD00CAD42DB6C1D0B4C6F7B8B4CEBB00B8B41F
:1040BD00CEBBB3C9B9A62100B8B4CEBBCAA7B0DC7C
:1040CD002100CEACD0DEB2E2CAD42DC6B1BEDDB475
:1040DD00F2D3A1BBFA00B4F2D3A1BBFAD7B4CCACE6
:1040ED00B2E9D1AF00B4F2D3A1B2E2CAD4D2B300D7
:1040FD00CEACD0DEB2E2CAD42DB4F2D3A1BBFAD786
:10410D00B4CCAC00B6CBBFDABAC53A205F5F00B411
:10411D00F2D3A1BBFAB9A4D7F7C1BCBAC300B4F2AC
:10412D00D3A1BBFAD2ECB3A300B4F2D3A1BBFAD6A0
:10413D00BDD5C5B3E4D7E300B4F2D3A1BBFAC8B182
:10414D00D6BD00CEACD0DEB2E2CAD42DB4F2D3A12E
:10415D00B2E2CAD4D2B300B2D9D7F7B3C9B9A60067
:10416D00CEACD0DEB2E2CAD42D492F4FB2E2CAD4C2
:10417D0000B6CCCAB1B5E3C1C1B3F6C6B1BFDAB5AD
:10418D00C600B6CCCAB1B1A8BEAFC6F7B1A8BEAF16
:10419D0000B4A2D6B5BFA8D7F9536875747465720B
:1041AD00B2E2CAD400B5AFBFA800C9C1CBB8B5E360
:1041BD00C1C1B9A4D7F7D6B8CABEB5C600B9D8B172
:1041CD00D5B9A4D7F7D6B8CABEB5C600CDB6B1D24B
:1041DD00BFDAB2E2CAD400BCECB2E2494FCAE4C8BD
:1041ED00EBD0C5BAC500CEACD0DEB2E2CAD42D54E8
:1041FD004955C4A3BFE9B8B4CEBB00CEACD0DEB236
:10420D00E2CAD42DB6CCCAB1B5E3C1C1B3F6C6B1BD
:10421D00BFDAB5C600CEACD0DEB2E2CAD42DB6CC74
:10422D00CAB1B1A8BEAFC6F7B1A8BEAF00CEACD073
:10423D00DEB2E2CAD42D2DB4A2D6B5BFA8D7F9539C
:10424D00687574746572B2E2CAD400CEACD0DEB2B9
:10425D00E2CAD42D2DB5AFBFA800CEACD0DEB2E2F0
:10426D00CAD42D2DC9C1CBB8B5E3C1C1B9A4D7F7F7
:10427D00D6B8CABEB5C600CEACD0DEB2E2CAD42D19
:10428D00B9D8B1D5B9A4D7F7D6B8CABEB5C600CE80
:10429D00ACD0DEB2E2CAD42DCDB6B1D2BFDAB2E225
:1042AD00CAD400CEACD0DEB2E2CAD42D2D494FCA4D
:1042BD00E4C8EBD0C5BAC500494FB0E5D2ECB3A305
:1042CD0000CEACD0DEB2E2CAD42D494FCAE4C8EB61
:1042DD00D0C5BAC500494E50555431204F46460001
:1042ED00494E50555431204F4E00494E5055543281
:1042FD00204F464600494E50555432204F4E0049EE
:10430D004E50555433204F464600494E5055543368
:10431D00204F4E00494E50555434204F46460049CB
:10432D004E50555434204F4E00494E505554352063
:10433D004F464600494E50555435204F4E00494E7C
:10434D0050555436204F464600494E505554362050
:10435D004F4E00494E50555437204F464600494E5A
:10436D0050555437204F4E00494E50555438204F1C
:10437D00464600494E50555438204F4E00494E5038
:10438D00555439204F464600494E50555439204F0B
:10439D004E00494E5055543130204F464600494E3F
:1043AD005055543130204F4E00494E5055543131F7
:1043BD00204F464600494E5055543131204F4E0046
:1043CD00494E5055543132204F464600494E5055B6
:1043DD00543132204F4E00D5D0D4AEB0B4C5A5CB9C
:1043ED00C9BFAA00D5D0D4AEB0B4C5A5B0B4CFC2A4
:1043FD0000C3C5BFAAB9D8B9D8B1D500C3C5BFAA26
:10440D00B9D8B4F2BFAA00B4A2D6B5BFA8B5BDCE77
:10441D00BB00B4A2D6B5BFA8CEB4B5BDCEBB00CE41
:10442D00ACD0DEB2E2CAD42DD4CBD3AAD7B4CCACA7
:10443D00CFD4CABEC6F700C7EBD1A1D4F1D6B8B65A
:10444D00A8B5C4CFD4CABED0C5CFA23A2D2D00CAAF
:10445D00B1BCE4C9E8D6C300D2BBBFA8CDA8D1E991
:10446D00D6A4B7FECEF1C6F7495000B1BEBBFAC90E
:10447D00E8D6C300CDA8D1B6C9E8D6C300C9E8B106
:10448D00B8C9E8D6C32DCAB1BCE4C9E8D6C300CAC1
:10449D00B1BCE4C9E8D6C33A00C4EA2FD4C22FC8D0
:1044AD00D53A2D2D2D2D2F2D2D2F2D2D00CAB12F80
:1044BD00B7D62FC3EB3A2D2D2F2D2D2F2D2D00C916
:1044CD00E8B1B8C9E8D6C32DC9E8D6C34F4354B730
:1044DD00FECEF1C6F7B5D8D6B7004F43542049509C
:1044ED0020313A2D2D2D2E2D2D2D2E2D2D2D2E2DE8
:1044FD002D2D004F435420495020323A2D2D2D2E75
:10450D002D2D2D2E2D2D2D2E2D2D2D00C3BFBDDA94
:10451D00B2BBC2FAC8FDCEBBCAB1D4DAB8DFCEBBCE
:10452D00B2B93000C9E8B1B8C9E8D6C32DB1BEBB28
:10453D00FAC9E8D6C300C9E8B1B849443A2D2D2DC2
:10454D0000B3B5D5BE49443A2D2D2D2D00C9E8B186
:10455D00B8C9E8D6C32DCDA8D1B6C9E8D6C300C910
:10456D00E8B1B84950BCB0CDF8B9D8C9E8D6C30048
:10457D005343BCB0CAB1D6D3CDACB2BDB7FECEF1AC
:10458D00C6F74950C9E8D6C300C9E8B1B8C9E8D6DD
:10459D00C32DC9E8B1B84950BCB0CDF8B9D8C9E8F8
:1045AD00D6C30054564D2049503A2D2D2D2E2D2D6C
:1045BD002D2E2D2D2D2E2D2D2D0054564D20CDF87B
:1045CD00B9D83A2D2D2D2E2D2D2D2E2D2D2D2E2DC7
:1045DD002D2D0054564D20D7D3CDF8D1DAC2EB3A5C
:1045ED002D2D2D2E2D2D2D2E2D2D2D2E2D2D2D0018
:1045FD00C9E8B1B8C9E8D6C32D5343BCB0CAB1D6CA
:10460D00D3CDACB2BDB7FECEF1C6F74950C9E8D691
:10461D00C30053432049503A2D2D2D2E2D2D2D2ED7
:10462D002D2D2D2E2D2D2D00CAB1D6D3CDACB2BD35
:10463D00B7FECEF1C6F749503A002D2D2D2E2D2D5A
:10464D002D2E2D2D2D2E2D2D2D00CFB5CDB3D6D814
:10465D00C6F400B9D8BBFA00CFB5CDB3B9D8B1D532
:10466D002DCFB5CDB3D6D8C6F400B7A2CBCDB3C937
:10467D00B9A600CFB5CDB3B9D8B1D52DB9D8BBFA40
:10468D0000C4A3BFE9C8EDBCFECFC2D4D800B6C1EB
:10469D00D0B4C6F7B3CCD0F2CFC2D4D800D4CBD3DC
:1046AD00AAD7B4CCACCFD4CABEC6F7CFD4CABEC479
:1046BD00DAC8DD00D4CBD3AAD7B4CCACCFD4CABE24
:1046CD00C6F7C8CECEF1C1D0B1ED00CEACD0DEC3B1
:1046DD00E6B0E500C4A3BFE9C8EDBCFECFC2D4D897
:1046ED002DD3B2B1D2C4A3BFE900C4A3BFE9C8EDB5
:1046FD00BCFECFC2D4D82DB6C1D0B4C6F7B3CCD082
:10470D00F2CFC2D4D800C4A3BFE9C8EDBCFECFC25E
:10471D00D4D82DD4CBD3AAD7B4CCACCFD4CABEC6A3
:10472D00F7CFD4CABEC4DAC8DD00C4A3BFE9C8ED53
:10473D00BCFECFC2D4D82DD4CBD3AAD7B4CCACCF5A
:10474D00D4CABEC6F7C8CECEF1C1D0B1ED00C4A358
:10475D00BFE9C8EDBCFECFC2D4D82DCEACD0DEC3E0
:10476D00E6B0E500CAFDBEDDCEACBBA400CAFDBE01
:10477D00DDB1B8B7DD00CAFDBEDDBBD6B8B400CA29
:10478D00FDBEDDB5BCC8EB00CAFDBEDDB5BCB3F6E4
:10479D0000CAFDBEDDCEACBBA42DCAFDBEDDB1B8D9
:1047AD00B7DD00CAFDBEDDCEACBBA42DCAFDBEDD9E
:1047BD00BBD6B8B400CAFDBEDDCEACBBA42DCAFDC0
:1047CD00BEDDB5BCC8EB00CAFDBEDDCEACBBA42DB5
:1047DD00CAFDBEDDB5BCB3F600C7EBD1A1D4F1C4A3
:1047ED00FAD2AAB5BCB3F6CAFDBEDDC0E0D0CD3A53
:1047FD0000BDBBD2D7CAFDBEDD3A202D20205B31D6
:10480D003ACAC73B323AB7F15D00D2B5CEF1CAFD17
:10481D00BEDD3A202D20205B313ACAC73B323AB774
:10482D00F15D00B5F7CAD4CAFDBEDD3A202D2020BA
:10483D005B313ACAC73B323AB7F15D00C7EBCAE408
:10484D00C8EBC4FAD2AAB5BCB3F6BCC7C2BCB5C4DA
:10485D00C8D5C6DA3A002D2D2D2DC4EA2D2DD4C282
:10486D002D2DC8D500D4CBD3AAB7FECEF12DB8FCD3
:10487D00BBBBC6B1CFE42DD7B0D4D841C6B1CFE4C0
:10488D0000D0C2C6B1CFE449443A5F5F5F5F5F5F5E
:10489D005F5F00C7EBCAE4C8EBD5FDC8B7B5C4C6AA
:1048AD00B1CAFD21C6B1CFE400CEAABFD5CAB1B2FF
:1048BD00B9302E00D4CBD3AAB7FECEF12DB8FCBBA8
:1048CD00BBC6B1CFE42DD7B0D4D842C6B1CFE4002A
:1048DD00D4CBD3AAB7FECEF12DB2B9B3E4D3B2B1D6
:1048ED00D22DB2B9B1D2C7AECFE431B2B9B1D2CABD
:1048FD00FD00CAE4C8EBD6B5B3ACB9FDB2B9B1D2BF
:10490D00D7EEB4F3D6B52100D3A6B2B9B1D2D6C184
:10491D00B2B9B1D2C7AECFE4322100B6C1C8A1C77A
:10492D00AECFE44944B4EDCEF32100B2B9B1D2B467
:10493D00A6C0EDB4EDCEF32100D4CBD3AAB7FECEF5
:10494D00F12DB2B9B3E4D3B2B1D22DB2B9B1D2C750
:10495D00AECFE432B2B9B1D2CAFD00D3A6B2B9B16D
:10496D00D2D6C1B2B9B1D2C7AECFE4312100D4CBCA
:10497D00D3AAB7FECEF12DB2B9B3E4D6BDB1D22DC7
:10498D0031BAC5D6BDB1D2D5D2C1E3CFE4B2B9B13A
:10499D00D200B2B9B1D2B3C9B9A62100D3A6B2B96A
:1049AD00B1D2D6C132BAC5D5D2C1E3CFE42100B25E
:1049BD00B9B1D2B1D2D6D6B4EDCEF32100B2B9B1E0
:1049CD00D2CAA7B0DC2100CAE4C8EBB4EDCEF3A384
:1049DD00ACC7EBD6D8D0C2CAE4C8EB2100CEACD060
:1049ED00DEB2E2CAD42DD6BDB1D2D5D2C1E30031EB
:1049FD00BAC5D5D2C1E3CFE4CAE4C8EBD6B5B3ACE2
:104A0D00B9FDD7EEB4F3D6B5210032BAC5D5D2C1B2
:104A1D00E3CFE4CAE4C8EBD6B5B3ACB9FDD7EEB479
:104A2D00F3D6B52100CAE4C8EBD3D0CEF32CC7EB37
:104A3D00D6D8D0C2CAE4C8EB2100CDA8D1B6CAA73A
:104A4D00B0DC2CC7EBD6D8D0C2CAE4C8EB2100200D
:104A5D00CAFDBEDDB9DCC0ED2DCAFDBEDDB5BCB3F2
:104A6D00F62000C4FACAE4C8EBD6B5B4EDCEF32CEB
:104A7D00C7EBD5FDC8B7CAE4C8EB21003C20B0EFA9
:104A8D00D6FA203E0046313AB0EFD6FABCFC3B00D8
:104A9D0046323AB2E9D1AFCEACD0DEC3E6B0E5B026
:104AAD00E6B1BEBAC53B0046333AC7A9CDCBBCFC77
:104ABD003B0046343AB8B4CEBBBCFC3B0046353A5D
:104ACD00CDCBB8F13B0046363AC7E5BFD53B0046E6
:104ADD00373AD6F7B2CBB5A53B0046383ACAD7D24E
:104AED00B33B0046393AC4A9D2B33B00BBD8CDCBBA
:104AFD00BCFC3AB7B5BBD8C9CFBCB6B2CBB5A53B9C
:104B0D0000BCFDCDB7BCFC3AC3BFD2BBC6C1B5C45A
:104B1D00C3BFD2BBD0D0B5C4D1A1D4F1BCFC3B0036
:104B2D004E554DBCFC3ACAFDD7D6D3EBBCFDCDB727
:104B3D00C7D0BBBBBCFC3B003C204D5450B9CCBCDA
:104B4D00FEB0E6B1BEB2E9D1AF203E0054564DCE17
:104B5D00ACD0DEC3E6B0E5B9CCBCFEB0E6B1BEBAB2
:104B6D00C53A56302E392E3600D6D0B9FAC8FDD0FA
:104B7D00C75344530053414D53554E47205344534F
:104B8D00204348494E4100D4B1B9A4BFA8BAC53A93
:104B9D0031323334353600C3DCC2EB3A2D2D2D2D99
:104BAD002D2D0000000000040C1C3C7C3C1C0C0452
:104BBD000000000000081C3E7FFF000000FF7F3E4C
:104BCD001C08000000000010189C1E1F1E9C1810D1
:104BDD00000000FFFFFFFF010101020304050607AE
:104BED000801020304050601020304050601010282
:104BFD0003040101010201010101020101FFFF0195
:104C0D00FF01010201020304050102030102030475
:104C1D00050607080102030405060708010203043F
:104C2D000501020101010102030405010203010254
:104C3D00010201020304050607080901010203042C
:104C4D00FF01010101FF01010102010101FF01FF4E
:104C5D0001FF0102010203040501020304FF01012A
:034C6D0001FF0143
:10C8FD0020004CC200E4900B1EF0FF12C6A912CC12
:10C90D006D7FF47E0112CBE012CC6D7BFF7A27791F
:10C91D006D12CD1F900040EFF0900B1EE0FF9000C8
:10C92D003D74FFF0A37427F0A3746DF0E4FBFD12CA
:10C93D00C9EC7BFF7A2779757D297FF312CD5C22B7
:10B1BC0030000302B24FD200E4900B1EF0FF12C617
:10B1CC00A97E017F047DFF7B017A077900126793CA
:10B1DC007BFF7A4B79767D297F3212CD5C7BFF7AAF
:10B1EC002779897D0A7F5C12CD5C12CC6D7FF47E51
:10B1FC000112CBE012CC6D7BFF7A27799BE4900097
:10B20C001FF07D2C7FF512CD847BFF7A2779ABE480
:10B21C00900028F07D2C7FF612CD93E4900700F07F
:10B22C00A3F090070204F0A3F090071174F0F0A3C0
:10B23C007404F0E4A3F0900712E0FF1274AFE4FF83
:04B24C001271F22267
:10A0D300780D7C007D017BFF7A4B79E07E007F0663
:10A0E30012645430000302A18DD200E4900B1EF0E1
:10A0F300FF12C6A97E017F047DFF7B017A077900E9
:10A103001267937BFF7A4B79767D297F3212CD5C80
:10A113007BFF7A2779897D0A7F5C12CD5C12CC6D37
:10A123007FF47E0112CBE012CC6DE4900700F0A324
:10A13300F090070204F0A3F090071174F0F0A374F9
:10A1430004F0E4A3F0900712E0FF1274AFE4FF12EF
:10A1530071F27BFF7A2779B7E4900028F07D2C7F9A
:10A16300F512CD937BFF7A2779AB9000287406F024
:10A173007D2C7FF612CD9378047C077D017B017AD9
:0AA1830000790D7E007F061264547F
:01A18D0022AF
:105A2F00780F7C007D017BFF7A4B79E67E007F0843
:105A3F001264549000197401F0A37400F0A3740F52
:105A4F00F0E4FF74202FF582E4340BF583E0D39458
:105A5F001050050FEFB410EBEFC394074003025B38
:105A6F00E09000277401F0A312956DE4900017F0F9
:105A7F00A3F0900017E0FFC39406502774202FF572
:105A8F0082E4340BF583E0FF900018E0FE04F0741D
:105A9F00042EF582E43407F583EFF0900017E0044D
:105AAF00F080CF900B1EE0FF7E007C017D0412641E
:105ABF00B9740F2FF974083EA801FC7D017B017AA0
:105ACF000779007E017F041264547BFF7A2779C720
:105ADF007D307FF012CD5CE4900018F0900018E05C
:105AEF00FF2404F582E43407F583E0C39464400394
:105AFF00025F13EF94054003025F13900018E0FF5D
:105B0F002404F582E43407F583E0900017F0E014E5
:105B1F00B408004003025BC7905B3575F003A4C562
:105B2F008325F0C58373025B4D025B59025B6802EC
:105B3F005B77025B86025B95025BA4025BB3EF248B
:105B4F00F1FF7BFF7A2779D28067900018E024F16C
:105B5F00FF7BFF7A2779DB8058900018E024F1FF54
:105B6F007BFF7A2779E48049900018E024F1FF7BCE
:105B7F00FF7A2779ED803A900018E024F1FF7BFF40
:105B8F007A2779F6802B900018E024F1FF7BFF7ABB
:105B9F002779FF801C900018E024F1FF7BFF7A2803
:105BAF007908800D900018E024F1FF7BFF7A2879A7
:105BBF00177D2C12CD5C8010900018E02404F58224
:105BCF00E43407F58374FFF0900018E004F0025AF4
:105BDF00EB9000277402F0A31412956DE490001758
:105BEF00F0A3F0900017E0FFC39406502C74202F01
:105BFF00F582E4340BF583E0FFC3946450139000F7
:105C0F0018E0FE04F074042EF582E43407F583EFF8
:105C1F00F0900017E004F080CA900B1EE0FF7E00AA
:105C2F007C017D041264B9740F2FF974083EA8012A
:105C3F00FC7D017B017A0779007E017F0412645499
:105C4F007BFF7A2779C77D307FF012CD5CE490001F
:105C5F0018F0900018E0FF2404F582E43407F58370
:105C6F00E0C394644003025D56EF94054003025D68
:105C7F0056900018E0FF2404F582E43407F583E022
:105C8F00900017F0E014B408004003025D3D905CF3
:105C9F00AB75F003A4C58325F0C58373025CC30203
:105CAF005CCF025CDE025CED025CFC025D0B025D10
:105CBF001A025D29EF24F1FF7BFF7A2779D28067E3
:105CCF00900018E024F1FF7BFF7A2779DB80589052
:105CDF000018E024F1FF7BFF7A2779E480499000D8
:105CEF0018E024F1FF7BFF7A2779ED803A900018B6
:105CFF00E024F1FF7BFF7A2779F6802B900018E0E4
:105D0F0024F1FF7BFF7A2779FF801C900018E02495
:105D1F00F1FF7BFF7A287908800D900018E024F1BD
:105D2F00FF7BFF7A2879177D2C12CD5C80109000B5
:105D3F0018E02404F582E43407F58374FFF0900033
:105D4F0018E004F0025C61900B26E0C394644003FA
:105D5F00025F139000277402F0A3F0900019E0FB8C
:105D6F00A3E0FAA3E02406F9E43AFA900029EBF055
:105D7F00A3EAF0A3E9F0900017E024FA90002CF0CA
:105D8F00A374F1F0A37403F0A374FFF07B017A0006
:105D9F007D017F0112959A9000177406F0E4A3F02D
:105DAF00900017E0FFC39408502C74202FF582E465
:105DBF00340BF583E0FFC394645013900018E0FE9A
:105DCF0004F074042EF582E43407F583EFF09000AD
:105DDF0017E004F080CA900B1EE0FF7E007C017D6F
:105DEF00041264B9740F2FF974083EA801FC7D01E9
:105DFF007B017A0779007E017F041264547BFF7A5E
:105E0F002779C77D307FF012CD5CE4900018F090B9
:105E1F000018E0FF2404F582E43407F583E0C3940F
:105E2F00644003025F13EF94054003025F13900079
:105E3F0018E0FF2404F582E43407F583E09000179F
:105E4F00F0E014B408004003025EFA905E6875F04B
:105E5F0003A4C58325F0C58373025E80025E8C02A6
:105E6F005E9B025EAA025EB9025EC8025ED7025E48
:105E7F00E6EF24F1FF7BFF7A2779D2806790001835
:105E8F00E024F1FF7BFF7A2779DB8058900018E040
:105E9F0024F1FF7BFF7A2779E48049900018E024F2
:105EAF00F1FF7BFF7A2779ED803A900018E024F11B
:105EBF00FF7BFF7A2779F6802B900018E024F1FF03
:105ECF007BFF7A2779FF801C900018E024F1FF7B7D
:105EDF00FF7A287908800D900018E024F1FF7BFFEE
:105EEF007A2879177D2C12CD5C8010900018E02451
:105EFF0004F582E43407F58374FFF0900018E00492
:075F0F00F0025E1E02968500
:10A51000780D7C007D017BFF7A4B79EE7E007F0613
:10A520001264549000137401F0A37400F0A3740D2E
:10A53000F09000277401F0A3F0900013E0F9A3E07D
:10A54000FAA3E0900029C9F0A3EAF0A3E9F0A3740C
:10A5500006F0A374F1F0A37403F0A374FFF07B156D
:10A560001295957BFF7A2779D27D307FF012CD5CF2
:10A570007BFF7A2879227D2C7FF112CD5C7BFF7ADC
:10A5800028792B7D2C7FF212CD5C7BFF7A287938DD
:10A590007D2C7FF312CD5C7BFF7A2879457D2C7F63
:10A5A000F412CD5C7BFF7A28794E7D2C7FF512CD9D
:10A5B0005C7BFF7A2879577D2C7FF612CD5C029662
:01A5C0008515
:10A18E00780D7C007D017BFF7A4B79F47E007F0693
:10A19E001264549000137401F0A37400F0A3740DB4
:10A1AE00F09000277401F0A3F0900013E0F9A3E003
:10A1BE00FAA3E0900029C9F0A3EAF0A3E9F0A37492
:10A1CE0006F0A374F1F0A37403F0A374FFF07BA563
:10A1DE007A01E4FDFF12959A7BFF7A28795C7D3037
:10A1EE007FF012CD5C7BFF7A28796E7D2C7FF11289
:10A1FE00CD5C7BFF7A2879787D2C7FF212CD5C7B4B
:10A20E00FF7A2879827D2C7FF312CD5C7BFF7A2832
:10A21E00798C7D2C7FF412CD5C7BFF7A2879967D2C
:10A22E002C7FF512CD5C7BFF7A2879A17D2C7FF6F1
:06A23E0012CD5C029685C2
:1099120090000DEEF0A3EFF04E701390001E04F0D5
:10992200A3F0A374F1F0A37405F07BE5802E900000
:109932000DE07004A3E0640190001E701004F0A317
:10994200F0A374F1F0A37405F07BE7800F7401F0CB
:10995200A3F0A374F1F0A37405F07BE912BDFA90B1
:10996200000DE07002A3E070087BFF7A2879AC80DA
:109972001890000DE07004A3E064017BFF70067A8A
:109982002879BF80047A2879D27D307FF012CD5CAD
:10999200900107E07BFF701C7A2879E690001F0493
:1099A200F07D2C7FF112CD847BFF7A2879F67D2C15
:1099B2007FF280087A2979027D2C7FF112CD5C90AA
:1099C2000B1EE0FF7E007C017D041264B9740F2F30
:1099D200F974083EA801FC7D017B017A0779007EBB
:0999E200017F0412645402968511
:10982F00781A7C007D017BFF7A4B79FA7E007F01ED
:10983F0012645490001B7401F0A37400F0A3741A07
:10984F00F09000277401200D2BF0A3F090001BE087
:10985F00F9A3E0FAA3E0900029C9F0A3EAF0A3E985
:10986F00F0A37401F0A374F0F0A37404F0E4A3F078
:10987F007BE68029F0A3F090001BE0F9A3E0FAA3A8
:10988F00E0900029C9F0A3EAF0A3E9F0A37401F076
:10989F00A374F0F0A37404F0E4A3F07BE87A20FD46
:1098AF00FF12959A7BFF200D137A29790C7D307F5B
:1098BF00F012CD5C7BFF7A29791F80117A297932DA
:1098CF007D307FF012CD5C7BFF7A297945E49000E3
:1098DF0028F07D2C7FF112CD93900B1EE0FF7E00C0
:1098EF007C017D041264B9740F2FF974083EA8012E
:1098FF00FC7D017B017A0779007E017F041264549D
:03990F0002968538
:10C0300090001E7401F0A3F0A374F1F0A37405F056
:10C040007BEA12BDFA7BFF7A2979587D307FF012A6
:10C05000CD5C900107E07BFF70127A29796C90002B
:10C060001F04F07D2C7FF112CD84800B7A29790298
:10C070007D2C7FF112CD5C900B1EE0FF7E007C01D9
:10C080007D041264B9740F2FF974083EA801FC7D79
:10C09000017B017A0779007E017F041264540296C5
:01C0A000851A
:10AEC000780D7C007D017BFF7A4B79FB7E007F044F
:10AED0001264549000117401F0A37400F0A3740D77
:10AEE000F09000277401F0A3F0900011E0F9A3E0C6
:10AEF000FAA3E0900029C9F0A3EAF0A3E9F0A37453
:10AF000004F0A374F1F0A37403F0A374FFF07BA624
:10AF10007A01E4FDFF12959A7BFF7A29797E7D30D4
:10AF20007FF012CD5C7BFF7A2979947D2C7FF11222
:10AF3000CD5C7BFF7A2979A27D2C7FF212CD5C7BE0
:10AF4000FF7A2979B07D2C7FF312CD5C7BFF7A29C3
:0CAF500079BE7D2C7FF412CD5C0296854A
:10A9100090001E7401F0A3F0A374F1F0A37405F08D
:10A920007BF912BDFA7BFF7A2979CC7D307FF0125A
:10A93000CD5C900107E0240F601B1460201460259B
:10A9400014602A14602F24F6603314703D7BFF7A64
:10A950002979E3802E7BFF7A2979EF80267BFF7AA5
:10A960002979FB801E7BFF7A2A790780167BFF7A84
:10A970002A7910800E7BFF7A2A792780067BFF7A5E
:10A980002979027D2C7FF112CD5C900B1EE0FF7EB9
:10A99000007C017D041264B9740F2FF974083EA87D
:10A9A00001FC7D017B017A0779007E017F0412643E
:04A9B0005402968532
:10ACE300781A7C007D017BFF7A4B79FF7E007F0120
:10ACF30012645490001B7401F0A37400F0A3741A3F
:10AD0300F09000277401F0A3F090001BE0F9A3E09A
:10AD1300FAA3E0900029C9F0A3EAF0A3E9F0A37431
:10AD230001F0A374F0F0A37404F0E4A3F07BFA7AC7
:10AD330020FDFF12959A7BFF7A2A79417D307FF0BF
:10AD430012CD5C7BFF7A2A7958E4900028F07D309D
:10AD53007FF112CD93900B1EE0FF7E007C017D04FA
:10AD63001264B9740F2FF974083EA801FC7D017BAE
:0FAD7300017A0779007E017F04126454029685ED
:10A9B40090001E7401F0A3F0A374F1F0A37405F0E9
:10A9C4007BFB12BDFA7BFF7A2A796D7D307FF01212
:10A9D400CD5C900107E0240F601B146020146025F7
:10A9E40014602A14602F24F6603314703D7BFF7AC0
:10A9F4002979E3802E7BFF7A2979EF80267BFF7A01
:10AA04002979FB801E7BFF7A2A798480167BFF7A62
:10AA14002A7910800E7BFF7A2A792780067BFF7AB9
:10AA24002979027D2C7FF112CD5C900B1EE0FF7E14
:10AA3400007C017D041264B9740F2FF974083EA8D8
:10AA440001FC7D017B017A0779007E017F04126499
:04AA5400540296858D
:10AD8200781A7C007D017BFF7A4C79007E007F017E
:10AD920012645490001B7401F0A37400F0A3741A9F
:10ADA200F09000277401F0A3F090001BE0F9A3E0FB
:10ADB200FAA3E0900029C9F0A3EAF0A3E9F0A37492
:10ADC20001F0A374F0F0A37404F0E4A3F07BFC7A26
:10ADD20020FDFF12959A7BFF7A2A798D7D307FF0D4
:10ADE20012CD5C7BFF7A2A79A4E4900028F07D30B2
:10ADF2007FF112CD93900B1EE0FF7E007C017D045B
:10AE02001264B9740F2FF974083EA801FC7D017B0E
:0FAE1200017A0779007E017F041264540296854D
:10B86A00780D7C007D017BFF7A4C79017E007F0296
:10B87A0012645490000F7401F0A37400F0A3740DC5
:10B88A00F09000277401F0A3F090000FE0F9A3E014
:10B89A00FAA3E0900029C9F0A3EAF0A3E9F0A3749F
:10B8AA0002F0A374F1F0A37403F0A374FFF07BA772
:10B8BA007A01E4FDFF12959A7BFF7A2A79B97D30E5
:10B8CA007FF012CD5C7BFF7A2A79CF7D2C7FF11233
:10B8DA00CD5C7BFF7A2A79D87D2C7FF212CD5C026F
:02B8EA00968541
:10A66E0090001E7401F0A3F0A374F1F0A37405F032
:10A67E007B0D7A21E4FDFF12BDFF7BFF7A2A79E57F
:10A68E007D307FF012CD5C900107E0240F601B142B
:10A69E00602014602514602A14602F24F660331491
:10A6AE00703D7BFF7A2979E3802E7BFF7A2979EF43
:10A6BE0080267BFF7A2979FB801E7BFF7A2A790719
:10A6CE0080167BFF7A2A7984800E7BFF7A2A791096
:10A6DE0080067BFF7A2979027D2C7FF112CD5C906A
:10A6EE000B1EE0FF7E007C017D041264B9740F2FF7
:10A6FE00F974083EA801FC7D017B017A0779007E82
:09A70E00017F04126454029685D7
:10841200900107E0600302857890001E7402F0A3C9
:1084220014F0A374F1F0A37405F07B0E7A21E4FD3D
:10843200FF12BDFF7BFF7A2A79FD7D307FF012CDDE
:108442005C7BFF7A2B791790001F7401F07D2C7FE3
:10845200F112CD847BFF7A2B792D90001F7406F0E8
:108462007D2C7FF212CD847BFF7A2B794390001F03
:10847200740BF07D2C7FF312CD847BFF7A2B79591C
:1084820090001F7410F07D2C7FF412CD847BFF7A54
:108492002B796F90001F7415F07D2C7FF512CD841F
:1084A2007BFF7A2B798590001F741AF07D2C7FF662
:1084B20012CD84900B1EE0FF7E007C017D041264CD
:1084C200B9740F2FF974083EA801FC7D017B017A73
:1084D2000779007E017F0412645490001E7402F03A
:1084E200A3F0A374F1F0A37405F07B0E7A217D0151
:1084F2007F0112BDFF7BFF7A2A79FD7D307FF0126A
:10850200CD5C7BFF7A2B799B90001F741FF07D2C32
:108512007FF112CD847BFF7A2B79B190001F7424F6
:10852200F07D2C7FF212CD847BFF7A2B79C79000ED
:108532001F7429F07D2C7FF312CD847BFF7A2B7977
:10854200D990001F7431F07D2C7FF412CD847BFF13
:108552007A2B79EE90001F7437F07D2C7FF512CDC7
:10856200847BFF7A2C790090001F743FF07D2C7F72
:10857200F612CD84805490001E7401F0A3F0A3740F
:10858200F1F0A37405F07B0E7A21E4FDFF12BDFF2A
:108592007BFF7A2A79FD7D307FF012CD5C90010756
:1085A200E0240E601024F36014240E701D7BFF7A09
:1085B2002C7915800E7BFF7A2C792180067BFF7A3D
:0E85C2002C79317D2C7FF112CD5C12965E2259
:10BE6000780D7C007D017BFF7A4C79037E007F0199
:10BE700012645490000E7401F0A37400F0A3740DCA
:10BE8000F09000277401F0A3F090000EE0F9A3E019
:10BE9000FAA3E0900029C9F0A3EAF0A3E9F0A374A3
:10BEA00001F0A374F1F0A37403F0A374FFF07BA876
:10BEB0007A01E4FDFF12959A7BFF7A2C793E7D3062
:10BEC0007FF012CD5C7BFF7A2C79507D2C7FF112B4
:05BED000CD5C02968527
:10A2F900780D7C007D017BFF7A4C79047E007F021A
:10A3090012645490000F7401F0A37400F0A3740D4B
:10A31900F09000277401F0A3F090000FE0F9A3E09A
:10A32900FAA3E0900029C9F0A3EAF0A3E9F0A37425
:10A3390002F0A374F0F0A37404F0E4A3F07421FB19
:10A34900FAE4FDFF12959A7BFF7A2C79627D307FC2
:10A35900F012CD5C7BFF7A2C797DE4900028F07DAA
:10A36900307FF112CD937BFF7A2C79979000287476
:10A3790003F07D307FF212CD93900B1EE0FF7E003B
:10A389007C017D041264B9740F2FF974083EA80189
:10A39900FC7D017B017A0779007E017F04126454F8
:03A3A90002968594
:10C0A10090001E7401F0A3F0A374F1F0A37405F0E5
:10C0B1007BA97A01E4FDFF12BDFF7BFF7A2C79B2E7
:10C0C1007D307FF012CD5C900107E07BFF70067A36
:10C0D1002C79C480047A2C79CE7D2C7FF112CD5C31
:10C0E100900B1EE0FF7E007C017D041264B9740F89
:10C0F1002FF974083EA801FC7D017B017A077900C4
:0AC101007E017F041264540296854B
:10C10B0090001E7401F0A3F0A374F1F0A37405F07A
:10C11B007BAA7A01E4FDFF12BDFF7BFF7A2C79D855
:10C12B007D307FF012CD5C900107E07BFF70067ACB
:10C13B002C79E680047A2979027D2C7FF112CD5C73
:10C14B00900B1EE0FF7E007C017D041264B9740F1E
:10C15B002FF974083EA801FC7D017B017A07790059
:0AC16B007E017F04126454029685E1
:10BC7300780D7C007D017BFF7A4C79067E007F0284
:10BC830012645490000F7401F0A37400F0A3740DB8
:10BC9300F09000277401F0A3F090000FE0F9A3E007
:10BCA300FAA3E0900029C9F0A3EAF0A3E9F0A37492
:10BCB30002F0A374F1F0A37403F0A374FFF07B16F6
:10BCC3001295957BFF7A2779DB7D307FF012CD5C6F
:10BCD3007BFF7A2C79F07D2C7FF112CD5C7BFF7A90
:0DBCE3002C79F97D2C7FF212CD5C02968544
:109D1A00781A7C007D017BFF7A4C79087E007F06E9
:109D2A001264549000207401F0A37400F0A3741A12
:109D3A00F09000277401F0A3F0900020E0F9A3E06E
:109D4A00FAA3E0900029C9F0A3EAF0A3E9F0A3740A
:109D5A0006F0A374F0F0A37404F0E4A3F07BB97ADC
:109D6A0001FDFF12959A7BFF7A2D79027D307FF0F3
:109D7A0012CD5C7BFF7A2D7914E4900028F07D30B7
:109D8A007FF112CD937BFF7A2D79349000287401EC
:109D9A00F07D307FF212CD937BFF7A2D793F7D30B3
:109DAA007FF312CD5C7BFF7A2D79637D307FF412CD
:109DBA00CD5C7BFF7A2D79869000287402F07D3085
:109DCA007FF512CD937BFF7A2D798D7D307FF60258
:029DDA00CD5C5E
:10BED500780D7C007D017BFF7A4C790E7E007F0119
:10BEE50012645490000E7401F0A37400F0A3740D55
:10BEF500F09000277401F0A3F090000EE0F9A3E0A4
:10BF0500FAA3E0900029C9F0A3EAF0A3E9F0A3742D
:10BF150001F0A374F1F0A37403F0A374FFF07BBAEE
:10BF25007A01E4FDFF12959A7BFF7A2D79B37D3076
:10BF35007FF012CD5C7BFF7A2D79C57D2C7FF112C8
:05BF4500CD5C029685B1
:10B8EC00780D7C007D017BFF7A4C790F7E007F0206
:10B8FC0012645490000F7401F0A37400F0A3740D43
:10B90C00F09000277401F0A3F090000FE0F9A3E091
:10B91C00FAA3E0900029C9F0A3EAF0A3E9F0A3741C
:10B92C0002F0A374F1F0A37403F0A374FFF07B890D
:10B93C007A22E4FDFF12959A7BFF7A2D79D27D3025
:10B94C007FF012CD5C7BFF7A2D79E87D2C7FF11294
:10B95C00CD5C7BFF7A2D79ED7D2C7FF212CD5C02D4
:02B96C009685BE
:10C1750090001E7401F0A3F0A374F1F0A37405F010
:10C185007BB57AB2E4FDFF12BDFF7BFF7A2D79F214
:10C195007D307FF012CD5C900107E07BFF70067A61
:10C1A5002E790480047A2E790A7D307FF112CD5CD8
:10C1B500900B1EE0FF7E007C017D041264B9740FB4
:10C1C5002FF974083EA801FC7D017B017A077900EF
:0AC1D5007E017F0412645402968577
:10C1DF0090001E7401F0A3F0A374F1F0A37405F0A6
:10C1EF007BB67AB2E4FDFF12BDFF7BFF7A2E791486
:10C1FF007D307FF012CD5C900107E07BFF70067AF7
:10C20F002E790480047A2E790A7D307FF112CD5C6D
:10C21F00900B1EE0FF7E007C017D041264B9740F49
:10C22F002FF974083EA801FC7D017B017A07790084
:0AC23F007E017F041264540296850C
:10AA5800780D7C007D017BFF7A4C79117E007F05A3
:10AA68001264549000127401F0A37400F0A3740DE2
:10AA7800F09000277401F0A3F0900012E0F9A3E031
:10AA8800FAA3E0900029C9F0A3EAF0A3E9F0A374BF
:10AA980005F0A374F1F0A37403F0A374FFF07B171F
:10AAA8001295957BFF7A2779E47D307FF012CD5C93
:10AAB8007BFF7A2E79267D2C7FF112CD5C7BFF7A85
:10AAC8002E79337D2C7FF212CD5C7BFF7A2E794074
:10AAD8007D2C7FF312CD5C7BFF7A2E794D7D2C7F08
:10AAE800F412CD5C7BFF7A2E795A7D2C7FF512CD3E
:04AAF8005C029685E1
:10B37300780D7C007D017BFF7A4C79167E007F037C
:10B383001264549000107401F0A37400F0A3740DC0
:10B39300F09000277401F0A3F0900010E0F9A3E00F
:10B3A300FAA3E0900029C9F0A3EAF0A3E9F0A3749B
:10B3B30003F0A374F1F0A37403F0A374FFF07BCD47
:10B3C3007A01E4FDFF12959A7BFF7A2E79677D302F
:10B3D3007FF012CD5C7BFF7A2E797D7D2C7FF1127D
:10B3E300CD5C7BFF7A2E798A7D2C7FF212CD5C7B3C
:0FB3F300FF7A2E79937D2C7FF312CD5C02968525
:10C45B0090001E7401F0A3F0A374F1F0A37405F027
:10C46B00FB7A24E4FDFF12BDFF7BFF7A2E799C7DC6
:10C47B00307FF012CD5C900107E07BFF70067A2EC7
:10C48B0079B280047A2E79BC7D2C7FF112CD5C9031
:10C49B000B1EE0FF7E007C017D041264B9740F2F2C
:10C4AB00F974083EA801FC7D017B017A0779007EB7
:09C4BB00017F041264540296850D
:108B790090001E7402F0A314F0A374F1F0A374051D
:108B8900F07B067A24E4FDFF12BDFF7BFF7A2E7984
:108B9900C67D307FF012CD5C7BFF7A2E79D8E490C8
:108BA900001FF07D307FF112CD847BFF7A2E79E9A9
:108BB90090001F7408F07D307FF212CD847BFF7A1C
:108BC9002F790190001F7414F07D307FF312CD844A
:108BD9007BFF7A2F791B90001F7420F07D307FF482
:108BE90012CD847BFF7A2F793990001F742CF07D88
:108BF900307FF512CD847BFF7A2F794690001F7460
:108C090030F0FD7FF612CD84900B1EE0FF7E007CD4
:108C1900017D041264B9740F2FF974083EA801FC90
:108C29007D017B017A0779007E017F0412645490EB
:108C3900001E7402F0A3F0A374F1F0A37405F07B95
:108C4900067A247D017F0112BDFF7BFF7A2E79C64A
:108C59007D307FF012CD5C7BFF7A2F796490001F05
:108C6900743CF07D307FF112CD847BFF7A2F7985BA
:108C790090001F7448F07D307FF212CD84900B1E56
:108C8900E0FF7E007C017D041264B9740F2FF97432
:108C9900083EA801FC7D017B017A0779007E017FEE
:078CA90004126454029685D9
:105F1600900010EFF060030261E890001E7405F037
:105F2600A37401F0A374F1F0A37405F07B077A243F
:105F3600E4FDFF12BDFF7BFF7A2F799C7D307FF059
:105F460012CD5C900107E0240F601A14601F1460E4
:105F56000C240370257BFF7A2F79AE80167BFF7A9F
:105F66002F79B9800E7BFF7A2F79C480067BFF7A62
:105F76002F79CB7D307FF112CD5C900108E0240EA5
:105F8600601314601824F4601C240E70257BFF7ABD
:105F96002F79D280167BFF7A2F79E4800E7BFF7AE9
:105FA6002F79F680067BFF7A3079087D307FF212F2
:105FB600CD5C900109E0240FB407005060905FD1DA
:105FC60075F003A4C58325F0C58373025FE6025FFF
:105FD600EE025FF6025FFE02600602600E026016C7
:105FE6007BFF7A307918802E7BFF7A3079288026DD
:105FF6007BFF7A307938801E7BFF7A3079468016AF
:106006007BFF7A30795A800E7BFF7A30796C800676
:106016007BFF7A30797E7D307FF312CD5C7BFF7A11
:1060260030799690001F7403F07D307FF412CD8492
:106036007BFF7A3079A490001F7407F07D307FF5DE
:1060460012CD847BFF7A3079B890001F740BF07DF7
:10605600307FF612CD84900B1EE0FF7E007C017D22
:10606600041264B9740F2FF974083EA801FC7D016F
:106076007B017A0779007E017F0412645490001E2A
:106086007405F0A37402F0A374F1F0A37405F07B19
:10609600077A247D017F0112BDFF7BFF7A2F799C51
:1060A6007D307FF012CD5C7BFF7A3079CE90001F79
:1060B6007411F07D307FF112CD847BFF7A3079E860
:1060C60090001F7415F07D307FF212CD847BFF7A2D
:1060D6003079FB90001F7419F07D307FF312CD8468
:1060E600900124E07BFF70067A31790D80047A31C5
:1060F600791B7D307FF412CD5C7BFF7A31792A9053
:10610600001F742BF07D307FF512CD847BFF7A3132
:10611600794090001F7433F07D307FF612CD849065
:106126000B1EE0FF7E007C017D041264B9740F2F04
:10613600F974083EA801FC7D017B017A0779007E8F
:10614600017F0412645490001E7405F0A37403F0DA
:10615600A374F1F0A37405F07B077A247D027F0215
:1061660012BDFF7BFF7A2F799C7D307FF012CD5CCC
:106176007BFF7A31795690001F743BF07D307FF1BA
:1061860012CD847BFF7A31796C90001F744BF07DC1
:10619600307FF212CD847BFF7A31798490001F74B0
:1061A60050F07D307FF312CD847BFF7A31799C905D
:1061B600001F7455F07D307FF412CD847BFF7A3159
:1061C60079B490001F745FF07D307FF512CD847B2B
:1061D600FF7A3179CD90001F7469F07D307FF60229
:1061E600637D900010E06401600302638390001EEB
:1061F6007405F0A314F0A374F1F0A37405F07B0703
:106206007A24E4FDFF12BDFF7BFF7A2F799C7D3057
:106216007FF012CD5C7BFF7A3179E390001F7473B7
:10622600F07D307FF112CD847BFF7A3179FC9000CE
:106236001F747AF07D307FF212CD847BFF7A32793B
:106246001390001F747CF07D307FF312CD84900193
:1062560099E024CFB40700506090626D75F003A4F6
:10626600C58325F0C5837302628202628A02629246
:1062760002629A0262A20262AA0262B27BFF7A32CA
:106286007932802E7BFF7A32794680267BFF7A32FE
:10629600795A801E7BFF7A32796E80167BFF7A32BE
:1062A6007983800E7BFF7A32799880067BFF7A327B
:1062B60079AD7D307FF412CD5C7BFF7A3279C39065
:1062C600001F7493F07D307FF512CD847BFF7A3208
:1062D60079DC90001F749CF07D307FF612CD84909F
:1062E6000B1EE0FF7E007C017D041264B9740F2F43
:1062F600F974083EA801FC7D017B017A0779007ECE
:10630600017F0412645490001E7405F0A3F0A37478
:10631600F1F0A37405F07B077A247D017F0112BD9D
:10632600FF7BFF7A2F799C7D307FF012CD5C7BFF5F
:106336007A3279F290001F74A0F07D307FF112CD91
:10634600847BFF7A33790390001F74A8F07D307F39
:10635600F212CD847BFF7A29796C90001F74B0F01D
:106366007D307FF312CD847BFF7A33791490001F42
:0E63760074B8F07D307FF412CD8412965E2252
:106B6600900107E06003026DE790001E7403F0A336
:106B76007401F0A374F1F0A37405F07BCE7A01E4FE
:106B8600FDFF12BDFF7BFF7A3379247D307FF01243
:106B9600CD5C7BFF7A33793A7D307FF112CD5C7B19
:106BA600FF7A33794C90001F7401F07D307FF2122A
:106BB600CD84900116E01265966BE7816BF7826CC7
:106BC60017836BE9856BFF866C17876C07886BEB01
:106BD600896C0F906BED916BEF926C179500006CC2
:106BE6002480068004800280007BFF7A33796A80E5
:106BF600267BFF7A33797A801E7BFF7A33797A8017
:106C0600167BFF7A33797A800E7BFF7A33797A8026
:106C1600067BFF7A33798A7D307FF312CD5C7BFF6A
:106C26007A33799A90001F7410F07D307FF412CD7C
:106C3600847BFF7A3379A790001F7412F07D307F32
:106C4600F512CD8490011BE014601514601A1460CF
:106C56001F1460242404702D7BFF7A3379B4801EC0
:106C66007BFF7A3379C280167BFF7A3379D0800E28
:106C76007BFF7A3379DE80067BFF7A3379EE7D30CF
:106C86007FF612CD5C900B1EE0FF7E007C017D043A
:106C96001264B9740F2FF974083EA801FC7D017BBC
:106CA600017A0779007E017F0412645490001E74F5
:106CB60003F0A314F0A374F1F0A37405F07BCE7A6D
:106CC600017D017F0112BDFF7BFF7A3379247D3080
:106CD6007FF012CD5C7BFF7A3379FE90001F74152E
:106CE600F07D307FF112CD847BFF7A34790E9000EF
:106CF6001F7417F07D307FF212CD847BFF7A3479D2
:106D06001F90001F741AF07D307FF312CD847BFF35
:106D16007A34792F90001F741CF07D307FF412CDE9
:106D2600847BFF7A34794390001F7420F07D307F96
:106D3600F512CD847BFF7A34795790001F7424F0C6
:106D46007D307FF612CD84900B1EE0FF7E007C0125
:106D56007D041264B9740F2FF974083EA801FC7DF6
:106D6600017B017A0779007E017F0412645490004A
:106D76001E7403F0A3F0A374F1F0A37405F07BCEA8
:106D86007A017D027F0212BDFF7BFF7A3379247D73
:106D9600307FF012CD5C7BFF7A34796990001F74E6
:106DA60028F07D307FF112CD847BFF7A347979909B
:106DB600001F742AF07D307FF212CD847BFF7A3477
:106DC600798D90001F742CF07D307FF312CD847B7B
:106DD600FF7A3479A190001F7430F0FD7FF4026EC3
:106DE600DA90001E7402F0A314F0A374F1F0A374F9
:106DF60005F07BCE7A01E4FDFF12BDFF7BFF7A34FE
:106E060079B57D307FF012CD5C7BFF7A3479C77D12
:106E1600307FF112CD5C7BFF7A33794C90001F7482
:106E260001F07D307FF212CD847BFF7A3479D990E0
:106E3600001F740FF07D307FF312CD847BFF7A3410
:106E460079EC90001F7419F07D307FF412CD847BAD
:106E5600FF7A35790190001F741FF07D307FF5129F
:106E6600CD847BFF7A35791490001F7425F07D3030
:106E76007FF612CD84900B1EE0FF7E007C017D0420
:106E86001264B9740F2FF974083EA801FC7D017BCA
:106E9600017A0779007E017F0412645490001E7403
:106EA60002F0A3F0A374F1F0A37405F07BCE7A018F
:106EB6007D017F0112BDFF7BFF7A3479B57D307F7E
:106EC600F012CD5C7BFF7A35792990001F742BF088
:0B6ED6007D307FF112CD8412965E2209
:1088F20090001E7402F0A314F0A374F1F0A37405A7
:10890200F07BCF7A01E4FDFF12BDFF7BFF7A357960
:10891200417D307FF012CD5C7BFF7A357957E49050
:10892200001FF07D307FF112CD847BFF7A35796CA8
:1089320090001F7407F07D307FF212CD847BFF7AA6
:1089420035798190001F740EF07D307FF312CD8453
:108952007BFF7A35799690001F7415F07D307FF495
:1089620012CD847BFF7A3579AB90001F741CF07DA9
:10897200307FF512CD847BFF7A3579C390001F7466
:1089820026F07D307FF612CD84900B1EE0FF7E0034
:108992007C017D041264B9740F2FF974083EA8019A
:1089A200FC7D017B017A0779007E017F0412645409
:1089B20090001E7402F0A3F0A374F1F0A37405F00A
:1089C2007BCF7A017D017F0112BDFF7BFF7A357972
:1089D200417D307FF012CD5C7BFF7A3579DB9000F0
:1089E2001F7430F0FD7FF112CD847BFF7A3579F769
:1089F20090001F743AF07D307FF212CD847BFF7AB3
:108A02003579F790001F7444F07D307FF312CD84E6
:108A1200900B1EE0FF7E007C017D041264B9740F8E
:108A22002FF974083EA801FC7D017B017A077900C9
:0A8A32007E017F0412645402968551
:108F0000780D7C007D017BFF7A4C79197E007F080B
:108F10001264549000157401F0A37400F0A3740D52
:108F2000F09000277402F0A314F0900015E0F9A36C
:108F3000E0FAA3E0900029C9F0A3EAF0A3E9F0A3C6
:108F40007406F0A374F1F0A37403F0A374FFF07B34
:108F5000D07A01E4FDFF12959A7BFF7A3679137D72
:108F6000307FF012CD5C7BFF7A3679257D2C7FF146
:108F700012CD5C7BFF7A36792E7D2C7FF212CD5C90
:108F80007BFF7A3679377D2C7FF312CD5C7BFF7ABD
:108F90003679447D2C7FF412CD5C7BFF7A36794D97
:108FA0007D2C7FF512CD5C7BFF7A3679547D2C7F4A
:108FB000F612CD5C9000277402F0A3F0900015E04B
:108FC000FBA3E0FAA3E02406F9E43AFA900029EBC7
:108FD000F0A3EAF0A3E9F0A37402F0A374F1F0A304
:108FE0007403F0A374FFF07BD07A017D017F01123E
:108FF000959A7BFF7A3679137D307FF012CD5C7BBA
:10900000FF7A36795F7D2C7FF112CD5C7BFF7A365B
:0C901000796E7D2C7FF212CD5C029685FB
:1080670090001E7403F0A37401F0A374F1F0A374DD
:1080770005F07B417A24E4FDFF12BDFF7BFF7A36D2
:1080870079767D307FF012CD5C7BFF7A36798890E8
:10809700001F7401F07D307FF112CD847BFF7A36AB
:1080A700799590001F7402F07D307FF212CD847BAA
:1080B700FF7A3679A990001F740AF07D307FF3129A
:1080C700CD847BFF7A3679BD90001F7412F07D3026
:1080D7007FF412CD847BFF7A3679D490001F741A0F
:1080E700F07D307FF512CD847BFF7A3679EB9000F7
:1080F7001F7422F07D307FF612CD84900B1EE0FFB7
:108107007E007C017D041264B9740F2FF974083E58
:10811700A801FC7D017B017A0779007E017F0412AB
:10812700645490001E7403F0A314F0A374F1F0A339
:108137007405F07B417A247D017F0112BDFF7BFF2F
:108147007A3679767D307FF012CD5C7BFF7A37798E
:108157000290001F742AF07D307FF112CD847BFFDF
:108167007A37791990001F7432F07D307FF212CD83
:10817700847BFF7A37793090001F743AF07D307F27
:10818700F312CD847BFF7A37794790001F7442F052
:108197007D307FF412CD847BFF7A37795E90001FA4
:1081A700744AF07D307FF512CD847BFF7A3779757D
:1081B70090001F7452F07D307FF612CD84900B1E15
:1081C700E0FF7E007C017D041264B9740F2FF974FF
:1081D700083EA801FC7D017B017A0779007E017FBB
:1081E7000412645490001E7403F0A3F0A374F1F01A
:1081F700A37405F07B417A247D027F0212BDFF7BC9
:10820700FF7A3679767D307FF012CD5C7BFF7A3747
:10821700798C90001F745AF07D307FF112CD8490D5
:108227000B1EE0FF7E007C017D041264B9740F2FE2
:10823700F974083EA801FC7D017B017A0779007E6D
:09824700017F04126454029685C3
:109B890090001E7401F0A3F0A374F1F0A37405F022
:109B99007B427A24E4FDFF12BDFF7BFF7A3779A46B
:109BA9007D307FF012CD5C900107E070667BFF7A13
:109BB90036798890001F04F07D307FF112CD847BC7
:109BC900FF7A3779B690001F7402F07D307FF21268
:109BD900CD847BFF7A3779C890001F7405F07D30FA
:109BE9007FF312CD84900116E07BFF70067A3779F6
:109BF900DE80047A3779EC7D307FF412CD5C7BFF0F
:109C09007A3079B890001F7410F07D307FF512CD4D
:109C190084800D7BFF7A3779FC7D307FF112CD5C32
:109C2900900B1EE0FF7E007C017D041264B9740F65
:109C39002FF974083EA801FC7D017B017A077900A0
:0A9C49007E017F0412645402968528
:107C2400900107E06003027DEC90001E7402F0A353
:107C340014F0A374F1F0A37405F07B437A24E4FDFB
:107C4400FF12BDFF7BFF7A38790D7D307FF012CDB6
:107C54005C7BFF7A36798890001F7401F07D307F59
:107C6400F112CD847BFF7A38792390001F7402F0DF
:107C74007D307FF212CD847BFF7A38792F90001FFC
:107C84007409F07D307FF312CD84900114E0146008
:107C94000F2402601314701D7BFF7A387947800E1D
:107CA4007BFF7A38795C80067BFF7A3879737D3084
:107CB4007FF412CD5C7BFF7A3179FC90001F740E47
:107CC400F07D307FF512CD847BFF7A3279139000FA
:107CD4001F7410F07D307FF612CD84900B1EE0FFF0
:107CE4007E007C017D041264B9740F2FF974083E80
:107CF400A801FC7D017B017A0779007E017F0412D3
:107D0400645490001E7402F0A3F0A374F1F0A37401
:107D140005F07B437A247D017F0112BDFF7BFF7A4E
:107D240038790D7D307FF012CD5C900121E024CFB5
:107D3400B407005060907D4775F003A4C58325F017
:107D4400C58373027D5C027D64027D6C027D7402D6
:107D54007D7C027D84027D8C7BFF7A387988802E3D
:107D64007BFF7A38799E80267BFF7A3879B4801E2F
:107D74007BFF7A3879CA80167BFF7A3879E1800EE6
:107D84007BFF7A3879F880067BFF7A39790F7D306A
:107D94007FF112CD5C7BFF7A39792790001F741B29
:107DA400F07D307FF212CD84900138E014600F240E
:107DB40002601314701D7BFF7A397942800E7BFFB9
:107DC4007A39795A80067BFF7A3979727D307FF36C
:107DD40012CD5C7BFF7A39798890001F7432F07D74
:107DE400307FF412CD84803490001E7401F0A3F02F
:107DF400A374F1F0A37405F07B437A24E4FDFF122D
:107E0400BDFF7BFF7A38790D7D307FF012CD5C7B2E
:107E1400FF7A3979A47D307FF112CD5C900B1EE09E
:107E2400FF7E007C017D041264B9740F2FF974087D
:107E34003EA801FC7D017B017A0779007E017F0465
:067E440012645402968551
:106EE100900010EFF0600302717690001E7404F0C0
:106EF100A37401F0A374F1F0A37405F07B447A2428
:106F0100E4FDFF12BDFF7BFF7A3979B97D307FF057
:106F110012CD5C7BFF7A36798890001F7401F07D79
:106F2100307FF112CD847BFF7A3979CB90001F74C9
:106F310002F07D307FF212CD847BFF7A3679A99001
:106F4100001F740AF07D307FF312CD847BFF7A320B
:106F510079F290001F7412F07D307FF412CD847BA2
:106F6100FF7A3979DF90001F741AF07D307FF512B6
:106F7100CD84900125E07BFF20E0067A3979F2800B
:106F8100047A3A79017D307FF612CD5C900B1EE0D8
:106F9100FF7E007C017D041264B9740F2FF974081F
:106FA1003EA801FC7D017B017A0779007E017F0407
:106FB10012645490001E7404F0A37402F0A374F1DF
:106FC100F0A37405F07B447A247D017F0112BDFF9B
:106FD1007BFF7A3979B97D307FF012CD5C90012544
:106FE100E07BFF20E1067A3A791080047A3A792130
:106FF1007D307FF112CD5C900125E07BFF20E20620
:107001007A3A793280047A3A79457D307FF212CD2D
:107011005C900125E0541824F8601024F8601424D1
:1070210010701D7BFF7A3A7958800E7BFF7A3A798E
:107031006780067BFF7A3A79767D307FF312CD5CEB
:107041007BFF7A33790390001F741FF07D307FF44A
:1070510012CD847BFF7A3A798390001F7427F07DEB
:10706100307FF512CD84900132E07BFF20E0067A7B
:107071003A799680047A3A79A57D307FF612CD5C13
:10708100900B1EE0FF7E007C017D041264B9740F39
:107091002FF974083EA801FC7D017B017A07790074
:1070A1007E017F0412645490001E7404F0A314F056
:1070B100A374F1F0A37405F07B447A247D027F026E
:1070C10012BDFF7BFF7A3979B97D307FF012CD5C3B
:1070D100900132E07BFF20E1067A3A79B480047AAC
:1070E1003A79C57D307FF112CD5C900132E07BFFB2
:1070F10020E2067A3A79D680047A3A79E97D307FBE
:10710100F212CD5C900132E0541824F8601024F89A
:1071110060142410701D7BFF7A3A79FC800E7BFF8E
:107121007A3B790B80067BFF7A3B791A7D307FF3BE
:1071310012CD5C7BFF7A29796C90001F742CF07D55
:10714100307FF412CD847BFF7A3B792790001F7446
:1071510034F07D307FF512CD8490013FE07BFF203C
:10716100E0067A3B793B80047A3B794B7D307FF6B0
:1071710012CD5C8078900010E06401707390001E65
:107181007404F0A3F0A374F1F0A37405F07B447AC6
:1071910024E4FDFF12BDFF7BFF7A3979B97D307F91
:1071A100F012CD5C90013FE07BFF20E1067A3B7954
:1071B1005B80047A3B796D7D307FF112CD5C90016B
:1071C1003FE0541824F8601024F860142410701D56
:1071D1007BFF7A3B797F800E7BFF7A3B798F80063C
:1071E1007BFF7A3B799F7D307FF212CD5C12965EF8
:0171F100227B
:1079D60090001E7402F0A314F0A374F1F0A37405D2
:1079E600F07B457A24E4FDFF12BDFF7BFF7A3B79ED
:1079F600AD7D307FF012CD5C7BFF7A3B79BD900088
:107A06001F7401F07D307FF112CD847BFF7A3B79C4
:107A1600CA90001F7402F07D307FF212CD847BFF86
:107A26007A3B79DC90001F740AF07D307FF312CD2B
:107A3600847BFF7A3B79F290001F7414F07D307FCF
:107A4600F412CD84900127E024CE601514601A1438
:107A5600601F146024240470287BFF7A3C790C8014
:107A6600267BFF7A3C791C801E7BFF7A3C792C8032
:107A7600167BFF7A3C793C800E7BFF7A3C794C8002
:107A8600067BFF7A3C79577D307FF512CD5C7BFF14
:107A96007A3C796390001F7421F07D307FF612CD19
:107AA60084900B1EE0FF7E007C017D041264B97495
:107AB6000F2FF974083EA801FC7D017B017A077936
:107AC600007E017F0412645490001E7402F0A3F03D
:107AD600A374F1F0A37405F07B457A247D017F0140
:107AE60012BDFF7BFF7A3B79AD7D307FF012CD5C16
:107AF600900134E024CE601514601A14601F1460DF
:107B060024240470287BFF7A3C790C80267BFF7A3C
:107B16003C791C801E7BFF7A3C792C80167BFF7A91
:107B26003C793C800E7BFF7A3C794C80067BFF7A61
:107B36003C79577D307FF112CD5C7BFF7A3C797DB5
:107B460090001F742EF07D307FF212CD849001419B
:107B5600E024CE601514601A14601F1460242404F7
:107B660070287BFF7A3C790C80267BFF7A3C791C57
:107B7600801E7BFF7A3C792C80167BFF7A3C793C11
:107B8600800E7BFF7A3C794C80067BFF7A3C7957E6
:107B96007D307FF312CD5C7BFF7A3C799790001F96
:107BA600743BF07D307FF412CD8490014EE024CEFC
:107BB600601514601A14601F146024240470287B56
:107BC600FF7A3C790C80267BFF7A3C791C801E7BF1
:107BD600FF7A3C792C80167BFF7A3C793C800E7BC1
:107BE600FF7A3C794C80067BFF7A3C79577D307F63
:107BF600F512CD5C900B1EE0FF7E007C017D041229
:107C060064B9740F2FF974083EA801FC7D017B014D
:0E7C16007A0779007E017F041264540296857D
:10A5C10090001E7401F0A3F0A374F1F0A37405F0E0
:10A5D1007B467A24E4FDFF12BDFF7BFF7A3C79B113
:10A5E1007D307FF012CD5C900107E070497BFF7AEE
:10A5F1003C79C590001F04F07D307FF112CD84902D
:10A60100010AE0540314601214601714601C24033F
:10A6110070317BFF7A3C79D380167BFF7A3C79DFFE
:10A62100800E7BFF7A3C79EB80067BFF7A3C79F7E1
:10A631007D307FF2800A7BFF7A3D79037D307FF1A7
:10A6410012CD5C900B1EE0FF7E007C017D04126444
:10A65100B9740F2FF974083EA801FC7D017B017AC2
:0DA661000779007E017F0412645402968583
:10B51F0090001E7401F0A3F0A374F1F0A37405F072
:10B52F007B477A24E4FDFF12BDFF7BFF7A3D790E46
:10B53F007D307FF012CD5C900107E0702A7BFF7A9F
:10B54F0036798890001F04F07D307FF112CD849002
:10B55F000109E07BFF70067A3D792880047A3D79F6
