:0FC83800434F4D2D4F4E00434F4D2D4F4E20007F
:10C4220041049200011800011900011A28410B1F52
:10C4320000C104C106C10AC109C1004105D30041BE
:10C44200035F004103620041036500410B1C00C110
:10C4520002C105C108C10CC107410B1B00410B1EE3
:06C462000042036000002F
:104D1200E490000CF0FFFEC201C20B900363F0A30B
:104D2200F08F828E8374FFF00FBF00010EE4B5078F
:104D3200F0EEB480EC7F0A7E0012C6B212C8069072
:104D4200000CEFF0600812C80690000CEFF012C7DA
:104D52003F90000CE070057F0112C68012C73FD25F
:104D62000A129D84E43390000CF012C64D12C73F24
:104D720012ABA2E4FF12C59EC208900B1F7405F08D
:104D8200D293C203E4900805F0A3F0A3F0A3F0A32A
:104D9200F0A3F0300809900234E0F46033C20890C6
:104DA2000B1FE0FF645A601CEF64A56017EFB405A7
:104DB20009740AF0D293C203800A900B1F7405F0A3
:104DC200C293C2037F057E0012C6B212C73F80C3E0
:104DD20078077C017D017B017A0279357E007F06AE
:104DE200125D5112ABA212C73F900107E0540F753A
:104DF200F00AA4FFA3E0540F2F75F008A475F03C4D
:104E020084781AF612C382D2A9C208E4FF12A45906
:104E12007F0112C680781A7628D2A9129AA512C2E8
:104E22003090000CEFF0F46005E0FF12456312C70A
:104E32003F900B1DE025E025E024BFF582E4340518
:104E4200F583E0FEA3E064014E70D030001B12AD8A
:104E52005412AC3412C23090000CEFF0F46005E052
:104E6200FF12456312C73F80E2900B1DE025E0254B
:104E7200E024BFF582E43405F583E0FEA3E08EF082
:104E8200125EB9502100015027001550BA00165089
:104E9200E4001751420018522600195235001A52E6
:104EA20049001B526E001C502D01A5505A01A650FC
:104EB2007801A7509C01A850A201A950A801AA50AC
:104EC200AE01AB50B401AC50C001B950CC01BA50E4
:104ED200EA01CD510401CE510A01CF514801E151FD
:104EE2006F01E2518101E351A201E451C001E55198
:104EF200D201E651E401E7522101E8522B01F552B9
:104F02003001F6523A0209523F020A5244020B524F
:104F12004E021D5253021E5259021F525F0220526C
:104F22006502215273023152780232527D023352AB
:104F3200820234503320E5503820E6503C20E750BE
:104F42004220E8504A20E9505420EA506020F950AB
:104F52006620FA506C20FB507220FC507E210D50CE
:104F620084210E508A210F50902110509621115009
:104F7200C6227550D2228950F0240550F6240650DC
:104F8200FC24075110242D5116242E511C242F517C
:104F9200222430512A2431513024325136243351C3
:104FA2003C2434514E2595515325965159259751FC
:104FB2005F259851652599517525A9517B25AA51DF
:104FC2008725BD518C25BE519225BF519825C051D0
:104FD200A825D151AE25D251B425D351BA25D451E9
:104FE200C625E551CC25E651D825F951DE25FA51E1
:104FF200EA260D51EF260E51F5260F51FB261052CF
:1050020001261152072612520D261352132614524C
:105012001C261550D8B2B550DEB2B6000052851229
:105022005792025285128A3E025285129CCE025239
:1050320085E4FFFE8016C20D80087F017E00800C91
:10504200D20D12921C0252857F027E001292FF0242
:10505200528512BA1102528512A6DA025285129BA9
:1050620060025285129E39025285129C17025285A5
:10507200129EED02528512A2600252851297B5026B
:10508200528512987102528512992D0252851299F7
:10509200E9025285127E74025285129FA102528544
:1050A20012726902528512BB6402528512BBCE0291
:1050B200528512BC3802528512B65602528512959A
:1050C2007702528512000002528512B843025285BD
:1050D20012B35102528512BCA202528512BD0C02B9
:1050E200528512B0A402528512ACC502528512BF7B
:1050F2008802528512847E025285E4FF12528A028D
:1051020052851260D50252851288060252851278A3
:10511200E0025285128F6002528512749D025285FE
:10512200E4FF127024025285126DD602528512A13A
:105132000702528512ADE202528512AE700252850A
:10514200128B5502528512A309025285E4FFFE809A
:10515200167F017E0080107F027E00800A7F037E20
:105162000080047F047E0012892202528512B3D38A
:1051720002528512A59C02528512A9490252851239
:10518200A776025285E4FFFE80107F017E00800A2E
:105192007F027E0080047F037E00128D7C02528596
:1051A20012A81202528512BA8202528512B241022A
:1051B200528512B2C902528512BAF302528512B452
:1051C2005502528512B1B802528512BD760252853D
:1051D20012B4D702528512A3B202528512BDE00266
:1051E20052851285B6025285E4FFFE80287F017E39
:1051F2000080227F027E00801C7F037E0080167F5B
:10520200047E0080107F057E00800A7F067E00807B
:10521200047F077E001281B78069127ADF806412F0
:10522200A63B805F12B6D3805A129639805512A0DF
:1052320055805012B12E804B12B8B8804612B92B4D
:10524200804112B99E803C12A9E08037E4FFFE80C3
:10525200167F017E0080107F027E00800A7F037E1F
:105262000080047F047E00128C6C801712AA778063
:105272001212BE4A800D12BEB4800812BF1E8003F5
:0852820012A1B4D200024E4D4E
:10C64D00C293758780E4F5A875B810758901758852
:10C65D001075C83475CBFF75CADC759850F58DF51E
:10C66D008B758C28F58AC2A8C2AAC2A9C2ABD2AC5E
:03C67D00D2AF2217
:10AC34009008057F0312C3329008067F0512C332C1
:10AC4400900B1EE0FF900045742EF07B077D0A12E6
:10AC5400C2DE900807E024F6FD7F0812C336900B8D
:10AC64001EE0FF900045742EF07B0A7D0A12C2DEBE
:10AC7400900808E024F6FD7F0B12C336900B1EE00B
:10AC8400FF9000457420F07B0D7D0A12C2DE90080F
:10AC940009E024F6FD7F0E12C336900B1EE0FF90F0
:10ACA4000045743AF07B107D0A12C2DE90080AE077
:10ACB40024F6FDC3943C50057F1102C336C20880BC
:01ACC400FE91
:04C33200E024F6FD10
:06C3360090000DEFF0FB8A
:10C33C00E4A3F0ED75F06484AEF0EE75F00A84FEC3
:10C34C00ED75F00A84AFF0EFF0EE4430FEEF4430C0
:10C35C00F0900B1EE0FF900045EEF07D0A12C2DE5D
:10C36C00900B1EE0FF90000DE004FBA3E090004555
:06C37C00F07D0A02C2DEA2
:10AD5400900361E004F07006900360E004F0D39087
:10AD64000361E09420900360E0940340077403F0CF
:10AD7400A3742AF0900B1CE0B40A0BE4900360F077
:10AD8400A3F0900B1CF0D3900361E0942090036037
:10AD9400E094037BFF40207AC8793812C7F1900011
:10ADA40040EFF0900B1EE0FF90003D74FFF0A374A1
:10ADB400C8F0A37438801E7AC8793F12C7F1900096
:10ADC40040EFF0900B1EE0FF90003D74FFF0A37481
:0EADD400C8F0A3743FF07B1E7D0A12C47122EA
:1000560054564D2D4D545000C6F4B6AFD6D02CC7CD
:10006600EBC9D4BAF22E2E2E2E2E2E0053414D530E
:10007600554E4720534453204348494E4100D4B17E
:10008600B9A4BFA8BAC53A5F5F5F5F5F5F00C3DC14
:10009600C2EB3A2D2D2D2D2D2D00D4B1B9A4BFA81C
:1000A600BAC53A2D2D2D2D2D2D00D6F7B9A6C4DCB7
:1000B600B2CBB5A500D4CBD3AAB7FECEF100D4CB34
:1000C600D3AABFD8D6C600C9E8B1B8B2E9D1AF0045
:1000D600CEACD0DEB2E2CAD400C9E8B1B8C9E8D61F
:1000E600C300CFB5CDB3B9D8B1D500C4A3BFE9C855
:1000F600EDBCFECFC2D4D800CAFDBEDDCEACBBA4DB
:1001060000B8FCBBBBC6B1CFE400B8FCBBBBD3B2E6
:10011600B1D2C7AECFE400C5CCB5E3D3B2B1D200FD
:10012600B2B9B3E4D6BDB1D200CFFACADBCAFDBEBE
:10013600DDB2E9D1AF00C8D5BDE100BDBBD2D7B5B0
:10014600A5BEDDD6D8B4F200B2D9D7F7B5A5BEDDC7
:10015600D6D8B4F200D4CBD3AAB7FECEF12DB8FCD4
:10016600BBBBC6B1CFE400D0B6CFC241C6B1CFE467
:1001760000D7B0D4D841C6B1CFE400D0B6CFC24282
:10018600C6B1CFE400D7B0D4D842C6B1CFE400B8E8
:10019600FCBBBBB7CFC6B1CFE400D7B0D4D8B7CF7E
:1001A600C6B1CFE400D4CBD3AAB7FECEF12DD0B6DC
:1001B600CFC241C6B1CFE400D4CBD3AAB7FECEF1AD
:1001C6002DD0B6CFC242C6B1CFE400D4CBD3AAB7A6
:1001D600FECEF12DD0B6CFC2B7CFC6B1CFE400C6A2
:1001E600B1CFE449443A5F5F5F5F5F5F5F5F00C71F
:1001F600EBB8FCBBBBC6B1CFE42100B2D9D7F7CA76
:10020600A7B0DC2100D4CBD3AAB7FECEF12DD7B050
:10021600D4D841C6B1CFE40041C6B1CFE4B2B9C625
:10022600B1CAFDC1BF3A2D2D2D2D00D4CBD3AAB70F
:10023600FECEF12DD7B0D4D842C6B1CFE40042C627
:10024600B1CFE4B2B9C6B1CAFDC1BF3A2D2D2D2D2D
:1002560000D4CBD3AAB7FECEF12DD7B0D4D8B7CF22
:10026600C6B1CFE400B7CFC6B1CFE449443A5F5F29
:100276005F5F5F5F5F5F00D4CBD3AAB7FECEF12D81
:10028600B8FCBBBBD3B2B1D2C7AECFE400D0B6CFB9
:10029600C2B2B9B1D2C7AECFE43100D7B0D4D8B26A
:1002A600B9B1D2C7AECFE43100D0B6CFC2B2B9B180
:1002B600D2C7AECFE43200D7B0D4D8B2B9B1D2C724
:1002C600AECFE43200D4CBD3AAB7FECEF12DD0B652
:1002D600CFC2B2B9B1D2C7AECFE43100C3FCC1EED2
:1002E600D2D1B7A2CBCD2100C7E5B1D2BDF8D0D0CF
:1002F600D6D02100C7AECFE4CEB4B5BDCEBB21006B
:10030600C7AECFE4C2FA2100B8FCBBBBC7AECFE490
:10031600B4EDCEF32CB2BBC4DCC7E5B1D22100C725
:10032600AECFE4B7ADB0E5CEB4B5BDCEBB2CB2BB57
:10033600C4DCC7E5B1D22100D3B2B1D2C4A3BFE9B0
:10034600CEB4B5BDCEBB2CB2BBC4DCC7E5B1D221A1
:1003560000D4CBD3AAB7FECEF12DD7B0D4D8B2B93C
:10036600B1D2C7AECFE43100C7AECFE431B5B1C725
:10037600B0B4E6B1D2C1BF3A2D2D2D2D2D2D2D2D88
:100386002D2D00322E20B2B9B1D2C7AECFE431B294
:10039600B9B1D2CAFD3A2D2D2D2D00D4CBD3AAB793
:1003A600FECEF12DD0B6CFC2B2B9B1D2C7AECFE430
:1003B6003200D4CBD3AAB7FECEF12DD7B0D4D8B263
:1003C600B9B1D2C7AECFE43200C7AECFE432B5B1D1
:1003D600C7B0B4E6B1D2C1BF3A2D2D2D2D2D2D2D8E
:1003E6002D2D2D00322E20B2B9B1D2C7AECFE432B8
:1003F600B2B9B1D2CAFD3A2D2D2D2D00D4CBD3AA38
:10040600B7FECEF12DC5CCB5E3D3B2B1D200C5CC83
:10041600B5E3CBF9D3D0D3B2B1D200C5CCB5E3D1D5
:10042600ADBBB7D5D2C1E3CFE4D3B2B1D200C5CC10
:10043600B5E3B2B9B1D2C7AECFE431D3B2B1D200CF
:10044600C5CCB5E3B2B9B1D2C7AECFE432D3B2B1FF
:10045600D200B2E9D1AFC5CCB5E3BDE1B9FB00D45A
:10046600CBD3AAB7FECEF12DC5CCB5E3CBF9D3D00D
:10047600D3B2B1D200C5CCB5E3BDF8D0D0D6D02129
:1004860000D4CBD3AAB7FECEF12DC5CCB5E3D1AD02
:10049600BBB7D5D2C1E3CFE4D3B2B1D200D4CBD36C
:1004A600AAB7FECEF12DC5CCB5E3B2B9B1D2C7AE6F
:1004B600CFE431D3B2B1D200D4CBD3AAB7FECEF1BA
:1004C6002DC5CCB5E3B2B9B1D2C7AECFE432D3B203
:1004D600B1D200D4CBD3AAB7FECEF12DB2E9D1AFBB
:1004E600D3B2B1D2C5CCB5E3BDE1B9FB0031D4AAD4
:1004F600D1ADBBB7D5D2C1E3C6F7C5CCB5E3CAFD0E
:10050600C1BF3A5F5F5F5F5F0031D4AAD1ADBBB7B1
:10051600D5D2C1E3C6F7CAA3D3E0B1D2CAFD3A5FCA
:100526005F5F5F5F00B2B9B1D2C7AECFE431C5CC71
:10053600B5E3CAFDC1BF3A5F5F5F5F5F00B2B9B1A5
:10054600D2C7AECFE431CAA3D3E0B1D2CAFD3A5F77
:100556005F5F5F5F00B2B9B1D2C7AECFE432C5CC40
:10056600B5E3CAFDC1BF3A5F5F5F5F5F00B2B9B175
:10057600D2C7AECFE432CAA3D3E0B1D2CAFD3A5F46
:100586005F5F5F5F00C7AECFE4302049443A5F5FEC
:100596005F5F5F5F5F5F00C7AECFE430CFD6D3D07B
:1005A600B1D2CAFD3A5F5F5F5F5F5F0031D4AAD107
:1005B600ADBBB7D5D2C1E3C6F7C5CCB5E3B2EED273
:1005C600ECCAFDC1BF3A5F5F5F5F5F00B2B9B1D2EF
:1005D600C7AECFE431C5CCB5E3B2EED2ECCAFDC1AD
:1005E600BF3A5F5F5F5F5F00B2B9B1D2C7AECFE41B
:1005F60032C5CCB5E3B2EED2ECCAFDC1BF3A5F5FFD
:100606005F5F5F00D5FDD4DAC5CCB5E3D6D0210057
:10061600CEB4BDF8D0D0C5CCB5E3B2D9D7F721005A
:10062600D3B2B1D2C4A3BFE9CDA8D0C5B9CAD5CF7C
:100636002100D4CBD3AAB7FECEF12DB2B9B3E4D6FE
:10064600BDB1D20035D4AAD6BDB1D2D5D2C1E3CF81
:10065600E4B5B1C7B0B4E6B1D2C1BF3A2D2D2D2D48
:100666002D2D2D2D2D2D00322E2035D4AAD6BDB1FF
:10067600D2D5D2C1E3CFE4B2B9B1D2D5C5CAFD3A1B
:100686002D2D2D2D00C9E8B1B8B2E9D1AF2DBCC4CE
:10069600B4E6C6F7D0C5CFA2B2E9D1AF00CFD6BD7A
:1006A600F0B9BAC2F2B5C4B5A5B3CCC6B1CAFDC1DC
:1006B600BF3A2D2D2D2D2D2D2D2D2D2D00CFD6BD17
:1006C600F0B9BAC2F2B5C4B5A5B3CCC6B1BDF0B6E1
:1006D600EE3A2D2D2D2D2D2D2D2D2D2D00B4A2D6FE
:1006E600B5BFA8B9BAC2F2B5C4B5A5B3CCC6B1CA2E
:1006F600FDC1BF3A2D2D2D2D2D2D2D2D2D2D00B4C7
:10070600A2D6B5BFA8B9BAC2F2B5C4B5A5B3CCC610
:10071600B1BDF0B6EE3A2D2D2D2D2D2D2D2D2D2DD5
:1007260000B4A2D6B5BFA8CFFBB7D1BDF0B6EE3A9E
:100736002D2D2D2D2D2D2D2D2D2D0054564DC0DB5F
:10074600BCC6BDD3CAD5D3B2B1D2D7DCCAFD3A2D09
:100756002D2D2D2D2D2D2D2D2D0054564DC0DBBCB0
:10076600C6BDD3CAD5D6BDB1D2D7DCCAFD3A2D2D6A
:100776002D2D2D2D2D2D2D2D00D3B2B1D2C7AECFBF
:10078600E4C0EFD3B2B1D2C3E6D6B5B5C4D7DCCA9E
:10079600FD3A2D2D2D2D2D2D2D2D2D2D00D5D2C1F2
:1007A600E3BFDAD5D2B3F6D3B2B1D2B5C4D7DCCA79
:1007B600FD3A2D2D2D2D2D2D2D2D2D2D00BDF8C8BD
:1007C600EBC7AECFE435D4AAD6BDB1D2C3E6D6B513
:1007D600D7DCCAFD3A2D2D2D2D2D2D2D2D2D2D009D
:1007E600BDF8C8EBC7AECFE43130D4AAD6BDB1D27E
:1007F600C3E6D6B5D7DCCAFD3A2D2D2D2D2D2D2DD0
:100806002D2D2D00BDF8C8EBC7AECFE43230D4AAEB
:10081600D6BDB1D2C3E6D6B5D7DCCAFD3A2D2D2D4D
:100826002D2D2D2D2D2D2D00BDF8C8EBC7AECFE4F7
:100836003530D4AAD6BDB1D2C3E6D6B5D7DCCAFD0B
:100846003A2D2D2D2D2D2D2D2D2D2D00BDF8C8EB3E
:10085600C7AECFE4313030D4AAD6BDB1D2C3E6D6C6
:10086600B5D7DCCAFD3A2D2D2D2D2D2D2D2D2D2D57
:1008760000C0DBBCC6B3E4D6B5B4CECAFD3A2D2D56
:100886002D2D2D2D2D2D2D2D00C0DBBCC6B3E4D670
:10089600B5BDF0B6EE3A2D2D2D2D2D2D2D2D2D2D50
:1008A60000C0DBBCC6D6BDB1D2D5D2C1E3D7DCBD54
:1008B600F0B6EE3A2D2D2D2D2D2D2D2D2D2D00D4CE
:1008C600CBD3AAB7FECEF12DC8D5BDE100B2D9D79C
:1008D600F7B3C9B9A62100D4CBD3AAB7FECEF12D62
:1008E600BDBBD2D7B5A5BEDDD6D8B4F200D6D8B436
:1008F600F2B3C9B9A62100D6D8B4F2CAA7B0DC2192
:1009060000D4CBD3AAB7FECEF12DB2D9D7F7B5A571
:10091600BEDDD6D8B4F200C4A3CABDC9E8D6C300AA
:10092600D4CBD3AAC9E8D6C300C9E8B1B8C9E8D6BA
:10093600C32DC4A3CABDC9E8D6C300B9A6C4DC3A50
:100946002D20313AD5FDB3A32C323AD6BBCADBC62D
:10095600B12C333AD6BBB3E4D6B500D6A7B8B6B7F2
:10096600BDCABD3A2D00313AB6BCCAD52C323AD6EC
:10097600BBD3B2B1D22C333AD6BBD6BDB1D22C340E
:100986003AD6BBB4A2D6B5BFA800353AB2BBCAD5D3
:10099600D3B2B1D22C363AB2BBCAD5D6BDB1D22C5F
:1009A600373AB2BBCAD5B4A2D6B5BFA800D5D2C114
:1009B600E33A2D00313AC8ABB2BF2C323AD6BDB1BC
:1009C600D2D5D2C1E32C333AD3B2B1D2D5D2C1E318
:1009D6002C343ACEDED5D2C1E300D4CBD3AABFD8CD
:1009E600D6C62DD4CBD3AAC9E8D6C300B7FECEF15E
:1009F600C4A3CABDC9E8D6C300D4CBD3AABFD8D630
:100A0600C62DB7FECEF1C4A3CABDC9E8D6C300CD74
:100A1600A3D6B900BFAACABC00D4CBD3AABFD8D626
:100A2600C62DCDA3D6B9B7FECEF100B3C9B9A6215E
:100A360000C3FCC1EECEDED0A72100D4CBD3AABF23
:100A4600D8D6C62DBFAACABCB7FECEF100D4CBD32A
:100A5600AAD7B4CCACB2E9D1AF00BDBBD2D7CAFDE0
:100A6600BEDDB2E9D1AF00C4A3BFE9D0C5CFA2B203
:100A7600E9D1AF00C9E8B1B8B2E9D1AF2DD4CBD333
:100A8600AAD7B4CCACB2E9D1AF00CDF8C2E7CDA8B5
:100A9600D0C5D7B4CCAC00C9E8B1B8D0C5CFA20098
:100AA600C9E8B1B8D7B4CCAC00C9E8B1B8B2E9D19D
:100AB600AF2DCDF8C2E7CDA8D0C5D7B4CCAC00CD0C
:100AC600A8D0C5D5FDB3A32100CDA8D0C5B9CAD538
:100AD600CF2100C9E8B1B8B2E9D1AF2DC9E8B1B8A4
:100AE600D0C5CFA200C9E8B1B849443A205F5F5FDC
:100AF6005F5F5F5F5F5F00C9E8B1B849503A202D7C
:100B06002D2D2E2D2D2D2E2D2D2D2E2D2D2D00C99D
:100B1600E8B1B8CDF8B9D83A202D2D2D2E2D2D2D92
:100B26002E2D2D2D2E2D2D2D00C9E8B1B8D7D3CDC4
:100B3600F8D1DAC2EB3A202D2D2D2E2D2D2D2E2D6E
:100B46002D2D2E2D2D2D00B3B5D5BE49443A205F4F
:100B56005F5F5F00B3B5D5BEB7FECEF1C6F74950AD
:100B66003A202D2D2D2E2D2D2D2E2D2D2D2E2D2DAC
:100B76002D00CAB1D6D3CDACB2BDB7FECEF1C6F705
:100B860049503A2D2D2D2E2D2D2D2E2D2D2D2E2D40
:100B96002D2D0054564DC8EDBCFEB0E6B1BEBAC50B
:100BA6003A5F5F5F5F5F5F5F5F00C9E8B1B8B2E958
:100BB600D1AF2DC9E8B1B8D7B4CCAC00CEDEB2D92E
:100BC600D7F7B9A6C4DC00B7A2CADBBACDB3E4D660
:100BD600B500D6BBB7A2CADB00D6BBB3E4D6B50018
:100BE600D5D2C1E3C4A3CABD3AD3B2B1D2D5D2C11C
:100BF600E300D5D2C1E3C4A3CABD3AD6BDB1D2D5AE
:100C0600D2C1E300D5D2C1E3C4A3CABD3ACBABB1CE
:100C1600D2D5D2C1E300D5D2C1E3C4A3CABD3ACE70
:100C2600DED5D2C1E300D6A7B8B6B7BDCABD3ACAAB
:100C3600D5D3B2B1D200D6A7B8B6B7BDCABD3ACAE7
:100C4600D5D6BDB1D200D6A7B8B6B7BDCABD3ACBC8
:100C5600ABB1D200D6A7B8B6B7BDCABD3AB4A2D614
:100C6600B5BFA8B9BAC6B100D6A7B8B6B7BDCABD92
:100C76003AB2BBCAD5D3B2B1D200D6A7B8B6B7BDC1
:100C8600CABD3AB2BBCAD5D6BDB1D200D6A7B8B690
:100C9600B7BDCABD3AB2BBBFC9B4A2D6B5BFA8B923
:100CA600BAC6B100D4CBD3AAD7B4CCAC3A5F5F5F97
:100CB6005F00D3B2B1D2C4A3BFE9D7B4CCACC2EB08
:100CC6003A5F5F5F5F00D6BDB1D2C4A3BFE9D7B4B8
:100CD600CCACC2EB3A5F5F5F5F00D6BDB1D2D5D276
:100CE600C1E3C4A3BFE9D7B4CCACC2EB3A5F5F5F44
:100CF6005F00544955C4A3BFE9D7B4CCACC2EB3AA4
:100D06005F5F5F5F00B6C1D0B4C6F7D7B4CCACC2E4
:100D1600EB3A5F5F5F5F00B4F2D3A1BBFAD7B4CC06
:100D2600AC3A4F4B00B4F2D3A1BBFAD7B4CCAC3A31
:100D360042414400B2B9B1D2C7AECFE431204944F2
:100D46003A5F5F5F5F5F5F5F5F00B2B9B1D2C7AE08
:100D5600CFE4322049443A5F5F5F5F5F5F5F5F00C9
:100D6600D3B2B1D2BBD8CAD5C7AECFE42049443A34
:100D76005F5F5F5F5F5F5F5F00B2B9B1D2C7AECF43
:100D8600E431D3B2B1D2CAFDC1BF3A2D2D2D2D2DDE
:100D960000B2B9B1D2C7AECFE432D3B2B1D2CAFD36
:100DA600C1BF3A2D2D2D2D2D0031D4AAD1ADBBB703
:100DB600D5D2C1E3C6F7D3B2B1D2CAFDC1BF3A2D6F
:100DC6002D2D2D2D00D3B2B1D2BBD8CAD5CFE4D3A9
:100DD600B2B1D2CAFDC1BF3A5F5F5F5F5F00D6BDE9
:100DE600B1D2C7AECFE449443A5F5F5F5F5F5F5FF2
:100DF6005F5F5F00D6BDB1D2C7AECFE4D6BDB1D27C
:100E0600CAFDC1BF3A2D2D2D2D2D2D2D0035D4AA6D
:100E1600D6BDB1D2D5D2C1E3CFE4C0E0D0CD4944EE
:100E26003A5F5F0035D4AAD6BDB1D2D5D2C1E3CFE1
:100E3600E4C2DFBCAD49443A5F5F5F5F5F5F5F5FFF
:100E46005F5F0031BAC5D6BDB1D2C7AECFE4B1D26D
:100E5600D6D63A31D4AA0031BAC5D6BDB1D2C7AEBC
:100E6600CFE4B1D2D6D63A32D4AA0031BAC5D6BD6D
:100E7600B1D2C7AECFE4B1D2D6D63A35D4AA003174
:100E8600BAC5D6BDB1D2C7AECFE4B1D2D6D63A3105
:100E960030D4AA0031BAC5D6BDB1D2C7AECFE4B1FF
:100EA600D2D6D63A3230D4AA0031BAC5D6BDB1D2DE
:100EB600C7AECFE4B1D2D6D63A3530D4AA0031BACD
:100EC600C5D6BDB1D2C7AECFE4B1D2D6D63A31304F
:100ED60030D4AA0035D4AAD6BDB1D2D5D2C1E3CF7B
:100EE600E4B4E6B1D2C1BF3A2D2D2D2D00D6BDB149
:100EF600D2BBD8CAD5CFE4B4E6B1D2C1BF3A2D2D04
:100F06002D2D0041C6B1CFE449443A5F5F5F5F5F74
:100F16005F5F5F0042C6B1CFE449443A5F5F5F5FFF
:100F26005F5F5F5F0041C6B1CFE4CAFDC1BF3A2D26
:100F36002D2D2D2D2D0042C6B1CFE4CAFDC1BF3ADD
:100F46002D2D2D2D2D2D00B7CFC6B1CAFDC1BF3A0F
:100F56002D2D2D2D2D2D00B9A9B5E7D7B4CCAC3A42
:100F6600B5E7B3D8B9A9B5E700B9A9B5E7D7B4CC01
:100F7600AC3ACAD0B5E7B9A9B5E700C9E8B1B8B285
:100F8600E9D1AF2DBDBBD2D7CAFDBEDDB2E9D1AF27
:100F960000BDBBD2D7C0E0D0CD3AB7A2CADBBDBB3D
:100FA600D2D700BDBBD2D7CAB1BCE43A202D2D2D75
:100FB6002D2F2D2D2F2D2D2C2D2D3A2D2D3A2D2D3E
:100FC60000B3B5C6B1C0E0D0CD3ABCC6B4CEC6B14A
:100FD60000B3B5C6B1C0E0D0CD3AB6A8C6DAC6B140
:100FE60000B3B5C6B1C0E0D0CD3AC7AEB0FCC6B10D
:100FF60000B3B5C6B1C0E0D0CD3AB5A5B3CCC6B145
:1010060000B3B5C6B1BCDBB8F13A202D2D00B3B59F
:10101600C6B1CAFDC1BF3A202D2D00D6A7B8B6B7B6
:10102600BDCABD3AD3B2B1D200D6A7B8B6B7BDCA0B
:10103600BD3AD6BDB1D200D6A7B8B6B7BDCABD3A7D
:10104600BBECBACF00D6A7B8B6B7BDCABD3AB4A2F4
:10105600D6B5BFA800CDB6C8EB31D4AAD3B2B1D2AB
:10106600CAFDC1BF3A2D2D00CDB6C8EB35BDC7D3DD
:10107600B2B1D2CAFDC1BF3A2D2D00CDB6C8EBD64E
:10108600BDB1D2BDF0B6EE3A2D2D2D00D0E8D5D2A9
:10109600C1E3B5C4BDF0B6EE3A2D2D00CAB5BCCA43
:1010A600B7A2CADBCAFDC1BF3A2D2D2D2D00CAB588
:1010B600BCCAD5D2C1E3BDF0B6EE3A2D2D00CAB5F5
:1010C600BCCAD3B2B1D2D5D2C1E3CAFDC1BF3A2D93
:1010D6002D00CAB5BCCAD6BDB1D2D5D2C1E3CAFDB0
:1010E600C1BF3A2D2D00B4A2D6B5BFA8D3E0B6EE47
:1010F60028C7B0293A2D2D2D2D2D2D2D2D2D2D0026
:10110600B4A2D6B5BFA8D3E0B6EE28BAF3293A2DD5
:101116002D2D2D2D2D2D2D2D2D00C9E8B1B8B2E97F
:10112600D1AF2DB3E4D6B5BDBBD2D700BDBBD2D7A8
:10113600C0E0D0CD3AB3E4D6B5BDBBD2D700C6B178
:10114600BFA849443A205F5F5F5F5F5F5F5F5F5F95
:1011560000B3E4D6B5C7B0D3E0B6EE3A2D2D2D2DAB
:101166002D2D20D4AA00B3E4D6B5BDF0B6EE3A2DA7
:101176002D2D2D2D2D20D4AA00B3E4D6B5BAF3D348
:10118600E0B6EE3A2D2D2D2D2D2D20D4AA00CDB66C
:10119600C8EBBDF0B6EED7DCBCC63A202D2D2D2D02
:1011A6002D2D20B7D600C9E8B1B8B2E9D1AF2DC40C
:1011B600A3BFE9D0C5CFA200D3B2B1D2C4A3BFE9C1
:1011C60000D6BDB1D2C4A3BFE900D6BDB1D2D5D237
:1011D600C1E3C4A3BFE900B7A2CADBC4A3BFE90049
:1011E600B6C1D0B4C6F700B4F2D3A1BBFAD7B4CC1B
:1011F600AC00D4CBD3AAD7B4CCACCFD4CABEC6F736
:1012060000555053C4A3BFE900C9E8B1B8B2E9D14B
:10121600AF2DD3B2B1D2C4A3BFE900CDA8D0C5B615
:10122600CBBFDABAC53A5F00C8EDBCFEB0E6B1BEC8
:10123600BAC53A5F5F5F5F5F5F5F5F00C4A3BFE9E8
:10124600D7B4CCACC2EB3A5F5F5F5F0031D4AAD1B2
:10125600ADBBB7D5D2C1E3C6F7D7B4CCAC3AD5FD52
:10126600B3A30031D4AAD1ADBBB7D5D2C1E3C6F77B
:10127600D7B4CCAC3AC2FA0031D4AAD1ADBBB7D5FB
:10128600D2C1E3C6F7D7B4CCAC3ABDABBFD50031BB
:10129600D4AAD1ADBBB7D5D2C1E3C6F7D7B4CCACCF
:1012A6003ABFD50031D4AAD1ADBBB7D5D2C1E3C6BA
:1012B600F7D7B4CCAC3ACEB4B0B2D7B000B2B9B16D
:1012C600D2C7AECFE431D7B4CCAC3AD5FDB3A30088
:1012D600B2B9B1D2C7AECFE431D7B4CCAC3ABDAB1C
:1012E600BFD500B2B9B1D2C7AECFE431D7B4CCAC1A
:1012F6003ABFD500B2B9B1D2C7AECFE431D7B4CC7C
:10130600AC3ACEB4B0B2D7B000B2B9B1D2C7AECF54
:10131600E432D7B4CCAC3AD5FDB3A300B2B9B1D25E
:10132600C7AECFE432D7B4CCAC3ABDABBFD500B272
:10133600B9B1D2C7AECFE432D7B4CCAC3ABFD50040
:10134600B2B9B1D2C7AECFE432D7B4CCAC3ACEB490
:10135600B0B2D7B00031D4AAD1ADBBB7D5D2C1E3B4
:10136600C6F7CAFDC1BF3A5F5F5F5F5F5F00B2B994
:10137600B1D2C7AECFE431CAFDC1BF3A5F5F5F5F8E
:101386005F5F00B2B9B1D2C7AECFE432CAFDC1BF0A
:101396003A5F5F5F5F5F5F0031D4AAD1ADBBB7D55F
:1013A600D2C1E3C6F749443A5F5F5F5F5F5F5F5F45
:1013B60000C9E8B1B8B2E9D1AF2DD6BDB1D2C4A348
:1013C600BFE900CAB6B1F0C6F7B0E6B1BEBAC53AD3
:1013D6005F2E5F5F00D6BDB1D2C4A3BFE949443AD0
:1013E6005F5F5F5F5F5F5F5F00D6BDB1D2BBD8CA8C
:1013F600D5CFE43AC2FA00D6BDB1D2BBD8CAD5CF52
:10140600E43AD5FDB3A300D6BDB1D2BBD8CAD5CF79
:10141600E43ABDABC2FA00D6BDB1D2BBD8CAD5CF6D
:10142600E43AB1BBC8A1B3F600D6BDB1D2C4A3BFDE
:10143600E9CDA8D0C5B9CAD5CF00C9E8B1B8B2E9D7
:10144600D1AF2DD6BDB1D2D5D2C1E3C4A3BFE90079
:10145600B0E6B1BEBAC53A5F5F5F5F5F5F5F0031FE
:10146600BAC5D6BDB1D2D5D2C1E3CFE4D7B4CCACE0
:101476003ABFD50031BAC5D6BDB1D2D5D2C1E3CFB8
:10148600E4D7B4CCAC3ABDABBFD50031BAC5D6BDF6
:10149600B1D2D5D2C1E3CFE4D7B4CCAC3AC2FA00CC
:1014A60031BAC5D6BDB1D2D5D2C1E3CFE4C0E0D002
:1014B600CD49443A5F5F0031BAC5D6BDB1D2D5D267
:1014C600C1E3CFE4C2DFBCAD49443A5F5F5F5F5F13
:1014D6005F5F5F5F5F0031BAC5D6BDB1D2D5D2C1FD
:1014E600E3CFE4B1D2D6D63A31D4AA0031BAC5D6C2
:1014F600BDB1D2D5D2C1E3CFE4B1D2D6D63A32D439
:10150600AA0031BAC5D6BDB1D2D5D2C1E3CFE4B1B6
:10151600D2D6D63A35D4AA0031BAC5D6BDB1D2D5BF
:10152600D2C1E3CFE4B1D2D6D63A3130D4AA003113
:10153600BAC5D6BDB1D2D5D2C1E3CFE4B1D2D6D6E3
:101546003A3230D4AA0031BAC5D6BDB1D2D5D2C14D
:10155600E3CFE4B1D2D6D63A3530D4AA0031BAC5F3
:10156600D6BDB1D2D5D2C1E3CFE4B1D2D6D63A31C7
:101576003030D4AA0031BAC5D6BDB1D2D5D2C1E376
:10158600CFE4B4E6B1D2CAFDC1BF3A5F5F5F5F0088
:10159600D6BDB1D2D5D2C1E3B7CFB1D2CFE4D7B49D
:1015A600CCAC3AD5FDB3A300D6BDB1D2D5D2C1E3FA
:1015B600B7CFB1D2CFE4D7B4CCAC3ABDABC2FA0008
:1015C600D6BDB1D2D5D2C1E3B7CFB1D2CFE4D7B46D
:1015D600CCAC3AC2FA00D6BDB1D2D5D2C1E3B7CFB0
:1015E600B1D2CFE4B4E6B1D2CAFDC1BF3A5F5F5F04
:1015F6005F00D6BDB1D2D5D2C1E3C4A3BFE9CDA8A1
:10160600D0C5B9CAD5CF00C9E8B1B8B2E9D1AF2DB6
:10161600B7A2CADBC4A3BFE90041C6B1CFE4B3B5E4
:10162600C6B1CAFDC1BF3A2D2D2D2D0041C6B1CF81
:10163600E4B6A5B8C73AB9D8B1D50041C6B1CFE42A
:10164600B6A5B8C73AB4F2BFAA0041C6B1CFE4C83E
:10165600DDC1BF3AD5FDB3A30041C6B1CFE4C8DDB5
:10166600C1BF3ABDABBFD50041C6B1CFE4C8DDC1ED
:10167600BF3ABFD50042C6B1CFE4B3B5C6B1CAFDC5
:10168600C1BF3A2D2D2D2D0042C6B1CFE4B6A5B867
:10169600C73AB9D8B1D50042C6B1CFE4B6A5B8C7E6
:1016A6003AB4F2BFAA0042C6B1CFE4C8DDC1BF3A20
:1016B600D5FDB3A30042C6B1CFE4C8DDC1BF3ABD74
:1016C600ABBFD50042C6B1CFE4C8DDC1BF3ABFD576
:1016D60000B7CFC6B1CFE4B3B5C6B1CAFDC1BF3AF4
:1016E6002D2D2D2D00B7CFC6B1CFE4B6A5B8C73A7C
:1016F600B9D8B1D500B7CFC6B1CFE4B6A5B8C73A09
:10170600B4F2BFAA00B7CFC6B1CFE4C8DDC1BF3AB5
:10171600D5FDB3A300B7CFC6B1CFE4C8DDC1BF3A8C
:10172600BDABC2FA00B7CFC6B1CFE4C8DDC1BF3A80
:10173600C2FA00C9E8B1B8B2E9D1AF2DB6C1D0B48A
:10174600C6F700CDA8D0C5B6CBBFDABAC53A2D00CC
:10175600B6C1D0B4C6F749443A5F5F5F5F5F5F5F6B
:101766005F00C8EDBCFEB0E6B1BEBAC53A5F5F5FCA
:101776005F5F5F5F5F5F5F0053414D20B2E5B2DBA5
:10178600312049443A5F5F5F5F5F5F5F5F5F5F5F26
:101796005F00BFA8C0E0D0CD3A4D54525F505341D0
:1017A6004D00BFA8C0E0D0CD3A4D54525F495341D9
:1017B6004D00BFA8C0E0D0CD3A4F43545F505341CF
:1017C6004D00BFA8C0E0D0CD3A4F43545F495341C6
:1017D6004D00BFA8C0E0D0CDB4EDCEF300CEB4B27C
:1017E600E5C8EB53414DBFA80053414D20B2E5B2C9
:1017F600DB322049443A5F5F5F5F5F5F5F5F5F5F39
:101806005F5F0053414D20B2E5B2DB332049443AD5
:101816005F5F5F5F5F5F5F5F5F5F5F5F0053414D6D
:1018260020B2E5B2DB342049443A5F5F5F5F5F5F19
:101836005F5F5F5F5F5F00C9E8B1B8B2E9D1AF2D06
:10184600C6B1BEDDB4F2D3A1BBFA00CDA8D0C5B6F1
:10185600CBBFDABAC53A5F5F00B4F2D3A1BBFA3A9E
:10186600C8B1D6BD00B4F2D3A1BBFA3ABFA8D6BD63
:1018760000B4F2D3A1BBFA3AB9CAD5CF00B4F2D3B9
:10188600A1BBFA3AD5FDB3A300B4F2D3A1BBFAB912
:10189600CAD5CF00C9E8B1B8B2E9D1AF2DD4CBD300
:1018A600AAD7B4CCACCFD4CABEC4A3BFE900CFD4A8
:1018B600CABEC6F73AD5FDB3A300CFD4CABEC6F793
:1018C6003AB9CAD5CF00D4CBD3AAD7B4CCACCFD4EF
:1018D600CABEC6F7B9CAD5CF00C9E8B1B8B2E9D110
:1018E600AF2D555053C4A3BFE900C9E8B1B8B9A993
:1018F600B5E7D7B4CCAC3ACAD0B5E7B9A9B5E700D5
:10190600C9E8B1B8B9A9B5E7D7B4CCAC3AB5E7B32D
:10191600D8B9A9B5E700555053B9CAD5CF00C6B155
:10192600BEDDB4F2D3A1BBFA00492F4FB2E2CAD44E
:1019360000CEACD0DEB2E2CAD42DD6BDB1D2C4A39D
:10194600BFE900BDD3CAD5D6BDB1D2B2E2CAD40072
:10195600B2BBBDD3CAD5D6BDB1D2B2E2CAD400D4C9
:10196600DDB4E6B7B5BBB9B2E2CAD400D4DDB4E69D
:10197600CAD5BDF8C7AECFE4B2E2CAD400D6BDB16F
:10198600D2C4A3BFE9B8B4CEBB00CEACD0DEB2E2BF
:10199600CAD42DBDD3CAD5D6BDB1D200CEACD0DE09
:1019A600B2E2CAD42DB2BBBDD3CAD5D6BDB1D20020
:1019B600CEACD0DEB2E2CAD42DD4DDB4E6B7B5BB28
:1019C600B900CEACD0DEB2E2CAD42DD4DDB4E6CABC
:1019D600D5BDF8C7AECFE400CEACD0DEB2E2CAD4F5
:1019E6002DD6BDB1D2C4A3BFE9B8B4CEBB00B6CB29
:1019F600BFDABAC53A20434F4D205F00CEACD0DEE9
:101A0600B2E2CAD42DD6BDB1D2D5D2C1E3C4A3BFEA
:101A1600E900D6BDB1D2D5D2C1E3CFE4B3F6B3AEB9
:101A2600B2E2CAD400D6BDB1D2D5D2C1E3C4A3BFF7
:101A3600E9B8B4CEBB00CEACD0DEB2E2CAD42DD665
:101A4600BDB1D2D5D2C1E3CFE4B3F6B3AEB2E2CAEA
:101A5600D40031BAC5D6BDB1D2D5D2C1E3CFE4B335
:101A6600F6B3AED5C5CAFD3A2D2D00CEACD0DEB24A
:101A7600E2CAD42DD6BDB1D2D5D2C1E3C4A3BFE943
:101A8600B8B4CEBB00CEACD0DEB2E2CAD42DD3B24F
:101A9600B1D2C4A3BFE900B4F2BFAACDB6B1D2BFDA
:101AA600DA00B9D8B1D5CDB6B1D2BFDA00D4ADB16E
:101AB600D2B7B5BBB900D3B2B1D2C4A3BFE9B8B4EB
:101AC600CEBB00CEACD0DEB2E2CAD42DCDB6B1D2FA
:101AD600D0EDBFC900CEACD0DEB2E2CAD42DCDB6B1
:101AE600B1D2BDFBD6B900CEACD0DEB2E2CAD42D9F
:101AF600D4ADB1D2B7B5BBB900CEACD0DEB2E2CA76
:101B0600D42DD3B2B1D2C4A3BFE9B8B4CEBB00CEF4
:101B1600ACD0DEB2E2CAD42DB7A2CADBC4A3BFE9F9
:101B260000C7E5C0EDCDA8B5C00041C6B1CFE4B74A
:101B3600A2C6B1D6C1B7CFC6B1CFE40042C6B1CFB7
:101B4600E4B7A2C6B1D6C1B7CFC6B1CFE400B7A23B
:101B5600CADBC4A3BFE9B8B4CEBB00CEACD0DEB2FC
:101B6600E2CAD42DC7E5C0EDCDA8B5C000C3FCC1FF
:101B7600EEB7A2CBCDB3C9B9A62100CEACD0DEB2AA
:101B8600E2CAD42D41C6B1CFE4B7A2C6B1D6C1B719
:101B9600CFC6B1CFE40041C6B1CFE4BFD500B7CFC1
:101BA600C6B1CFE4C2FA00C3FCC1EEB7A2CBCDCA20
:101BB600A7B0DC00CEACD0DEB2E2CAD42D42C6B1AC
:101BC600CFE4B7A2C6B1D6C1B7CFC6B1CFE4004203
:101BD600C6B1CFE4BFD500CEACD0DEB2E2CAD42DBA
:101BE600B7A2CADBC4A3BFE9B8B4CEBB00CEACD0A3
:101BF600DEB2E2CAD42DB6C1D0B4C6F700B6C1C8AB
:101C0600A1C4A3BFE9D7B4CCAC00B6C1D0B4C6F763
:101C1600B8B4CEBB00CEACD0DEB2E2CAD42DB6C1CB
:101C2600C8A1C4A3BFE9D7B4CCAC00C4A3BFE9D74D
:101C3600B4CCAC3A5F5F5F5F00CEACD0DEB2E2CA36
:101C4600D42DB6C1D0B4C6F7B8B4CEBB00B8B4CEA6
:101C5600BBB3C9B9A62100B8B4CEBBCAA7B0DC21B4
:101C660000CEACD0DEB2E2CAD42DC6B1BEDDB4F22F
:101C7600D3A1BBFA00B4F2D3A1BBFAD7B4CCACB2B1
:101C8600E9D1AF00B4F2D3A1B2E2CAD4D2B300CE46
:101C9600ACD0DEB2E2CAD42DB4F2D3A1BBFAD7B42B
:101CA600CCAC00B6CBBFDABAC53A205F5F00B4F25F
:101CB600D3A1BBFAB9A4D7F7C1BCBAC300B4F2D357
:101CC600A1BBFAD2ECB3A300B4F2D3A1BBFAD6BD42
:101CD600D5C5B3E4D7E300B4F2D3A1BBFAC8B1D6F5
:101CE600BD00CEACD0DEB2E2CAD42DB4F2D3A1B2DE
:101CF600E2CAD4D2B300B2D9D7F7B3C9B9A600CED7
:101D0600ACD0DEB2E2CAD42D492F4FB2E2CAD4001B
:101D1600B6CCCAB1B5E3C1C1B3F6C6B1BFDAB5C672
:101D260000B6CCCAB1B1A8BEAFC6F7B1A8BEAF0067
:101D3600B4A2D6B5BFA8D7F953687574746572B2E4
:101D4600E2CAD400B5AFBFA800C9C1CBB8B5E3C1DC
:101D5600C1B9A4D7F7D6B8CABEB5C600B9D8B1D5E9
:101D6600B9A4D7F7D6B8CABEB5C600CDB6B1D2BFEC
:101D7600DAB2E2CAD400BCECB2E2494FCAE4C8EB1C
:101D8600D0C5BAC500CEACD0DEB2E2CAD42D544915
:101D960055C4A3BFE9B8B4CEBB00CEACD0DEB2E228
:101DA600CAD42DB6CCCAB1B5E3C1C1B3F6C6B1BF6C
:101DB600DAB5C600CEACD0DEB2E2CAD42DB6CCCAF5
:101DC600B1B1A8BEAFC6F7B1A8BEAF00CEACD0DEEB
:101DD600B2E2CAD42D2DB4A2D6B5BFA8D7F953689E
:101DE6007574746572B2E2CAD400CEACD0DEB2E2CB
:101DF600CAD42D2DB5AFBFA800CEACD0DEB2E2CA94
:101E0600D42D2DC9C1CBB8B5E3C1C1B9A4D7F7D676
:101E1600B8CABEB5C600CEACD0DEB2E2CAD42DB9C1
:101E2600D8B1D5B9A4D7F7D6B8CABEB5C600CEAC18
:101E3600D0DEB2E2CAD42DCDB6B1D2BFDAB2E2CA92
:101E4600D400CEACD0DEB2E2CAD42D2D494FCAE4BE
:101E5600C8EBD0C5BAC500494FB0E5D2ECB3A30074
:101E6600CEACD0DEB2E2CAD42D494FCAE4C8EBD01C
:101E7600C5BAC500D6F7CEACD0DEC3C5B9D8B1D584
:101E860000D6F7CEACD0DEC3C5B4F2BFAA00D3B23B
:101E9600B1D2BBD8CAD5C7AECFE4B7ADB0E5B4F2C0
:101EA600BFAA00D3B2B1D2BBD8CAD5C7AECFE4B7AA
:101EB600ADB0E5B9D8B1D500D3B2B1D2BBD8CAD589
:101EC600C7AECFE4B5BDCEBB00D3B2B1D2BBD8CA84
:101ED600D5C7AECFE4CEB4B5BDCEBB00B7A2CADB84
:101EE600C4A3BFE9B5BDCEBB00B7A2CADBC4A3BFBE
:101EF600E9CEB4B5BDCEBB00D6BDB1D2D5D2C1E315
:101F0600C4A3BFE9B5BDCEBB00D6BDB1D2D5D2C143
:101F1600E3C4A3BFE9CEB4B5BDCEBB00D6BDB1D236
:101F2600C4A3BFE9B5BDCEBB00D6BDB1D2C4A3BF65
:101F3600E9CEB4B5BDCEBB00D3B2B1D2C4A3BFE91E
:101F4600B5BDCEBB00D3B2B1D2C4A3BFE9CEB4B542
:101F5600BDCEBB00CEDEB3CBBFCDBDD3BDFC00D363
:101F6600D0B3CBBFCDBDD3BDFC00C7B0CEACD0DEA9
:101F7600C3C5B9D8B1D500C7B0CEACD0DEC3C5B4E1
:101F8600F2BFAA00535654BFA8B5BDCEBB005356E8
:101F960054BFA8CEB4B5BDCEBB00CEACD0DEB2E247
:101FA600CAD42DD4CBD3AAD7B4CCACCFD4CABEC650
:101FB600F700C7EBD1A1D4F1D6B8B6A8B5C4CFD433
:101FC600CABED0C5CFA23A2D2D00CAB1BCE4C9E81D
:101FD600D6C300B1BEBBFAC9E8D6C300C9E8B1B8DA
:101FE600C9E8D6C32DCAB1BCE4C9E8D6C300CAB194
:101FF600BCE4C9E8D6C33A00C4EA2FD4C22FC8D578
:102006003A2D2D2D2D2F2D2D2F2D2D00CAB12FB769
:10201600D62FC3EB3A2D2D2F2D2D2F2D2D00C9E8B0
:10202600B1B8C9E8D6C32DB1BEBBFAC9E8D6C3005C
:10203600C9E8B1B849443A2D2D2D00B3B5D5BE49EE
:10204600443A2D2D2D2D00CFB5CDB3D6D8C6F400EC
:10205600B9D8BBFA00CDCBB3F6D3A6D3C300CFB560
:10206600CDB3B9D8B1D52DCFB5CDB3D6D8C6F4003A
:10207600B7A2CBCDB3C9B9A600CFB5CDB3B9D8B148
:10208600D52DB9D8BBFA00CFB5CDB3B9D8B1D52DBA
:10209600CDCBB3F6D3A6D3C300B6C1D0B4C6F7B37F
:1020A600CCD0F2CFC2D4D800D4CBD3AAD7B4CCAC40
:1020B600CFD4CABEC6F7C8EDBCFECFC2D4D800CEB8
:1020C600ACD0DEC3E6B0E5C8EDBCFECFC2D4D800C6
:1020D600C4A3BFE9C8EDBCFECFC2D4D82DD3B2B1DC
:1020E600D2C4A3BFE900C4A3BFE9C8EDBCFECFC2FA
:1020F600D4D82DB6C1D0B4C6F7B3CCD0F2CFC2D4A3
:10210600D800C4A3BFE9C8EDBCFECFC2D4D82DD435
:10211600CBD3AAD7B4CCACCFD4CABEC6F7CFD4CA19
:10212600BEC4DAC8DD00C4A3BFE9C8EDBCFECFC299
:10213600D4D82DD4CBD3AAD7B4CCACCFD4CABEC6B0
:10214600F7C8CECEF1C1D0B1ED00C4A3BFE9C8ED4A
:10215600BCFECFC2D4D82DCEACD0DEC3E6B0E500EF
:10216600CAFDBEDDB1B8B7DD00CAFDBEDDBBD6B85F
:10217600B400CAFDBEDDB5BCC8EB00CAFDBEDDB508
:10218600BCB3F600CAFDBEDDCEACBBA42DCAFDBEF7
:10219600DDB1B8B7DD00CAFDBEDDCEACBBA42DCA2D
:1021A600FDBEDDBBD6B8B400CAFDBEDDCEACBBA459
:1021B6002DCAFDBEDDB5BCC8EB00CAFDBEDDCEAC8A
:1021C600BBA42DCAFDBEDDB5BCB3F600C7EBCAE4A1
:1021D600C8EBC4FAD2AAB5BCB3F6BCC7C2BCB5C478
:1021E600C8D5C6DA3A002D2D2D2DC4EA2D2DD4C220
:1021F6002D2DC8D500D4CBD3AAB7FECEF12DB8FC71
:10220600BBBBC6B1CFE42DD7B0D4D841C6B1CFE45D
:1022160000D0C2C6B1CFE449443A5F5F5F5F5F5FFB
:102226005F5F00C7EBCAE4C8EBD5FDC8B7B5C4C647
:10223600B1CAFD21C6B1CFE400CEAABFD5CAB1B29C
:10224600B9302E00D4CBD3AAB7FECEF12DB8FCBB45
:10225600BBC6B1CFE42DD7B0D4D842C6B1CFE400C7
:10226600D4CBD3AAB7FECEF12DB2B9B3E4D3B2B173
:10227600D22DB2B9B1D2C7AECFE431B2B9B1D2CA5A
:10228600FD00CAE4C8EBD6B5B3ACB9FDB2B9B1D25C
:10229600D7EEB4F3D6B52100D3A6B2B9B1D2D6C122
:1022A600B2B9B1D2C7AECFE4322100B6C1C8A1C718
:1022B600AECFE44944B4EDCEF32100B2B9B1D2B405
:1022C600A6C0EDB4EDCEF32100D4CBD3AAB7FECE93
:1022D600F12DB2B9B3E4D3B2B1D22DB2B9B1D2C7EE
:1022E600AECFE432B2B9B1D2CAFD00D3A6B2B9B10B
:1022F600D2D6C1B2B9B1D2C7AECFE4312100D4CB68
:10230600D3AAB7FECEF12DB2B9B3E4D6BDB1D22D64
:1023160031BAC5D6BDB1D2D5D2C1E3CFE4B2B9B1D7
:10232600D200B2B9B1D2B3C9B9A62100B2B9B1D2FD
:10233600CAA7B0DC2100CAE4C8EBB4EDCEF3A3AC67
:10234600C7EBD6D8D0C2CAE4C8EB2100CEACD0DEEB
:10235600B2E2CAD42DD6BDB1D2D5D2C1E30031BACC
:10236600C5D5D2C1E3CFE4CAE4C8EBD6B5B3ACB9A0
:10237600FDD7EEB4F3D6B52100CAE4C8EBD3D0CE70
:10238600F32CC7EBD6D8D0C2CAE4C8EB2100CDA83F
:10239600D1B6CAA7B0DC2CC7EBD6D8D0C2CAE4C81F
:1023A600EB210020CAFDBEDDB9DCC0ED2DCAFDBEA5
:1023B600DDB5BCB3F62000C4FACAE4C8EBD6B5B4A2
:1023C600EDCEF32CC7EBD5FDC8B7CAE4C8EB2100A8
:1023D6003C20B0EFD6FA203E0046313AB0EFD6FAAE
:1023E600BCFC3B0046323AB2E9D1AFCEACD0DEC33C
:1023F600E6B0E5B0E6B1BEBAC53B0046333AC7A97A
:10240600CDCBBCFC3B0046343AB8B4CEBBBCFC3B9F
:102416000046353ACDCBB8F13B0046363AC7E5BF64
:10242600D53B0046373AD6F7B2CBB5A53B00463882
:102436003ACAD7D2B33B0046393AC4A9D2B33B0015
:10244600BBD8CDCBBCFC3AB7B5BBD8C9CFBCB6B2AE
:10245600CBB5A53B00BCFDCDB7BCFC3AC3BFD2BBD8
:10246600C6C1B5C4C3BFD2BBD0D0B5C4D1A1D4F107
:10247600BCFC3B004E554DBCFC3ACAFDD7D6D3EB4F
:10248600BCFDCDB7C7D0BBBBBCFC3B003C204D540C
:1024960050B9CCBCFEB0E6B1BEB2E9D1AF203E0029
:1024A60054564DCEACD0DEC3E6B0E5B9CCBCFEB0DA
:1024B600E6B1BEBAC53A56302E392E3900D6D0B955
:1024C600FAC8FDD0C75344530053414D53554E47A8
:1024D60020534453204348494E4100D4B1B9A4BFC8
:1024E600A8BAC53A31323334353600C3DCC2EB3ACA
:1024F6002D2D2D2D2D2D0000000000040C1C3C7CE4
:102506003C1C0C040000000000081C3E7FFF00007D
:1025160000FF7F3E1C08000000000010189C1E1FD4
:102526001E9C1810000000FFFFFFFF0101010203BF
:10253600040506070801020304050607080102034D
:10254600040506010102030401010101010203045D
:1025560005010101020101FFFF01FF010102010264
:10256600030102030102030405060708010203042E
:102576000506070801020304050102010101020321
:102586000401020304010201020102030405060715
:102596000809010102FF0101010101020301020311
:0725A6000401020304FF0120
:10C3820020004CC200E4900B1EF0FF12C1D612C76F
:10C392003F7FF47E0112C6B212C73F7BFF7A00795B
:10C3A2005612C7F1900040EFF0900B1EE0FF900094
:10C3B2003D74FFF0A37400F0A37456F0E4FBFD1289
:10C3C200C4717BFF7A00795E7D297FF312C82E2229
:10AB0E0030000302ABA1D200E4900B1EF0FF12C185
:10AB1E00D67E017F047DFF7B017A0779001260905B
:10AB2E007BFF7A2479C37D297F3212C82E7BFF7A70
:10AB3E000079727D0A7F5C12C82E12C73F7FF47EA9
:10AB4E000112C6B212C73F7BFF7A007984E49000EF
:10AB5E0024F07D2C7FF512C8567BFF7A007994E4A1
:10AB6E00900028F07D2C7FF612C865E4900700F067
:10AB7E00A3F090070204F0A3F090071174F0F0A375
:10AB8E007404F0E4A3F0900712E0FF126B40E4FFB0
:04AB9E001268832294
:109AA500780D7C007D017BFF7A25792D7E007F0670
:109AB500125D51300003029B5FD200E4900B1EF053
:109AC500FF12C1D67E017F047DFF7B017A077900F5
:109AD5001260907BFF7A2479C37D297F3212C82ECC
:109AE5007BFF7A0079727D0A7F5C12C82E12C73F10
:109AF5007FF47E0112C6B212C73FE4900700F0A3BF
:109B0500F090070204F0A3F090071174F0F0A3742D
:109B150004F0E4A3F0900712E0FF126B40E4FF129B
:109B250068837BFF7A0079A0E4900028F07D2C7F84
:109B3500F512C8657BFF7A0079949000287406F0C9
:109B45007D2C7FF612C86578047C077D017B017A40
:0A9B550000790D7E007F06125D51BD
:019B5F0022E3
:10579200780F7C007D017BFF7A2579337E007F08BC
:1057A200125D51E4900017F090001A04F0A3740007
:1057B200F0A3740FF0E4FF74202FF582E4340BF5AC
:1057C20083E0D3941050050FEFB410EB900017EF65
:1057D200F0C39407400302594B9000277401F0A3D1
:1057E200128E6FE4900018F0A3F0900018E0FFC34F
:1057F2009406502774202FF582E4340BF583E0FFE2
:10580200900019E0FE04F074042EF582E43407F5EA
:1058120083EFF0900018E004F080CF900B1EE0FFC1
:105822007E007C017D04125DB6740F2FF974083E70
:10583200A801FC7D017B017A0779007E017F0412B9
:105842005D517BFF7A0079B07D307FF012C82EE483
:10585200900019F0900019E0FF2404F582E4340767
:10586200F583E0C394644003025C7EEF9405400339
:10587200025C7E900019E0FF2404F582E43407F50F
:1058820083E0900018F0E014B4080040030259329B
:105892009058A075F003A4C58325F0C58373025800
:1058A200B80258C40258D30258E20258F102590011
:1058B20002590F02591EEF24F1FF7BFF7A0079BBD8
:1058C2008067900019E024F1FF7BFF7A0079C480A1
:1058D20058900019E024F1FF7BFF7A0079CD8049CE
:1058E200900019E024F1FF7BFF7A0079D6803A908C
:1058F2000019E024F1FF7BFF7A0079DF802B900012
:1059020019E024F1FF7BFF7A0079E8801C900019EE
:10591200E024F1FF7BFF7A0079F1800D900019E01D
:1059220024F1FF7BFF7A0079FE7D2C12C82E8010B5
:10593200900019E02404F582E43407F58374FFF043
:10594200900019E004F00258569000277402F0A368
:1059520014128E6FE4900018F0A3F0900018E0FF8C
:10596200C39406502C74202FF582E4340BF583E0A7
:10597200FFC394645013900019E0FE04F074042EE7
:10598200F582E43407F583EFF0900018E004F0802C
:10599200CA900B1EE0FF7E007C017D04125DB6748E
:1059A2000F2FF974083EA801FC7D017B017A07796B
:1059B200007E017F04125D517BFF7A0079B07D3059
:1059C2007FF012C82EE4900019F0900019E0FF2435
:1059D20004F582E43407F583E0C394644003025A79
:1059E200C1EF94054003025AC1900019E0FF24045C
:1059F200F582E43407F583E0900018F0E014B4086F
:105A0200004003025AA8905A1675F003A4C58325D4
:105A1200F0C58373025A2E025A3A025A49025A5860
:105A2200025A67025A76025A85025A94EF24F1FF0B
:105A32007BFF7A0079BB8067900019E024F1FF7B3D
:105A4200FF7A0079C48058900019E024F1FF7BFFAF
:105A52007A0079CD8049900019E024F1FF7BFF7A2A
:105A62000079D6803A900019E024F1FF7BFF7A009A
:105A720079DF802B900019E024F1FF7BFF7A007917
:105A8200E8801C900019E024F1FF7BFF7A0079F195
:105A9200800D900019E024F1FF7BFF7A0079FE7DF2
:105AA2002C12C82E8010900019E02404F582E434F0
:105AB20007F58374FFF0900019E004F00259CC90CE
:105AC2000B26E0C394644003025C7E9000277402BC
:105AD200F0A3F090001AE0FBA3E0FAA3E02406F999
:105AE200E43AFA900029EBF0A3EAF0A3E9F090007F
:105AF20017E024FA90002CF0A374F1F0A37403F0E1
:105B0200A374FFF07B017A007D017F01128E9C90CD
:105B120000187406F0E4A3F0900018E0FFC39408A4
:105B2200502C74202FF582E4340BF583E0FFC394EC
:105B3200645013900019E0FE04F074042EF582E420
:105B42003407F583EFF0900018E004F080CA900B60
:105B52001EE0FF7E007C017D04125DB6740F2FF9FA
:105B620074083EA801FC7D017B017A0779007E0161
:105B72007F04125D517BFF7A0079B07D307FF01295
:105B8200C82EE4900019F0900019E0FF2404F58279
:105B9200E43407F583E0C394644003025C7EEF942F
:105BA200054003025C7E900019E0FF2404F582E4C4
:105BB2003407F583E0900018F0E014B408004003C5
:105BC200025C65905BD375F003A4C58325F0C583A1
:105BD20073025BEB025BF7025C06025C15025C245B
:105BE200025C33025C42025C51EF24F1FF7BFF7ADC
:105BF2000079BB8067900019E024F1FF7BFF7A00F7
:105C020079C48058900019E024F1FF7BFF7A007973
:105C1200CD8049900019E024F1FF7BFF7A0079D60C
:105C2200803A900019E024F1FF7BFF7A0079DF804F
:105C32002B900019E024F1FF7BFF7A0079E8801CA9
:105C4200900019E024F1FF7BFF7A0079F1800D903A
:105C52000019E024F1FF7BFF7A0079FE7D2C12C847
:105C62002E8010900019E02404F582E43407F583B5
:0F5C720074FFF0900019E004F0025B8902907259
:108A3E00780D7C007D017BFF7A25793B7E007F08D7
:108A4E00125D519000157401F0A37400F0A3740D23
:108A5E00F09000277402F0A314F0900015E0F9A333
:108A6E00E0FAA3E0900029C9F0A3EAF0A3E9F0A38D
:108A7E007406F0A374F1F0A37403F0A374FFF07BFB
:108A8E0015128E977BFF7A0079BB7D307FF012C86E
:108A9E002E7BFF7A0179077D2C7FF112C82E7BFF8A
:108AAE007A0179107D2C7FF212C82E7BFF7A017924
:108ABE001D7D2C7FF312C82E7BFF7A0179267D2C2B
:108ACE007FF412C82E7BFF7A01792F7D2C7FF51251
:108ADE00C82E7BFF7A01793C7D2C7FF612C82E9032
:108AEE0000277402F0A3F0900015E0FBA3E0FAA3B8
:108AFE00E02406F9E43AFA900029EBF0A3EAF0A399
:108B0E00E9F0A37402F0A374F1F0A37403F0A3745C
:108B1E00FFF07B157A007D017F01128E9C7BFF7A20
:108B2E000079BB7D307FF012C82E7BFF7A01794130
:108B3E007D2C7FF112C82E7BFF7A01794E7D2C7F22
:078B4E00F212C82E02907222
:109CCE00780D7C007D017BFF7A2579437E007F062F
:109CDE00125D519000137401F0A37400F0A3740D83
:109CEE00F09000277401F0A3F0900013E0F9A3E0C8
:109CFE00FAA3E0900029C9F0A3EAF0A3E9F0A37457
:109D0E0006F0A374F1F0A37403F0A374FFF07BA527
:109D1E007A01E4FDFF128E9C7BFF7A01795B7D3028
:109D2E007FF012C82E7BFF7A01796D7D2C7FF112A8
:109D3E00C82E7BFF7A0179777D2C7FF212C82E7B9D
:109D4E00FF7A0179817D2C7FF312C82E7BFF7A0179
:109D5E00798B7D2C7FF412C82E7BFF7A0179957D4D
:109D6E002C7FF512C82E7BFF7A0179A07D2C7FF611
:069D7E0012C82E029072D3
:1092FF0090000DEEF0A3EFF04E701390001E04F0EF
:10930F00A3F0A374F1F0A37405F07BE5802E900019
:10931F000DE07004A3E0640190001E701004F0A330
:10932F00F0A374F1F0A37405F07BE7800F7401F0E4
:10933F00A3F0A374F1F0A37405F07BE912B7DD90ED
:10934F00000DE07002A3E070087BFF7A0179AB801B
:10935F001890000DE07004A3E064017BFF70067AA3
:10936F000179BE80047A0179D17D307FF012C82E49
:10937F00900107E07BFF701C7A0179E590002404CF
:10938F00F07D2C7FF112C8567BFF7A0179F57D2C89
:10939F007FF280087A0279017D2C7FF112C82E901E
:1093AF000B1EE0FF7E007C017D04125DB6740F2F53
:1093BF00F974083EA801FC7D017B017A0779007ED4
:0993CF00017F04125D510290724D
:10921C00781A7C007D017BFF7A2579497E007F01DD
:10922C00125D5190001B7401F0A37400F0A3741A2A
:10923C00F09000277401200D2BF0A3F090001BE0A0
:10924C00F9A3E0FAA3E0900029C9F0A3EAF0A3E99E
:10925C00F0A37401F0A374F0F0A37404F0E4A3F091
:10926C007BE68029F0A3F090001BE0F9A3E0FAA3C1
:10927C00E0900029C9F0A3EAF0A3E9F0A37401F08F
:10928C00A374F0F0A37404F0E4A3F07BE87A20FD5F
:10929C00FF128E9C7BFF200D137A02790B7D307FA1
:1092AC00F012C82E7BFF7A02791E80117A02793176
:1092BC007D307FF012C82E7BFF7A027944E4900057
:1092CC0028F07D2C7FF112C865900B1EE0FF7E000C
:1092DC007C017D04125DB6740F2FF974083EA80151
:1092EC00FC7D017B017A0779007E017F04125D51C0
:0392FC000290726B
:10BA110090001E7401F0A3F0A374F1F0A37405F07B
:10BA21007BEA12B7DD7BFF7A0279577D307FF01216
:10BA3100C82E900107E07BFF70127A02796B9000AB
:10BA41002404F07D2C7FF112C856800B7A02790113
:10BA51007D2C7FF112C82E900B1EE0FF7E007C0131
:10BA61007D04125DB6740F2FF974083EA801FC7DA8
:10BA7100017B017A0779007E017F04125D510290FA
:01BA81007252
:10A6DA00780D7C007D017BFF7A25794A7E007F0414
:10A6EA00125D519000117401F0A37400F0A3740D6F
:10A6FA00F09000277401F0A3F0900011E0F9A3E0B4
:10A70A00FAA3E0900029C9F0A3EAF0A3E9F0A37440
:10A71A0004F0A374F1F0A37403F0A374FFF07BA612
:10A72A007A01E4FDFF128E9C7BFF7A02797D7D30EF
:10A73A007FF012C82E7BFF7A0279937D2C7FF1126B
:10A74A00C82E7BFF7A0279A17D2C7FF212C82E7B5C
:10A75A00FF7A0279AF7D2C7FF312C82E7BFF7A0233
:0CA76A0079BD7D2C7FF412C82E02907285
:109B600090001E7401F0A3F0A374F1F0A37405F04B
:109B70007BF912B7DD7BFF7A0279CB7D307FF01263
:109B8000C82E900107E0125E939BA8009BB0F19B4A
:109B9000B8F29BC0F39BC8F49BD0F59BD8F79BE031
:109BA000F89BE0FF00009BED7BFF7A0279E28036B4
:109BB0007BFF7A0279EE802E7BFF7A0279FA80268B
:109BC0007BFF7A037906801E7BFF7A03790E80166D
:109BD0007BFF7A037925800E7BFF7A03793E80062E
:109BE0007BFF7A0279017D2C7FF112C82E900B1E2B
:109BF000E0FF7E007C017D04125DB6740F2FF974C6
:109C0000083EA801FC7D017B017A0779007E017F77
:079C100004125D5102907285
:109E3900781A7C007D017BFF7A25794E7E007F02AE
:109E4900125D5190001C7401F0A37400F0A3741A00
:109E5900F0900107E0705490002704F0A3F09000FF
:109E69001CE0F9A3E0FAA3E0900029C9F0A3EAF005
:109E7900A3E9F0A37401F0A374F0F0A37404F0E46F
:109E8900A3F07BFA7A20FDFF128E9C7BFF7A03797F
:109E9900577D307FF012C82E7BFF7A03796E9000D0
:109EA900247401F07D2C7FF112C8567BFF7A037967
:109EB90089E4900028F07D307FF212C865900B1E6E
:109EC900E0FF7E007C017D04125DB6740F2FF974EA
:109ED900083EA801FC7D017B017A0779007E017F9C
:049EE90004025D51C1
:109C170090001E7401F0A3F0A374F1F0A37405F093
:109C27007BFB12B7DD7BFF7A0379A17D307FF012D2
:109C3700C82E900107E0125E939C5F009C67F19C21
:109C47006FF29C77F39C7FF49C87F59C8FF79C972A
:109C5700F89C97FF00009CA47BFF7A0279E280368C
:109C67007BFF7A0279EE802E7BFF7A0279FA8026D3
:109C77007BFF7A037906801E7BFF7A03790E8016B5
:109C87007BFF7A037925800E7BFF7A03793E800676
:109C97007BFF7A0279017D2C7FF112C82E900B1E73
:109CA700E0FF7E007C017D04125DB6740F2FF9740E
:109CB700083EA801FC7D017B017A0779007E017FC0
:079CC70004125D51029072CE
:109EED00781A7C007D017BFF7A2579507E007F02F8
:109EFD00125D5190001C7401F0A37400F0A3741A4C
:109F0D00F0900107E0705490002704F0A3F090004A
:109F1D001CE0F9A3E0FAA3E0900029C9F0A3EAF050
:109F2D00A3E9F0A37401F0A374F0F0A37404F0E4BA
:109F3D00A3F07BFC7A20FDFF128E9C7BFF7A0379C8
:109F4D00B87D307FF012C82E7BFF7A0379CF900059
:109F5D00247401F07D2C7FF112C8567BFF7A0379B2
:109F6D00EAE4900028F07D307FF212C865900B1E58
:109F7D00E0FF7E007C017D04125DB6740F2FF97435
:109F8D00083EA801FC7D017B017A0779007E017FE7
:049F9D0004025D510C
:10A26000780D7C007D017BFF7A2579527E007F0589
:10A27000125D519000127401F0A37400F0A3740DEC
:10A28000F09000277401F0A3F0900012E0F9A3E031
:10A29000FAA3E0900029C9F0A3EAF0A3E9F0A374BF
:10A2A00005F0A374F1F0A37403F0A374FFF07BA78F
:10A2B0007A01E4FDFF128E9C7BFF7A0479027D30E7
:10A2C0007FF012C82E7BFF7A0479147D2C7FF11267
:10A2D000C82E7BFF7A0479217D2C7FF212C82E7B59
:10A2E000FF7A0479347D2C7FF312C82E7BFF7A0429
:10A2F00079467D2C7FF412C82E7BFF7A0479587D35
:09A300002C7FF512C82E029072A8
:1097B50090001E7401F0A3F0A374F1F0A37405F0FA
:1097C5007B0D7A21E4FDFF12B7E27BFF7A04796510
:1097D5007D307FF012C82E900107E0125E9398024B
:1097E50000980AF19812F2981AF39822F4982AF53B
:1097F5009832F7983AF8983AFF000098477BFF7A35
:109805000279E280367BFF7A04797B802E7BFF7AB2
:109815000279FA80267BFF7A037906801E7BFF7A20
:1098250003790E80167BFF7A037925800E7BFF7AFC
:1098350003793E80067BFF7A0279017D2C7FF11248
:10984500C82E900B1EE0FF7E007C017D04125DB6E4
:10985500740F2FF974083EA801FC7D017B017A077E
:0C98650079007E017F04125D51029072B8
:1098710090001E7401F0A3F0A374F1F0A37405F03D
:109881007B0E7A21E4FDFF12B7E27BFF7A04798730
:109891007D307FF012C82E900107E0125E9398BED2
:1098A1000098C6F198CEF298D6F398DEF498E6F5D2
:1098B10098EEF798F6F898F6FF000099037BFF7A87
:1098C1000279E280367BFF7A04797B802E7BFF7AF6
:1098D1000279FA80267BFF7A037906801E7BFF7A64
:1098E10003790E80167BFF7A037925800E7BFF7A40
:1098F10003793E80067BFF7A0279017D2C7FF1128C
:10990100C82E900B1EE0FF7E007C017D04125DB627
:10991100740F2FF974083EA801FC7D017B017A07C1
:0C99210079007E017F04125D51029072FB
:10992D0090001E7401F0A3F0A374F1F0A37405F080
:10993D007B0F7A21E4FDFF12B7E27BFF7A0479A356
:10994D007D307FF012C82E900107E0125E93997A58
:10995D00009982F1998AF29992F3999AF499A2F564
:10996D0099AAF799B2F899B2FF000099BF7BFF7AD7
:10997D000279E280367BFF7A04797B802E7BFF7A39
:10998D000279FA80267BFF7A037906801E7BFF7AA7
:10999D0003790E80167BFF7A037925800E7BFF7A83
:1099AD0003793E80067BFF7A0279017D2C7FF112CF
:1099BD00C82E900B1EE0FF7E007C017D04125DB66B
:1099CD00740F2FF974083EA801FC7D017B017A0705
:0C99DD0079007E017F04125D510290723F
:1099E90090001E7401F0A3F0A374F1F0A37405F0C4
:1099F9007B107A21E4FDFF12B7E27BFF7A0479BE7E
:109A09007D307FF012C82E900107E0125E939A36DE
:109A1900009A3EF19A46F29A4EF39A56F49A5EF5F6
:109A29009A66F79A6EF89A6EFF00009A7B7BFF7A26
:109A39000279E280367BFF7A04797B802E7BFF7A7C
:109A49000279FA80267BFF7A037906801E7BFF7AEA
:109A590003790E80167BFF7A037925800E7BFF7AC6
:109A690003793E80067BFF7A0279017D2C7FF11212
:109A7900C82E900B1EE0FF7E007C017D04125DB6AE
:109A8900740F2FF974083EA801FC7D017B017A0748
:0C9A990079007E017F04125D5102907282
:107E7400900107E06003027FC790001E7402F0A324
:107E840014F0A374F1F0A37405F07B117A21E4FDDE
:107E9400FF12B7E27BFF7A0479D97D307FF012C8F4
:107EA4002E7BFF7A0479F3900024740BF07D2C7FF1
:107EB400F112C8567BFF7A05790F9000247410F0F4
:107EC4007D2C7FF212C8567BFF7A05792B90002413
:107ED4007415F07D2C7FF312C8567BFF7A05794325
:107EE400900024741AF07D2C7FF412C8567BFF7A1C
:107EF40005795B900024741FF07D2C7FF512C85621
:107F04007BFF7A0579739000247424F07D2C7FF62E
:107F140012C856900B1EE0FF7E007C017D04125DAA
:107F2400B6740F2FF974083EA801FC7D017B017A19
:107F34000779007E017F04125D5190001E7402F0E7
:107F4400A3F0A374F1F0A37405F07B117A217D01F1
:107F54007F0112B7E27BFF7A0479D97D307FF0127A
:107F6400C82E7BFF7A05798B9000247429F07D2C30
:107F74007FF112C8567BFF7A05799D9000247431F5
:107F8400F07D2C7FF212C8567BFF7A0579B29000FF
:107F9400247437F07D2C7FF312C8567BFF7A057961
:107FA400D2900024743CF07D2C7FF412C8567BFFE1
:107FB4007A0579EE9000247441F07D2C7FF512C887
:107FC40056805490001E7401F0A3F0A374F1F0A342
:107FD4007405F07B117A21E4FDFF12B7E27BFF7A8E
:107FE4000479D97D307FF012C82E900107E0240E69
:107FF400601024F36014240E701D7BFF7A06790A46
:10800400800E7BFF7A06791680067BFF7A06792636
:0B8014007D2C7FF112C82E12904B2231
:109FA100780D7C007D017BFF7A2579577E007F0249
:109FB100125D5190000F7401F0A37400F0A3740DB1
:109FC100F0900107E0705490002704F0A3F0900096
:109FD1000FE0F9A3E0FAA3E0900029C9F0A3EAF0A9
:109FE100A3E9F0A37401F0A374F0F0A37404F0E406
:109FF100A3F07BA87A01FDFF128E9C7BFF7A067984
:10A00100387D307FF012C82E7BFF7A06794A9000A6
:10A01100247401F07D2C7FF112C8567BFF7A0679FA
:10A021006DE4900028F07D307FF212C865900B1E20
:10A03100E0FF7E007C017D04125DB6740F2FF97480
:10A04100083EA801FC7D017B017A0779007E017F32
:04A0510004025D5157
:1072690090001E7403F0A37401F0A374F1F0A374E9
:1072790005F07BA97A01E4FDFF12B7E27BFF7A06EC
:10728900798B7D307FF012C82E7BFF7A0679A3E4D3
:10729900900024F07D307FF112C8567BFF7A067981
:1072A900C3900024740AF07D307FF212C8567BFF28
:1072B9007A0679E39000247414F07D307FF312C8C4
:1072C900567BFF7A077905900024741EF07D307F84
:1072D900F412C8567BFF7A0779279000247428F0A6
:1072E9007D307FF512C8567BFF7A077941900024DB
:1072F9007432F07D307FF612C856900B1EE0FF7E87
:10730900007C017D04125DB6740F2FF974083EA844
:1073190001FC7D017B017A0779007E017F04125D02
:107329005190001E7403F0A314F0A374F1F0A37438
:1073390005F07BA97A017D017F0112B7E27BFF7A13
:1073490006798B7D307FF012C82E7BFF7A07796032
:10735900900024743CF07D307FF112C8567BFF7A8F
:1073690007797F9000247446F07D307FF212C85669
:107379007BFF7A0779A39000247450F07D307FF366
:1073890012C8567BFF7A0779C3900024745AF07D9E
:10739900307FF412C8567BFF7A0779E6900024748F
:1073A90064F07D307FF512C8567BFF7A08790A9020
:1073B9000024746EF07D307FF612C856900B1EE0E3
:1073C900FF7E007C017D04125DB6740F2FF97408ED
:1073D9003EA801FC7D017B017A0779007E017F04CB
:1073E900125D5190001E7403F0A3F0A374F1F0A391
:1073F9007405F07BA97A017D027F0212B7E27BFF57
:107409007A06798B7D307FF012C82E7BFF7A087956
:107419002E9000247478F07D307FF112C8567BFFDE
:107429007A0879529000247482F07D307FF212C874
:10743900567BFF7A087977900024748CF07D307F31
:10744900F312C8567BFF7A08798F9000247496F05E
:107459007D307FF412C8567BFF7A0879A790002403
:1074690074A0F07D307FF512C856900B1EE0FF7EA8
:10747900007C017D04125DB6740F2FF974083EA8D3
:1074890001FC7D017B017A0779007E017F04125D91
:04749900510290729A
:10BB640090001E7401F0A3F0A374F1F0A37405F027
:10BB74007BAA7A01E4FDFF12B7E27BFF7A0879C55C
:10BB84007D307FF012C82E900107E07BFF70067AAB
:10BB94000879D380047A0279017D2C7FF112C82EB2
:10BBA400900B1EE0FF7E007C017D04125DB6740FD5
:10BBB4002FF974083EA801FC7D017B017A07790006
:0ABBC4007E017F04125D51029072B1
:10BBCE0090001E7401F0A3F0A374F1F0A37405F0BD
:10BBDE007BAB7A01E4FDFF12B7E27BFF7A0879DDD9
:10BBEE007D307FF012C82E900107E07BFF70067A41
:10BBFE000879F380047A0879FD7D2C7FF112C82E26
:10BC0E00900B1EE0FF7E007C017D04125DB6740F6A
:10BC1E002FF974083EA801FC7D017B017A0779009B
:0ABC2E007E017F04125D5102907246
:10BC380090001E7401F0A3F0A374F1F0A37405F052
:10BC48007BAC7A01E4FDFF12B7E27BFF7A09790742
:10BC58007D307FF012C82E900107E07BFF70067AD6
:10BC68000879F380047A0879FD7D2C7FF112C82EBB
:10BC7800900B1EE0FF7E007C017D04125DB6740F00
:10BC88002FF974083EA801FC7D017B017A07790031
:0ABC98007E017F04125D51029072DC
:10B65600780D7C007D017BFF7A2579597E007F027B
:10B66600125D5190000F7401F0A37400F0A3740DE5
:10B67600F09000277401F0A3F090000FE0F9A3E02A
:10B68600FAA3E0900029C9F0A3EAF0A3E9F0A374B5
:10B6960002F0A374F1F0A37403F0A374FFF07B1619
:10B6A600128E977BFF7A0079C47D307FF012C82E08
:10B6B6007BFF7A09791D7D2C7FF112C82E7BFF7ADC
:0DB6C6000979267D2C7FF212C82E029072A9
:10957700781A7C007D017BFF7A25795B7E007F0668
:10958700125D519000207401F0A37400F0A3741AC7
:10959700F09000277401F0A3F0900020E0F9A3E019
:1095A700FAA3E0900029C9F0A3EAF0A3E9F0A374B5
:1095B70006F0A374F0F0A37404F0E4A3F07BB97A87
:1095C70001FDFF128E9C7BFF7A09792F7D307FF09A
:1095D70012C82E7BFF7A097941E4900028F07D308C
:1095E7007FF112C8657BFF7A0979619000287401C1
:1095F700F07D307FF212C8657BFF7A09796C7D3088
:109607007FF312C82E7BFF7A0979907D307FF412A1
:10961700C82E7BFF7A0979B39000287402F07D3059
:109627007FF512C8657BFF7A0979BA7D307FF6022C
:02963700C82E3B
:10B84300780D7C007D017BFF7A2579617E007F0185
:10B85300125D5190000E7401F0A37400F0A3740DF7
:10B86300F09000277401F0A3F090000EE0F9A3E03C
:10B87300FAA3E0900029C9F0A3EAF0A3E9F0A374C6
:10B8830001F0A374F1F0A37403F0A374FFF07BBA87
:10B893007A01E4FDFF128E9C7BFF7A0979E07D300B
:10B8A3007FF012C82E7BFF7A0979F27D2C7FF1128B
:05B8B300C82E02907296
:10B35100780D7C007D017BFF7A2579627E007F027A
:10B36100125D5190000F7401F0A37400F0A3740DED
:10B37100F09000277401F0A3F090000FE0F9A3E032
:10B38100FAA3E0900029C9F0A3EAF0A3E9F0A374BD
:10B3910002F0A374F1F0A37403F0A374FFF07B89AE
:10B3A1007A22E4FDFF128E9C7BFF7A0979FF7D30C2
:10B3B1007FF012C82E7BFF7A0A79157D2C7FF1125E
:10B3C100C82E7BFF7A0A791A7D2C7FF212C82E02D1
:02B3D100907278
:10BCA20090001E7401F0A3F0A374F1F0A37405F0E8
:10BCB2007BB57AB2E4FDFF12B7E27BFF7A0A791F05
:10BCC2007D307FF012C82E900107E07BFF70067A6C
:10BCD2000A793180047A0A79377D307FF112C82ED1
:10BCE200900B1EE0FF7E007C017D04125DB6740F96
:10BCF2002FF974083EA801FC7D017B017A077900C7
:0ABD02007E017F04125D5102907271
:10BD0C0090001E7401F0A3F0A374F1F0A37405F07D
:10BD1C007BB67AB2E4FDFF12B7E27BFF7A0A794177
:10BD2C007D307FF012C82E900107E07BFF70067A01
:10BD3C000A793180047A0A79377D307FF112C82E66
:10BD4C00900B1EE0FF7E007C017D04125DB6740F2B
:10BD5C002FF974083EA801FC7D017B017A0779005C
:0ABD6C007E017F04125D5102907207
:10B0A400780D7C007D017BFF7A2579647E007F0327
:10B0B400125D519000107401F0A37400F0A3740D9C
:10B0C400F09000277401F0A3F0900010E0F9A3E0E1
:10B0D400FAA3E0900029C9F0A3EAF0A3E9F0A3746D
:10B0E40003F0A374F1F0A37403F0A374FFF07B17CF
:10B0F400128E977BFF7A0079CD7D307FF012C82EB7
:10B104007BFF7A0A79537D2C7FF112C82E7BFF7A5C
:10B114000A79607D2C7FF212C82E7BFF7A0A796D42
:0AB124007D2C7FF312C82E029072FA
:10ACC500780D7C007D017BFF7A2579677E007F0307
:10ACD500125D519000107401F0A37400F0A3740D7F
:10ACE500F09000277401F0A3F0900010E0F9A3E0C4
:10ACF500FAA3E0900029C9F0A3EAF0A3E9F0A37450
:10AD050003F0A374F1F0A37403F0A374FFF07BCDFB
:10AD15007A01E4FDFF128E9C7BFF7A0A797A7D30F9
:10AD25007FF012C82E7BFF7A0A79907D2C7FF11275
:10AD3500C82E7BFF7A0A799D7D2C7FF212C82E7B67
:0FAD4500FF7A0A79A67D2C7FF312C82E02907236
:10BF880090001E7401F0A3F0A374F1F0A37405F0FF
:10BF9800FB7A24E4FDFF12B7E27BFF7A0A79AF7DD2
:10BFA800307FF012C82E900107E07BFF70067A0AF6
:10BFB80079C580047A0A79CF7D2C7FF112C82E903A
:10BFC8000B1EE0FF7E007C017D04125DB6740F2F0E
:10BFD800F974083EA801FC7D017B017A0779007E8F
:09BFE800017F04125D5102907208
:10847E0090001E7402F0A314F0A374F1F0A374051F
:10848E00F07B067A24E4FDFF12B7E27BFF7A0A79CD
:10849E00D97D307FF012C82E7BFF7A0A79EBE490FB
:1084AE000024F07D307FF112C8567BFF7A0A79FDE9
:1084BE009000247409F07D307FF212C8567BFF7A4B
:1084CE000B79159000247415F07D307FF312C85689
:1084DE007BFF7A0B792F9000247421F07D307FF48E
:1084EE0012C8567BFF7A0B794D900024742DF07DC7
:1084FE00307FF512C8567BFF7A0B795A90002474A0
:10850E0031F07D307FF612C856900B1EE0FF7E00D4
:10851E007C017D04125DB6740F2FF974083EA8011C
:10852E00FC7D017B017A0779007E017F04125D518B
:10853E0090001E7402F0A3F0A374F1F0A37405F082
:10854E007B067A247D017F0112B7E27BFF7A0A79DE
:10855E00D97D307FF012C82E7BFF7A0B7978900090
:10856E0024743DF07D307FF112C8567BFF7A0B7973
:10857E00999000247449F07D307FF212C856900B0A
:10858E001EE0FF7E007C017D04125DB6740F2FF994
:10859E0074083EA801FC7D017B017A0779007E01FB
:0885AE007F04125D510290727E
:10528A00900010EFF0600302555F90001E7406F064
:10529A00A37401F0A374F1F0A37405F07B077A24D8
:1052AA00E4FDFF12B7E27BFF7A0B79B07D307FF025
:1052BA0012C82E900107E0240F601A14601F1460B0
:1052CA000C240370257BFF7A0B79C280167BFF7A48
:1052DA000B79CD800E7BFF7A0B79D880067BFF7A1B
:1052EA000B79DF7D307FF112C82E900108E0240E81
:1052FA00601314601824F4601C240E70257BFF7A56
:10530A000B79E680167BFF7A0B79F8800E7BFF7AA1
:10531A000C790A80067BFF7A0C791C7D307FF212A9
:10532A00C82E900109E0240FB4070050609053453D
:10533A0075F003A4C58325F0C5837302535A02533B
:10534A006202536A02537202537A02538202538AE6
:10535A007BFF7A0C792C802E7BFF7A0C793C802695
:10536A007BFF7A0C794C801E7BFF7A0C795A801667
:10537A007BFF7A0C796E800E7BFF7A0C798080062F
:10538A007BFF7A0C79927D307FF312C82E7BFF7AED
:10539A000C79AA9000247403F07D307FF412C85669
:1053AA007BFF7A0C79B89000247407F07D307FF582
:1053BA0012C8567BFF7A0C79CC900024740BF07DCE
:1053CA00307FF612C856900B1EE0FF7E007C017DEE
:1053DA0004125DB6740F2FF974083EA801FC7D0112
:1053EA007B017A0779007E017F04125D5190001ECD
:1053FA007406F0A37402F0A374F1F0A37405F07BB1
:10540A00077A247D017F0112B7E27BFF7A0B79B01C
:10541A007D307FF012C82E7BFF7A0C79E090002451
:10542A007411F07D307FF112C8567BFF7A0C79F83F
:10543A009000247415F07D307FF212C8567BFF7AF3
:10544A000D790B9000247419F07D307FF312C85641
:10545A00900124E07BFF70067A0D791D80047A0D95
:10546A00792B7D307FF412C82E7BFF7A0D793A9022
:10547A000024742BF07D307FF512C8567BFF7A0D1D
:10548A0079509000247433F07D307FF612C856901C
:10549A000B1EE0FF7E007C017D04125DB6740F2FA7
:1054AA00F974083EA801FC7D017B017A0779007E28
:1054BA00017F04125D5190001E7406F0A37403F07C
:1054CA00A374F1F0A37405F07B077A247D027F02AE
:1054DA0012B7E27BFF7A0B79B07D307FF012C82ECB
:1054EA007BFF7A0D7966900024743BF07D307FF162
:1054FA0012C8567BFF7A0D797F900024744BF07D99
:10550A00307FF212C8567BFF7A0D79979000247487
:10551A0050F07D307FF312C8567BFF7A0D79AF9039
:10552A0000247455F07D307FF412C8567BFF7A0D43
:10553A0079CB900024745FF07D307FF512C8567BDA
:10554A00FF7A0D79E49000247469F07D307FF612B9
:10555A00C85602578E900010E0640160030257910A
:10556A0090001E7406F0A37404F0A374F1F0A374FF
:10557A0005F07B077A24E4FDFF12B7E27BFF7A0B82
:10558A0079B07D307FF012C82E7BFF7A0D79FA90C0
:10559A0000247473F07D307FF112C8567BFF7A0EB7
:1055AA007913900024747AF07D307FF212C8567B0A
:1055BA00FF7A0E792A900024747CF07D307FF312F2
:1055CA00C856900199E024CFB4070050609055E581
:1055DA0075F003A4C58325F0C583730255FA0256F4
:1055EA000202560A02561202561A02562202562A75
:1055FA007BFF7A0E7949802E7BFF7A0E795D8026B1
:10560A007BFF7A0E7971801E7BFF7A0E7985801670
:10561A007BFF7A0E799A800E7BFF7A0E79AF80062D
:10562A007BFF7A0E79C47D307FF412C82E7BFF7A15
:10563A000E79DA9000247493F07D307FF512C85603
:10564A007BFF7A0E79F3900024749CF07D307FF60C
:10565A0012C856900B1EE0FF7E007C017D04125D8D
:10566A00B6740F2FF974083EA801FC7D017B017AFC
:10567A000779007E017F04125D5190001E7406F0C6
:10568A00A314F0A374F1F0A37405F07B077A247DC8
:10569A00017F0112B7E27BFF7A0B79B07D307FF090
:1056AA0012C82E7BFF7A0F790990002474A0F07D2E
:1056BA00307FF112C8567BFF7A0F791A9000247452
:1056CA00A8F07D307FF212C8567BFF7A02796B9080
:1056DA00002474B0F07D307FF312C8567BFF7A0F36
:1056EA00792B90002474B8F07D307FF412C8567B71
:1056FA00FF7A0F793C90002474BEF07D307FF5125A
:10570A00C8567BFF7A0F794D90002474C4F07D301F
:10571A007FF612C856900B1EE0FF7E007C017D04C6
:10572A00125DB6740F2FF974083EA801FC7D017B47
:10573A00017A0779007E017F04125D5190001E7480
:10574A0006F0A3F0A374F1F0A37405F07B077A24A2
:10575A007D027F0212B7E27BFF7A0B79B07D307F40
:10576A00F012C82E9001D1E0240E600B0470157B54
:10577A00FF7A0F795D80067BFF7A0F796F7D307F24
:08578A00F112C82E12904B220F
:1060D500900107E060030263D490001E7403F0A3EF
:1060E5007401F0A374F1F0A37405F07BCE7A01E49A
:1060F500FDFF12B7E27BFF7A0F79817D307FF012C9
:10610500C82E7BFF7A0F79977D307FF112C82E7BE1
:10611500FF7A0F79A99000247401F07D307FF21287
:10612500C856900116E0125E9361916261598161D2
:106135006982618983615B8561718661898761791E
:1061450088615D89618190615F91616192618995E5
:106155000000619E80068004800280007BFF7A0F2C
:1061650079C7802E7BFF7A0F79D780267BFF7A0F40
:1061750079D7801E7BFF7A0F79D780167BFF7A0F40
:1061850079D7800E7BFF7A0F79E780067BFF7A0F40
:1061950079F77D307FF312C82E7BFF7A107907904F
:1061A50000247410F07D307FF412C8567BFF7A10FE
:1061B50079149000247412F07D307FF512C8569042
:1061C500011BE014601314601824FE601C24047085
:1061D500257BFF7A10792180167BFF7A10792F8035
:1061E5000E7BFF7A10793D80067BFF7A10794B7D17
:1061F500307FF612C82E900B1EE0FF7E007C017DDD
:1062050004125DB6740F2FF974083EA801FC7D01D8
:106215007B017A0779007E017F04125D5190001E93
:106225007403F0A314F0A374F1F0A37405F07BCE0E
:106235007A017D017F0112B7E27BFF7A0F79817DBB
:10624500307FF012C82E7BFF7A10795B90002474A2
:1062550015F07D307FF112C8567BFF7A10796E906C
:1062650000247417F07D307FF212C8567BFF7A1038
:1062750079819000247419F07D307FF312C8567B24
:10628500FF7A107992900024741CF07D307FF4120F
:10629500C8567BFF7A1079A2900024741EF07D30D9
:1062A5007FF512C8567BFF7A1079B49000247422CA
:1062B500F07D307FF612C856900B1EE0FF7E007C05
:1062C500017D04125DB6740F2FF974083EA801FC18
:1062D5007D017B017A0779007E017F04125D519073
:1062E500011BE0640490001E70707403F0A3F0A31A
:1062F50074F1F0A37405F07BCE7A017D027F021262
:10630500B7E27BFF7A0F79817D307FF012C82E7B53
:10631500FF7A1079C49000247424F07D307FF11247
:10632500C8567BFF7A1079D89000247426F07D300A
:106335007FF212C8567BFF7A1079EC9000247428FE
:10634500F07D307FF312C8567BFF7A1179069000F5
:10635500247432F07D307FF480487403F0A3F0A3F9
:1063650074F1F0A37405F07BCE7A017D027F0212F1
:10637500B7E27BFF7A0F79817D307FF012C82E7BE3
:10638500FF7A1079C49000247424F07D307FF112D7
:10639500C8567BFF7A1079D89000247426F07D309A
:1063A5007FF212C856900B1EE0FF7E007C017D0433
:1063B500125DB6740F2FF974083EA801FC7D017BB0
:1063C500017A0779007E017F04125D510264F19024
:1063D500001E7402F0A314F0A374F1F0A37405F089
:1063E5007BCE7A01E4FDFF12B7E27BFF7A117920BB
:1063F5007D307FF012C82E7BFF7A1179327D307F98
:10640500F112C82E7BFF7A0F79A99000247401F050
:106415007D307FF212C8567BFF7A117944900024B3
:10642500740FF07D307FF312C8567BFF7A117957D0
:106435009000247419F07D307FF412C8567BFF7AE2
:1064450011796C900024741FF07D307FF512C856C9
:106455007BFF7A11797F9000247425F07D307FF6DB
:1064650012C856900B1EE0FF7E007C017D04125D74
:10647500B6740F2FF974083EA801FC7D017B017AE3
:106485000779007E017F04125D5190001E7402F0B1
:10649500A3F0A374F1F0A37405F07BCE7A017D011E
:1064A5007F0112B7E27BFF7A1179207D307FF012F0
:1064B500C82E7BFF7A117994900024742BF07D30DF
:1064C5007FF112C856900B1EE0FF7E007C017D0413
:1064D500125DB6740F2FF974083EA801FC7D017B8F
:1064E500017A0779007E017F04125D5112907222B4
:10880600780D7C007D017BFF7A25796A7E007F08E2
:10881600125D519000157401F0A37400F0A3740D5D
:10882600F09000277402F0A314F0900015E0F9A36D
:10883600E0FAA3E0900029C9F0A3EAF0A3E9F0A3C7
:108846007406F0A374F1F0A37403F0A374FFF07B35
:10885600CF7A01E4FDFF128E9C7BFF7A1179AC7D05
:10886600307FF012C82E7BFF7A1179BE7D2C7FF106
:1088760012C82E7BFF7A1179C77D2C7FF212C82E83
:108886007BFF7A1179D07D2C7FF312C82E7BFF7A7D
:108896001179DD7D2C7FF412C82E7BFF7A1179E6E3
:1088A6007D2C7FF512C82E7BFF7A1179ED7D2C7F0A
:1088B600F612C82E9000277402F0A3F0900015E07F
:1088C600FBA3E0FAA3E02406F9E43AFA900029EBC8
:1088D600F0A3EAF0A3E9F0A37402F0A374F1F0A305
:1088E6007403F0A374FFF07BCF7A017D017F011240
:1088F6008E9C7BFF7A1179AC7D307FF012C82E7B7F
:10890600FF7A1179F87D2C7FF112C82E7BFF7A123F
:0C89160079077D2C7FF212C82E029072AF
:1078E00090001E7402F0A314F0A374F1F0A37405C9
:1078F000F07B2D7A24E4FDFF12B7E27BFF7A127948
:107900000F7D307FF012C82E7BFF7A127921900014
:10791000247401F07D307FF112C8567BFF7A127912
:107920002E9000247402F07D307FF212C8567BFF47
:107930007A127942900024740AF07D307FF312C8E5
:1079400056900115E0240F601614601B146020246B
:10795000F46024240F702D7BFF7A127952801E7BF5
:10796000FF7A12796980167BFF7A12797E800E7B0E
:10797000FF7A12799580067BFF7A1279AA7D307F93
:10798000F412C82E900116E0240F6013146018241E
:10799000F3601C240F70257BFF7A1279C380167B5D
:1079A000FF7A1279D6800E7BFF7A1279E980067B06
:1079B000FF7A1279FA7D307FF512C82E900117E018
:1079C000240F601314601824F3601C240F70257BAF
:1079D000FF7A13790F80167BFF7A137922800E7B52
:1079E000FF7A13793580067BFF7A1379467D307FE5
:1079F000F612C82E900B1EE0FF7E007C017D041263
:107A00005DB6740F2FF974083EA801FC7D017B015F
:107A10007A0779007E017F04125D5190001E740286
:107A2000F0A3F0A374F1F0A37405F07B2D7A247D0C
:107A3000017F0112B7E27BFF7A12790F7D307FF070
:107A400012C82E7BFF7A13795B9000247411F07DAD
:107A5000307FF112C8567BFF7A137974900024743A
:107A600017F07D307FF212C8567BFF7A1379899028
:107A70000024741DF07D307FF312C8567BFF7A130B
:107A8000799E9000247423F07D307FF412C8567BD9
:107A9000FF7A0D793A900024742BF07D307FF51237
:107AA000C8567BFF7A0D79509000247433F07D30F6
:107AB0007FF612C856900B1EE0FF7E007C017D040D
:107AC000125DB6740F2FF974083EA801FC7D017B8E
:0F7AD000017A0779007E017F04125D51029072E6
:108F600090001E7401F0A3F0A374F1F0A37405F057
:108F70007B2E7A24E4FDFF12B7E27BFF7A1379B7E8
:108F80007D307FF012C82E900107E060030290143C
:108F90007BFF7A12792190002404F07D307FF1125A
:108FA000C8567BFF7A1379C99000247402F07D3093
:108FB0007FF212C8567BFF7A1379DB900024740588
:108FC000F07D307FF312C856900114E0B4FF087BA7
:108FD000FF7A1379EF8021900114E070087BFF7A0B
:108FE0001379FD8013900114E07BFFB4F2067A142C
:108FF000790D80047A14791D7D307FF412C82E7BA0
:10900000FF7A0C79CC900024740EF07D307FF5123D
:10901000C856800D7BFF7A14792F7D307FF112C8FE
:109020002E900B1EE0FF7E007C017D04125DB67465
:109030000F2FF974083EA801FC7D017B017A0779A6
:0B904000007E017F04125D510290725F
:10749D00900107E0600302766590001E7402F0A370
:1074AD0014F0A374F1F0A37405F07B2F7A24E4FD9E
:1074BD00FF12B7E27BFF7A1479407D307FF012C85E
:1074CD002E7BFF7A1279219000247401F07D307F9C
:1074DD00F112C8567BFF7A1479569000247402F08D
:1074ED007D307FF212C8567BFF7A0C79E090002434
:1074FD007409F07D307FF312C856900114E01460CA
:10750D000F2402601314701D7BFF7A147965800EB1
:10751D007BFF7A14797A80067BFF7A1479917D301E
:10752D007FF412C82E7BFF7A1479A6900024740E76
:10753D00F07D307FF512C8567BFF7A1479BD90002F
:10754D00247410F07D307FF612C856900B1EE0FFAC
:10755D007E007C017D04125DB6740F2FF974083E18
:10756D00A801FC7D017B017A0779007E017F041261
:10757D005D5190001E7402F0A3F0A374F1F0A3749A
:10758D0005F07B2F7A247D017F0112B7E27BFF7A14
:10759D001479407D307FF012C82E900121E024CF68
:1075AD00B4070050609075C075F003A4C58325F035
:1075BD00C583730275D50275DD0275E50275ED02A1
:1075CD0075F50275FD0276057BFF7A1479DC802E48
:1075DD007BFF7A1479F280267BFF7A157908801E5D
:1075ED007BFF7A15791E80167BFF7A157935800E13
:1075FD007BFF7A15794C80067BFF7A1579637D3098
:10760D007FF112C82E7BFF7A15797B900024741BB5
:10761D00F07D307FF212C856900138E014600F24CF
:10762D0002601314701D7BFF7A157996800E7BFF17
:10763D007A1579AE80067BFF7A1579C67D307FF39A
:10764D0012C82E7BFF7A1579DC9000247432F07D00
:10765D00307FF412C856803490001E7401F0A3F0F0
:10766D00A374F1F0A37405F07B2F7A24E4FDFF12CF
:10767D00B7E27BFF7A1479407D307FF012C82E7B04
:10768D00FF7A1579F87D307FF112C82E900B1EE030
:10769D00FF7E007C017D04125DB6740F2FF9740816
:1076AD003EA801FC7D017B017A0779007E017F04F4
:0676BD00125D5102907203
:10702400EF600302726890001E7403F0A37401F011
:10703400A374F1F0A37405F07B307A24E4FDFF120D
:10704400B7E27BFF7A16790D7D307FF012C82E7B74
:10705400FF7A1279219000247401F07D307FF112BF
:10706400C8567BFF7A12792E900024740AF07D3082
:107074007FF212C8567BFF7A0F79099000247412AC
:10708400F07D307FF312C8567BFF7A16791F90008B
:1070940024741AF07D307FF412C856900125E07BE9
:1070A400FF20E0067A16793280047A1679417D3021
:1070B4007FF512C82E900125E0541824F86010249E
:1070C400F860142410701D7BFF7A167950800E7BB3
:1070D400FF7A16795F80067BFF7A16796E7D307FA2
:1070E400F612C82E900B1EE0FF7E007C017D041278
:1070F4005DB6740F2FF974083EA801FC7D017B0175
:107104007A0779007E017F04125D5190001E74039A
:10711400F0A314F0A374F1F0A37405F07B307A2487
:107124007D017F0112B7E27BFF7A16790D7D307FF6
:10713400F012C82E7BFF7A0F791A900024741FF086
:107144007D307FF112C8567BFF7A16797B9000243C
