:0FC0C700434F4D2D4F4E00434F4D2D4F4E2000F8
:10BCFE0041049200011800011900011A28410B1F7E
:10BD0E0000C104C106C10AC109C1004105D30041E9
:10BD1E00035F004103620041036500410B1C00C13B
:10BD2E0002C105C108C10CC107410B1B00410B1E0E
:06BD3E000042036000005A
:104A4300E490000CF0FFFEC201C20B900363F0A3DD
:104A5300F08F828E8374FFF00FBF00010EE4B50761
:104A6300F0EEB480EC7F0A7E0012BF4112C0959035
:104A7300000CEFF0600812C09590000CEFF012BF2D
:104A8300CE90000CE070057F0112BF0F12BFCED293
:104A93000A12952DE43390000CF012BEDC12BFCE47
:104AA30012A500E4FF12BE2DC208900B1F7405F07F
:104AB300D293C203E4900805F0A3F0A3F0A3F0A3FC
:104AC300F0A3F0300809900234E0F46033C2089098
:104AD3000B1FE0FF645A601CEF64A56017EFB40579
:104AE30009740AF0D293C203800A900B1F7405F075
:104AF300C293C2037F057E0012BF4112BFCE80C3A3
:104B030078077C017D017B017A0279357E007F067F
:104B1300125A9412A50012BFCE900107E0540F75EC
:104B2300F00AA4FFA3E0540F2F75F008A475F03C1E
:104B330084781AF612BC5ED2A9C208A208E433FF35
:104B4300200F047E0180027E00EE5F60229002341B
:104B5300E0B40119D20B78077C017D017B017A0255
:104B630079357E007F06125A94D2018010C2083034
:104B73000F06D208D201800512BFCE80BEE4FF1219
:104B83009BDF7F0112BF0F781A7628300F0512932F
:104B9300BC800312A46CD2A9300F051293BC80030E
:104BA30012A46C12BABA90000CEFF0F46005E0FFA7
:104BB30012427812BFCE900B1DE025E025E024BF02
:104BC300F582E43405F583E0FEA3E064014E70C88A
:104BD30030001B12A74112A59212BABA90000CEF33
:104BE300F0F46005E0FF12427812BFCE80E2900B32
:104BF3001DE025E025E024BFF582E43405F583E0DC
:104C0300FEA3E08EF0125BFC4D8F00014D95001565
:104C13004E0A00164E3400174E9800184F760019AE
:104C23004F85001A4F94001B4FB9001C4D9B01A5E3
:104C33004DC801A64DE601A74DF801A84DFE01A9F7
:104C43004E0401AA4E1001B94E1C01BA4E3A01CDD1
:104C53004E5401CE4E5A01CF4E6001D04E9E01E11B
:104C63004EC501E24ED701E34EF801E44F1001E5D2
:104C73004F2201E64F3401E74F7101E84F7B01F505
:104C83004F8001F64F8A02094F8F020A4F99021D86
:104C93004F9E021E4FA4021F4FAA02204FB00221B3
:104CA3004FBE02314FC302324FC802334FCD0234DD
:104CB3004DA120E54DA620E64DAA20E74DB020E802
:104CC3004DB820E94DC220EA4DCE20F94DD420FA4B
:104CD3004DDA20FB4DE020FC4DEC210D4DF2210E71
:104CE3004E1622754E2222894E4024054E46240636
:104CF3004E4C24074E6624414E6C24424E7224438C
:104D03004E7824444E8024454E8624464E8C2447B8
:104D13004E9224484EA425954EA925964EAF25972D
:104D23004EB525984EBB25994ECB25A94ED125AA24
:104D33004EDD25BD4EE225BE4EE825BF4EEE25C015
:104D43004EFE25D14F0425D24F0A25D34F1625E514
:104D53004F1C25E64F2825F94F2E25FA4F3A260DED
:104D63004F3F260E4F45260F4F4B26104F5126110E
:104D73004F5726124F5D26134F6326144F6C26158B
:104D83004E28B2B54E2EB2B600004FD01254DD02FB
:104D93004FD0129694024FD0129477024FD0E4FF73
:104DA300FE8016C20D80087F017E00800CD20D129A
:104DB3008D4A024FD07F027E00128E2D024FD012F9
:104DC300B376024FD012A03D024FD0129A97024FF2
:104DD300D0129D22024FD0129B3B024FD0129DC195
:104DE300024FD012AC2A024FD012989E024FD0121B
:104DF3007BB7024FD0129E60024FD012B458024FBD
:104E0300D012B4C2024FD012AFB1024FD012917E72
:104E1300024FD0120000024FD012B21B024FD01229
:104E2300ACAC024FD012B52C024FD012B596024F44
:104E3300D012A210024FD012A623024FD012B812E2
:104E4300024FD01281AE024FD0E4FF124FD5024F72
:104E5300D0125E18024FD0126FAC024FD0128536BB
:104E6300024FD0127623024FD0128F06024FD01278
:104E730071E0024FD0E4FF126D67024FD0126B193D
:104E8300024FD0129745024FD012A7CF024FD01234
:104E9300A85D024FD012876E024FD0129947024F7E
:104EA300D0E4FFFE80167F017E0080107F027E002B
:104EB300800A7F037E0080047F047E0012865202F4
:104EC3004FD012AD2E024FD0129EFF024FD012A22E
:104ED300A7024FD012A0D9024FD0E4FFFE80107F6B
:104EE300017E00800A7F027E0080047F037E001221
:104EF3008995024FD012A6B2024FD012B3E7024FE8
:104F0300D012AB1A024FD012ABA2024FD012ADB0E7
:104F1300024FD012AA91024FD012B600024FD01204
:104F2300AE32024FD01299F0024FD012B66A024F3E
:104F3300D01282E6024FD0E4FFFE80287F017E007C
:104F430080227F027E00801C7F037E0080167F0408
:104F53007E0080107F057E00800A7F067E0080042D
:104F63007F077E00127EE78064127822805F129FA3
:104F73009E805A12B02E805512924080501295E2B4
:104F8300804B12B0AB804612B290804112B30380C3
:104F93003C12A33E8037E4FFFE80167F017E008033
:104FA300107F027E00800A7F037E0080047F047EE0
:104FB30000128885801712A3D5801212B6D4800DF3
:104FC30012B73E800812B7A880031297F2D20002EC
:024FD3004BD3BE
:10BEDC00C293758780E4F5A875B8107589017588CB
:10BEEC001075C83475CBFF75CADC759850F58DF597
:10BEFC008B758C28F58AC2A8C2AAC2A9C2ABD2ACD7
:03BF0C00D2AF228F
:10A592009008057F0312BC0E9008067F0512BC0EC0
:10A5A200900B1EE0FF900045742EF07B077D0A128F
:10A5B200BB68900807E024F6FD7F0812BC12900BDE
:10A5C2001EE0FF900045742EF07B0A7D0A12BB68E4
:10A5D200900808E024F6FD7F0B12BC12900B1EE0DF
:10A5E200FF9000457420F07B0D7D0A12BB68900835
:10A5F20009E024F6FD7F0E12BC12900B1EE0FF90C4
:10A602000045743AF07B107D0A12BB6890080AE09C
:10A6120024F6FDC3943C50057F1102BC12C208808F
:01A62200FE39
:04BC0E00E024F6FD3B
:06BC120090000DEFF0FBB5
:10BC1800E4A3F0ED75F06484AEF0EE75F00A84FEEE
:10BC2800ED75F00A84AFF0EFF0EE4430FEEF4430EB
:10BC3800F0900B1EE0FF900045EEF07D0A12BB6805
:10BC4800900B1EE0FF90000DE004FBA3E090004580
:06BC5800F07D0A02BB684A
:10A74100900361E004F07006900360E004F0D390A0
:10A751000361E09420900360E0940340077403F0E8
:10A76100A3742AF0900B1CE0B40A0BE4900360F090
:10A77100A3F0900B1CF0D3900361E0942090036050
:10A78100E094037BFF40207AC079C712C08090001B
:10A7910040EFF0900B1EE0FF90003D74FFF0A374BA
:10A7A100C0F0A374C7801E7AC079CE12C080900019
:10A7B10040EFF0900B1EE0FF90003D74FFF0A3749A
:0EA7C100C0F0A374CEF07B1E7D0A12BD4D22A7
:1000560054564D2D4D545000C6F4B6AFD6D02CC7CD
:10006600EBC9D4BAF22E2E2E2E2E2E0053414D530E
:10007600554E4720534453204348494E4100D4B17E
:10008600B9A4BFA8BAC53A5F5F5F5F5F5F00C3DC14
:10009600C2EB3A2D2D2D2D2D2D00D4B1B9A4BFA81C
:1000A600BAC53A2D2D2D2D2D2D00D6F7B9A6C4DCB7
:1000B600B2CBB5A500D4CBD3AAB7FECEF100D4CB34
:1000C600D3AABFD8D6C600C9E8B1B8B2E9D1AF0045
:1000D600CEACD0DEB2E2CAD400C9E8B1B8C9E8D61F
:1000E600C300CFB5CDB3B9D8B1D500C4A3BFE9C855
:1000F600EDBCFECFC2D4D800CAFDBEDDCEACBBA4DB
:1001060000B8FCBBBBC6B1CFE400B8FCBBBBD3B2E6
:10011600B1D2C7AECFE400C7E5D5D2C1E3CFE4D3B1
:10012600B2B1D200B2B9B3E4D6BDB1D200B5A5BE64
:10013600DDD6D8B4F200C8D5BDE100D4CBD3AAB77A
:10014600FECEF12DB8FCBBBBC6B1CFE400D0B6CF16
:10015600C241C6B1CFE400D7B0D4D841C6B1CFE4CE
:1001660000D0B6CFC242C6B1CFE400D7B0D4D84291
:10017600C6B1CFE400B8FCBBBBB7CFC6B1CFE40075
:10018600D7B0D4D8B7CFC6B1CFE400D4CBD3AAB7B3
:10019600FECEF12DD0B6CFC241C6B1CFE400D4CB4E
:1001A600D3AAB7FECEF12DD0B6CFC242C6B1CFE4A8
:1001B60000D4CBD3AAB7FECEF12DD0B6CFC2B7CFDF
:1001C600C6B1CFE400C6B1CFE449443A5F5F5F5F92
:1001D6005F5F5F5F00C7EBB8FCBBBBC6B1CFE42176
:1001E60000B2D9D7F7CAA7B0DC2100D4CBD3AAB7BF
:1001F600FECEF12DD7B0D4D841C6B1CFE40041C66A
:10020600B1CFE4B2B9C6B1CAFDC1BF3A2D2D2D2D6D
:1002160000D4CBD3AAB7FECEF12DD7B0D4D842C6E0
:10022600B1CFE40042C6B1CFE4B2B9C6B1CAFDC18E
:10023600BF3A2D2D2D2D00D4CBD3AAB7FECEF12D4E
:10024600D7B0D4D8B7CFC6B1CFE400B7CFC6B1CFF9
:10025600E449443A5F5F5F5F5F5F5F5F00D4CBD383
:10026600AAB7FECEF12DB8FCBBBBD3B2B1D2C7AE96
:10027600CFE400D0B6CFC2B2B9B1D2C7AECFE43167
:1002860000D7B0D4D8B2B9B1D2C7AECFE43100D01E
:10029600B6CFC2B2B9B1D2C7AECFE43200D7B0D46E
:1002A600D8B2B9B1D2C7AECFE43200D4CBD3AAB755
:1002B600FECEF12DD0B6CFC2B2B9B1D2C7AECFE421
:1002C6003100C3FCC1EED2D1B7A2CBCD2100C7E528
:1002D600B1D2BDF8D0D0D6D02100C7AECFE4CEB4CF
:1002E600B5BDCEBB2100C7AECFE4C2FA2100B8FC33
:1002F600BBBBC7AECFE4B4EDCEF32CB2BBC4DCC7F8
:10030600E5B1D22100C7AECFE4B7ADB0E5CEB4B506
:10031600BDCEBBA3ACB2BBC4DCC7E5B1D22100D411
:10032600CBD3AAB7FECEF12DD7B0D4D8B2B9B1D2BD
:10033600C7AECFE43100B2B9B1D2C7AECFE431B265
:10034600B9B1D2CAFD3A2D2D2D2D00D4CBD3AAB7E3
:10035600FECEF12DD0B6CFC2B2B9B1D2C7AECFE480
:100366003200D4CBD3AAB7FECEF12DD7B0D4D8B2B3
:10037600B9B1D2C7AECFE43200B2B9B1D2C7AECFAF
:10038600E432B2B9B1D2CAFD3A2D2D2D2D00D4CB0F
:10039600D3AAB7FECEF12DC7E5D5D2C1E3CFE4D3BC
:1003A600B2B1D200D3B2B1D2C7E5BFD500B2E9D15E
:1003B600AFC7E5BFD5BDE1B9FB00D4CBD3AAB7FE25
:1003C600CEF12DD5D2C1E3CFE4D3B2B1D2C7E5BFCA
:1003D600D500C7AECFE430C2FA2100C7AECFE431B4
:1003E600C2FA2100D4CBD3AAB7FECEF12DB2E9D101
:1003F600AFD3B2B1D2C7E5BFD5BDE1B9FB0035BDBC
:10040600C7D1ADBBB7D5D2C1E3C6F7C7E5B1D2CA2E
:10041600FDC1BF3A5F5F5F5F5F0035BDC7D1ADBB52
:10042600B7D5D2C1E3C6F7CAA3D3E0B1D2CAFD3A63
:100436005F5F5F5F5F0031D4AAD1ADBBB7D5D2C1D4
:10044600E3C6F7C7E5B1D2CAFDC1BF3A5F5F5F5FDA
:100456005F0031D4AAD1ADBBB7D5D2C1E3C6F7CAC6
:10046600A3D3E0B1D2CAFD3A5F5F5F5F5F00B2B966
:10047600B1D2C7AECFE431C7E5B1D2CAFDC1BF3AEA
:100486005F5F5F5F5F00B2B9B1D2C7AECFE431CA7A
:10049600A3D3E0B1D2CAFD3A5F5F5F5F5F00B2B936
:1004A600B1D2C7AECFE432C7E5B1D2CAFDC1BF3AB9
:1004B6005F5F5F5F5F00B2B9B1D2C7AECFE432CA49
:1004C600A3D3E0B1D2CAFD3A5F5F5F5F5F00C7AEFC
:1004D600CFE4302049443A5F5F5F5F5F5F5F5F0054
:1004E600C7AECFE430CFD6D3D0B1D2CAFD3A5F5F24
:1004F6005F5F5F5F00D5FDD4DAC7E5B1D2D6D02104
:1005060000CEB4BDF8D0D0C7E5B1D2B2D9D7F72165
:1005160000435255CDA8D0C5B9CAD5CF2100D4CBFA
:10052600D3AAB7FECEF12DB2B9B3E4D6BDB1D2008F
:1005360035D4AAD6BDB1D2D5D2C1E3CFE4B2B9B1D2
:10054600D2D5C5CAFD3A2D2D2D2D00D4CBD3AAB7B1
:10055600FECEF12DB5A5BEDDD6D8B4F200D6D8B400
:10056600F2B3C9B9A62100D6D8B4F2CAA7B0DC2125
:1005760000D4CBD3AAB7FECEF12DC8D5BDE100B2CB
:10058600D9D7F7B3C9B9A62100C4A3CABDC9E8D64D
:10059600C300D4CBD3AAC9E8D6C300C9E8B1B8C949
:1005A600E8D6C32DC4A3CABDC9E8D6C300B9A6C43C
:1005B600DC3A2D20313AD5FDB3A32C323AD6BBCA4C
:1005C600DBC6B12C333AD6BBB3E4D6B500D6A7B852
:1005D600B6B7BDCABD3A2D00313AB6BCCAD52C3223
:1005E6003AD6BBD3B2B1D22C333AD6BBD6BDB1D2F2
:1005F6002C343AD6BBB4A2D6B5BFA800353AB2BBA6
:10060600CAD5D3B2B1D22C363AB2BBCAD5D6BDB151
:10061600D22C373AB2BBCAD5B4A2D6B5BFA800D53C
:10062600D2C1E33A2D00313AC8ABB2BF2C323AD62A
:10063600BDB1D2D5D2C1E32C333AD3B2B1D2D5D2E1
:10064600C1E32C343ACEDED5D2C1E300D4CBD3AA53
:10065600BFD8D6C62DD4CBD3AAC9E8D6C300B7FE19
:10066600CEF1C4A3CABDC9E8D6C300D4CBD3AABFB2
:10067600D8D6C62DB7FECEF1C4A3CABDC9E8D6C327
:1006860000CDA3D6B900BFAACABC00D4CBD3AABF9B
:10069600D8D6C62DCDA3D6B9B7FECEF100B3C9B90B
:1006A600A62100C3FCC1EECEDED0A72100D4CBD359
:1006B600AABFD8D6C62DBFAACABCB7FECEF100D4F3
:1006C600CBD3AAD7B4CCACB2E9D1AF00BDBBD2D79D
:1006D600CAFDBEDDB2E9D1AF00BCC4B4E6C6F7D0F0
:1006E600C5CFA2B2E9D1AF00C4A3BFE9D0C5CFA29E
:1006F600B2E9D1AF00C9E8B1B8B2E9D1AF2DD4CBD8
:10070600D3AAD7B4CCACB2E9D1AF00CDF8C2E7CD0D
:10071600A8D0C5D7B4CCAC00C9E8B1B8D0C5CFA273
:1007260000C9E8B1B8D7B4CCAC00C9E8B1B8B2E9F1
:10073600D1AF2DCDF8C2E7CDA8D0C5D7B4CCAC008B
:10074600CDA8D0C5D5FDB3A32100CDA8D0C5B9CAC3
:10075600D5CF2100C9E8B1B8B2E9D1AF2DC9E8B10A
:10076600B8D0C5CFA200C9E8B1B849443A205F5F06
:100776005F5F5F5F5F5F5F00C9E8B1B849503A20CD
:100786002D2D2D2E2D2D2D2E2D2D2D2E2D2D2D00BD
:10079600C9E8B1B8CDF8B9D83A202D2D2D2E2D2D7A
:1007A6002D2E2D2D2D2E2D2D2D00C9E8B1B8D7D3E8
:1007B600CDF8D1DAC2EB3A202D2D2D2E2D2D2D2E52
:1007C6002D2D2D2E2D2D2D00B3B5D5BE49443A2005
:1007D6005F5F5F5F00B3B5D5BEB7FECEF1C6F74922
:1007E600503A202D2D2D2E2D2D2D2E2D2D2D2E2D0D
:1007F6002D2D00CAB1D6D3CDACB2BDB7FECEF1C653
:10080600F749503A2D2D2D2E2D2D2D2E2D2D2D2EF9
:100816002D2D2D0054564DC8EDBCFEB0E6B1BEBA26
:10082600C53A5F5F5F5F5F5F5F5F00C9E8B1B8B2FF
:10083600E9D1AF2DC9E8B1B8D7B4CCAC00CEDEB2A1
:10084600D9D7F7B9A6C4DC00B7A2CADBBACDB3E4E0
:10085600D6B500D6BBB7A2CADB00D6BBB3E4D6B5C5
:1008660000D5D2C1E3C4A3CABD3AD3B2B1D2D5D260
:10087600C1E300D5D2C1E3C4A3CABD3AD6BDB1D245
:10088600D5D2C1E300D5D2C1E3C4A3CABD3ACBAB2E
:10089600B1D2D5D2C1E300D5D2C1E3C4A3CABD3A11
:1008A600CEDED5D2C1E300D6A7B8B6B7BDCABD3A2B
:1008B600CAD5D3B2B1D200D6A7B8B6B7BDCABD3A6B
:1008C600CAD5D6BDB1D200D6A7B8B6B7BDCABD3A4D
:1008D600CBABB1D200D6A7B8B6B7BDCABD3AB4A2A3
:1008E600D6B5BFA8B9BAC6B100D6A7B8B6B7BDCAFD
:1008F600BD3AB2BBCAD5D3B2B1D200D6A7B8B6B745
:10090600BDCABD3AB2BBCAD5D6BDB1D200D6A7B80C
:10091600B6B7BDCABD3AB2BBBFC9B4A2D6B5BFA8A9
:10092600B9BAC6B100D4CBD3AAD7B4CCAC3A5F5FC0
:100936005F5F00D3B2B1D2C4A3BFE9D7B4CCACC217
:10094600EB3A5F5F5F5F00D6BDB1D2C4A3BFE9D704
:10095600B4CCACC2EB3A5F5F5F5F00D6BDB1D2D517
:10096600D2C1E3C4A3BFE9D7B4CCACC2EB3A5F5F54
:100976005F5F00544955C4A3BFE9D7B4CCACC2EB02
:100986003A5F5F5F5F00B6C1D0B4C6F7D7B4CCACF0
:10099600C2EB3A5F5F5F5F00B4F2D3A1BBFAD7B494
:1009A600CCAC3A4F4B00B4F2D3A1BBFAD7B4CCAC23
:1009B6003A42414400B2B9B1D2C7AECFE431204980
:1009C600443A5F5F5F5F5F5F5F5F00B2B9B1D2C7F6
:1009D600AECFE4322049443A5F5F5F5F5F5F5F5F9F
:1009E60000D3B2B1D2BBD8CAD5C7AECFE4204944F2
:1009F6003A5F5F5F5F5F5F5F5F00B2B9B1D2C7AE5C
:100A0600CFE431D3B2B1D2CAFDC1BF3A2D2D2D2DBF
:100A16002D00B2B9B1D2C7AECFE432D3B2B1D2CA89
:100A2600FDC1BF3A2D2D2D2D2D0031D4AAD1ADBB40
:100A3600B7D5D2C1E3C6F7D3B2B1D2CAFDC1BF3A68
:100A46002D2D2D2D2D00D3B2B1D2BBD8CAD5CFE4D2
:100A5600D3B2B1D2CAFDC1BF3A5F5F5F5F5F00D656
:100A6600BDB1D2C7AECFE449443A5F5F5F5F5F5F17
:100A76005F5F5F5F00D6BDB1D2C7AECFE4D6BDB172
:100A8600D2CAFDC1BF3A2D2D2D2D2D2D2D0035D4C9
:100A9600AAD6BDB1D2D5D2C1E3CFE4C0E0D0CD490C
:100AA600443A5F5F0035D4AAD6BDB1D2D5D2C1E3F0
:100AB600CFE4C2DFBCAD49443A5F5F5F5F5F5F5F13
:100AC6005F5F5F0031BAC5D6BDB1D2C7AECFE4B164
:100AD600D2D6D63A31D4AA0031BAC5D6BDB1D2C71C
:100AE600AECFE4B1D2D6D63A32D4AA0031BAC5D600
:100AF600BDB1D2C7AECFE4B1D2D6D63A35D4AA006C
:100B060031BAC5D6BDB1D2C7AECFE4B1D2D6D63A88
:100B16003130D4AA0031BAC5D6BDB1D2C7AECFE402
:100B2600B1D2D6D63A3230D4AA0031BAC5D6BDB182
:100B3600D2C7AECFE4B1D2D6D63A3530D4AA003138
:100B4600BAC5D6BDB1D2C7AECFE4B1D2D6D63A3148
:100B56003030D4AA0035D4AAD6BDB1D2D5D2C1E39D
:100B6600CFE4B4E6B1D2C1BF3A2D2D2D2D00D6BDAE
:100B7600B1D2BBD8CAD5CFE4B4E6B1D2C1BF3A2D03
:100B86002D2D2D0041C6B1CFE449443A5F5F5F5F2A
:100B96005F5F5F5F0042C6B1CFE449443A5F5F5F83
:100BA6005F5F5F5F5F0041C6B1CFE4CAFDC1BF3A78
:100BB6002D2D2D2D2D2D0042C6B1CFE4CAFDC1BF6E
:100BC6003A2D2D2D2D2D2D00B7CFC6B1CAFDC1BF93
:100BD6003A2D2D2D2D2D2D00B9A9B5E7D7B4CCACC6
:100BE6003AB5E7B3D8B9A9B5E700B9A9B5E7D7B417
:100BF600CCAC3ACAD0B5E7B9A9B5E700C9E8B1B8EF
:100C0600B2E9D1AF2DBDBBD2D7CAFDBEDDB2E9D1A7
:100C1600AF00BDBBD2D7C0E0D0CD3AB7A2CADBBDCC
:100C2600BBD2D700BDBBD2D7CAB1BCE43A202D2D6A
:100C36002D2D2F2D2D2F2D2D2C2D2D3A2D2D3A2DC1
:100C46002D00B3B5C6B1C0E0D0CD3ABCC6B4CEC651
:100C5600B100B3B5C6B1C0E0D0CD3AB6A8C6DAC6C3
:100C6600B100B3B5C6B1C0E0D0CD3AC7AEB0FCC690
:100C7600B100B3B5C6B1C0E0D0CD3AB5A5B3CCC6C8
:100C8600B100B3B5C6B1BCDBB8F13A202D2D00B327
:100C9600B5C6B1CAFDC1BF3A202D2D00D6A7B8B63C
:100CA600B7BDCABD3AD3B2B1D200D6A7B8B6B7BDA2
:100CB600CABD3AD6BDB1D200D6A7B8B6B7BDCABD71
:100CC6003ABBECBACF00D6A7B8B6B7BDCABD3AB4E0
:100CD600A2D6B5BFA800CDB6C8EB31D4AAD3B2B15F
:100CE600D2CAFDC1BF3A2D2D00CDB6C8EB35BDC762
:100CF600D3B2B1D2CAFDC1BF3A2D2D00CDB6C8EBD5
:100D0600D6BDB1D2BDF0B6EE3A2D2D2D00D0E8D528
:100D1600D2C1E3B5C4BDF0B6EE3A2D2D00CAB5BCBE
:100D2600CAB7A2CADBCAFDC1BF3A2D2D2D2D00CAF6
:100D3600B5BCCAD5D2C1E3BDF0B6EE3A2D2D00CA78
:100D4600B5BCCAD3B2B1D2D5D2C1E3CAFDC1BF3A8E
:100D56002D2D00CAB5BCCAD6BDB1D2D5D2C1E3CA03
:100D6600FDC1BF3A2D2D00B4A2D6B5BFA8D3E0B6BB
:100D7600EE28C7B0293A2D2D2D2D2D2D2D2D2D2DBB
:100D860000B4A2D6B5BFA8D3E0B6EE28BAF3293A86
:100D96002D2D2D2D2D2D2D2D2D2D00C9E8B1B8B2BF
:100DA600E9D1AF2DB3E4D6B5BDBBD2D700BDBBD21A
:100DB600D7C0E0D0CD3AB3E4D6B5BDBBD2D700C6D6
:100DC600B1BFA849443A205F5F5F5F5F5F5F5F5FC7
:100DD6005F00B3E4D6B5C7B0D3E0B6EE3A2D2D2DFD
:100DE6002D2D2D20D4AA00B3E4D6B5BDF0B6EE3A2B
:100DF6002D2D2D2D2D2D20D4AA00B3E4D6B5BAF372
:100E0600D3E0B6EE3A2D2D2D2D2D2D20D4AA00CDD2
:100E1600B6C8EBBDF0B6EED7DCBCC63A202D2D2DFC
:100E26002D2D2D20B7D600C9E8B1B8B2E9D1AF2D26
:100E3600BCC4B4E6C6F7D0C5CFA2B2E9D1AF00CFE5
:100E4600D6BDF0B9BAC2F2B5C4B5A5B3CCC6B1CA5F
:100E5600FDC1BF3A2D2D2D2D2D2D2D2D2D2D00CF44
:100E6600D6BDF0B9BAC2F2B5C4B5A5B3CCC6B1BD4C
:100E7600F0B6EE3A2D2D2D2D2D2D2D2D2D2D00B428
:100E8600A2D6B5BFA8B9BAC2F2B5C4B5A5B3CCC689
:100E9600B1CAFDC1BF3A2D2D2D2D2D2D2D2D2D2D58
:100EA60000B4A2D6B5BFA8B9BAC2F2B5C4B5A5B347
:100EB600CCC6B1BDF0B6EE3A2D2D2D2D2D2D2D2DF6
:100EC6002D2D00B4A2D6B5BFA8CFFBB7D1BDF0B6C5
:100ED600EE3A2D2D2D2D2D2D2D2D2D2D0054564D2B
:100EE600C0DBBCC6BDD3CAD5D3B2B1D2D7DCCAFD2E
:100EF6003A2D2D2D2D2D2D2D2D2D2D0054564DC039
:100F0600DBBCC6BDD3CAD5D6BDB1D2D7DCCAFD3A85
:100F16002D2D2D2D2D2D2D2D2D2D00D3B2B1D2C73A
:100F2600AECFE4C0EFD3B2B1D2C3E6D6B5B5C4D71F
:100F3600DCCAFD3A2D2D2D2D2D2D2D2D2D2D00D537
:100F4600D2C1E3BFDAD5D2B3F6D3B2B1D2B5C4D7E4
:100F5600DCCAFD3A2D2D2D2D2D2D2D2D2D2D00BD2F
:100F6600F8C8EBC7AECFE435D4AAD6BDB1D2C3E636
:100F7600D6B5D7DCCAFD3A2D2D2D2D2D2D2D2D2D97
:100F86002D00BDF8C8EBC7AECFE43130D4AAD6BD2C
:100F9600B1D2C3E6D6B5D7DCCAFD3A2D2D2D2D2DFF
:100FA6002D2D2D2D2D00BDF8C8EBC7AECFE4323068
:100FB600D4AAD6BDB1D2C3E6D6B5D7DCCAFD3A2D82
:100FC6002D2D2D2D2D2D2D2D2D00BDF8C8EBC7AEA9
:100FD600CFE43530D4AAD6BDB1D2C3E6D6B5D7DC78
:100FE600CAFD3A2D2D2D2D2D2D2D2D2D2D00BDF883
:100FF600C8EBC7AECFE4313030D4AAD6BDB1D2C328
:10100600E6D6B5D7DCCAFD3A2D2D2D2D2D2D2D2D4D
:101016002D2D00C0DBBCC6B3E4D6B5B4CECAFD3AAE
:101026002D2D2D2D2D2D2D2D2D2D00C0DBBCC6B328
:10103600E4D6B5BDF0B6EE3A2D2D2D2D2D2D2D2D48
:101046002D2D00C0DBBCC6D6BDB1D2D5D2C1E3D7EB
:10105600DCBDF0B6EE3A2D2D2D2D2D2D2D2D2D2D61
:1010660000C9E8B1B8B2E9D1AF2DC4A3BFE9D0C574
:10107600CFA200D3B2B1D2C4A3BFE900D6BDB1D2CC
:10108600C4A3BFE900D6BDB1D2D5D2C1E3C4A3BFC4
:10109600E900B7A2CADBC4A3BFE900B6C1D0B4C693
:1010A600F700B4F2D3A1BBFAD7B4CCAC00D4CBD3FF
:1010B600AAD7B4CCACCFD4CABEC6F700555053C4D9
:1010C600A3BFE900C9E8B1B8B2E9D1AF2DD3B2B137
:1010D600D2C4A3BFE900CDA8D0C5B6CBBFDABAC586
:1010E6003A5F00C8EDBCFEB0E6B1BEBAC53A5F5F76
:1010F6005F5F5F5F5F5F00C4A3BFE9D7B4CCACC2DC
:10110600EB3A5F5F5F5F0031D4AAD1ADBBB7D5D2F2
:10111600C1E3C6F7D7B4CCAC3AD5FDB3A30031D4FE
:10112600AAD1ADBBB7D5D2C1E3C6F7D7B4CCAC3ADA
:10113600C2FA0031D4AAD1ADBBB7D5D2C1E3C6F746
:10114600D7B4CCAC3ABDABBFD50031D4AAD1ADBB78
:10115600B7D5D2C1E3C6F7D7B4CCAC3ABFD50031C8
:10116600D4AAD1ADBBB7D5D2C1E3C6F7D7B4CCAC00
:101176003ACEB4B0B2D7B000B2B9B1D2C7AECFE4AE
:1011860031D7B4CCAC3AD5FDB3A300B2B9B1D2C70E
:10119600AECFE431D7B4CCAC3ABDABBFD500B2B913
:1011A600B1D2C7AECFE431D7B4CCAC3ABFD500B2DA
:1011B600B9B1D2C7AECFE431D7B4CCAC3ACEB4B025
:1011C600B2D7B000B2B9B1D2C7AECFE432D7B4CC41
:1011D600AC3AD5FDB3A300B2B9B1D2C7AECFE432B3
:1011E600D7B4CCAC3ABDABBFD500B2B9B1D2C7AE5D
:1011F600CFE432D7B4CCAC3ABFD500B2B9B1D2C77E
:10120600AECFE432D7B4CCAC3ACEB4B0B2D7B0009D
:1012160031D4AAD1ADBBB7D5D2C1E3C6F7CAFDC199
:10122600BF3A5F5F5F5F5F5F00B2B9B1D2C7AECF53
:10123600E431CAFDC1BF3A5F5F5F5F5F5F00B2B96D
:10124600B1D2C7AECFE432CAFDC1BF3A5F5F5F5FBE
:101256005F5F0031D4AAD1ADBBB7D5D2C1E3C6F723
:1012660049443A5F5F5F5F5F5F5F5F00C9E8B1B89F
:10127600B2E9D1AF2DD6BDB1D2C4A3BFE900CAB67B
:10128600B1F0C6F7B0E6B1BEBAC53A5F2E5F5F00F1
:10129600D6BDB1D2C4A3BFE949443A5F5F5F5F5F81
:1012A6005F5F5F00D6BDB1D2BBD8CAD5CFE43AC224
:1012B600FA00D6BDB1D2BBD8CAD5CFE43ACEB4C2B5
:1012C600FA00D6BDB1D2BBD8CAD5CFE43AB1BBC8B5
:1012D600A1B3F600D6BDB1D2C4A3BFE9CDA8D0C58F
:1012E600B9CAD5CF00C9E8B1B8B2E9D1AF2DD6BDDC
:1012F600B1D2D5D2C1E3C4A3BFE900B0E6B1BEBA4C
:10130600C53A5F5F5F5F5F5F5F0031BAC5D6BDB14B
:10131600D2D5D2C1E3CFE4D7B4CCAC3ABFD50031F5
:10132600BAC5D6BDB1D2D5D2C1E3CFE4D7B4CCAC21
:101336003ABDABBFD50031BAC5D6BDB1D2D5D2C143
:10134600E3CFE4D7B4CCAC3AC2FA0031BAC5D6BDC5
:10135600B1D2D5D2C1E3CFE4C0E0D0CD49443A5FA3
:101366005F0031BAC5D6BDB1D2D5D2C1E3CFE4C292
:10137600DFBCAD49443A5F5F5F5F5F5F5F5F5F5FA2
:101386000031BAC5D6BDB1D2D5D2C1E3CFE4B1D210
:10139600D6D63A31D4AA0031BAC5D6BDB1D2D5D245
:1013A600C1E3CFE4B1D2D6D63A32D4AA0031BAC517
:1013B600D6BDB1D2D5D2C1E3CFE4B1D2D6D63A3575
:1013C600D4AA0031BAC5D6BDB1D2D5D2C1E3CFE4D5
:1013D600B1D2D6D63A3130D4AA0031BAC5D6BDB1CB
:1013E600D2D5D2C1E3CFE4B1D2D6D63A3230D4AADE
:1013F6000031BAC5D6BDB1D2D5D2C1E3CFE4B1D2A0
:10140600D6D63A3530D4AA0031BAC5D6BDB1D2D572
:10141600D2C1E3CFE4B1D2D6D63A313030D4AA0025
:1014260031BAC5D6BDB1D2D5D2C1E3CFE4B4E6B1A7
:10143600D2CAFDC1BF3A5F5F5F5F00D6BDB1D2D5EC
:10144600D2C1E3B7CFB1D2CFE4D7B4CCAC3AD5FD55
:10145600B3A300D6BDB1D2D5D2C1E3B7CFB1D2CFF7
:10146600E4D7B4CCAC3ABDABC2FA00D6BDB1D2D546
:10147600D2C1E3B7CFB1D2CFE4D7B4CCAC3AC2FA3B
:1014860000D6BDB1D2D5D2C1E3B7CFB1D2CFE4B485
:10149600E6B1D2CAFDC1BF3A5F5F5F5F00D6BDB19C
:1014A600D2D5D2C1E3C4A3BFE9CDA8D0C5B9CAD5A8
:1014B600CF00C9E8B1B8B2E9D1AF2DB7A2CADBC433
:1014C600A3BFE90041C6B1CFE4B3B5C6B1CAFDC1F9
:1014D600BF3A2D2D2D2D0041C6B1CFE4B6A5B8C714
:1014E6003AB9D8B1D50041C6B1CFE4B6A5B8C73A26
:1014F600B4F2BFAA0041C6B1CFE4C8DDC1BF3AD538
:10150600FDB3A30041C6B1CFE4C8DDC1BF3ABDAB50
:10151600BFD50041C6B1CFE4C8DDC1BF3ABFD500D3
:1015260042C6B1CFE4B3B5C6B1CAFDC1BF3A2D2D8F
:101536002D2D0042C6B1CFE4B6A5B8C73AB9D8B189
:10154600D50042C6B1CFE4B6A5B8C73AB4F2BFAA31
:101556000042C6B1CFE4C8DDC1BF3AD5FDB3A30092
:1015660042C6B1CFE4C8DDC1BF3ABDABBFD500426C
:10157600C6B1CFE4C8DDC1BF3ABFD500B7CFC6B14B
:10158600CFE4B3B5C6B1CAFDC1BF3A2D2D2D2D008E
:10159600B7CFC6B1CFE4B6A5B8C73AB9D8B1D5006A
:1015A600B7CFC6B1CFE4B6A5B8C73AB4F2BFAA0062
:1015B600B7CFC6B1CFE4C8DDC1BF3AD5FDB3A300EE
:1015C600B7CFC6B1CFE4C8DDC1BF3ABDABC2FA00E2
:1015D600B7CFC6B1CFE4C8DDC1BF3AC2FA00C9E889
:1015E600B1B8B2E9D1AF2DB6C1D0B4C6F700CDA817
:1015F600D0C5B6CBBFDABAC53A2D00B6C1D0B4C68F
:10160600F749443A5F5F5F5F5F5F5F5F00C8EDBCAD
:10161600FEB0E6B1BEBAC53A5F5F5F5F5F5F5F5F10
:101626005F5F0053414D20B2E5B2DB312049443AB9
:101636005F5F5F5F5F5F5F5F5F5F5F5F00BFA8C009
:10164600E0D0CD3A4D54525F5053414D00BFA8C033
:10165600E0D0CD3A4D54525F4953414D00BFA8C02A
:10166600E0D0CD3A4F43545F5053414D00BFA8C020
:10167600E0D0CD3A4F43545F4953414D00BFA8C017
:10168600E0D0CDB4EDCEF300CEB4B2E5C8EB534115
:101696004DBFA80053414D20B2E5B2DB322049448C
:1016A6003A5F5F5F5F5F5F5F5F5F5F5F5F005341F2
:1016B6004D20B2E5B2DB332049443A5F5F5F5F5F9E
:1016C6005F5F5F5F5F5F5F0053414D20B2E5B2DB56
:1016D600342049443A5F5F5F5F5F5F5F5F5F5F5FD4
:1016E6005F00C9E8B1B8B2E9D1AF2DC6B1BEDDB46D
:1016F600F2D3A1BBFA00CDA8D0C5B6CBBFDABAC526
:101706003A5F5F00B4F2D3A1BBFA3AC8B1D6BD00C6
:10171600B4F2D3A1BBFA3ABFA8D6BD00B4F2D3A1A6
:10172600BBFA3AB9CAD5CF00B4F2D3A1BBFA3AD5BF
:10173600FDB3A300B4F2D3A1BBFAB9CAD5CF00C991
:10174600E8B1B8B2E9D1AF2DD4CBD3AAD7B4CCACDB
:10175600CFD4CABEC4A3BFE900CFD4CABEC6F73A27
:10176600D5FDB3A300CFD4CABEC6F73AB9CAD5CF02
:1017760000D4CBD3AAD7B4CCACCFD4CABEC6F7B9A3
:10178600CAD5CF00C9E8B1B8B2E9D1AF2D5550538B
:10179600C4A3BFE900C9E8B1B8B9A9B5E7D7B4CCC5
:1017A600AC3ACAD0B5E7B9A9B5E700C9E8B1B8B946
:1017B600A9B5E7D7B4CCAC3AB5E7B3D8B9A9B5E77C
:1017C60000555053B9CAD5CF00C6B1BEDDB4F2D369
:1017D600A1BBFA00492F4FB2E2CAD400CEACD0DE8C
:1017E600B2E2CAD42DD6BDB1D2C4A3BFE900BDD3DF
:1017F600CAD5D6BDB1D2B2E2CAD400B2BBBDD3CA35
:10180600D5D6BDB1D2B2E2CAD400D4DDB4E6B7B5FE
:10181600BBB9B2E2CAD400D4DDB4E6CAD5BDF8C7B6
:10182600AECFE4B2E2CAD400D6BDB1D2C4A3BFE9FA
:10183600B8B4CEBB00CEACD0DEB2E2CAD42DBDD396
:10184600CAD5D6BDB1D200CEACD0DEB2E2CAD42D56
:10185600B2BBBDD3CAD5D6BDB1D200CEACD0DEB2F6
:10186600E2CAD42DD4DDB4E6B7B5BBB900CEACD050
:10187600DEB2E2CAD42DD4DDB4E6CAD5BDF8C7AE11
:10188600CFE400CEACD0DEB2E2CAD42DD6BDB1D202
:10189600C4A3BFE9B8B4CEBB00B6CBBFDABAC53A6B
:1018A60020434F4D205F00CEACD0DEB2E2CAD42D2D
:1018B600D6BDB1D2D5D2C1E3C4A3BFE900D6BDB16E
:1018C600D2D5D2C1E3CFE4B3F6B3AEB2E2CAD40006
:1018D600D6BDB1D2D5D2C1E3C4A3BFE9B8B4CEBB9D
:1018E60000CEACD0DEB2E2CAD42DD6BDB1D2D5D2AE
:1018F600C1E3CFE4B3F6B3AEB2E2CAD40031BAC59F
:10190600D6BDB1D2D5D2C1E3CFE4B3F6B3AED5C519
:10191600CAFD3A2D2D00CEACD0DEB2E2CAD42DD609
:10192600BDB1D2D5D2C1E3C4A3BFE9B8B4CEBB0022
:10193600CEACD0DEB2E2CAD42DD3B2B1D2C4A3BFEC
:10194600E900B4F2BFAACDB6B1D2BFDA00B9D8B1B8
:10195600D5CDB6B1D2BFDA00D4ADB1D2B7B5BBB929
:1019660000D3B2B1D2C4A3BFE9B8B4CEBB00CEACEB
:10197600D0DEB2E2CAD42DCDB6B1D2D0EDBFC90009
:10198600CEACD0DEB2E2CAD42DCDB6B1D2BDFBD636
:10199600B900CEACD0DEB2E2CAD42DD4ADB1D2B746
:1019A600B5BBB900CEACD0DEB2E2CAD42DD3B2B14B
:1019B600D2C4A3BFE9B8B4CEBB00CEACD0DEB2E28F
:1019C600CAD42DB7A2CADBC4A3BFE900C7E5C0EDE0
:1019D600CDA8B5C00041C6B1CFE4B7A2C6B1D6C145
:1019E600B7CFC6B1CFE40042C6B1CFE4B7A2C6B105
:1019F600D6C1B7CFC6B1CFE400CEACD0DEB2E2CA14
:101A0600D42DC7E5C0EDCDA8B5C000C3FCC1EEB767
:101A1600A2CBCDB3C9B9A62100CEACD0DEB2E2CA04
:101A2600D42D41C6B1CFE4B7A2C6B1D6C1B7CFC691
:101A3600B1CFE40041C6B1CFE4BFD500B7CFC6B140
:101A4600CFE4C2FA00C3FCC1EEB7A2CBCDCAA7B0A1
:101A5600DC00CEACD0DEB2E2CAD42D42C6B1CFE4B1
:101A6600B7A2C6B1D6C1B7CFC6B1CFE40042C6B1A0
:101A7600CFE4BFD500CEACD0DEB2E2CAD42DB6C11B
:101A8600D0B4C6F700B6C1C8A1C4A3BFE9D7B4CCC9
:101A9600AC00B6C1D0B4C6F7B8B4CEBB00CEACD09D
:101AA600DEB2E2CAD42DB6C1C8A1C4A3BFE9D7B479
:101AB600CCAC00C4A3BFE9D7B4CCAC3A5F5F5F5FE0
:101AC60000CEACD0DEB2E2CAD42DB6C1D0B4C6F7D1
:101AD600B8B4CEBB00B8B4CEBBB3C9B9A62100B862
:101AE600B4CEBBCAA7B0DC2100CEACD0DEB2E2CA0F
:101AF600D42DC6B1BEDDB4F2D3A1BBFA00B4F2D385
:101B0600A1BBFAD7B4CCACB2E9D1AF00B4F2D3A141
:101B1600B2E2CAD4D2B300CEACD0DEB2E2CAD42D81
:101B2600B4F2D3A1BBFAD7B4CCAC00B6CBBFDABA09
:101B3600C53A205F5F00B4F2D3A1BBFAB9A4D7F7C8
:101B4600C1BCBAC300B4F2D3A1BBFAD2ECB3A300B2
:101B5600B4F2D3A1BBFAD6BDD5C5B3E4D7E300B47E
:101B6600F2D3A1BBFAC8B1D6BD00CEACD0DEB2E28C
:101B7600CAD42DB4F2D3A1B2E2CAD4D2B300B2D938
:101B8600D7F7B3C9B9A600CEACD0DEB2E2CAD42D1F
:101B9600492F4FB2E2CAD400B6CCCAB1B5E3C1C12F
:101BA600B3F6C6B1BFDAB5C600B6CCCAB1B1A8BEE7
:101BB600AFC6F7B1A8BEAF00B4A2D6B5BFA8D7F9D5
:101BC60053687574746572B2E2CAD400B5AFBFA823
:101BD60000C9C1CBB8B5E3C1C1B9A4D7F7D6B8CA55
:101BE600BEB5C600B9D8B1D5B9A4D7F7D6B8CABE5E
:101BF600B5C600CDB6B1D2BFDAB2E2CAD400BCECEB
:101C0600B2E2494FCAE4C8EBD0C5BAC500CEACD0E3
:101C1600DEB2E2CAD42D544955C4A3BFE9B8B4CE46
:101C2600BB00CEACD0DEB2E2CAD42DB6CCCAB1B5BA
:101C3600E3C1C1B3F6C6B1BFDAB5C600CEACD0DEDD
:101C4600B2E2CAD42DB6CCCAB1B1A8BEAFC6F7B1FE
:101C5600A8BEAF00CEACD0DEB2E2CAD42D2DB4A25F
:101C6600D6B5BFA8D7F953687574746572B2E2CA5F
:101C7600D400CEACD0DEB2E2CAD42D2DB5AFBFA80B
:101C860000CEACD0DEB2E2CAD42D2DC9C1CBB8B5D8
:101C9600E3C1C1B9A4D7F7D6B8CABEB5C600CEACA3
:101CA600D0DEB2E2CAD42DB9D8B1D5B9A4D7F7D609
:101CB600B8CABEB5C600CEACD0DEB2E2CAD42DCD0F
:101CC600B6B1D2BFDAB2E2CAD400CEACD0DEB2E24E
:101CD600CAD42D2D494FCAE4C8EBD0C5BAC50049B0
:101CE6004FB0E5D2ECB3A300CEACD0DEB2E2CAD49C
:101CF6002D494FCAE4C8EBD0C5BAC500D6F7CEAC5D
:101D0600D0DEC3C5B9D8B1D500D6F7CEACD0DEC3C8
:101D1600C5B4F2BFAA00D3B2B1D2BBD8CAD5C7AE3A
:101D2600CFE4B7ADB0E5B4F2BFAA00D3B2B1D2BB2F
:101D3600D8CAD5C7AECFE4B7ADB0E5B9D8B1D500EE
:101D4600D3B2B1D2BBD8CAD5C7AECFE4B5BDCEBB30
:101D560000D3B2B1D2BBD8CAD5C7AECFE4CEB4B5E4
:101D6600BDCEBB00B7A2CADBC4A3BFE9B5BDCEBB1F
:101D760000B7A2CADBC4A3BFE9CEB4B5BDCEBB00D3
:101D8600D6BDB1D2D5D2C1E3C4A3BFE9B5BDCEBBE2
:101D960000D6BDB1D2D5D2C1E3C4A3BFE9CEB4B596
:101DA600BDCEBB00D6BDB1D2C4A3BFE9B5BDCEBBC7
:101DB60000D6BDB1D2C4A3BFE9CEB4B5BDCEBB007B
:101DC600D3B2B1D2C4A3BFE9B5BDCEBB00D3B2B1C5
:101DD600D2C4A3BFE9CEB4B5BDCEBB00CEDEB3CB75
:101DE600BFCDBDD3BDFC00D3D0B3CBBFCDBDD3BD1E
:101DF600FC00C7B0CEACD0DEC3C5B9D8B1D500C7DC
:101E0600B0CEACD0DEC3C5B4F2BFAA00535654BFA1
:101E1600A8B5BDCEBB00535654BFA8CEB4B5BDCEF3
:101E2600BB00CEACD0DEB2E2CAD42DD4CBD3AAD777
:101E3600B4CCACCFD4CABEC6F700C7EBD1A1D4F19F
:101E4600D6B8B6A8B5C4CFD4CABED0C5CFA23A2D8F
:101E56002D00CAB1BCE4C9E8D6C300B1BEBBFAC9FD
:101E6600E8D6C300C9E8B1B8C9E8D6C32DCAB1BC23
:101E7600E4C9E8D6C300CAB1BCE4C9E8D6C33A008F
:101E8600C4EA2FD4C22FC8D53A2D2D2D2D2F2D2D96
:101E96002F2D2D00CAB12FB7D62FC3EB3A2D2D2FDC
:101EA6002D2D2F2D2D00C9E8B1B8C9E8D6C32DB107
:101EB600BEBBFAC9E8D6C300C9E8B1B849443A2D51
:101EC6002D2D00B3B5D5BE49443A2D2D2D2D00CF6D
:101ED600B5CDB3D6D8C6F400B9D8BBFA00CFB5CDC8
:101EE600B3B9D8B1D52DCFB5CDB3D6D8C6F400B7D2
:101EF600A2CBCDB3C9B9A600CFB5CDB3B9D8B1D5AC
:101F06002DB9D8BBFA00B6C1D0B4C6F7B3CCD0F25F
:101F1600CFC2D4D800D4CBD3AAD7B4CCACCFD4CAF2
:101F2600BEC6F7C8EDBCFECFC2D4D800CEACD0DE5C
:101F3600C3E6B0E5C8EDBCFECFC2D4D800C4A3BF8B
:101F4600E9C8EDBCFECFC2D4D82DD3B2B1D2C4A35A
:101F5600BFE900C4A3BFE9C8EDBCFECFC2D4D82DEB
:101F6600B6C1D0B4C6F7B3CCD0F2CFC2D4D800C471
:101F7600A3BFE9C8EDBCFECFC2D4D82DD4CBD3AA1B
:101F8600D7B4CCACCFD4CABEC6F7CFD4CABEC4DA97
:101F9600C8DD00C4A3BFE9C8EDBCFECFC2D4D82DAE
:101FA600D4CBD3AAD7B4CCACCFD4CABEC6F7C8CE8E
:101FB600CEF1C1D0B1ED00C4A3BFE9C8EDBCFECFE0
:101FC600C2D4D82DCEACD0DEC3E6B0E500CAFDBE85
:101FD600DDB1B8B7DD00CAFDBEDDBBD6B8B400CAF8
:101FE600FDBEDDB5BCC8EB00CAFDBEDDB5BCB3F6B3
:101FF60000CAFDBEDDCEACBBA42DCAFDBEDDB1B8A8
:10200600B7DD00CAFDBEDDCEACBBA42DCAFDBEDD6C
:10201600BBD6B8B400CAFDBEDDCEACBBA42DCAFD8E
:10202600BEDDB5BCC8EB00CAFDBEDDCEACBBA42D83
:10203600CAFDBEDDB5BCB3F600C7EBCAE4C8EBC447
:10204600FAD2AAB5BCB3F6BCC7C2BCB5C4C8D5C61D
:10205600DA3A002D2D2D2DC4EA2D2DD4C22D2DC8F2
:10206600D500D4CBD3AAB7FECEF12DB8FCBBBBC6E8
:10207600B1CFE42DD7B0D4D841C6B1CFE400D0C299
:10208600C6B1CFE449443A5F5F5F5F5F5F5F5F0061
:10209600C7EBCAE4C8EBD5FDC8B7B5C4C6B1CAFD1F
:1020A60021C6B1CFE400CEAABFD5CAB1B2B9302E8F
:1020B60000D4CBD3AAB7FECEF12DB8FCBBBBC6B1BC
:1020C600CFE42DD7B0D4D842C6B1CFE400D4CBD319
:1020D600AAB7FECEF12DB2B9B3E4D3B2B1D22DB2C6
:1020E600B9B1D2C7AECFE431B2B9B1D2CAFD00CAD6
:1020F600E4C8EBD6B5B3ACB9FDB2B9B1D2D7EEB43C
:10210600F3D6B52100D3A6B2B9B1D2D6C1B2B9B110
:10211600D2C7AECFE4322100B6C1C8A1C7AECFE464
:102126004944B4EDCEF32100B2B9B1D2B4A6C0EDA4
:10213600B4EDCEF32100D4CBD3AAB7FECEF12DB2A7
:10214600B9B3E4D3B2B1D22DB2B9B1D2C7AECFE4EE
:1021560032B2B9B1D2CAFD00D3A6B2B9B1D2D6C194
:10216600B2B9B1D2C7AECFE4312100D4CBD3AAB72E
:10217600FECEF12DB2B9B3E4D6BDB1D22D31BAC57A
:10218600D6BDB1D2D5D2C1E3CFE4B2B9B1D200B295
:10219600B9B1D2B3C9B9A62100B2B9B1D2CAA7B0F2
:1021A600DC2100CAE4C8EBB4EDCEF3A3ACC7EBD692
:1021B600D8D0C2CAE4C8EB2100CEACD0DEB2E2CAA7
:1021C600D42DD6BDB1D2D5D2C1E30031BAC5D5D250
:1021D600C1E3CFE4CAE4C8EBD6B5B3ACB9FDD7EEDC
:1021E600B4F3D6B52100CAE4C8EBD3D0CEF32CC7DE
:1021F600EBD6D8D0C2CAE4C8EB2100CDA8D1B6CA66
:10220600A7B0DC2CC7EBD6D8D0C2CAE4C8EB2100F5
:1022160020CAFDBEDDB9DCC0ED2DCAFDBEDDB5BCF4
:10222600B3F62000C4FACAE4C8EBD6B5B4EDCEF3D3
:102236002CC7EBD5FDC8B7CAE4C8EB21003C20B0DB
:10224600EFD6FA203E0046313AB0EFD6FABCFC3B58
:102256000046323AB2E9D1AFCEACD0DEC3E6B0E545
:10226600B0E6B1BEBAC53B0046333AC7A9CDCBBC32
:10227600FC3B0046343AB8B4CEBBBCFC3B0046350A
:102286003ACDCBB8F13B0046363AC7E5BFD53B0061
:1022960046373AD6F7B2CBB5A53B0046383ACAD749
:1022A600D2B33B0046393AC4A9D2B33B00BBD8CD22
:1022B600CBBCFC3AB7B5BBD8C9CFBCB6B2CBB5A57B
:1022C6003B00BCFDCDB7BCFC3AC3BFD2BBC6C1B553
:1022D600C4C3BFD2BBD0D0B5C4D1A1D4F1BCFC3BE2
:1022E600004E554DBCFC3ACAFDD7D6D3EBBCFDCD4E
:1022F600B7C7D0BBBBBCFC3B003C204D5450B9CC4F
:10230600BCFEB0E6B1BEB2E9D1AF203E0054564D98
:10231600CEACD0DEC3E6B0E5B9CCBCFEB0E6B1BE0D
:10232600BAC53A56302E392E3700D6D0B9FAC8FD7E
:10233600D0C75344530053414D53554E4720534441
:1023460053204348494E4100D4B1B9A4BFA8BAC5E9
:102356003A31323334353600C3DCC2EB3A2D2D2DFB
:102366002D2D2D0000000000040C1C3C7C3C1C0C98
:10237600040000000000081C3E7FFF000000FF7FF5
:102386003E1C08000000000010189C1E1F1E9C1812
:1023960010000000FFFFFFFF010101020304050614
:1023A60007080102030405060102030405060101EC
:1023B600020304010101020101020101FFFF01FF05
:1023C60001010201020304010203010203040506DE
:1023D60007080102030405060708010203040501B4
:1023E60002010101020304010203010201020102CA
:1023F60003040506070809010102FF0101010101A5
:0B240600020102030401020304FF01B5
:10BC5E0020004CC200E4900B1EF0FF12BA6012BF1F
:10BC6E00CE7FF47E0112BF4112BFCE7BFF7A0079E8
:10BC7E005612C080900040EFF0900B1EE0FF900037
:10BC8E003D74FFF0A37400F0A37456F0E4FBFD12B4
:10BC9E00BD4D7BFF7A00795E7D297FF312C0BD22F8
:10A46C0030000302A4FFD200E4900B1EF0FF12BADE
:10A47C00607E017F047DFF7B017A077900125DD33A
:10A48C007BFF7A2379307D297F3212C0BD7BFF7A26
:10A49C000079727D0A7F5C12C0BD12BFCE7FF47E44
:10A4AC000112BF4112BFCE7BFF7A007984E4900089
:10A4BC001FF07D2C7FF512C0E57BFF7A007994E4C8
:10A4CC00900028F07D2C7FF612C0F4E4900700F089
:10A4DC00A3F090070204F0A3F090071174F0F0A31E
:10A4EC007404F0E4A3F0900712E0FF126883E4FF19
:04A4FC001265C622FD
:1093BC00780D7C007D017BFF7A23799A7E007F06F5
:1093CC00125A94300003029476D200E4900B1EF0F3
:1093DC00FF12BA607E017F047DFF7B017A07790062
:1093EC00125DD37BFF7A2379307D297F3212C0BD89
:1093FC007BFF7A0079727D0A7F5C12C0BD12BFCEF2
:10940C007FF47E0112BF4112BFCEE4900700F0A39F
:10941C00F090070204F0A3F090071174F0F0A3741D
:10942C0004F0E4A3F0900712E0FF126883E4FF124B
:10943C0065C67BFF7A0079A0E4900028F07D2C7F34
:10944C00F512C0F47BFF7A0079949000287406F032
:10945C007D2C7FF612C0F478047C077D017B017AA9
:0A946C0000790D7E007F06125A946D
:0194760022D3
:1054DD00780F7C007D017BFF7A2379A07E007F0809
:1054ED00125A949000197401F0A37400F0A3740F74
:1054FD00F0E4FF74202FF582E4340BF583E0D394B0
:10550D001050050FEFB410EBEFC394074003025694
:10551D008E9000277401F0A3128A88E4900017F092
:10552D00A3F0900017E0FFC39406502774202FF5C9
:10553D0082E4340BF583E0FF900018E0FE04F07474
:10554D00042EF582E43407F583EFF0900017E004A4
:10555D00F080CF900B1EE0FF7E007C017D04125A7F
:10556D00F9740F2FF974083EA801FC7D017B017AB7
:10557D000779007E017F04125A947BFF7A0079B07F
:10558D007D307FF012C0BDE4900018F0900018E05F
:10559D00FF2404F582E43407F583E0C394644003EB
:1055AD000259C1EF940540030259C1900018E0FF64
:1055BD002404F582E43407F583E0900017F0E0143D
:1055CD00B4080040030256759055E375F003A4C569
:1055DD008325F0C583730255FB025607025616024A
:1055ED005625025634025643025652025661EF2496
:1055FD00F1FF7BFF7A0079BB8067900018E024F102
:10560D00FF7BFF7A0079C48058900018E024F1FFE9
:10561D007BFF7A0079CD8049900018E024F1FF7B63
:10562D00FF7A0079D6803A900018E024F1FF7BFFD5
:10563D007A0079DF802B900018E024F1FF7BFF7A50
:10564D000079E8801C900018E024F1FF7BFF7A00C0
:10565D0079F1800D900018E024F1FF7BFF7A00793D
:10566D00FE7D2C12C0BD8010900018E02404F58240
:10567D00E43407F58374FFF0900018E004F0025550
:10568D00999000277402F0A314128A88E4900017F1
:10569D00F0A3F0900017E0FFC39406502C74202F58
:1056AD00F582E4340BF583E0FFC39464501390004E
:1056BD0018E0FE04F074042EF582E43407F583EF50
:1056CD00F0900017E004F080CA900B1EE0FF7E0002
:1056DD007C017D04125AF9740F2FF974083EA8014C
:1056ED00FC7D017B017A0779007E017F04125A94BB
:1056FD007BFF7A0079B07D307FF012C0BDE4900061
:10570D0018F0900018E0FF2404F582E43407F583C7
:10571D00E0C394644003025804EF9405400302581B
:10572D0004900018E0FF2404F582E43407F583E0CB
:10573D00900017F0E014B4080040030257EB9057A7
:10574D005975F003A4C58325F0C583730257710203
:10575D00577D02578C02579B0257AA0257B9025721
:10576D00C80257D7EF24F1FF7BFF7A0079BB806722
:10577D00900018E024F1FF7BFF7A0079C4805890E7
:10578D000018E024F1FF7BFF7A0079CD804990006D
:10579D0018E024F1FF7BFF7A0079D6803A9000184B
:1057AD00E024F1FF7BFF7A0079DF802B900018E079
:1057BD0024F1FF7BFF7A0079E8801C900018E0242B
:1057CD00F1FF7BFF7A0079F1800D900018E024F154
:1057DD00FF7BFF7A0079FE7D2C12C0BD80109000FA
:1057ED0018E02404F582E43407F58374FFF090008B
:1057FD0018E004F002570F900B26E0C394644003A9
:10580D000259C19000277402F0A3F0900019E0FB3B
:10581D00A3E0FAA3E02406F9E43AFA900029EBF0AC
:10582D00A3EAF0A3E9F0900017E024FA90002CF021
:10583D00A374F1F0A37403F0A374FFF07B017A005D
:10584D007D017F01128AB59000177406F0E4A3F074
:10585D00900017E0FFC39408502C74202FF582E4BC
:10586D00340BF583E0FFC394645013900018E0FEF1
:10587D0004F074042EF582E43407F583EFF0900004
:10588D0017E004F080CA900B1EE0FF7E007C017DC6
:10589D0004125AF9740F2FF974083EA801FC7D010A
:1058AD007B017A0779007E017F04125A947BFF7A7F
:1058BD000079B07D307FF012C0BDE4900018F090FB
:1058CD000018E0FF2404F582E43407F583E0C39467
:1058DD006440030259C1EF940540030259C1900081
:1058ED0018E0FF2404F582E43407F583E0900017F7
:1058FD00F0E014B4080040030259A890591675F051
:10590D0003A4C58325F0C5837302592E02593A02AB
:10591D005949025958025967025976025985025957
:10592D0094EF24F1FF7BFF7A0079BB80679000181C
:10593D00E024F1FF7BFF7A0079C48058900018E0D5
:10594D0024F1FF7BFF7A0079CD8049900018E02487
:10595D00F1FF7BFF7A0079D6803A900018E024F1B0
:10596D00FF7BFF7A0079DF802B900018E024F1FF98
:10597D007BFF7A0079E8801C900018E024F1FF7B12
:10598D00FF7A0079F1800D900018E024F1FF7BFF84
:10599D007A0079FE7D2C12C0BD8010900018E02495
:1059AD0004F582E43407F58374FFF0900018E004E9
:0759BD00F00258CC028BA0A0
:10969400780D7C007D017BFF7A2379A87E007F060C
:1096A400125A949000137401F0A37400F0A3740D83
:1096B400F09000277401F0A3F0900013E0F9A3E008
:1096C400FAA3E0900029C9F0A3EAF0A3E9F0A37497
:1096D40006F0A374F1F0A37403F0A374FFF07B15F8
:1096E400128AB07BFF7A0079BB7D307FF012C0BD57
:1096F4007BFF7A0179077D2C7FF112C0BD7BFF7A55
:109704000179107D2C7FF212C0BD7BFF7A01791D97
:109714007D2C7FF312C0BD7BFF7A01792A7D2C7FDB
:10972400F412C0BD7BFF7A0179337D2C7FF512C022
:10973400BD7BFF7A01793C7D2C7FF612C0BD028B84
:01974400A084
:10947700780D7C007D017BFF7A2379AE7E007F0625
:10948700125A949000137401F0A37400F0A3740DA2
:10949700F09000277401F0A3F0900013E0F9A3E027
:1094A700FAA3E0900029C9F0A3EAF0A3E9F0A374B6
:1094B70006F0A374F1F0A37403F0A374FFF07BA587
:1094C7007A01E4FDFF128AB57BFF7A0179417D308D
:1094D7007FF012C0BD7BFF7A0179537D2C7FF1129B
:1094E700C0BD7BFF7A01795D7D2C7FF212C0BD7B09
:1094F700FF7A0179677D2C7FF312C0BD7BFF7A016C
:1095070079717D2C7FF412C0BD7BFF7A01797B7D59
:109517002C7FF512C0BD7BFF7A0179867D2C7FF603
:0695270012C0BD028BA082
:108E2D0090000DEEF0A3EFF04E701390001E04F0C5
:108E3D00A3F0A374F1F0A37405F07BE5802E9000F0
:108E4D000DE07004A3E0640190001E701004F0A307
:108E5D00F0A374F1F0A37405F07BE7800F7401F0BB
:108E6D00A3F0A374F1F0A37405F07BE912B1B590F2
:108E7D00000DE07002A3E070087BFF7A017991800C
:108E8D001890000DE07004A3E064017BFF70067A7A
:108E9D000179A480047A0179B77D307FF012C0BDCD
:108EAD00900107E07BFF701C7A0179CB90001F04C5
:108EBD00F07D2C7FF112C0E57BFF7A0179DB7D2CF3
:108ECD007FF280087A0179E77D2C7FF112C0BD9089
:108EDD000B1EE0FF7E007C017D04125AF9740F2FEA
:108EED00F974083EA801FC7D017B017A0779007EAB
:098EFD00017F04125A94028BA0BB
:108D4A00781A7C007D017BFF7A2379B47E007F014B
:108D5A00125A9490001B7401F0A37400F0A3741AC1
:108D6A00F09000277401200D2BF0A3F090001BE077
:108D7A00F9A3E0FAA3E0900029C9F0A3EAF0A3E975
:108D8A00F0A37401F0A374F0F0A37404F0E4A3F068
:108D9A007BE68029F0A3F090001BE0F9A3E0FAA398
:108DAA00E0900029C9F0A3EAF0A3E9F0A37401F066
:108DBA00A374F0F0A37404F0E4A3F07BE87A20FD36
:108DCA00FF128AB57BFF200D137A0179F17D307F7E
:108DDA00F012C0BD7BFF7A02790480117A027917FA
:108DEA007D307FF012C0BD7BFF7A02792AE49000C1
:108DFA0028F07D2C7FF112C0F4900B1EE0FF7E005C
:108E0A007C017D04125AF9740F2FF974083EA801E7
:108E1A00FC7D017B017A0779007E017F04125A9456
:038E2A00028BA018
:10B3760090001E7401F0A3F0A374F1F0A37405F01D
:10B386007BEA12B1B57BFF7A02793D7D307FF01200
:10B39600C0BD900107E07BFF70127A0279519000E0
:10B3A6001F04F07D2C7FF112C0E5800B7A0179E74E
:10B3B6007D2C7FF112C0BD900B1EE0FF7E007C014C
:10B3C6007D04125AF9740F2FF974083EA801FC7D0A
:10B3D600017B017A0779007E017F04125A94028B61
:01B3E600A0C6
:10A03D00780D7C007D017BFF7A2379B57E007F044E
:10A04D00125A949000117401F0A37400F0A3740DD2
:10A05D00F09000277401F0A3F0900011E0F9A3E057
:10A06D00FAA3E0900029C9F0A3EAF0A3E9F0A374E4
:10A07D0004F0A374F1F0A37403F0A374FFF07BA6B6
:10A08D007A01E4FDFF128AB57BFF7A0279637D3098
:10A09D007FF012C0BD7BFF7A0279797D2C7FF112A2
:10A0AD00C0BD7BFF7A0279877D2C7FF212C0BD7B0C
:10A0BD00FF7A0279957D2C7FF312C0BD7BFF7A026A
:0CA0CD0079A37D2C7FF412C0BD028BA093
:109A970090001E7401F0A3F0A374F1F0A37405F015
:109AA7007BF912B1B57BFF7A0279B17D307FF01275
:109AB700C0BD900107E0240F601B146020146025CF
:109AC70014602A14602F24F6603314703D7BFF7AEC
:109AD7000279C8802E7BFF7A0279D480267BFF7AB1
:109AE7000279E0801E7BFF7A0279EC80167BFF7A91
:109AF7000279F4800E7BFF7A03790B80067BFF7A6D
:109B07000179E77D2C7FF112C0BD900B1EE0FF7E2F
:109B1700007C017D04125AF9740F2FF974083EA8CE
:109B270001FC7D017B017A0779007E017F04125ACF
:049B370094028BA069
:109D2200781A7C007D017BFF7A2379B97E007F015E
:109D3200125A9490001B7401F0A37400F0A3741AD9
:109D4200F09000277401F0A3F090001BE0F9A3E06B
:109D5200FAA3E0900029C9F0A3EAF0A3E9F0A37402
:109D620001F0A374F0F0A37404F0E4A3F07BFA7A98
:109D720020FDFF128AB57BFF7A0379257D307FF0C3
:109D820012C0BD7BFF7A03793CE4900028F07D305D
:109D92007FF112C0F4900B1EE0FF7E007C017D0477
:109DA200125AF9740F2FF974083EA801FC7D017B49
:0F9DB200017A0779007E017F04125A94028BA078
:109B3B0090001E7401F0A3F0A374F1F0A37405F070
:109B4B007BFB12B1B57BFF7A0379517D307FF0122D
:109B5B00C0BD900107E0240F601B1460201460252A
:109B6B0014602A14602F24F6603314703D7BFF7A47
:109B7B000279C8802E7BFF7A0279D480267BFF7A0C
:109B8B000279E0801E7BFF7A0279EC80167BFF7AEC
:109B9B000279F4800E7BFF7A03790B80067BFF7AC8
:109BAB000179E77D2C7FF112C0BD900B1EE0FF7E8B
:109BBB00007C017D04125AF9740F2FF974083EA82A
:109BCB0001FC7D017B017A0779007E017F04125A2B
:049BDB0094028BA0C5
:109DC100781A7C007D017BFF7A2379BA7E007F01BE
:109DD100125A9490001B7401F0A37400F0A3741A3A
:109DE100F09000277401F0A3F090001BE0F9A3E0CC
:109DF100FAA3E0900029C9F0A3EAF0A3E9F0A37463
:109E010001F0A374F0F0A37404F0E4A3F07BFC7AF6
:109E110020FDFF128AB57BFF7A0379687D307FF0E0
:109E210012C0BD7BFF7A03797FE4900028F07D307A
:109E31007FF112C0F4900B1EE0FF7E007C017D04D7
:109E4100125AF9740F2FF974083EA801FC7D017BA9
:0F9E5100017A0779007E017F04125A94028BA0D8
:10AC2A00780D7C007D017BFF7A2379BB7E007F0251
:10AC3A00125A9490000F7401F0A37400F0A3740DDB
:10AC4A00F09000277401F0A3F090000FE0F9A3E060
:10AC5A00FAA3E0900029C9F0A3EAF0A3E9F0A374EB
:10AC6A0002F0A374F1F0A37403F0A374FFF07BA7BE
:10AC7A007A01E4FDFF128AB57BFF7A0379947D306D
:10AC8A007FF012C0BD7BFF7A0379AA7D2C7FF11277
:10AC9A00C0BD7BFF7A0379B37D2C7FF212C0BD025F
:02ACAA008BA07D
:10989E0090001E7401F0A3F0A374F1F0A37405F010
:1098AE007B0D7A21E4FDFF12B1BA7BFF7A0379C0FA
:1098BE007D307FF012C0BD900107E0240F601B14B5
:1098CE00602014602514602A14602F24F66033146F
:1098DE00703D7BFF7A0279C8802E7BFF7A0279D4A5
:1098EE0080267BFF7A0279E0801E7BFF7A0379D88F
:1098FE0080167BFF7A0379E1800E7BFF7A0279F482
:10990E0080067BFF7A0179E77D2C7FF112C0BD9036
:10991E000B1EE0FF7E007C017D04125AF9740F2F9E
:10992E00F974083EA801FC7D017B017A0779007E5F
:09993E00017F04125A94028BA06F
:107BB700900107E06003027CF790001E7402F0A3B7
:107BC70014F0A374F1F0A37405F07B0E7A21E4FDA1
:107BD700FF12B1BA7BFF7A0379EA7D307FF012C0DA
:107BE700BD7BFF7A04790490001F7401F07D2C7F20
:107BF700F112C0E57BFF7A04792090001F7406F02C
:107C07007D2C7FF212C0E57BFF7A04793C90001F40
:107C1700740BF07D2C7FF312C0E57BFF7A04795853
:107C270090001F7410F07D2C7FF412C0E57BFF7A63
:107C370004797490001F7415F07D2C7FF512C0E550
:107C47007BFF7A04798C90001F741AF07D2C7FF6E5
:107C570012C0E5900B1EE0FF7E007C017D04125AE6
:107C6700F9740F2FF974083EA801FC7D017B017A96
:107C77000779007E017F04125A9490001E7402F067
:107C8700A3F0A374F1F0A37405F07B0E7A217D01B4
:107C97007F0112B1BA7BFF7A0379EA7D307FF01258
:107CA700C0BD7BFF7A0479A490001F741FF07D2C60
:107CB7007FF112C0E57BFF7A0479BC90001F742422
:107CC700F07D2C7FF212C0E57BFF7A0479D4900017
:107CD7001F7429F07D2C7FF312C0E57BFF7A0479AE
:107CE700E690001F7431F07D2C7FF412C0E58054BC
:107CF70090001E7401F0A3F0A374F1F0A37405F0D3
:107D07007B0E7A21E4FDFF12B1BA7BFF7A0379EA91
:107D17007D307FF012C0BD900107E0240E60102473
:107D2700F36014240E701D7BFF7A0479FB800E7BB1
:107D3700FF7A05790780067BFF7A0579177D2C7F07
:087D4700F112C0BD128B79227C
:109E6000780D7C007D017BFF7A2379BD7E007F0128
:109E7000125A9490000E7401F0A37400F0A3740DB4
:109E8000F09000277401F0A3F090000EE0F9A3E039
:109E9000FAA3E0900029C9F0A3EAF0A3E9F0A374C3
:109EA00001F0A374F0F0A37404F0E4A3F07BA87AAB
:109EB00001FDFF128AB57BFF7A0579247D307FF0A2
:109EC00012C0BD7BFF7A057936E4900028F07D3022
:109ED0007FF112C0F4900B1EE0FF7E007C017D0438
:109EE000125AF9740F2FF974083EA801FC7D017B0A
:0F9EF000017A0779007E017F04125A94028BA039
:10B4580090001E7401F0A3F0A374F1F0A37405F03A
:10B468007BA97A01E4FDFF12B1BA7BFF7A05795115
:10B478007D307FF012C0BD900107E07BFF70067A37
:10B4880005796380047A05796D7D2C7FF112C0BD42
:10B49800900B1EE0FF7E007C017D04125AF9740FA8
:10B4A8002FF974083EA801FC7D017B017A07790019
:0AB4B8007E017F04125A94028BA05B
:10B4C20090001E7401F0A3F0A374F1F0A37405F0D0
:10B4D2007BAA7A01E4FDFF12B1BA7BFF7A05797784
:10B4E2007D307FF012C0BD900107E07BFF70067ACD
:10B4F20005798580047A0179E77D2C7FF112C0BD40
:10B50200900B1EE0FF7E007C017D04125AF9740F3D
:10B512002FF974083EA801FC7D017B017A077900AE
:0AB522007E017F04125A94028BA0F0
:10AFB100780D7C007D017BFF7A2379BE7E007F02C4
:10AFC100125A9490000F7401F0A37400F0A3740D51
:10AFD100F09000277401F0A3F090000FE0F9A3E0D6
:10AFE100FAA3E0900029C9F0A3EAF0A3E9F0A37461
:10AFF10002F0A374F1F0A37403F0A374FFF07B16C5
:10B00100128AB07BFF7A0079C47D307FF012C0BD17
:10B011007BFF7A05798F7D2C7FF112C0BD7BFF7A92
:0DB021000579987D2C7FF212C0BD028BA036
:10917E00781A7C007D017BFF7A2379C07E007F0602
:10918E00125A949000207401F0A37400F0A3741A84
:10919E00F09000277401F0A3F0900020E0F9A3E016
:1091AE00FAA3E0900029C9F0A3EAF0A3E9F0A374B2
:1091BE0006F0A374F0F0A37404F0E4A3F07BB97A84
:1091CE0001FDFF128AB57BFF7A0579A17D307FF014
:1091DE0012C0BD7BFF7A0579B3E4900028F07D3094
:1091EE007FF112C0F47BFF7A0579D39000287401C9
:1091FE00F07D307FF212C0F47BFF7A0579DE7D3090
:10920E007FF312C0BD7BFF7A0679027D307FF412A8
:10921E00C0BD7BFF7A0679259000287402F07D3060
:10922E007FF512C0F47BFF7A06792C7D307FF60233
:02923E00C0BDB1
:10B21B00780D7C007D017BFF7A2379C67E007F0150
:10B22B00125A9490000E7401F0A37400F0A3740DE5
:10B23B00F09000277401F0A3F090000EE0F9A3E06A
:10B24B00FAA3E0900029C9F0A3EAF0A3E9F0A374F4
:10B25B0001F0A374F1F0A37403F0A374FFF07BBAB5
:10B26B007A01E4FDFF128AB57BFF7A0679527D30B5
:10B27B007FF012C0BD7BFF7A0679647D2C7FF112C3
:05B28B00C0BD028BA014
:10ACAC00780D7C007D017BFF7A2379C77E007F02C3
:10ACBC00125A9490000F7401F0A37400F0A3740D59
:10ACCC00F09000277401F0A3F090000FE0F9A3E0DE
:10ACDC00FAA3E0900029C9F0A3EAF0A3E9F0A37469
:10ACEC0002F0A374F1F0A37403F0A374FFF07B895A
:10ACFC007A22E4FDFF128AB57BFF7A0679717D30EA
:10AD0C007FF012C0BD7BFF7A0679877D2C7FF11214
:10AD1C00C0BD7BFF7A06798C7D2C7FF212C0BD0200
:02AD2C008BA0FA
:10B52C0090001E7401F0A3F0A374F1F0A37405F065
:10B53C007BB57AB2E4FDFF12B1BA7BFF7A06799142
:10B54C007D307FF012C0BD900107E07BFF70067A62
:10B55C000679A380047A0679A97D307FF112C0BDEB
:10B56C00900B1EE0FF7E007C017D04125AF9740FD3
:10B57C002FF974083EA801FC7D017B017A07790044
:0AB58C007E017F04125A94028BA086
:10B5960090001E7401F0A3F0A374F1F0A37405F0FB
:10B5A6007BB67AB2E4FDFF12B1BA7BFF7A0679B3B5
:10B5B6007D307FF012C0BD900107E07BFF70067AF8
:10B5C6000679A380047A0679A97D307FF112C0BD81
:10B5D600900B1EE0FF7E007C017D04125AF9740F69
:10B5E6002FF974083EA801FC7D017B017A077900DA
:0AB5F6007E017F04125A94028BA01C
:10A21000780D7C007D017BFF7A2379C97E007F0465
:10A22000125A949000117401F0A37400F0A3740DFD
:10A23000F09000277401F0A3F0900011E0F9A3E082
:10A24000FAA3E0900029C9F0A3EAF0A3E9F0A3740F
:10A2500004F0A374F1F0A37403F0A374FFF07B1770
:10A26000128AB07BFF7A0079CD7D307FF012C0BDBD
:10A270007BFF7A0679C57D2C7FF112C0BD7BFF7A0A
:10A280000679D27D2C7FF212C0BD7BFF7A0679DF82
:10A290007D2C7FF312C0BD7BFF7A0679EE7D2C7F8B
:07A2A000F412C0BD028BA007
:10A62300780D7C007D017BFF7A2379CD7E007F034B
:10A63300125A949000107401F0A37400F0A3740DE7
:10A64300F09000277401F0A3F0900010E0F9A3E06C
:10A65300FAA3E0900029C9F0A3EAF0A3E9F0A374F8
:10A6630003F0A374F1F0A37403F0A374FFF07BCDA4
:10A673007A01E4FDFF128AB57BFF7A0679FB7D3010
:10A683007FF012C0BD7BFF7A0779117D2C7FF11219
:10A69300C0BD7BFF7A07791E7D2C7FF212C0BD7B84
:0FA6A300FF7A0779277D2C7FF312C0BD028BA0B1
:10B8120090001E7401F0A3F0A374F1F0A37405F07C
:10B82200FB7A24E4FDFF12B1BA7BFF7A0779307DFF
:10B83200307FF012C0BD900107E07BFF70067A07EF
:10B84200794680047A0779507D2C7FF112C0BD9031
:10B852000B1EE0FF7E007C017D04125AF9740F2F4B
:10B86200F974083EA801FC7D017B017A0779007E0C
:09B87200017F04125A94028BA01C
:1081AE0090001E7402F0A314F0A374F1F0A37405F2
:1081BE00F07B067A24E4FDFF12B1BA7BFF7A0779D1
:1081CE005A7D307FF012C0BD7BFF7A07796CE49048
:1081DE00001FF07D307FF112C0E57BFF7A07797EBC
:1081EE0090001F7409F07D307FF212C0E57BFF7A9C
:1081FE0007799690001F7415F07D307FF312C0E55D
:10820E007BFF7A0779B090001F7421F07D307FF4E8
:10821E0012C0E57BFF7A0779CE90001F742DF07D9A
:10822E00307FF512C0E57BFF7A0779DB90001F7473
:10823E0031F07D307FF612C0E5900B1EE0FF7E0020
:10824E007C017D04125AF9740F2FF974083EA801AF
:10825E00FC7D017B017A0779007E017F04125A941E
:10826E0090001E7402F0A3F0A374F1F0A37405F055
:10827E007B067A247D017F0112B1BA7BFF7A0779E2
:10828E005A7D307FF012C0BD7BFF7A0779F99000DE
:10829E001F743DF07D307FF112C0E57BFF7A0879C7
:1082AE001A90001F7449F07D307FF212C0E5900BDA
:1082BE001EE0FF7E007C017D04125AF9740F2FF927
:1082CE0074083EA801FC7D017B017A0779007E01CE
:0882DE007F04125A94028BA0E8
:104FD500900010EFF060030252AA90001E7406F0D4
:104FE500A37401F0A374F1F0A37405F07B077A2490
:104FF500E4FDFF12B1BA7BFF7A0879317D307FF08D
:1050050012C0BD900107E0240F601A14601F1460E0
:105015000C240370257BFF7A08794380167BFF7A81
:1050250008794E800E7BFF7A08795980067BFF7AD6
:105035000879607D307FF112C0BD900108E0240E33
:10504500601314601824F4601C240E70257BFF7A0D
:1050550008796780167BFF7A087979800E7BFF7A5D
:1050650008798B80067BFF7A08799D7D307FF21267
:10507500C0BD900109E0240FB40700506090509026
:1050850075F003A4C58325F0C583730250A50250AE
:10509500AD0250B50250BD0250C50250CD0250D5EB
:1050A5007BFF7A0879AD802E7BFF7A0879BD802653
:1050B5007BFF7A0879CD801E7BFF7A0879DB801625
:1050C5007BFF7A0879EF800E7BFF7A0979018006EC
:1050D5007BFF7A0979137D307FF312C0BD7BFF7AA0
:1050E50009792B90001F7403F07D307FF412C0E521
:1050F5007BFF7A09793990001F7407F07D307FF5C1
:1051050012C0E57BFF7A09794D90001F740BF07D85
:10511500307FF612C0E5900B1EE0FF7E007C017D1E
:1051250004125AF9740F2FF974083EA801FC7D0189
:105135007B017A0779007E017F04125A9490001E44
:105145007406F0A37402F0A374F1F0A37405F07B68
:10515500077A247D017F0112B1BA7BFF7A08793184
:105165007D307FF012C0BD7BFF7A09796190001F09
:105175007411F07D307FF112C0E57BFF7A097979F2
:1051850090001F7415F07D307FF212C0E57BFF7A29
:1051950009798C90001F7419F07D307FF312C0E5FA
:1051A500900124E07BFF70067A09799E80047A09D4
:1051B50079AC7D307FF412C0BD7BFF7A0979BB9055
:1051C500001F742BF07D307FF512C0E57BFF7A0957
:1051D50079D190001F7433F07D307FF612C0E590D1
:1051E5000B1EE0FF7E007C017D04125AF9740F2F1F
:1051F500F974083EA801FC7D017B017A0779007EE0
:10520500017F04125A9490001E7406F0A37403F0F3
:10521500A374F1F0A37405F07B077A247D027F0265
:1052250012B1BA7BFF7A0879317D307FF012C0BDAB
:105235007BFF7A0979E790001F743BF07D307FF1A1
:1052450012C0E57BFF7A0A790090001F744BF07D50
:10525500307FF212C0E57BFF7A0A791890001F743F
:1052650050F07D307FF312C0E57BFF7A0A793090EC
:10527500001F7455F07D307FF412C0E57BFF7A0A7C
:10528500794C90001F745FF07D307FF512C0E57B8F
:10529500FF7A0A796590001F7469F07D307FF612F8
:1052A500C0E50254D9900010E0640160030254DCAB
:1052B50090001E7406F0A37404F0A374F1F0A374B7
:1052C50005F07B077A24E4FDFF12B1BA7BFF7A086B
:1052D50079317D307FF012C0BD7BFF7A0A797B90F2
:1052E500001F7473F07D307FF112C0E57BFF7A0AF1
:1052F500799490001F747AF07D307FF212C0E57BBF
:10530500FF7A0A79AB90001F747CF07D307FF31231
:10531500C0E5900199E024CFB40700506090533068
:1053250075F003A4C58325F0C58373025345025365
:105335004D02535502535D02536502536D02537579
:105345007BFF7A0A79CA802E7BFF7A0A79DE80266E
:105355007BFF7A0A79F2801E7BFF7A0B790680162D
:105365007BFF7A0B791B800E7BFF7A0B79308006E9
:105375007BFF7A0B79457D307FF412C0BD7BFF7AC8
:105385000B795B90001F7493F07D307FF512C0E5BB
:105395007BFF7A0B797490001F749CF07D307FF64B
:1053A50012C0E5900B1EE0FF7E007C017D04125AC1
:1053B500F9740F2FF974083EA801FC7D017B017A71
:1053C5000779007E017F04125A9490001E7406F03E
:1053D500A314F0A374F1F0A37405F07B077A247D80
:1053E500017F0112B1BA7BFF7A0879317D307FF0F8
:1053F50012C0BD7BFF7A0B798A90001F74A0F07DE7
:10540500307FF112C0E57BFF7A0B799B90001F740A
:10541500A8F07D307FF212C0E57BFF7A02795190CA
:10542500001F74B0F07D307FF312C0E57BFF7A0B6F
:1054350079AC90001F74B8F07D307FF412C0E57B25
:10544500FF7A0B79BD90001F74BEF07D307FF51299
:10545500C0E57BFF7A0B79CE90001F74C4F07D30D8
:105465007FF612C0E5900B1EE0FF7E007C017D04F7
:10547500125AF9740F2FF974083EA801FC7D017BBF
:10548500017A0779007E017F04125A9490001E74F8
:1054950006F0A3F0A374F1F0A37405F07B077A245A
:1054A5007D027F0212B1BA7BFF7A0879317D307FA8
:1054B500F012C0BD9001D1E0240E600B0470157B85
:1054C500FF7A0B79DE80067BFF7A0B79F07D307FE2
:0854D500F112C0BD128B792217
:105E1800900107E0600302611790001E7403F0A36D
:105E28007401F0A374F1F0A37405F07BCE7A01E459
:105E3800FDFF12B1BA7BFF7A0C79027D307FF01238
:105E4800C0BD7BFF7A0C79187D307FF112C0BD7B15
:105E5800FF7A0C792A90001F7401F07D307FF212CE
:105E6800C0E5900116E0125BD65ED4625E9C815E4E
:105E7800AC825ECC835E9E855EB4865ECC875EBC5B
:105E8800885EA0895EC4905EA2915EA4925ECC9565
:105E980000005EE180068004800280007BFF7A0CAF
:105EA8007948802E7BFF7A0C795880267BFF7A0C04
:105EB8007958801E7BFF7A0C795880167BFF7A0C04
:105EC8007958800E7BFF7A0C796880067BFF7A0C04
:105ED80079787D307FF312C0BD7BFF7A0C7988908A
:105EE800001F7410F07D307FF412C0E57BFF7A0C40
:105EF800799590001F7412F07D307FF512C0E590FF
:105F0800011BE014601314601824FE601C24047044
:105F1800257BFF7A0C79A280167BFF7A0C79B080FA
:105F28000E7BFF7A0C79BE80067BFF7A0C79CC7DDC
:105F3800307FF612C0BD900B1EE0FF7E007C017D15
:105F480004125AF9740F2FF974083EA801FC7D0158
:105F58007B017A0779007E017F04125A9490001E13
:105F68007403F0A314F0A374F1F0A37405F07BCECE
:105F78007A017D017F0112B1BA7BFF7A0C79027D2B
:105F8800307FF012C0BD7BFF7A0C79DC90001F7463
:105F980015F07D307FF112C0E57BFF7A0C79EF9028
:105FA800001F7417F07D307FF212C0E57BFF7A0D79
:105FB800790290001F7419F07D307FF312C0E57BE1
:105FC800FF7A0D791390001F741CF07D307FF41256
:105FD800C0E57BFF7A0D792390001F741EF07D3099
:105FE8007FF512C0E57BFF7A0D793590001F74228A
:105FF800F07D307FF612C0E5900B1EE0FF7E007C3E
:10600800017D04125AF9740F2FF974083EA801FC97
:106018007D017B017A0779007E017F04125A9490F2
:10602800011BE0640490001E70707403F0A3F0A3D9
:1060380074F1F0A37405F07BCE7A017D027F021221
:10604800B1BA7BFF7A0C79027D307FF012C0BD7B3C
:10605800FF7A0D794590001F7424F07D307FF1128E
:10606800C0E57BFF7A0D795990001F7426F07D30CA
:106078007FF212C0E57BFF7A0D796D90001F7428BE
:10608800F07D307FF312C0E57BFF7A0D79879000B1
:106098001F7432F07D307FF480487403F0A3F0A3BE
:1060A80074F1F0A37405F07BCE7A017D027F0212B1
:1060B800B1BA7BFF7A0C79027D307FF012C0BD7BCC
:1060C800FF7A0D794590001F7424F07D307FF1121E
:1060D800C0E57BFF7A0D795990001F7426F07D305A
:1060E8007FF212C0E5900B1EE0FF7E007C017D046C
:1060F800125AF9740F2FF974083EA801FC7D017B30
:10610800017A0779007E017F04125A940262349062
:10611800001E7402F0A314F0A374F1F0A37405F048
:106128007BCE7A01E4FDFF12B1BA7BFF7A0D79A12B
:106138007D307FF012C0BD7BFF7A0D79B37D307F53
:10614800F112C0BD7BFF7A0C792A90001F7401F010
:106158007D307FF212C0E57BFF7A0D79C590001F74
:10616800740FF07D307FF312C0E57BFF7A0D79D88C
:1061780090001F7419F07D307FF412C0E57BFF7A20
:106188000D79ED90001F741FF07D307FF512C0E58A
:106198007BFF7A0E790090001F7425F07D307FF622
:1061A80012C0E5900B1EE0FF7E007C017D04125AB0
:1061B800F9740F2FF974083EA801FC7D017B017A60
:1061C8000779007E017F04125A9490001E7402F031
:1061D800A3F0A374F1F0A37405F07BCE7A017D01DE
:1061E8007F0112B1BA7BFF7A0D79A17D307FF01261
:1061F800C0BD7BFF7A0E791590001F742BF07D309F
:106208007FF112C0E5900B1EE0FF7E007C017D044B
:10621800125AF9740F2FF974083EA801FC7D017B0E
:10622800017A0779007E017F04125A94128BA0220A
:106FAC0090001E7403F0A37401F0A374F1F0A374A9
:106FBC0005F07BCF7A01E4FDFF12B1BA7BFF7A0EAC
:106FCC00792D7D307FF012C0BD7BFF7A0E7945E4C0
:106FDC0090001FF07D307FF112C0E57BFF7A0E79B7
:106FEC006590001F740AF07D307FF212C0E57BFFC4
:106FFC007A0E798590001F7414F07D307FF312C0E7
:10700C00E57BFF7A0E79A790001F741EF07D307F10
:10701C00F412C0E57BFF7A0E79C990001F7428F03A
:10702C007D307FF512C0E57BFF7A0E79E390001F6F
:10703C007432F07D307FF612C0E5900B1EE0FF7EBF
:10704C00007C017D04125AF9740F2FF974083EA8C4
:10705C0001FC7D017B017A0779007E017F04125AC5
:10706C009490001E7403F0A314F0A374F1F0A374B5
:10707C0005F07BCF7A017D017F0112B1BA7BFF7ADB
:10708C000E792D7D307FF012C0BD7BFF7A0F790217
:10709C0090001F743CF07D307FF112C0E57BFF7ACD
:1070AC000F792190001F7446F07D307FF212C0E5FD
:1070BC007BFF7A0F794590001F7450F07D307FF381
:1070CC0012C0E57BFF7A0F796590001F745AF07D32
:1070DC00307FF412C0E57BFF7A0F798890001F7423
:1070EC0064F07D307FF512C0E57BFF7A0F79AC90B0
:1070FC00001F746EF07D307FF612C0E5900B1EE021
:10710C00FF7E007C017D04125AF9740F2FF974086C
:10711C003EA801FC7D017B017A0779007E017F048A
:10712C00125A9490001E7403F0A3F0A374F1F0A310
:10713C007405F07BCF7A017D027F0212B1BA7BFF1E
:10714C007A0E792D7D307FF012C0BD7BFF7A0F79DE
:10715C00D090001F7478F07D307FF112C0E57BFF7A
:10716C007A0F79F490001F7482F07D307FF212C098
:10717C00E57BFF7A10791990001F748CF07D307FBD
:10718C00F312C0E57BFF7A10793190001F7496F0F2
:10719C007D307FF412C0E57BFF7A10794990001F97
:1071AC0074A0F07D307FF512C0E5900B1EE0FF7EE1
:1071BC00007C017D04125AF9740F2FF974083EA853
:1071CC0001FC7D017B017A0779007E017F04125A54
:0471DC0094028BA0EE
:10853600780D7C007D017BFF7A2379D07E007F0851
:10854600125A949000157401F0A37400F0A3740DF0
:10855600F09000277402F0A314F0900015E0F9A340
:10856600E0FAA3E0900029C9F0A3EAF0A3E9F0A39A
:108576007406F0A374F1F0A37403F0A374FFF07B08
:10858600D07A01E4FDFF128AB57BFF7A1079677D08
:10859600307FF012C0BD7BFF7A1079797D2C7FF198
:1085A60012C0BD7BFF7A1079827D2C7FF212C0BD8E
:1085B6007BFF7A10798B7D2C7FF312C0BD7BFF7A0F
:1085C6001079987D2C7FF412C0BD7BFF7A1079A1BB
:1085D6007D2C7FF512C0BD7BFF7A1079A87D2C7F9C
:1085E600F612C0BD9000277402F0A3F0900015E0CB
:1085F600FBA3E0FAA3E02406F9E43AFA900029EB9B
:10860600F0A3EAF0A3E9F0A37402F0A374F1F0A3D7
:108616007403F0A374FFF07BD07A017D017F011211
:108626008AB57BFF7A1079677D307FF012C0BD7BFB
:10863600FF7A1079B37D2C7FF112C0BD7BFF7A10D3
:0C86460079C27D2C7FF212C0BD028BA017
:1076230090001E7402F0A314F0A374F1F0A3740588
:10763300F07B417A24E4FDFF12B1BA7BFF7A107923
:10764300CA7D307FF012C0BD7BFF7A1079DC9000D9
:107653001F7401F07D307FF112C0E57BFF7A107952
:10766300E990001F7402F07D307FF212C0E57BFFCA
:107673007A1079FD90001F740AF07D307FF312C0F9
:10768300E5900115E0240F601614601B146020249C
:10769300F46024240F702D7BFF7A11790D801E7BFB
:1076A300FF7A11792480167BFF7A117939800E7B5A
:1076B300FF7A11795080067BFF7A1179657D307FDF
:1076C300F412C0BD900116E0240F60131460182457
:1076D300F3601C240F70257BFF7A11797E80167B63
:1076E300FF7A117991800E7BFF7A1179A480067B52
:1076F300FF7A1179B57D307FF512C0BD900117E097
:10770300240F601314601824F3601C240F70257B6E
:10771300FF7A1179CA80167BFF7A1179DD800E7B9F
:10772300FF7A1179F080067BFF7A1279017D307F31
:10773300F612C0BD900B1EE0FF7E007C017D04129B
:107743005AF9740F2FF974083EA801FC7D017B01DF
:107753007A0779007E017F04125A9490001E740206
:10776300F0A3F0A374F1F0A37405F07B417A247DB8
:10777300017F0112B1BA7BFF7A1079CA7D307FF0A5
:1077830012C0BD7BFF7A12791690001F7411F07D31
:10779300307FF112C0E57BFF7A12792F90001F74BE
:1077A30017F07D307FF212C0E57BFF7A12794490A7
:1077B300001F741DF07D307FF312C0E57BFF7A124A
:1077C300795990001F7423F07D307FF412C0E57B5C
:1077D300FF7A0979BB90001F742BF07D307FF5127F
:1077E300C0E57BFF7A0979D190001F7433F07D30B7
:1077F3007FF612C0E5900B1EE0FF7E007C017D0446
:10780300125AF9740F2FF974083EA801FC7D017B0D
:0F781300017A0779007E017F04125A94028BA03C
:108F060090001E7401F0A3F0A374F1F0A37405F0B1
:108F16007B427A24E4FDFF12B1BA7BFF7A127972A2
:108F26007D307FF012C0BD900107E070757BFF7A3F
:108F36001079DC90001F04F07D307FF112C0E57BD4
:108F4600FF7A12798490001F7402F07D307FF2124E
:108F5600C0E57BFF7A12799690001F7405F07D308C
:108F66007FF312C0E5900114E0B4FF087BFF7A128C
:108F760079AA8012900114E07BFF70067A1279B804
:108F860080047A1279C87D307FF412C0BD7BFF7AE7
:108F960009794D90001F740EF07D307FF512C0E503
:108FA600800D7BFF7A1279DA7D307FF112C0BD9099
:108FB6000B1EE0FF7E007C017D04125AF9740F2F10
:108FC600F974083EA801FC7D017B017A0779007ED1
:098FD600017F04125A94028BA0E1
:1071E000900107E060030273A890001E7402F0A3F0
:1071F00014F0A374F1F0A37405F07B437A24E4FD4A
:10720000FF12B1BA7BFF7A1279EB7D307FF012C0AA
:10721000BD7BFF7A1079DC90001F7401F07D307F18
:10722000F112C0E57BFF7A13790190001F7402F020
:107230007D307FF212C0E57BFF7A09796190001FF3
:107240007409F07D307FF312C0E5900114E0146002
:107250000F2402601314701D7BFF7A137910800EC7
:107260007BFF7A13792580067BFF7A13793C7D308A
:107270007FF412C0BD7BFF7A13795190001F740E0A
:10728000F07D307FF512C0E57BFF7A1379689000BE
:107290001F7410F07D307FF612C0E5900B1EE0FFEA
:1072A0007E007C017D04125AF9740F2FF974083E98
:1072B000A801FC7D017B017A0779007E017F041221
:1072C0005A9490001E7402F0A3F0A374F1F0A3741A
:1072D00005F07B437A247D017F0112B1BA7BFF7AEE
:1072E0001279EB7D307FF012C0BD900121E024CFF8
:1072F000B40700506090730375F003A4C58325F0B4
:10730000C58373027318027320027328027330025C
:1073100073380273400273487BFF7A137987802E9B
:107320007BFF7A13799D80267BFF7A1379B3801EC9
:107330007BFF7A1379C980167BFF7A1379E0800E80
:107340007BFF7A1379F780067BFF7A14790E7D3004
:107350007FF112C0BD7BFF7A14792690001F741B49
:10736000F07D307FF212C0E5900138E014600F2408
:1073700002601314701D7BFF7A147941800E7BFF2D
:107380007A14795980067BFF7A1479717D307FF306
:1073900012C0BD7BFF7A14798790001F7432F07D94
:1073A000307FF412C0E5803490001E7401F0A3F029
:1073B000A374F1F0A37405F07B437A24E4FDFF127B
:1073C000B1BA7BFF7A1279EB7D307FF012C0BD7BC2
:1073D000FF7A1479A37D307FF112C0BD900B1EE0BF
:1073E000FF7E007C017D04125AF9740F2FF9740896
:1073F0003EA801FC7D017B017A0779007E017F04B4
:06740000125A94028BA059
:106D6700EF6003026FAB90001E7403F0A37401F091
:106D7700A374F1F0A37405F07B447A24E4FDFF12B9
:106D8700B1BA7BFF7A1479B87D307FF012C0BD7B32
:106D9700FF7A1079DC90001F7401F07D307FF112CB
:106DA700C0E57BFF7A1079E990001F740AF07D3007
:106DB7007FF212C0E57BFF7A0B798A90001F74126D
:106DC700F07D307FF312C0E57BFF7A1479CA90001B
:106DD7001F741AF07D307FF412C0E5900125E07B27
:106DE700FF20E0067A1479DD80047A1479EC7D308F
:106DF7007FF512C0BD900125E0541824F8601024D7
:106E0700F860142410701D7BFF7A1479FB800E7BC9
:106E1700FF7A15790A80067BFF7A1579197D307F0D
:106E2700F612C0BD900B1EE0FF7E007C017D0412B0
:106E37005AF9740F2FF974083EA801FC7D017B01F4
:106E47007A0779007E017F04125A9490001E74031A
:106E5700F0A314F0A374F1F0A37405F07B447A2433
:106E67007D017F0112B1BA7BFF7A1479B87D307F3B
:106E7700F012C0BD7BFF7A0B799B90001F741FF047
:106E87007D307FF112C0E57BFF7A15792690001FD0
:106E97007427F07D307FF212C0E5900132E07BFF6E
:106EA70020E0067A15793980047A1579487D307F94
:106EB700F312C0BD900132E0541824F8601024F892
:106EC70060142410701D7BFF7A157957800E7BFFA5
:106ED7007A15796680067BFF7A1579757D307FF4A0
:106EE70012C0BD7BFF7A02795190001F742CF07D90
:106EF700307FF512C0E57BFF7A15798290001F7409
:106F070034F07D307FF612C0E5900B1EE0FF7E0067
:106F17007C017D04125AF9740F2FF974083EA801F9
:106F2700FC7D017B017A0779007E017F04125A9468
:106F370090001E7403F0A3F0A374F1F0A37405F09E
:106F47007B447A247D027F0212B1BA7BFF7A1479DF
:106F5700B87D307FF012C0BD90013FE07BFF20E09D
:106F6700067A15799680047A1579A67D307FF11215
:106F7700C0BD90013FE0541824F8601024F8601455
:106F87002410701D7BFF7A1579B6800E7BFF7A156A
:106F970079C680067BFF7A1579D67D307FF212C0DD
:056FA700BD128B7922F0
:106B190090001E7402F0A314F0A374F1F0A374059D
:106B2900F07B457A24E4FDFF12B1BA7BFF7A15792F
:106B3900E47D307FF012C0BD7BFF7A1579F49000B7
:106B49001F7401F07D307FF112C0E57BFF7A167961
:106B59000190001F7402F07D307FF212C0E57BFFC7
:106B69007A16791390001F740AF07D307FF312C0F2
:106B7900E57BFF7A16792990001F7414F07D307F28
:106B8900F412C0E5900127E024CE601514601A14B0
:106B9900601F146024240470287BFF7A16794380CF
:106BA900267BFF7A167953801E7BFF7A16796380DC
:106BB900167BFF7A167973800E7BFF7A16798380AC
:106BC900067BFF7A16798E7D307FF512C0BD7BFF7B
:106BD9007A16799A90001F7421F07D307FF612C0E1
:106BE900E5900B1EE0FF7E007C017D04125AF974CA
:106BF9000F2FF974083EA801FC7D017B017A077902
:106C0900007E017F04125A9490001E7402F0A3F0D2
:106C1900A374F1F0A37405F07B457A247D017F010B
:106C290012B1BA7BFF7A1579E47D307FF012C0BDCD
:106C3900900134E024CE601514601A14601F1460AA
:106C490024240470287BFF7A16794380267BFF7AF7
:106C5900167953801E7BFF7A16796380167BFF7A3B
:106C6900167973800E7BFF7A16798380067BFF7A0B
:106C790016798E7D307FF112C0BD7BFF7A1679B40B
:106C890090001F742EF07D307FF212C0E590014113
:106C9900E024CE601514601A14601F1460242404C3
:106CA90070287BFF7A16794380267BFF7A16795301
:106CB900801E7BFF7A16796380167BFF7A167973BB
:106CC900800E7BFF7A16798380067BFF7A16798E90
:106CD9007D307FF312C0BD7BFF7A1679CE90001FFD
:106CE900743BF07D307FF412C0E590014EE024CE74
:106CF900601514601A14601F146024240470287B22
:106D0900FF7A16794380267BFF7A167953801E7B9A
:106D1900FF7A16796380167BFF7A167973800E7B6A
:106D2900FF7A16798380067BFF7A16798E7D307F0C
:106D3900F512C0BD900B1EE0FF7E007C017D0412A0
:106D49005AF9740F2FF974083EA801FC7D017B01E3
:0E6D59007A0779007E017F04125A94028BA003
:1097450090001E7401F0A3F0A374F1F0A37405F06A
:109755007B467A24E4FDFF12B1BA7BFF7A1679E8DD
:109765007D307FF012C0BD900107E070497BFF7A24
:109775001679FC90001F04F07D307FF112C0E59052
:10978500010AE0540314601214601714601C2403CA
:1097950070317BFF7A17790A80167BFF7A17791665
:1097A500800E7BFF7A17792280067BFF7A17792E48
:1097B5007D307FF2800A7BFF7A17793A7D307FF121
:1097C50012C0BD900B1EE0FF7E007C017D04125A85
:1097D500F9740F2FF974083EA801FC7D017B017A0D
:0D97E5000779007E017F04125A94028BA0C8
:10A7CF0090001E7401F0A3F0A374F1F0A37405F0D0
:10A7DF007B477A24E4FDFF12B1BA7BFF7A177945E4
:10A7EF007D307FF012C0BD900107E0702A7BFF7AA9
:10A7FF001079DC90001F04F07D307FF112C0E590DE
:10A80F00010AE07BFF70067A17795F80047A177967
:10A81F006B7D307FF2800A7BFF7A1779777D307FEF
:10A82F00F112C0BD900B1EE0FF7E007C017D041273
:10A83F005AF9740F2FF974083EA801FC7D017B01B2
:0EA84F007A0779007E017F04125A94028BA0D2
:10A85D0090001E7401F0A3F0A374F1F0A37405F041
:10A86D007B487A24E4FDFF12B1BA7BFF7A17798A0F
:10A87D007D307FF012C0BD900107E0702A7BFF7A1A
:10A88D001679FC90001F04F07D307FF112C0E59029
:10A89D00010AE07BFF70067A17799B80047A17799D
:10A8AD00B17D307FF2800A7BFF7A1779C77D307FCB
:10A8BD00F112C0BD900B1EE0FF7E007C017D0412E5
:10A8CD005AF9740F2FF974083EA801FC7D017B0124
:0EA8DD007A0779007E017F04125A94028BA044
:10876E00780D7C007D017BFF7A2379D87E007F080F
:10877E00125A949000157401F0A37400F0A3740DB6
